S015000052413850315F6775695F7370692E7372656374
S31502000000C003012205780402497604020F7804022D
S315020000100F7804020F7804020F7804020F780402A4
S315020000200000000000000000000000002546040257
S315020000300F780402000000003D460402A5460402B1
S315020000403D500402595104028951040271520402BC
S315020000503D500402595104028951040271520402AC
S31502000060495E0402D15F040201610402B561040221
S31502000070816C040295710402C5640402C56404021B
S31502000080E94A0402A95604022D5704028D570402B6
S315020000900000000701070207030704070501010024
S315020000A0090708070F040E04040105070830420079
S315020000B00331130003310300003000000430FF0057
S315020000C002301C000630C3000E3045002E300800F8
S315020000D0343018001F50000000433200183600006A
S315020000E012362900093752000C3703002038400027
S315020000F0213801003036360031360E003236E20043
S31502000100333612002136E0000437A00003375A00C6
S3150200011015377800173701000B37600005371A00CC
S31502000120053902000639100001390A00313712007A
S3150200013000360800013633002D30600020365200AA
S315020001401B3720001C475000133A4300183A0000A0
S31502000150193AF800353613003636030034364000B5
S3150200016022360100014002000440020005401A0046
S315020001700150A30003350700003500000135FF00DA
S31502000180023500000A3500000B3520000F3A300018
S31502000190103A28001B3A30001E3A2600113A600037
S315020001A01F3A1400183A0000193A7C00063400007F
S315020001B000340700013470000234040003340000E6
S315020001C0043405000534C00080540100815408003F
S315020001D082541400835428008454510085546500C7
S315020001E08654710087547D00885487008954910093
S315020001F08A549A008B54AA008C54B8008D54CD00B0
S315020002008E54DD008F54EA0090541D00805506007E
S315020002108355400084551000895510008A55000008
S315020002208B55F800005823000158140002580F009D
S3150200023003580F00045812000558260006580C00F1
S315020002400758080008580500095805000A5808000A
S315020002500B580D000C5808000D5803000E580000EC
S315020002600F580000105803001158090012580700D1
S3150200027013580300145800001558010016580300BD
S315020002801758080018580D00195808001A58050082
S315020002901B5806001C5808001D580E001E5829003F
S315020002A01F58170020581100215811002258150016
S315020002B023582800245846002558260026580800A8
S315020002C02758260028586400295826002A58240050
S315020002D02B5822002C5824002D5824002E58060094
S315020002E02F5822003058400031584200325824001C
S315020002F03358260034582400355822003658220036
S315020003003758260038584400395824003A582600EF
S315020003103B5828003C5842003D58CE000050A700EA
S3150200032020384600213800001438310015383100D3
S315020003300338040008380400093800000A380200AD
S315020003400B3858000C4622003748100024380200A9
S315020003500150A3003D50000041470000FFFFFF008F
S315020003600100000000000000000000000000000084
S31502000370000008000000000000000000000000006D
S31502000380000010080000000000000000000000004D
S31502000390D4D20E0284D30E0234D40E02E4D40E0258
S315020003A0D4D20E02D4D20E02D4D20E02D4D20E026D
S315020003B0000000000000000038D50E0288D50E02AB
S315020003C0D8D50E0228D60E0238D50E0238D50E0220
S315020003D038D50E0238D50E020000000000000000DB
S311020003E0010100000020344000283440D7
S315020003F0B0B503F0BDFD08B10C4903E003F00AFFF6
S3150200040090B10B490020002403F0A0FD094D2C7089
S3150200041023F09EFD0121686024F0D6F9686806493A
S31502000420BDE8B04024F0D7B90124EFE709970402EA
S3150200043077A00402000401223D040002B0B586B092
S315020004401D4D0C46287878B101A80DF103010DF176
S31502000450020203F0F7FE50B1A878FF2818D0411C1B
S31502000460A970022814D215E00020687013E000205B
S315020004709DF80310A8709DF8020039B1012802BF49
S31502000480BDF804100022B2EB912F0CD0042801D142
S3150200049000206870687884F82000D5E90201C4E972
S315020004A0090106B0B0BDBDF80620D3084A2BEDD827
S315020004B0C5E902120120ECE700040122D4D4D4D407
S315020004C088B1114901814FF0E73141600160002195
S315020004D0817505A191ED001F07A180ED120F91ED27
S315020004E0001F80ED8A0E7047010000000100000027
S315020004F001000000000000000500020020000500C7
S315020005000F00010003000200E7E7FFFFBCB5144637
S315020005100022ADF804201CB11D460BB11F2901D9DA
S315020005200120BCBDFF228DF806108DF807200DF1C3
S315020005300601022301AA00F004FD00D0BCBD9DF80D
S3150200054004009DF80510287000202170BCBD30B152
S31502000550D0F804C0BCF1000F01D00068604701204A
S3150200056070471CB51C460023ADF804300CB11F2998
S3150200057001D901201CBD41F020018DF806108DF82D
S31502000580072001AA02230DF1060100F0DAFC00D0D1
S315020005901CBD9DF80400207000201CBDFEB505465A
S315020005A00020ADF8040000903AB1089F2FB11C4616
S315020005B01BB1052C01D81F2901D90120FEBD41F02E
S315020005C020000DF106068DF8060011462246701C23
S315020005D048F00BF9631C6A462846314600F0B1FC26
S315020005E003D19DF8000038700020FEBD1CB58DF8C1
S315020005F0071000218DF806104AB114460DF10701C5
S315020006000DF10602012300F09CFC02D01CBD012064
S315020006101CBD9DF80600207000201CBD0A46FF2165
S31502000620FFF7E4BF13460A46014601204AB110B558
S3150200063012F08F0403D108460721FFF792FFBDE8A7
S31502000640104070470A46E121FFF7D0BF0A46E22171
S31502000650FFF7CCBF13460A461721FFF757BF7CB5F3
S3150200066005464FF66070ADF806000020ADF80400AE
S3150200067059B114464AB10E460DF1060101AA2846A1
S31502000680022300F05EFC02D07CBD01207CBD9DF8F9
S3150200069005109DF804002070317021293CBF00200E
S315020006A07CBD00F03DFC06207CBD2DE9F04391B0F7
S315020006B00D460746684621211E46144648F091F823
S315020006C01DB116B10CB1202C03D9012011B0BDE821
S315020006D0F08361200DF123098DF8230000F01AFC46
S315020006E0E846631C38464946424600F02AFCEDD1EC
S315020006F09DF8000008F1010122463070284648F0B4
S3150200070074F80020E2E72DE9F04192B00E46044665
S3150200071001A821211F46154648F063F836B1DDF8D7
S315020007206080B8F1000F18BF002D03D1012012B06E
S31502000730BDE8F081202DF9D86FF05F00002F0DF192
S31502000740270731462A4618BF6FF04F008DF827005B
S31502000750781C48F04AF86B1C01AA2046394600F07C
S31502000760F0FBE4D19DF8040088F800000020DEE7E3
S31502000770032901D3052901D90120704702391346FD
S31502000780CAB20321FFF7EDBE7D2901D901207047C8
S3150200079013460A460521FFF7E4BE022901D90120C4
S315020007A070477CB514460E460DF107020621054632
S315020007B000F0BAFB00B17CBD9DF80700022E20F0C6
S315020007C0280003D026B940F0200001E040F00800DE
S315020007D0C2B22846062100F09AFB7CBD032901D944
S315020007E0012070477CB514460E460DF1070206211C
S315020007F0054600F099FB00B17CBD9DF8071006F096
S315020008007F00234601F0F90141EA4002284606210B
S31502000810FFF7A7FE7CBD1CB521B11446032A01D3FE
S31502000820052C01D901201CBD0A460093102123463E
S31502000830FFF7B4FE1CBD052904D81AB1032B01D358
S31502000840052B01D90120704710B5029C012902949B
S3150200085088BF01230A31C9B2BDE81040FFF79EBE28
S31502000860BCB50C46054600F01BF808B10120BCBD1C
S315020008702868AA680021904700B1BCBD0DF10702A5
S315020008802846002100F050FB0028F6D19DF807000B
S315020008900021234600F0FD022846FFF762FEBCBD9A
S315020008A050B1416841B1816831B1016921B14069F4
S315020008B000285FEA1F90704701207047012901D97D
S315020008C001207047F8B516460D460446FFF7E8FFC5
S315020008D008B10120F8BD2068A268002190470028CF
S315020008E0F8D10DF10302204600213346FFF70EFE32
S315020008F00028EFD102209DF80370012D50EA1090D6
S3150200090007F0FC010A18BA4206D0204600213346F7
S31502000910FFF727FE0028DDD1B80703D420686269F5
S3150200092002219047012D09D12068A2680121904732
S315020009300028CFD120682269962190470020F8BD71
S3150200094059B32DE9FF4114461AB30546887A0E4675
S3150200095003281ED305281CD8F07A7D2819D8307BA7
S31502000960B8B1202815D8707B0F2812D8B07B0F2873
S315020009700FD8F07B02280CD8307C032809D8707C6B
S31502000980022806D8B07C012803D82846FFF788FF3C
S3150200099028B1012004B0BDE8F08101207047286823
S315020009A0AA68002190470028F4D128462146FFF77D
S315020009B057FF0028EED128462146FFF743FE0028BE
S315020009C0E8D100F0ADFA0028E4D100F0B0FA002830
S315020009D0E0D1B17A28462246FFF7CAFE0028D9D1CD
S315020009E0F17A28462246FFF7CFFE0028D2D1F17BC4
S315020009F028462246FFF7D1FE0028CBD1317C284675
S31502000A002246FFF7EBFE0028C4D1B27A28463146C9
S31502000A102346FFF700FF0028BCD1B37A721D284691
S31502000A2000210094FFF707FF0028B3D1F27C284685
S31502000A30012100F06CFA0028ACD1284602210122DD
S31502000A4000F065FA0028A5D1707BB17B234600F041
S31502000A500F0041EA001228460421FFF782FD002812
S31502000A6098D147F25032377D707DADF80C20B17DBA
S31502000A7023460022ADF80A2000284FEA87001CBF51
S31502000A800127062008431D215FFA80F828464246C0
S31502000A90FFF767FD00287FF47DAF0DF10F022846B0
S31502000AA01D2100F041FA00287FF474AF9DF80F0073
S31502000AB000F0070080450DD1FAB228461C2100F04D
S31502000AC026FA00287FF466AF307D08B9707D48B3F8
S31502000AD0002228E0D5F804C0BCF1000F3FF459AF5C
S31502000AE0286803A90DF10A020223E04700287FF4D1
S31502000AF051AF28461D21424600F009FA00287FF42C
S31502000B0049AF0DF10F0228461D2100F00DFA00280B
S31502000B107FF440AF9DF80F0000F007008045CBD070
S31502000B20072037E7327B2846112100F0F0F900282A
S31502000B307FF430AF707CF17C23460246002818BF52
S31502000B400822022808BF0C2242EAC100002100F056
S31502000B500C022846FFF705FD00287FF41BAF284646
S31502000B602146FFF76FFD00287FF414AF00F0D8F995
S31502000B7000287FF40FAF00F0DAF900287FF40AAFFD
S31502000B80B17C28462246FFF799FE03E72DE9F84392
S31502000B9001B30546002008700C460DF103020DF163
S31502000BA0010305212846FFF7B1FC88B99DF80370B9
S31502000BB07E210DF1010207F12500B0FBF1F1C1EB37
S31502000BC08111A0EB410828464146FFF7DDFD28B119
S31502000BD0064600E001263046BDE8F8830DF101091C
S31502000BE00DF10202284605214B46FFF78FFC064609
S31502000BF0284639464A46FFF7C7FD002EEBD19DF837
S31502000C0002101FFA88F088425FEA1F9000262070C1
S31502000C10E1E72DE9FC47044600208DF807008DF830
S31502000C20060099B1DDF82C80B8F1000F0ED01746F8
S31502000C3062B1202F0AD8DDF828A0BAF1000F05D03C
S31502000C4020461E460D46FFF72BFE10B10120BDE8D9
S31502000C50FC87002088F80400C8F800000DF107029E
S31502000C6000212046FFF72AFE28BB0DF10701204688
S31502000C70FFF7E8FCF8B90DF10709204670214A464C
S31502000C80FFF7D0FCB8B9204629463A463346CDF896
S31502000C900090FFF738FD70B92068A26801219047DD
S31502000CA048B9206822691E2190472068A26800215F
S31502000CB00027904708B1BDE8FC870DF107050DF145
S31502000CC00509BAF1000F1BD0E2688DF8057022B152
S31502000CD02068494690470028EDD120462946FFF76D
S31502000CE09DFC0028E7D19DF80760F00622D4B006E5
S31502000CF038D42068626901219047AAF1010AE0E727
S31502000D0020464146FFF78AFC0DF1070508F101026C
S31502000D1000F0F8F808F10202204600212B46FFF700
S31502000D20F5FB08F1030120462A46FFF793FC032050
S31502000D30BDE8FC870DF107050DF1060200F0E2F8A9
S31502000D40204610212A46FFF76DFC20462946FFF76A
S31502000D5079FC9DF8060088F8006088F801000420F6
S31502000D60BDE8FC870DF107050DF1060200F0CAF891
S31502000D709DF807009DF806102A4688F8000088F8B4
S31502000D8001102021C0F3801088F804002046FFF7E6
S31502000D9049FC0020BDE8FC872DE9FE4F8046002075
S31502000DA08DF80B008DF80A00F1B11646E2B1DDF8B6
S31502000DB034A0BAF1000F17D01D46ABB1032D13D8DC
S31502000DC00C9888B10F4630462A464AB10B685BB189
S31502000DD003784BB101300431013A202B04D8F4E7F1
S31502000DE04046FFF75DFD18B101242046BDE8FE8F9F
S31502000DF000208AF80400CAF80000002100F09CF8DE
S31502000E00904738B90DF10B09404630214A46FFF7A3
S31502000E1009FC08B10446E8E7AB46BBF1000F0DD06A
S31502000E2016F8012B02CF40460123CDF80090FFF7BA
S31502000E306AFCABF1010B0028EFD01BE000F07CF856
S31502000E4001219047B0B94FF4AF719620D8F810201F
S31502000E5015FB0101D8F80000904700F06DF800215B
S31502000E60904738B90DF10A010DF10B024046FFF722
S31502000E70F1FB30B104460DF10B014046FFF7E2FBF0
S31502000E80B3E79DF80B008AF800009DF80A008AF87D
S31502000E900300C00606D40DF10B014046FFF7D2FB54
S31502000EA00324A2E70DF10B0240462021FFF7BAFB0D
S31502000EB000249AE769B1F8B5144642B11D4633B12A
S31502000EC00E4629460746FFF7A9FB20B1F8BD0120C9
S31502000ED0F8BD012070470DF1030138462A46FFF797
S31502000EE0B9FB0028F2D19DF80300012121EA000096
S31502000EF030702878C0F34200052888BFFF20207092
S31502000F000020F8BD204608212B46FFF7FFBA2346EC
S31502000F10FFF727BB2146FF2209F1010047F05CBC1F
S31502000F2028462146FFF792BB2346FFF7EFBA28462B
S31502000F3070212246FFF776BBD8F80000D8F80820C1
S31502000F4070474DF808EDFFF702FB00285DF808EB45
S31502000F507047D4D4D4D4D4D42DE9F0438DB0564EB0
S31502000F60002040F202218DF80300B180C6E902009A
S31502000F70C6E90400C6E90600B07130604F484FF476
S31502000F80887147F02EFC4E484FF4087147F029FC51
S31502000F9006F120041821204647F023FC06F1380505
S31502000FA01821284647F01DFC02F046FB08B1022034
S31502000FB077E00020294602F091FB002871D101203A
S31502000FC021464FF0010902F089FB002869D1B0469B
S31502000FD0642158F8380FD8F81420904701AF3846E4
S31502000FE0FFF76EFA30A0BE468DF81A900DF11C0C72
S31502000FF090ED001F40F64C00ADF80F0087ED120F82
S315020010000220ADF81300BEE88F00ACE88F00A8F10D
S315020010103501BEF80000ACF800009EF802008CF81C
S31502001020020000208DF82E004046FFF7AFFD70B992
S3150200103018F8351CC9070AD001A90DF10302284682
S31502001040FFF77EFC00285FEA1F91717002E000281C
S3150200105008BF02207071B11C2046FFF797FD68B9E0
S31502001060B178C9070AD007A90DF103022046FFF796
S3150200107067FC00285FEA1F91317002E0002808BF72
S31502001080022030717078012806D102F0DBFB18B11C
S31502001090022070710020707071793079002950EA4F
S315020010A001800DB0BDE8F0830100000001000000E0
S315020010B00100000000000000400701221004012286
S315020010C02005012201480078704700BF400701222F
S315020010D001484078704700BF40070122BCB50F4B5C
S315020010E08DF8020040F2A510ADF800008DF803104D
S315020010F08DF80420100A8DF805009C798DF80640BB
S31502001100651C6C469D71204600F00AF88DF80700B2
S315020011102046082100F00EF8BCBD00BF40070122A0
S315020011200021072222B110F8013B013A5940F9E7A2
S31502001130C8B270472DE9F84318B10D4609B1202D02
S3150200114003D901242046BDE8F883DFF85480064619
S3150200115098F80000C00707D043F010FBD8F81070CB
S31502001160072F03D9082418E00224EBE7D8F80C90DD
S315020011700C4900242A4609EB091001F8105001EB2C
S31502001180400031464470023047F02FFB09F101015D
S31502001190781C01F00701C8E9031043F009FBD1E707
S315020011A040070122100401222DE9F04118B10C4634
S315020011B009B1202C03D901242046BDE8F081144E42
S315020011C005463078C00706D043F0D8FA3769072FAC
S315020011D003D9082419E00224EEE7D6F80C800D495B
S315020011E0224608EB081001F8104001EB40000121ED
S315020011F041700230294647F0F8FA08F1010100244D
S31502001200781C01F00701C6E9031043F0D1FAD3E7CF
S31502001210400701221004012290B32DE9F04788B05D
S3150200122082463F4D0020CAF800002878C00729D020
S315020012302F69002F70D0A868DFF8E89000EB001144
S3150200124009EB410898F8011001291DD1032F28BF87
S31502001250032703AA0DF1090300218F4236D046184F
S3150200126006F0070646EA061609EB46067478012CCE
S315020012702BD116F8024B40C2013103F8014BECE7C1
S3150200128001207047022048E041460DF11B0032233F
S31502001290CDE90030002605F12000002311F8022BCB
S315020012A0FFF7B7FCC8BB43F069FAA8682969A8F832
S315020012B0006001300139296100F00700A86043F09F
S315020012C077FA0120CAF8000026E00F460DF11B004E
S315020012D03221CDE90010FBB20DF1090205F1200021
S315020012E003A9FFF759FDC0B94FF000083E468EB17B
S315020012F043F044FAA86829690139296100EB001212
S31502001300013000F00700A86029F8128043F050FA75
S31502001310013EECE7CAF80070002008B0BDE8F0878D
S31502001320400701221004012210B543F027FA0348B0
S31502001330046943F03DFA204610BD00BF4007012272
S315020013402DE9F843074600208DF803008DF80200C8
S315020013508DF801008DF8000067B3154652B3994621
S3150200136043B30E4631B389F8000028702A48417803
S31502001370012923D100F1380869460DF102020DF167
S3150200138003034046FFF796FD0446A0B99DF8000008
S31502001390C00710D00DF101010DF103024046FFF71F
S315020013A05EF968B104460DF1030240464021FFF79B
S315020013B039F900E001242046BDE8F8830224FAE761
S315020013C09DF801201AB1202A01D896420CD20DF1BD
S315020013D0030440462146FFF739F94046402122469A
S315020013E0FFF720F90624E6E70DF1030340463946E6
S315020013F0FFF75BF904460028DDD10DF103024046F2
S315020014004021FFF70FF99DF8010000242870012002
S3150200141089F80000CFE700BF40070122B8B32DE9E3
S31502001420F84F0C46A9B34FF0000B05461D4FDFF8E7
S3150200143078A00DF102080DF10309C4F800B05DB3FE
S31502001440F8698DF803B08DF802B00F2827D8B8696D
S31502001450202142464B4600EB00100AEB4006B01C28
S31502001460FFF76EFFB0B99DF80300012814D19DF86D
S315020014700200013D3070D7E906010130013100F06A
S315020014800F00C7E90601206801302060D7E7012076
S3150200149070470120BDE8F88F0020BDE8F88F0820CC
S315020014A0BDE8F88F4007012220050122F8B12DE997
S315020014B0F8431546C2B11C46B3B1A9B1DFF8648040
S315020014C00346002028702070D8F81C7057B1D8F84F
S315020014D01460DFF854C006EB06101CF81020914287
S315020014E007D20620BDE8F8830120BDE8F883012073
S315020014F070470CEB4009184609F1020147F075F9ED
S3150200150099F80000287001202070781EC8F81C0087
S31502001510701C00F00F00C8F81400002089F80000C3
S31502001520BDE8F88340070122200501220148C0696F
S31502001530704700BF4007012268B10178A5290AD188
S315020015404178012907D110B5C479FFF7E9FD844234
S315020015505FEA1F9010BD00207047D4D470B50446D0
S3150200156000681949194E00F070FA194DA068002258
S3150200157023462946B0472069294600F066FAA06943
S31502001580294600F062FA206A294600F05EFAA06A4D
S31502001590104900F05AFA606B0F4900F056FA206EB5
S315020015A00E4900F052FAA06E0D4900F04EFA206F75
S315020015B00C4900F04AFAA06F0B4900222346B446B2
S315020015C0BDE87040604700BFED150002C3F103029B
S315020015D02D16000289160002251700027517000251
S315020015E0C117000261180002D118000280B51DF071
S315020015F0D0FD102816D123F0E1F823F066F9082869
S3150200160010D123F0DBF823F08AF90749002002F013
S315020016109DFC08200221012200F0CAF9BDE88040A3
S3150200162001F0E8BF80BD00BF6C8A0402F8B505462A
S315020016301DF0AFFD064628461DF0B1FD00F008FA82
S315020016400546012E06D00B2E1CBF032EF8BD002622
S315020016500C4F01E001260A4F2046294600F0BAF94E
S3150200166002460020394602F071FC2046294600F067
S31502001670D1F9024601203146BDE8F84000F098B99A
S31502001680F99A04020C9C040270B500F0E8F90A28E3
S3150200169006D120461DF083FD1A4E0446707800B12D
S315020016A070BD317881F00100307000294FF47F005F
S315020016B018BF4FF47F40A56A1DF0F2FA00F0BFF999
S315020016C030781149114A002851EA1281E06A12F073
S315020016D081F830780E490F4A002851EA1281206CAF
S315020016E012F078F830780D4A0B49002851EA128236
S315020016F00B4900F0B1F9327802200221BDE87040B0
S3150200170000F056B9920701222C970402E19F0402C7
S31502001710479E0402428D0402959504022F9D0402FF
S3150200172056A10402BFB500F09AF923281ED120461D
S315020017301DF035FD6D460446406B1022294611F018
S31502001740C0F8606C294612F045F8606B11F0A7F8F4
S315020017500246074900202B4602F0F8FB606B11F0A7
S315020017609EF882B20320022100F022F9BFBD00BF1B
S315020017707A960402B0B588B000F071F923281AD11E
S3150200178020461DF00CFD6D460446006E20222946B9
S3150200179014F08EF9206E14F089F9024607490020EA
S315020017A02B4602F0D3FB206E14F080F982B207209A
S315020017B0022100F0FDF808B0B0BD00BFF1940402AA
S315020017C0F8B505461DF0E5FC0A2818BFF8BD2846FF
S315020017D01DF0E5FC00F03CF91A4E0546717881F0E1
S315020017E001007070002918481CBF4AF2A110C0F20D
S315020017F0A1001DF055FA00F022F97078134D144F2E
S31502001800002855EA1781A06C11F0E4FF3078717850
S31502001810114AC0070F4850EA1282002950EA128183
S31502001820206C11F0D7FF70780C49002855EA178210
S3150200183000F012F9727804200221BDE8F84000F0A7
S31502001840B7B800BF92070122FFC51E00349D0402ED
S31502001850658B0402479E0402428D0402AE9E040278
S31502001860B0B500F0FCF80A2818BFB0BD20461DF03E
S315020018708EFC124D0446297881F001002870002959
S315020018800F481CBF4AF2A110C0F2A1001DF008FACF
S3150200189020F07F412046002241F052F928780A4A78
S315020018A00849002851EA1282084900F0D5F82A7838
S315020018B005200221BDE8B04000F07AB89007012267
S315020018C0FFC51E002E9A040219950402E59F040222
S315020018D070B505461DF05DFC0A2818BF70BD284686
S315020018E01DF05DFC00F0B4F8144E0546317881F027
S315020018F001003070002912481CBF4AF2A110C0F242
S31502001900A1001DF0CDF900F09AF830780D490E4A83
S31502001910002851EA1281A06D11F05CFF30780C4A62
S315020019200A49002851EA12820A4900F095F83278EB
S3150200193006200221BDE8704000F03AB89107012264
S31502001940FFC51E00479E0402428D040295950402BD
S315020019502F9D04024B9E04020346D0F884000249DE
S3150200196000223DF02EBC00BF6D19000280B51DF0AD
S3150200197010FC102816D122F021FF22F0A6FF04281F
S3150200198010D122F01BFF22F0CAFF0749002002F005
S31502001990DDFA08200221002200F00AF8BDE88040A4
S315020019A001F03ABE80BD00BF6C9804027047D4D4E1
S315020019B07CB516460C460546FFF790FB38B1CDE9D5
S315020019C00060034900202A46234602F0BFFA7CBD86
S315020019D096990402826891420CD0026991420BD018
S315020019E0826991420AD0006A084A094B814252EA48
S315020019F003807047024870470248704702487047A2
S31502001A0027970402299D0402D4990402F88F04023E
S31502001A10538E0402826891420BD0026991420AD027
S31502001A208269914209D0026A0020914208BF0220CF
S31502001A30704703207047042070470120704720F04A
S31502001A407F412846002241F07BB8002223463047D8
S31502001A50044628461DF09BBB002002F077BA0446D6
S31502001A601DF097BB017A022901D31EF0CDBA1EF0F2
S31502001A70C4BA80B53BF058FCBDE880401AF0E6BC1B
S31502001A8010B50446FFF7F5FF012084F8880020719F
S31502001A90204600F007F8D4F88400BDE810403BF079
S31502001AA035B9D4D42DE9F84F044600203CF0AAFA01
S31502001AB0DFF8FCA24FF480614FF41672C4F884007A
S31502001AC0D047D4F8840000213EF0CFFFD4F884003A
S31502001AD0DFF8E082FF210022C047DFF8DCB20020F7
S31502001AE0D4F88450D84700F0A4F941F029F8D4F884
S31502001AF084000021002241F034F8D4F884001FF05B
S31502001B00D3F9DFF8B89240F20D314FF4BC72C4F843
S31502001B108C00C847D4F88C0096219622D047D4F878
S31502001B208C0096211FF0CCF9A548D4F88C50D847E2
S31502001B3020F07F4128461FF0E0F96FF07F40D4F88D
S31502001B408C50D84720F07F4128461FF0DCF9D4F8A4
S31502001B508C009C4933221FF0DCF9D4F884009A49A0
S31502001B6088479C214FF4E672C4F89000C847D4F81F
S31502001B70900040F207211922D047D4F890009349E9
S31502001B80934A9047D4F89000924A00219047D4F89D
S31502001B909000914B00F04AF9D4F890008F4B00F078
S31502001BA045F96FF07F40D4F89060D84720F07F4126
S31502001BB08B4B304600229847D4F8900089498A4BCD
S31502001BC000229847D4F89000884BFF2100229847BC
S31502001BD0D4F89000864B00F029F9D4F89000854B92
S31502001BE000F024F9D4F89000834B02210022984792
S31502001BF0D4F8900000210022C047D4F890007F4B11
S31502001C0000F014F9D4F890007D4B00F00FF9D4F8E7
S31502001C1090007C4B00F00AF9D4F890007A4E00212D
S31502001C200022B047D4F89000784F00210022B8472E
S31502001C30D4F8840064498847702140F2F912C4F846
S31502001C409400C847D4F8940040F286211A22D3465B
S31502001C50D047D4F894005B495D4A9047D4F8940083
S31502001C6000215C4A904700F0D7F8DFF86C91C8472C
S31502001C7000F0D2F8DFF864A1D0476FF07F404E49FA
S31502001C80D4F89450884700F0D4F8554B9847D4F8C6
S31502001C90940054490022544B9847D4F89400FF21EB
S31502001CA00022524B984700F0B7F8514B984700F084
S31502001CB0B3F8504B9847D4F89400022100224E4BB9
S31502001CC0984700F0A9F8C04700F0A6F84B4B984792
S31502001CD000F0A2F84A4B984700F09EF8494B984705
S31502001CE000F09AF8B04700F097F8B847D4F88400A5
S31502001CF0354988474FF4D8712E22304BC4F89800E4
S31502001D009847D4F89800AD212022D847D4F89800F5
S31502001D103F492F4A9047D4F8980000212D4A904710
S31502001D2000F07FF8C84700F07CF8D0476FF07F409C
S31502001D302149D4F89850884700F07BF8284B9847F9
S31502001D40D4F8980033490022274B9847D4F89800D4
S31502001D50FF210022254B984700F063F8244B984751
S31502001D6000F05FF8234B9847D4F89800022100222E
S31502001D70214B984700F055F8C04700F052F81F4B28
S31502001D80984700F04EF81E4B984700F04AF81D4B54
S31502001D90984700F046F8B04700F043F8B847D4F841
S31502001DA084003DF063FD2046BDE8F84FFFF7D4BD41
S31502001DB03BF703024D2B0402A1EC0102E5F20302FA
S31502001DC024322C00CD9E0402BD3701028E8A040203
S31502001DD0D537010245390102A12B0402452C040222
S31502001DE0072C040260CB0B021D2C0402132C0402E6
S31502001DF0272C0402312C04023B2C0402192B040268
S31502001E00372B0402232B04022D2B0402B52B0402CA
S31502001E10019F0402E4980C02D4F8940000210022E7
S31502001E207047D4F898000021002270470021002252
S31502001E30184720F07F412846002270472DE9F84FC7
S31502001E400446DFF8E41F00208847DFF8E08F4FF4EE
S31502001E5080614FF416722060C0472068DFF8D02FE9
S31502001E60002190472068DFF8CC9FFF210022C84757
S31502001E70DFF8C4AF00202568D04720F07F41DFF8A5
S31502001E80BC6F28460022B0472068DFF8B47F0021E5
S31502001E900022B8472068DFF8AC1F8847DFF8A83F62
S31502001EA04FF437719522A0609847A06850215022BE
S31502001EB0C047A068DFF8941F8847DFF8941FDFF851
S31502001EC0942FE0609047E068DFF88C2F002190475E
S31502001ED0E068DFF8885F01F07BFBA847A068DFF8BF
S31502001EE0801F8847E068FD49DFF8782F9047A06891
S31502001EF080210022C8476FF07F40A568D04701F0D5
S31502001F0034FBB047A06801F06BFBF548A568D047E3
S31502001F1020F07F41DFF8503F284600229847A0680C
S31502001F20DFF8483F01F029FBA068DFF844BF01F063
S31502001F305AFBA068DFF83C8F01F01CFBA068DFF8B3
S31502001F40383F052100229847A068DFF8303F01F0AC
S31502001F5014FBE448A568D04720F07F41DFF8207FD4
S31502001F6028460022B847A068DFF8181FDFF8183F96
S31502001F7000229847A068DFF8143FFF210022984705
S31502001F80A068DFF80C3F0221002298472068DFF89C
S31502001F90B41E884740F28F319522DFF8AC3E2061AD
S31502001FA09847206950215022DFF8803E98472069E1
S31502001FB0DFF8981E8847DFF8DC1EDFF8982E60618E
S31502001FC0904760690021DFF8902E9047606901F022
S31502001FD0FFFADFF8885EA8472069DFF8841E884783
S31502001FE06069BE49DFF87C2E904720698221002273
S31502001FF0C847BD4825695646D04701F0B6FADFF80C
S315020020003C9EC847206902210022DFF834AED04741
S315020020106FF07F402569B04701F0A7FADFF8483E26
S315020020209847206900210022DFF8403E9847206940
S3150200203001F0D9FA206901F09DFA206905210022F2
S31502002040DFF8348EC047206900210022DFF82CBE5B
S31502002050D84700202569B04701F087FAB847DFF86C
S31502002060247E20690022DFF8203E394698472069FF
S31502002070FF210022DFF8143E984720690221002240
S31502002080DFF80C3E98472068DFF8B81D884740F213
S3150200209035313B22DFF8B03DA0619847A069502157
S315020020A05022DFF8883D9847A069DFF8A01D8847CF
S315020020B0DFF8E41DDFF89C2DE0619047E06900211E
S315020020C0DFF8942D9047E06901F082FADFF88C5D23
S315020020D0A847A069DFF8881D8847E0697F49DFF8CD
S315020020E0842D9047A06982210022DFF8483D984757
S315020020F06FF07F40A569B04701F037FAC847A0697B
S3150200210002210022D0477848A569B04701F02DFA8E
S31502002110DFF8543D9847A06900210022DFF84C3DC4
S315020021209847A069FF210022DFF8443D9847A0693D
S3150200213000210022DFF83CADD047A069052100222C
S31502002140C047A06900210022D8470020A569B047F0
S3150200215001F00BFADFF8283D9847A06939460022BC
S31502002160DFF8243D9847A069FF210022DFF81C3DD5
S315020021709847A06902210022DFF8143D984720689B
S31502002180DFF8C01C884740F23531EF22DFF8B83C51
S3150200219020629847206A50215022DFF8903C9847E7
S315020021A0206ADFF8A81C8847DFF8F01CDFF8A42CA9
S315020021B060629047606A0021DFF89C2C9047606A53
S315020021C001F006FADFF8945CA847206ADFF8901C53
S315020021D08847606A4149DFF88C2C9047206A7E2145
S315020021E00022DFF8507CB8476FF07F40256AB0477F
S315020021F001F0BBF9C847206A02210022DFF8403C01
S3150200220098473948256AB04701F0AFF9DFF8583CDC
S315020022109847206A00210022DFF8503C9847206A3E
S31502002220FF210022DFF8483C9847206A002100225D
S31502002230D047206A05210022C047206A00210022D9
S31502002240D8470020256AB04701F08FF9DFF8303C05
S315020022509847206ADFF82C1C0022DFF82C3C9847AE
S31502002260206AFF210022DFF8243C9847206A0221D7
S315020022700022DFF81C3C98472068DFF8C81B884715
S3150200228040F235319522DFF8C03BA0629847A06A3A
S3150200229050215022DFF8943B9847A06ADFF8AC1B26
S315020022A08847DFF8FC1BDFF8AC2BE0629047E06A58
S315020022B00021DFF8A42B9047E06A01F089F9DFF8E4
S315020022C09C5BA847A06ADFF8981B8847E06A034927
S315020022D0DFF8902B904700F009B800BF6400002099
S315020022E08888880002000D006F6F6F00A06AFF21C8
S315020022F00022B8474FF47F40A56AB04701F035F98E
S31502002300C847A06A00210022DFF8343B9847A06A3A
S3150200231000210022D047A06A192100225746C04751
S31502002320A06A03210022D847FC48A56AB04701F0FB
S315020023301CF940F053FCA06AFF21002240F054FC35
S31502002340A06A0021002240F044FCA06A012100227A
S3150200235040F035FCA06A0121002240F035FC002045
S31502002360A56AB04701F001F9DFF8143B9847A06A65
S31502002370DFF8301B0022DFF8103B9847A06AFF21E6
S315020023800022DFF8083B9847A06A02210022DFF804
S31502002390003B98472068DFF8901A884740F2E72109
S315020023A040F25912DFF8A0AA2063D047206BE6213B
S315020023B0D722DFF8783A9847206B0021DFF8702A97
S315020023C09047206B01F00CF9206BDFF8DC3AFF2115
S315020023D000229847D248256BB04720F07F41DFF8AC
S315020023E0CC3A284600229847206BDFF8C43A01F01F
S315020023F0C4F8206B01F0BEF84746206B4421002248
S31502002400DFF8308AC0476FF07F40256BB04701F096
S31502002410ACF8C847206B00210022DFF824BAD8475F
S31502002420206BDFF8903A01F0A8F8206BDFF8883AC3
S3150200243001F0A3F8206BDFF8843A01F09EF8206BD6
S31502002440DFF87C3A01F099F8206B00210022DFF8D0
S315020024502C3A9847206B10F05DF813213022606306
S31502002460D047606BC221DFF8FC299047606BDFF82A
S31502002470541A002210F05AF8606B05210022B84760
S31502002480606BFF210022C047A648656BB04701F08A
S315020024906CF8C847606B00210022D8476FF07F4076
S315020024A0656BB04701F061F8DFF8D4A93746D0472B
S315020024B0606BDFF8141A0022DFF8CC69B047606B54
S315020024C0FF210022DFF8C4B9D847606B022100223F
S315020024D0DFF8BC399847606B02210022DFF8943995
S315020024E09847606BFF210022DFF8BC3998478E4877
S315020024F0656BB84701F039F8DFF8B0399847606B79
S315020025000F210022DFF8A8399847606B00210022CC
S31502002510DFF8A8399847606B00210022DFF8A0395E
S315020025209847606B00210022DFF8683F9847606B8E
S3150200253038214FF48022C0476FF07F40656BB84761
S3150200254020F07F4128464FF48022C847606B002165
S315020025504FF48022DFF80C3F984749F2E670656B2C
S31502002560B84720F07F4128464FF48022D146D04713
S31502002570606BDFF8501F4FF48022B047606BFF217B
S315020025804FF48022D847606B042110F063F9206B68
S31502002590DFF8DC1E884745211322DFF8D0AEA063A0
S315020025A0D047A06B64212022DFF8A43E9847A06B97
S315020025B0DFF8141FDFF8BC2E9047A06B0021DFF86E
S315020025C0B82E904701F000F8DFF8C03E984700F0B9
S315020025D0FBFFDFF8BC3E98476FF07F40A56BB8471C
S315020025E000F0C3FFC847A06BDFF8E01E0022B04729
S315020025F0A06B00F0F8FFA06BDFF8D43E00F0BDFF41
S31502002600A06BDFF8D03E00F0B8FFA06B02210022DB
S31502002610DFF8903E984700F0D7FFDFF83C7EB847D8
S3150200262000F0D2FFDFF88CBED84700F0CDFFDFF80E
S31502002630903E984700F0C8FFDFF87C6EB04700F086
S31502002640C3FFDFF8788EC04700F0BEFFDFF8443ED6
S3150200265098472068DFF8F41D8847422140F2591254
S31502002660E063D047E06B4FF42071D722DFF8E03DFC
S315020026709847E06B0021DFF8DC2D9047E06B0221E2
S315020026800022DFF8083E9847E06BFF210022DFF8C0
S31502002690183E98472248DFF8C49DE56BC84700F00C
S315020026A064FFDFF8083E984700F096FFDFF8003E29
S315020026B0984700F091FFDFF8D83D9847E06B4B2131
S315020026C00022B8476FF07F40E56BC84700F04DFF28
S315020026D0DFF88C7DB84700F07FFFDFF8883D98472A
S315020026E000F07AFFD84700F077FFB047E06B00F0C2
S315020026F041FF00F071FFDFF8C88DC04700F06CFFA4
S31502002700DFF8903D9847E06BDFF8641D8847962115
S315020027106E222064D047206C00F008B83B4B0D00B7
S31502002720F6952100252525005B5B5B00DC2128222E
S31502002730DFF81C3D9847206CDFF89C1DDFF8342D2E
S315020027409047206C0021DFF8302D904700F038FFCB
S31502002750DFF8383D984700F033FFDFF8343D9847FD
S315020027600020256CC84700F000FFDFF82C3D984793
S31502002770206CDFF8681D0022DFF820BDD847206CE8
S31502002780FF210022DFF8183D984700F019FFDFF815
S31502002790403D984700F014FFDFF8383D9847206C1B
S315020027A002210022DFF8FC3C9847206C812100229E
S315020027B0DFF8A4ACD0476FF07F40256CC84700F025
S315020027C0D4FE4E46B84700F0FBFEDFF8987CB847C9
S315020027D0206C0A210022DFF8DC9CC847206C00F03E
S315020027E0C9FE00F0EDFEDFF8D08CC04700F0E8FE2F
S315020027F0DFF8C83C984700F0E3FEDFF8983C9847BC
S31502002800E06BDFF86C1C884796213C22DFF85C3CC3
S3150200281060649847606CDC212822DFF8343C9847D4
S31502002820606CDFF8BC1CDFF84C2C9047606C002112
S31502002830DFF8442C904700F0BFFEDFF8503C984783
S3150200284000F0BAFEDFF8483C98470020656CB047B6
S3150200285000F08BFEDFF8403C9847606CDFF87C1C8A
S315020028600022D847606CFF210022DFF8343C9847EB
S3150200287000F0A2FEDFF8583C984700F09DFEDFF814
S31502002880543C9847606C02210022DFF8183C9847B6
S31502002890606C80210022D0476FF07F40656CB047A4
S315020028A000F063FEDFF8B83B984700F085FEB847B4
S315020028B0606C0A210022C84700F07EFEDFF8009C09
S315020028C0C847606C00F056FE00F076FEDFF8EC3B7F
S315020028D0984700F071FEDFF8BC3B9847E06BDFF8E3
S315020028E0901B884796210A22DFF8803BA06498470E
S315020028F0A06CDC212822DFF8583B9847A06CDFF851
S31502002900E41BDFF8702B9047A06C0021DFF8682BE0
S31502002910904700F04DFEDFF8743B984700F048FE02
S31502002920DFF86C3B98470020A56CB04700F01DFE0F
S31502002930DFF8643B9847A06CDFF8A01B0022D8475B
S31502002940A06CFF210022DFF858ABD04700F030FE22
S31502002950DFF87C8BC04700F02BFEDFF8783B984708
S31502002960A06C02210022DFF83C7BB847A06C8021D4
S315020029700022DFF8E43A98476FF07F40A56CB04733
S3150200298000F0F3FDDFF8D83A984700F011FEDFF8C1
S31502002990D43A9847A06C0A210022DFF8183B9847E0
S315020029A000F006FEC84700F003FEDFF80C3B98472E
S315020029B000F0FEFDDFF8043B984700F0F9FDDFF872
S315020029C0D43A9847E06BDFF8A81A884719210A22F9
S315020029D0DFF8983AE0649847E06C64212822DFF831
S315020029E0703A9847E06CDFF8001BDFF8882A9047B8
S315020029F0E06C0021DFF8802A904700F0D5FDDFF871
S31502002A008C3A984700F0D0FDDFF8843A98470020C8
S31502002A10E56CB04700F0A9FDDFF87C3A9847E06C18
S31502002A20DFF8B81A0022D847E06C00F0DFFDE06C50
S31502002A3000F0A0FD00F0B8FDDFF8983A9847E06C88
S31502002A4000F0CEFDE06C82210022DFF80C3A9847B6
S31502002A506FF07F40E56CB04700F087FDDFF8003A83
S31502002A60984700F0A1FDDFF8FC399847E06C0A218F
S31502002A700022DFF8403A984700F096FDC84700F07A
S31502002A8093FDDFF8348AC04700F08EFDDFF82C3A5A
S31502002A90984700F089FDDFF8FC399847E06BDFF8CC
S31502002AA0D019884719216E22DFF8C0392065984768
S31502002AB0206D64212822DFF898399847206DDFF8C7
S31502002AC02C1ADFF8B0299047206D0021DFF8A829DB
S31502002AD0904700F059FDDFF8B439984700F054FDED
S31502002AE0DFF8AC3998470020256DB04700F03DFD70
S31502002AF0DFF8A499C847206DDFF8E0190022D8470D
S31502002B00206D00F073FD00F03FFDDFF8C4399847F1
S31502002B1000F03AFDDFF8BC399847206D00F060FD01
S31502002B20206D82210022DFF8303998476FF07F400E
S31502002B30256DB04700F019FDDFF82439984700F0FB
S31502002B4023FDDFF82039984700F01EFDDFF86439CF
S31502002B50984700F019FDDFF868399847206D00F0B4
S31502002B6009FD00F011FDDFF85439984700F00CFD1D
S31502002B70DFF820399847E06BDFF8F488C04719215F
S31502002B803C22DFF8E83860659847606D64212822A8
S31502002B90DFF8BC389847606DDFF85419DFF8D4289F
S31502002BA09047606D0021DFF8D028904700F0F4FCD2
S31502002BB0DFF8D838984700F0EFFCDFF8D4389847AA
S31502002BC00020656DB04700F0D0FCC847606DDFF8A5
S31502002BD00C190022D847606D00F008FD00F0DCFCFD
S31502002BE0DFF8EC38984700F0D7FCDFF8E83898476A
S31502002BF0606D00F0F5FC606D82210022DFF8583826
S31502002C0098476FF07F40656DB04700F0AEFCDFF885
S31502002C105038984700F0C0FCDFF848389847606D96
S31502002C200A210022DFF88C38984700F0B5FCDFF85D
S31502002C309038984700F0B0FCDFF87CA8D04700F047
S31502002C40ABFCDFF87838984700F0A6FCDFF844388A
S31502002C509847E06BC0479621A022DFF81078A0655E
S31502002C60B847A06DDC212822DFF8E497C847A06D9B
S31502002C70DFF86418DFF8FC279047A06D0021DFF823
S31502002C80F827904700F084FCDFF80038984700F0F8
S31502002C907FFCDFF8FC3798470020A56DB04700F0AF
S31502002CA064FCDFF8F4379847A06DDFF8301800228D
S31502002CB0D847A06DFF210022DFF8E487C04700F065
S31502002CC067FCDFF80C38984700F062FCDFF804383E
S31502002CD09847A06D02210022DFF8C8379847A06DF9
S31502002CE081210022DFF8703798476FF07F40A56D8B
S31502002CF0B04700F03AFCDFF86837984700F048FC26
S31502002D00DFF860379847A06D0A210022DFF8A43762
S31502002D10984700F03DFCDFF8A837984700F038FCEA
S31502002D20D04700F035FCDFF89437984700F030FCC6
S31502002D30DFF860379847E06BDFF8341788471921C8
S31502002D40A022E065B847E06D64212822C847E06DFD
S31502002D50DFF8A017DFF81C279047E06D0021DFF8A7
S31502002D601827904700F00CFCDFF82037984700F050
S31502002D7007FCDFF81C3798470020E56DB04700F0E6
S31502002D80F4FBDFF8143737469847DFF85017E06D43
S31502002D9000220E46D847E06DFF210022C04700F010
S31502002DA0EFFBDFF82C37984700F0EAFBDFF8243711
S31502002DB09847E06D02210022DFF8E8369847E06D79
S31502002DC082210022DFF8903698476FF07F40E56D4A
S31502002DD0B84700F0CAFBDFF88836984700F0D0FB08
S31502002DE0DFF88036984700F0CBFBDFF8C896C84775
S31502002DF000F0C6FBDFF8C8A6D04700F0C1FBDFF83B
S31502002E00B836984700F0BCFBDFF8B086C04700F042
S31502002E10B7FBDFF880369847E06B12F08FFD4FF470
S31502002E20FF710A2200F052B805E003023BF70302E3
S31502002E306B0A04024D2B0402A1EC0102412B04028F
S31502002E40632B0402698E0102E5F20302BD37010219
S31502002E5013930402D53701024539010217F9030219
S31502002E603D35000251F70302572B04026D2B040273
S31502002E70772B0402A12B0402452C0402B52B040273
S31502002E80072C040240230D021D2C0402132C0402FB
S31502002E903B2C040293A004023F9C0402B297040254
S31502002EA0E19F0402D81F0C02972B04028B2B04020B
S31502002EB0AB2B0402192B0402232B04022D2B040232
S31502002EC0372B0402B697040294D70A02DFF89C3520
S31502002ED020669847206E6E212822DFF874359847BF
S31502002EE0206EDFF8141612F035FDEC48256EB84751
S31502002EF000F03BFBDFF8A0359847206E31460022F2
S31502002F00D847206EFF210022DFF894359847206EBD
S31502002F1001210022DFF874359847206EFF21002236
S31502002F20DFF884359847DE48266E8346B84720F098
S31502002F307F4130460022DFF874359847206E0F2114
S31502002F400022DFF86C359847206E0A210022C84716
S31502002F50206E06210022C047206E06210022D0479D
S31502002F60206E03210022DFF828359847206E822141
S31502002F700022DFF8E43498476FF07F40266EB847A8
S31502002F8020F07F4130460022DFF8D4349847206E85
S31502002F9000210022DFF8CC349847206E002100225F
S31502002FA0DFF8F0349847DFF85495DFF85455484671
S31502002FB0A847484601211DF0BCF94846FF211DF0ED
S31502002FC0B4F95846B84720F07F4148461DF0A8F9A3
S31502002FD048460F211DF0B1F9DFF82865484603215E
S31502002FE0B047DFF824254846FF2190474AF2B5103C
S31502002FF0B84720F07F41DFF814254846B846904787
S31502003000DFF80C25484600219047206EDFF80415AC
S315020030108847DFF8043549464FF00412984709F10C
S315020030200C073846A84738465A211DF03BF99B48FB
S31502003030C04720F07F4138461DF0C3F9DFF8DC14A3
S3150200304038461DF0C7F93846FF211DF0BFF938464C
S3150200305001211DF06EF93846FF211DF066F958462A
S31502003060C04720F07F4138461DF05AF938460F21F5
S315020030701DF063F938460321B0473846FF21DFF8D1
S3150200308088A4D0476FF07F40C04720F07F41384682
S31502003090DFF87884C04738460021DFF874B4D84791
S315020030A0206EDFF87014884739460022DFF868740C
S315020030B0B84709F11805DFF8481428468847284614
S315020030C00321B0472846FF21D0474FF47F40DFF85F
S315020030D08C63B04720F07F412846C047284600212E
S315020030E0D847206EDFF82C14884729464FF48032E1
S315020030F0B847E06BDE49884740F287110A22DFF8BB
S315020031006C936066C847606E64212822DFF84083AC
S31502003110C047606EDFF80814D64A9047606E0021F9
S31502003120D54A904700F03CFAD84B984700F038FA57
S31502003130D74B98470020656EB04700F016FAD64B7B
S315020031409847606EDFF894130022D44B9847606E5E
S31502003150FF210022D24B984700F022FADC4B984717
S3150200316000F01EFADB4B9847606E02210022CD4B1F
S315020031709847606E82210022DFF8DCA2D0476FF00A
S315020031807F40656EB04700F0F0F9DFF8D4B2D84759
S3150200319000F006FADFF8CC82C047606E0A210022F0
S315020031A0C44B984700F0FCF9C54B984700F0F8F974
S315020031B0C14B984700F0F4F9C04B984700F0F0F97C
S315020031C0B44EB0472068A849884742213B22A066F0
S315020031D0C847A06E642132229D4B9847A06EA4492F
S315020031E08847D049A34AE0669047E06E0021A24A8A
S315020031F09047E06E00F0ECF9A04DA847A06EA049FA
S315020032008847E06E9F49A04A9047A06E00F0EEF90B
S31502003210C548924FA56EB84700F0A7F9D847A06EE9
S3150200322000F0A8F9A06E00210022984B9847A06EE4
S3150200323005210022DFF85892C847A06E002100221D
S31502003240B0476FF07F40A56EB84700F08EF9924EF8
S31502003250B047A06EB5490022DFF840A2D047A06E63
S31502003260FF210022DFF838B2D847A06E02210022E1
S31502003270DFF83082C04720687B49884742218F2287
S31502003280DFF8E8912067C847206F64213222704E2A
S31502003290B047206F7649884700F004B855300D00D4
S315020032A0EEE6E100A249734A60679047606F00212B
S315020032B0714A9047606F00F08BF9704DA847206FF6
S315020032C06F498847606F6F496F4A9047206FFF21A9
S315020032D00022614B98479448256FB84700F045F99C
S315020032E05F4B9847206F002100225E4B9847206F64
S315020032F000210022654B9847206F05210022644B6E
S315020033009847206F00210022624B98476FF07F405A
S31502003310256FB84700F029F95F4B9847206F83491C
S315020033200022D047206F00F05EF9206F02210022B2
S31502003330C04720684C4988474221E022A067C84717
S31502003340A06F64213222B047A06F49498847794964
S31502003350484AE0679047E06F0021474A9047E06F8E
S3150200336000F036F9454DA847A06F45498847E06FFA
S315020033704449454A9047A06FFF210022364B9847A1
S315020033806948A56FB84700F0F0F8354B9847A06F2B
S3150200339000210022334B9847A06F002100223B4BAD
S315020033A09847A06F05210022394B9847A06F00214C
S315020033B00022384B98476FF07F40A56FB84700F060
S315020033C0D4F8354B9847A06F58490022D047A06FD2
S315020033D000F009F9A06F02210022C047206811F00F
S315020033E0ABFCD4212F22C4F88000C847D4F8800051
S315020033F04FF4F0714FF48872B047D4F8800002217E
S315020034003AF00EFED4F880004B4911F0A1FCD4F834
S3150200341080003221322211F037FED4F880000021DA
S3150200342011F0AEFDD4F88000002100223FF0E6FB49
S31502003430D4F88000FF2100223FF0DBFB20683CF03D
S3150200344015FA2046BDE8F84FFEF788B805E00302F4
S315020034503BF703026B0A04024D2B0402A1EC0102A4
S31502003460412B0402632B0402698E0102E5F2030278
S31502003470BD370102D53701024539010217F90302A8
S315020034803D3500026400002051F70302A12B04021D
S31502003490452C0402B52B0402072C04021D2C04023F
S315020034A0132C04023B2C0402972B04028B2B0402DE
S315020034B0AB2B0402192B0402232B04022D2B04022C
S315020034C0372B0402E09B0A02C28F0402B8810B0268
S315020034D0272C0402312C0402428D040260CB0B021B
S315020034E003A00402658B0402478D04029995040227
S315020034F0B58A0402439C0402A3960402940701229D
S31502003500651A0002ED030202FF020202F50202023E
S3150200351011030202995A0102AD1A0402F4170B02B0
S31502003520B59604024D8D0402A1A1A10038440B02F6
S31502003530BB96040231970402C49B0A0210B500210D
S31502003540002204463FF0F2FA2046002100223FF014
S31502003550F2FA2046002100223FF0DEFA2046002140
S315020035600022BDE810403FF0DCBA20F07F41284639
S3150200357000227047002100224047002100221847FE
S31502003580E06D002100227047206D00210022704765
S31502003590A06D002100227047606D00210022704755
S315020035A0606E002100227047E06C00210022704705
S315020035B0A06C002100227047606C00210022704737
S315020035C0206C002100227047A06B00210022704768
S315020035D00921002200237047E06B00210022704778
S315020035E0022100223847FF2100225847FF210022EC
S315020035F05047D4D410B539F08DFE3FF050FB054C40
S315020036002046FEF74FFAD4F88400BDE8104039F0A0
S315020036107DBB00BFA04F022210B539F07BFE3FF002
S315020036203EFB044C2046FEF709FC2068BDE810402C
S3150200363039F06CBBA04F02222DE9F041204800214F
S315020036408160C16001614161017081614170C0F8B0
S315020036500210C1611B481C4941F0A4FA08B1054693
S3150200366008E01A481A4941F09DFA30B10546154854
S3150200367041F0CAFB2846BDE8F08116480326DFF86A
S31502003680588000F10C07013E18D037F8021C40465C
S31502003690042242F0B9F80028E1D117F80C0C1022E6
S315020036A007F10E04002808BF44F21002398840468A
S315020036B042F0AAF800282746E5D0D0E70025D9E748
S315020036C0B807012258BF1822A8C80E0228BF18221E
S315020036D068C80E0250000022B4BE182209B10128A1
S315020036E001D901207047F0B5C0EBC0000C4F0B4E5C
S315020036F0064A074B074C084DC1E90254C1E9043298
S3150200370007EB4000C1E900060020F0BD393800028F
S3150200371031380002F9370002D53700022537000298
S315020037205000002210B309B302B3FBB12DE9F843EE
S3150200373090F80090DFF890800020254C072504F1D0
S31502003740080708EB0906B9F1000FB07030711F487F
S3150200375008BF00F1080750EA04803F68FF68009539
S315020037600068B84720B10146022026E001207047D2
S3150200377041F2883408F1140744B1B078012808D020
S315020037800120012143F024FF013CF5E70320142127
S3150200379010E03079012814D1D8F8080008F1100792
S315020037A00130C8F80800B9F1000F08BF08F10C078C
S315020037B0002100203A6801323A60C8F81810BDE8C4
S315020037C0F8830220BDE8F883B8070122CCC80E02AE
S315020037D08CC80E0258B180B50A464189054842F0A6
S315020037E071F8002818BF0220BDE8804000E00120E1
S315020037F0C0B27047B4BE182258B11CB50C4651B1BE
S3150200380081890A480DF1070242F04CF828B10220DC
S315020038101CBD0120704701201CBD9DF80700002831
S315020038205FEA1F90207000201CBD00BFB4BE1822A4
S315020038300846012143F0CCBE08464FF47A7143F0A4
S31502003840C7BED4D4BCB5134D002014496870E861D4
S31502003850114842F0BBFD0446C8B90F4842F0F8FDD4
S3150200386020B104460C4842F00DFE10E001208DF80E
S3150200387007000DF107020A4881890A4842F012F848
S3150200388020B99DF8070008B9012068700024204677
S31502003890BCBD00BFB807012284BE182204C70E02AF
S315020038A050000022B4BE182260B10122EFF310814B
S315020038B082F31088044A537803700020507081F313
S315020038C01088704703207047B80701220148C06973
S315020038D0704700BFB807012228B103490079087072
S315020038E00871012088707047B807012228B1034980
S315020038F00079087048710120C8707047B807012224
S315020039000348C1690131C16101214170704700BF9D
S31502003910B807012210B5144CA821204644F061FFD5
S3150200392003201349206160611048A061E1614FF4F0
S31502003930806121620021A1626162E16220660D4816
S3150200394060661020A0662167E16661670A49BFF3D7
S315020039505F8F0F3128B111F80129013804F8012BC4
S31502003960F8E7BFF35F8F10BDD80701228D980402D6
S3150200397080080122800C012264BD0E02C268016920
S3150200398091428FBFD043D2431144806808447047A6
S315020039902DE9F0410446884640681546D4E90216E8
S315020039A08F1B3044BA4207D241462A4644F01DFFD5
S315020039B03544BFF35F8F0CE041463A4644F015FFAB
S315020039C0ED1B08EB070160682A4644F00EFFBFF3C1
S315020039D05F8FE560BDE8F0812DE9F84314460D4698
S315020039E08046C7684FF00009D8F81000F943B8427C
S315020039F00844D8F8081098BF0844C91B884250EA00
S31502003A0031802946A04250EA3486D8F80400384468
S31502003A10324644F0EAFED8F80810F0193544B144AB
S31502003A20BFF35F8F411A50EA1187A41BC8F80C70C6
S31502003A30DAD14846BDE8F88370B500EB40000D4682
S31502003A401149144601EBC00000F11806C06A0228AB
S31502003A5013D0012807D020B93046FFF78FFFA042C6
S31502003A6007D2002407E03046FFF788FFA04250EA5B
S31502003A70348400F04AF8204670BD30462946224674
S31502003A80BDE87040FFF7A8BFD8070122F8B5064681
S31502003A900A4814460D460078532801D0FFF73AFF2C
S31502003AA0EFF311874FF0200181F311883046224649
S31502003AB02946FFF7C1FF87F31188F8BDD80701220F
S31502003AC070B50D4E00F01CF801D0FFF723FF022D52
S31502003AD084BF4FF0FF3070BD05EB4500EFF3118256
S31502003AE04FF0200181F3118806EBC000C46200206A
S31502003AF082F3118870BD00BFD8070122FFF70ABF03
S31502003B0005460C46307853287047304629462246E9
S31502003B10FFF73EBF2DE9F04F9BB00F46904602904D
S31502003B201A9040200DF158090A2500260021189105
S31502003B30179006A81690199104923C4614F8011B98
S31502003B40252907D0002900F06081484600F06EF969
S31502003B50274654E1F81C4FF0000B2178232909D09F
S31502003B602B2905D02D2907D030290BD1022104E0BB
S31502003B70042102E0082100E001214BEA010B013099
S31502003B800134EAE74FF0000A3029A0F102020CD311
S31502003B9039291AD80AEB8A0201EB4201421CA1F129
S31502003BA0300A10F8011C1046EEE72E290DD1024606
S31502003BB012F8013D2A2B48D1D8F800100A1DC8F880
S31502003BC000200C680121024601E000210024571C56
S31502003BD017F8010CA0F16302092A0DD8DFE812F0EA
S31502003BE074007C000F010F010F010A000F010F0183
S31502003BF00F010A000137EBE7A0F17002082A16D876
S31502003C00DFE812F00900FD00FD004000FD0034006F
S31502003C10FD00FD001A00D8F800000822082300F073
S31502003C20A2F90020CDE900201022484627E02528E7
S31502003C3076D0582840F0E380D8F80000102200F031
S31502003C4092F9CDE900AB484618E000210024A3F121
S31502003C503A0010F10A0FBAD304EB8400012103EBF8
S31502003C60400012F8013FA0F13004F0E7D8F8000056
S31502003C700A2200F078F94846CDE900AB234600F067
S31502003C80F5F8BCE0D8F800004FF00A0A021DC8F8A1
S31502003C9000200068644A002850EA12865FEA0F9004
S31502003CA001EA000516F8011B61B1002C5FEA1F90BC
S31502003CB0054207D1484600F0B9F81998013CB0F11F
S31502003CC0FF3FEFDC55469AE0D8F80000011DC8F820
S31502003CD000100178484625E0D8F80000011DC8F812
S31502003CE00010D0F80090C9F100000590B9F1000F5C
S31502003CF0484648BF059801210A2803DBB0FBF5F0C8
S31502003D000131F9E78C4254EA8188BAF1000F0CD0EE
S31502003D10B9F1000F54BF5FEA4B70AAF1010A06E03F
S31502003D204846252100F082F869E04FF0000A5FEA72
S31502003D308B7003900FD574B9002E4FF00A0524D468
S31502003D40B9F1000F26D45FEA4B7025D4CDF8149052
S31502003D500DF158092BE05FEACB70EDD1BAF1000FF5
S31502003D60EAD0AAF10105554538BFD045E4D216A8D6
S31502003D70202100F05BF8199EAA46002EF1D5DDF847
S31502003D8010800DF158090A2539E0DDF810800DF191
S31502003D90580934E02D2102E02B21CDF814900DF1C3
S31502003DA05809484600F042F81998002825D4039885
S31502003DB00A2600280BD4059948460A222346CDE94D
S31502003DC000AB00F053F8DDF81080354617E00BF033
S31502003DD001002043EFD1BAF1000FECD0AAF10105A0
S31502003DE0554538BFD045E6D24846302100F01EF888
S31502003DF01998AA460028F1D5E5E7DDF81080199E44
S31502003E00B6F1FF3F3FF799AE0AE046B1189C24B1DE
S31502003E1006A902982246FFF739FE264400E000264C
S31502003E2030461BB0BDE8F08F1793040210B5D0E9F7
S31502003E3001230446581C904201D9184606E022681E
S31502003E40D154A060E16862680131E160904208D114
S31502003E5021682069FFF71AFEA168884202D1002074
S31502003E60A06010BD4FF0FF30E06010BD2DE9F84FA5
S31502003E70154681461F460E460120DDE90AB2A942D1
S31502003E8003D3B1FBF5F10130F9E7874257EA808A9D
S31502003E90BBF1000F1BD012F0010018D190074FF0B2
S31502003EA0200148BF30212020002F51EA0088BBF1B3
S31502003EB0000F0CD0DA450AD248464146FFF7B6FF54
S31502003EC0D9F80C00ABF1010BB0F1FF3FEFDCD9F8EA
S31502003ED00C00002835D40124022F01D3013F03E050
S31502003EE0B6FBF4F0A84201D36C43F5E7DFF858803D
S31502003EF0B6FBF4F7484618F80710FFF797FFD9F80C
S31502003F000C00002806D4B4FBF5F007FB1466A542A4
S31502003F100446EDD90B98C00718BFBBF1000F0AD1B2
S31502003F200FE048462021FFF781FFD9F80C00A3468F
S31502003F30B0F1FF3F05DDABF101045C4538BFDA4560
S31502003F40EFD3BDE8F88F00BF78BD0E0282B0E0B5B0
S31502003F50CDE9042304AA019201AAFFF7DBFDBDE81D
S31502003F608C4002B07047011DC8F800100168704706
S31502003F7010B50A48C06808B100240CE00748084991
S31502003F8041F0D2FD0028F7D004460649064A074BFF
S31502003F900020FFF7DBFF204610BD00BFE8BE182257
S31502003FA030C80E02969804020A9F0402598F040230
S31502003FB0F8B505464FF47A77104E114C30788542A3
S31502003FC011D03078012810D00A20012143F000FBDD
S31502003FD0013F3804F2D10B4841F01AFE14250A4C6F
S31502003FE00020307003E0002505E04FF4967507497E
S31502003FF0074A00F087F82846F8BD00BF900C012258
S315020040005B8E0402E8BE1822429F040296980402BE
S31502004010B4980402F8B5184F0E46002140BA02229F
S3150200402001233970ADF8020014480DF1020141F086
S31502004030EAFD10B10546124C10E000F067F8114C8B
S3150200404008B105460AE000203870314601220023F5
S315020040500A4841F0D3FD38B105460B4C0B490C4AD0
S3150200406000F050F82846F8BD0220FFF7A1FF00280D
S31502004070E7D10025F6E700BF900C0122E8BE182220
S315020040806C8B0402948B04021B9F04029698040212
S315020040902B8B04021CB5114A002313708DF80600FF
S315020040A0000A8DF807108DF805000DF105010322AF
S315020040B00B4841F0A8FD10B104460A4B04E000F09B
S315020040C025F840B10446084B0849094A0020FFF783
S315020040D03DFF20461CBD0024FBE700BF900C0122D9
S315020040E0E8BE18226C8B0402948B04029698040292
S315020040F007A0040210B1024900790870704700BF98
S31502004100900C012200202346FFF720BF0320FFF771
S315020041104FBFD4D403480121017081690131816105
S31502004120704700BF940C012280B55D2000F008F8AC
S3150200413020B11420BDE8804000F002B8002080BD06
S315020041402DE9FC41DFF8B880044600202D4D2E4EA5
S3150200415040F20661002288F80300C8F80C000190BC
S315020041602846B047284640F20B11042241F04CFB88
S31502004170264F142000F0F2F8142C5FEA1F9228460C
S3150200418040F20B11B047022000F0E8F8284640F250
S3150200419006610122B0470A2000F0E0F8284640F204
S315020041A00B11002241F030FB642000F0D7F81848CA
S315020041B02146012241F032FDC0B901A948F2401060
S315020041C0042200F0B9F888B908F10C00042101AA0A
S315020041D029B112F8013B013900F8013BF8E748F230
S315020041E04000002188F80340FFF754FFC8F8080092
S315020041F05D2C14BFC8F81400C8F81000BDE8FC8195
S31502004200940C0122B4BE1822C5580402D1750402C8
S31502004210E8BE182210B5FFF787FF044650B90648D4
S31502004220064942F0D3F810B9034842F011F904489E
S3150200423000218160204610BD94BE18221CC70E02C2
S31502004240940C01222DE9FE4F064600208DF80B0044
S31502004250A6B10C4691B1934682B120708BF800004C
S315020042600DF10B0148F24E10FFF7D4FE58B130495A
S3150200427088600A6A01320A62BDE8FE8F2C49012073
S315020042808860BDE8FE8F9DF90B00294D00286870F5
S3150200429003D40020A860BDE8FE8F00F00F000528B9
S315020042A0824628BF4FF0050AA8B12248B51C00274E
S315020042B00DF103098046BA4511D008EBC7004946FD
S315020042C0082280B200F038F818BB0198013745F889
S315020042D0020C0435EFE704208BF8000009E0144DC8
S315020042E084F800A001208BF800003088A88070882E
S315020042F0E88020780021A8700020287048F24E102D
S31502004300FFF7C8FEA86068B1296A01312962BDE8D3
S31502004310FE8F074A277097709060116A0131116209
S31502004320BDE8FE8FE8690130E8610020BDE8FE8F36
S31502004330940C01224F81FFFFF8B514460D4606463E
S3150200434000274CB1F019E91980B2FFF763FE013C70
S3150200435001370028F5D0F8BD0020F8BD4FF47A7178
S315020043603847D4D4024840F20D51012241F0AABA8C
S31502004370B4BE182210B51448002141600160816064
S31502004380124800F066F8124800F063F8114800F08F
S3150200439060F800F0A1F820B90F48104940F036FA4B
S315020043A010B10446204610BD0B48002140F018FB10
S315020043B010B900F07DF920B10446074840F0CCFA66
S315020043C0F0E70024EEE700BFB80C01220000006807
S315020043D000C012680080256870BE1822E8C60E0268
S315020043E080B179B1084ABFF35F8F136803605268E0
S315020043F00A60BFF35F8F006820B1086800285FEA91
S315020044000F90704700207047B80C0122014840689F
S31502004410704700BFB80C012201488068704700BF90
S31502004420B80C012202680949022A0AD0012A0CD1D3
S31502004430027A920609D5C06838B101C1BFF35F8F0F
S3150200444000E008310868013008607047B80C0122A4
S3150200445070474FF4961144F0C4B9D4D42DE9FC4701
S31502004460871C4AF6AA244FF6FF75DFF85C800DF129
S315020044700709DFF858A000218DF8071037F8020C5B
S31502004480A0420CD0A8420FD03978FFF703FE68B9D4
S3150200449037F8020C4946FFF7BDFD48B902E0387805
S315020044A000F05AF90437E9E7002609E0064601E07A
S315020044B00646D0460649074A00204346FFF746FD10
S315020044C03046BDE8FC8700BF73930402CA98040213
S315020044D096980402FD8F0402B0B52DED067B0A20E4
S315020044E000F03AF95A483C21012241F097FB20B1EB
S315020044F004465849584A594B1FE000F0FBF8584CFD
S31502004500584D206828400430206000F00BF9142032
S3150200451000F022F900F0EEF820682840053020600D
S3150200452000F000F9142000F017F94F48FFF796FF44
S3150200453050B104464749484A4C4B0020FFF706FD56
S315020045402046BDEC067BB0BD322000F005F943F2F1
S3150200455035001221FFF79EFD10B10446444B19E0C7
S3150200456043F236007B21FFF795FD10B10446414B1D
S3150200457010E043F237000821FFF78CFD10B1044624
S315020045803D4B07E043F208101221FFF783FD50B1BD
S3150200459004463A4B2F4D3A4A00F0E2F82E4A394B7E
S315020045A000202946CAE73848B6EE009A9FED380A37
S315020045B03649B0EE491A0160B1EEC08A9FED350A5E
S315020045C043F60C0008EE001ABCEEC10A00F0CCF865
S315020045D0A0B9E9B243F60D00FFF75CFD70B938EEFB
S315020045E0090A43F60E00BCEEC00A00F0BDF828B96F
S315020045F0E9B243F60F00FFF74DFD40B1154D0446F3
S31502004600254A264B00F0ACF8134A254BC8E70DF1B4
S31502004610070144F61400FFF7FDFC10B10446214BD6
S315020046200CE09DF8070000F03F0144F614008DF8F7
S315020046300710FFF72FFD40B10446184B054D1A4AE5
S3150200464000F08EF8044A194BAAE7002478E700BF67
S31502004650E8BE182296980402DC8D040297A0040292
S3150200466030084040FA3FFEFF6C000022A695040285
S315020046709E8E0402188D04024F9C0402DC990402E9
S315020046804F9D0402BB8B0402C40C012200D8B8055C
S31502004690007C9249ABAAAA3F66970402679D040270
S315020046A02B9B0402C9A00402809D040235970402D2
S315020046B010B543F208000221FFF7ECFC10B10446E4
S315020046C0084B08E044F2022000210024FFF7E2FC36
S315020046D030B1054B04460549054A0020FFF736FC72
S315020046E0204610BDCF970402729F040296980402D8
S315020046F03E9D04020121EFF3108081F310880749E1
S315020047000A6822B9064A00231370402313700A6806
S3150200471001320A6080F31088704700BFF0C2192286
S31502004720140D40400121EFF3108081F310880849EF
S315020047300A6812B10A68013A0A60096821B905498C
S3150200474000220A7080220A7080F31088704700BF28
S31502004750F0C21922140D40404FF47A7142F038BF6C
S3150200476000202946FFF7F2BB10EE105A290AFFF77E
S3150200477091BCD4D42DE9F84F2DED108BADF5FA5D31
S31502004780012A1C9302DB1546032A07D900200DF5E0
S31502004790FA5DBDEC108B01B0BDE8F08F894682460A
S315020047A01DA841F2B00144F01CF8012D02D0022DE1
S315020047B01DD10A251DA84021DFF8E027DFF8E037E2
S315020047C000F66440F9B113F8016BB542B6FBF5F792
S315020047D088BF012712F8016B00F8017BB542B6FBD0
S315020047E0F5F788BF012700F8417C0139EAE71DA8E1
S315020047F04021012200F6644029B100F8012B01395B
S3150200480000F8412CF8E70DF580500DF10A01CDF8BC
S315020048101CADCDF8189D0DF5F25601F5C951D0F82B
S31502004820B04FD0F8ACBFDFF87C07CDF8940CDFF8B8
S315020048307807CDF8900CDFF87407CDF88C0CDFF80A
S315020048407007CDF8880CDFF86C07CDF8840CDFF81A
S315020048506807CDF8800CDFF86407CDF87C0CDFF82A
S315020048606007CDF8780C0020C1F81605C1F81A05C4
S31502004870C1F81E05C1F822051DAA02F6044702F672
S3150200488014411A9104280ED056F8201057F8202009
S31502004890102323B112F8015B013B2944F9E746F8DC
S315020048A020100130EEE701A84FF0000C00F5C959BF
S315020048B009F101001B9001A8199700F5895A0020F9
S315020048C01C9A042850D056F82010B1F5807F00F3C8
S315020048D05D8357F8202001AB804600EB00200025BF
S315020048E003F5C9531F180023102D0CD0505D09EB98
S315020048F003060135034418B106F8015B0138FAE7ED
S3150200490007F803C0F0E73B784FF0000C00201A4688
S315020049101B9B0AEB40071D18814240F3308315F8B2
S31502004920013B0130D6B227F802CB0CF1010CB3429F
S31502004930F2D04BB1D21A0125D24355FA82FE4FEA82
S315020049404C0C0FF005C0E2E71B98199F0AF5007A96
S3150200495009F201190DF5F2564FF0000C00F20110A2
S315020049601B9008F10100ABE71DA84FF0000900F209
S315020049700440129001A800F5C95100F5895AB9F10F
S31502004980040F28D056F829E009EB09225346884637
S31502004990BEF1010FD8BF4FF0010E1A9850F82950F8
S315020049A0129800EB49261DA887180A4615F8011B1E
S315020049B033F802CB12F8010B26F811C078540FF027
S315020049C00BC81C9A0AF5007A08F2011109F10109CD
S315020049D00DF5F256D3E70020BBF1040F3FF6D7AE32
S315020049E0012101FA0BF111F01A0F3FF4D0AEB2F524
S315020049F0803FBFF6CCAE00F0CEFFB0F5803FBFF6EB
S31502004A00C5AE1DA801A94FF0000ADFF8CCE5DFF814
S31502004A10CC85B2EE000AB7EE001A01F5895100F60E
S31502004A20644500F6244601F58079CDF84490BAF142
S31502004A30080F31D008EB8A01082742464B4691ED12
S31502004A40002A71460FB3B2EC013A11F8010B013F8D
S31502004A5023EE003A16F800C0285C04EE10CA22EED5
S31502004A60033AB8EE444A23EE044A81EE044A83ED41
S31502004A70004A04EE100AB8EE444A23EE043A81EEE6
S31502004A80033A03ED403A0433DCE709F120090EF15B
S31502004A90080E0AF1010ACAE70DF10A01E6480DF508
S31502004AA080524FF0010A6FF47C570DF1740901230D
S31502004AB001F5C95108604FF48050A2F82809002078
S31502004AC082F82E09A2F8360914224FF06020886077
S31502004AD00DF580510DF5805080F831A940F2012084
S31502004AE0A1F82F0907F50050A1F8260907F5C050CD
S31502004AF0A1F8240901A800F5C9584846414600F024
S31502004B0079FC0DF580514FF4F0501C22A1F82609CC
S31502004B1007F57850A1F82409DFF8C41408F1040057
S31502004B2043F063FE484641462022012300F062FC20
S31502004B3048463146002200F09DFCBBF1010F06D02B
S31502004B401DA82946012200F095FC4FF0030A0DF537
S31502004B50805108200DF58052DFF88834112581F83E
S31502004B6028094CF2FF00A1F824091C9800BA000C8F
S31502004B70A1F82B0900F00FFF00BA000CA1F82909D1
S31502004B804FF400610DF5805080F82DA90AEB4A001A
S31502004B9001EB0021A2F82619002208F10C01924528
S31502004BA009D013F8016B01F8015C013201F8036BBD
S31502004BB001F8052CF3E700F10A021DAE01A8012354
S31502004BC04FF0010800F5C9553046294600F012FC9F
S31502004BD0DDF8781CDDF8882C304600230027009784
S31502004BE000F074FCDDF87C1CDDF88C2C30460123C9
S31502004BF0009700F06BFCBBF1010F14D0DDF8801CAE
S31502004C00DDF8902CCDF800801DAF0023384600F069
S31502004C105DFCDDF8841CDDF8942C38460123CDF8C2
S31502004C20008000F053FC4CF2FF000DF5805100228B
S31502004C30ED4B00F5D050A1F824090DF5805080F80F
S31502004C4028A94FF4C06000EB4A20A1F82609A91D45
S31502004C504FEA4A00924507D013F8015B013201F888
S31502004C60025B01F8032CF5E70DF580510DF5805234
S31502004C700025012381F831594FF47C51A2F82F19EE
S31502004C8000F1080201A81DAE00F5C951304600F038
S31502004C90B1FB0DF10A000A959FEDD98A9FEDD99ACB
S31502004CA09FEDD9AAB6EE00BA9FEDD8CA9FEDD8DA23
S31502004CB09FEDD0EA9FEDD0FADFEDD08A00F5C9501C
S31502004CC0C0F80254C0F80654C0F80A54C0F80E548C
S31502004CD0C0F812540DF580501C9DD0F8A80F6843F9
S31502004CE000FB0BFA681E0990E800089006F60420FD
S31502004CF00E9006F203300D9006F604000C9006F2B2
S31502004D0002200B9006F20460109006F201100026B3
S31502004D100F9000F040FE864280F2F4800998002748
S31502004D20149616900A98AF4280F2E68013900346D4
S31502004D300DF5F2501B9000210DF5EA5E01A81597BC
S31502004D4000F5C9501A90082978D00DF580501991AE
S31502004D50314318934FF008083E46CA43D0F8A80FCD
S31502004D60024481421846A8BF02FB0500169ADDE9F5
S31502004D701A73CDF85CE0B8F1000F4BD00146AE4293
S31502004D80A8BF114401FB0BF9D14580F2F18014F85A
S31502004D9009C0BBF1010F0AD100EE10CAB8EE401AE3
S31502004DA0B0EE410AB0EE412AB0EE413A18E004EB09
S31502004DB00901254601EE10CAB8EE412A4C788978D7
S31502004DC000EE104A01EE101A2C461C9DB8EE400A5F
S31502004DD0B8EE411A20EE0E3AA2EE0F3AA1EE283AAA
S31502004DE033EE083AA8F101080136013A0130A7EC80
S31502004DF0013A20EE093A20EE0C0AA2EE0A3AA2EE97
S31502004E000B0AA1EE0B3AA1EE0D0AA3EC013AAEECA7
S31502004E10010AB0E71B98189B1999DDF85CE0DDE9F9
S31502004E2014670EF1200E20301B902B4401311A9884
S31502004E3020301A9087E700BF4A46494612980090EA
S31502004E400F9801901098029007A800F5E950039078
S31502004E5004A800F5E950049003A800F5E95005906E
S31502004E601DA801A9119A01F5C951034600F07EFB5E
S31502004E70BBF1010F39D00E9FDDF83090DDF834809A
S31502004E80CDF80090CDF804800DF5F251029706A8F0
S31502004E9000F5E950039004A800F5E950049003A830
S31502004EA000F5E95005901DA801AA0B9E02F589524C
S31502004EB0334600F05BFB0297CDE90098159F05A8E3
S31502004EC00DF5EA51334600F5E950039004A800F5C2
S31502004ED0E950049003A800F5E95005901DA801AA1F
S31502004EE0149E02F5895200F041FB169808370838DD
S31502004EF016901398083016E70A9808990836084457
S31502004F000A9006E70DF10A0000F5C950D0F802042E
S31502004F10411E07290DD20021C0F10800009183B27B
S31502004F201DA804A903AA01F5E95102F5E95200F008
S31502004F30E5FC4CF2FF000DF580510222012300F53B
S31502004F40C850A1F82A0D0DF10A001DAC00F5E95171
S31502004F50204600F04FFADDF8202D32B104F54B6100
S31502004F60DDF8180DDDF81C3D98470120FFF70FBC50
S31502004F7014481E4A1E4B4FF48C6142F027FB11481F
S31502004F80134A144B4FF40E7142F020FB0D480E4AA1
S31502004F900E4B4FF46A7142F019FB00BF08BE0E02B7
S31502004FA048BE0E0282BF0E0276BF0E02D4BE0E02AB
S31502004FB0C8BE0E02B8BE0E02A8BE0E0298BE0E02F1
S31502004FC088BE0E026C9C0402E88D0402E1A0040273
S31502004FD0CA950402BC8A040244C00E0224C00E0210
S31502004FE084C00E02A1C00E02A4C00E024C98040296
S31502004FF0699E0402A245163F8716993ED578E93D79
S31502005000000000C327A0A9BEB1BF2CBED95FD6BE81
S315020050109D80A6BD18B111B1B2F5FF4F01D2002095
S3150200502070472DE9F04F8AB0019100F01F01484AFE
S3150200503011440122BFF34F8F02EB511E454902462E
S315020050400A6020320FF005C045F201014FF04D090A
S315020050501D2596240022084400900021BFF34F8F9D
S315020050603D48BFF36F8F00780490FC20882A69D0F0
S3150200507013468822039100270293B1FBF2F1009AAC
S31502005080C90211440791019AC3EB031102EB011203
S315020050900692090105910022F02F4DD0F0210992C6
S315020050A04FF0000A4FF0000B0897B2FBF1F1079A96
S315020050B002EB4108BAF1040F23D004274146DFB1BF
S315020050C011F8016C11F802CB013FCCF3820206F013
S315020050D0F80E4EEA561342EACC0213FB09B3D2B2D9
S315020050E012FB05324CEA0623C6F3410600EAD30355
S315020050F0334413FB042BE2E708F500680AF1010AC0
S31502005100D8E70BF500630599089F049A1B0B3944EF
S315020051101E4642B1114ADEB27600525C56FA83F658
S31502005120324402329608069AD6550C4A013753542F
S31502005130099A02F58062AFE70399029A01F51171A5
S31502005140013293E70449012008700AB0BDE8F08FE6
S31502005150FFBF12005CEF00E0C80C0122E00C012246
S3150200516010B588B01C4603460020CDE90600CDE9FD
S315020051700412C3B1B9B1B4B1AAB101208821CDE9F3
S31502005180001002930122F023084804A9FFF7F2FA5D
S315020051900699216010B19DF81C0008B1002002E0BA
S315020051A000295FEA0F9008B010BD00BFB15100029E
S315020051B0D8B1D1B1B0B51546012A14DB0446007B3D
S315020051C088B96068A84203D3421BA068904202D9FC
S315020051D00120207307E0226810442A4643F005FBAB
S315020051E0A0682844A060BDE8B04070472DE9F047AA
S315020051F0ADF5855D82B00E46074608A888211C4695
S31502005200154643F0EEFA0020ADF81D000690CDE9F2
S3150200521002608DF81F0002218DF81C10CDE904549E
S3150200522001970DF58050D0F8D08027B11EB115B187
S31502005230214884420BD8B8F1000F02D00520C8F8E5
S31502005240000000200DF5855D02B0BDE8F0870DF582
S3150200525080501A494FF48053D0F8C84001A80090F4
S3150200526008A82AAA00F0EEFE88B9BDF8402005205B
S31502005270BDF84210ADF81820ADF81A10F02A08BF92
S31502005280882904D108A80E49002201F01EF90DF55D
S315020052908051D1F8CC1014B1BDF84020228011B152
S315020052A0BDF842200A80B8F1000F18BFC8F8000006
S315020052B000285FEA1F90C5E7FFF90500C552000204
S315020052C0FD520002B0B5D0F884501DB1D5E90130C7
S315020052D0834201D200240FE01B1A9A4252EA338417
S315020052E041B13CB12A68024408461146224643F0BF
S315020052F07CFAA8682044A8602046B0BDD0F8840095
S3150200530000286ED000296CD0002A6AD02DE9F04F11
S3150200531086B05388848AA34265D2D488C58AAC42B1
S3150200532061D295880026641B04F1010C1488CDF81D
S3150200533008C01B1B013303EB4304CDE9004366455A
S3150200534055D004FB06170025CDE903769D4246D0CB
S3150200535005EB4503059590F818E04FF0000C17F899
S3150200536003B03B445C789F7893883344C3EB0313C2
S3150200537005EB431315882B4403FB0EF3A3EB8309BA
S3150200538003EB430AF44522D24FF000084E46534639
S31502005390F04515D20569AB4225D83544032D22D3F3
S315020053A0C568033E08F1010805F803B0C5681D4447
S315020053B06C70C5681D440333AF7090F818E0E7E7D8
S315020053C0A9F5B4690AF5B46A0CF1010CDAE7059D90
S315020053D0049EDDE90043DDE902C70135B6E7013681
S315020053E0ADE700207047002006B0BDE8F08F01202F
S315020053F0FAE7D4D42DE9F84F8B468246D0F8AC6C46
S3150200540000F54B6940F2FF3803FB02F5A8EB0604F0
S3150200541009EB06005946A54255EA34873A4643F057
S31502005420E4F93E44CAF8AC6CB6F5806F14D2464530
S315020054300AD1DAF8A40CDAF8A83C494640F2FF325F
S3150200544098470026CAF8AC6CAC4203D2EA1BBB44AE
S315020054500123D9E7BDE8F88F0348044A044B4FF409
S31502005460F37142F0B3F800BF6C9C0402F98D04029A
S31502005470EA980402FEB505464DF6FF3016460C467E
S31502005480ADF80A000DF10A010F4F02220123284648
S31502005490B8474FF48640ADF8080002A9022201235C
S315020054A02846B8470DF107012846012201238DF847
S315020054B00760B8472846214640220123BC4603B06E
S315020054C0BDE8F040604700BFF55300022DE9FC41FC
S315020054D00F46064608989046002510213A4621B105
S315020054E012F8014B01392544F9E7B5F5803F2DD273
S315020054F04CF2FF41ADF8061040EA03108DF80300A6
