S019000052413850315F52656D6F74655F52544F532E737265634D
S31502000000C0830022854B0502014A0502ED66000205
S3150200001003670002196700022F6700028F4B050271
S315020000200000000000000000000000001119050297
S315020000308F4B0502000000002919050291190502DD
S31502000040F523050211250502412505022926050289
S31502000050F523050211250502412505022926050279
S315020000600132050289330502B93405026D350502EE
S31502000070394005024D4505027D3805027D380502E7
S31502000080A11E0502612A0502E52A0502452B050283
S315020000900000000701070207030704070501010024
S315020000A0090708070F040E04040105070830420079
S315020000B00331130003310300003000000430FF0057
S315020000C002301C000630C3000E3045002E300800F8
S315020000D0343018001F50000000433200183600006A
S315020000E012362900093752000C3703002038400027
S315020000F0213801003036360031360E003236E20043
S31502000100333612002136E0000437A00003375A00C6
S3150200011015377800173701000B37600005371A00CC
S31502000120053902000639100001390A00313712007A
S3150200013000360800013633002D30600020365200AA
S315020001401B3720001C475000133A4300183A0000A0
S31502000150193AF800353613003636030034364000B5
S3150200016022360100014002000440020005401A0046
S315020001700150A30003350700003500000135FF00DA
S31502000180023500000A3500000B3520000F3A300018
S31502000190103A28001B3A30001E3A2600113A600037
S315020001A01F3A1400183A0000193A7C00063400007F
S315020001B000340700013470000234040003340000E6
S315020001C0043405000534C00080540100815408003F
S315020001D082541400835428008454510085546500C7
S315020001E08654710087547D00885487008954910093
S315020001F08A549A008B54AA008C54B8008D54CD00B0
S315020002008E54DD008F54EA0090541D00805506007E
S315020002108355400084551000895510008A55000008
S315020002208B55F800005823000158140002580F009D
S3150200023003580F00045812000558260006580C00F1
S315020002400758080008580500095805000A5808000A
S315020002500B580D000C5808000D5803000E580000EC
S315020002600F580000105803001158090012580700D1
S3150200027013580300145800001558010016580300BD
S315020002801758080018580D00195808001A58050082
S315020002901B5806001C5808001D580E001E5829003F
S315020002A01F58170020581100215811002258150016
S315020002B023582800245846002558260026580800A8
S315020002C02758260028586400295826002A58240050
S315020002D02B5822002C5824002D5824002E58060094
S315020002E02F5822003058400031584200325824001C
S315020002F03358260034582400355822003658220036
S315020003003758260038584400395824003A582600EF
S315020003103B5828003C5842003D58CE000050A700EA
S3150200032020384600213800001438310015383100D3
S315020003300338040008380400093800000A380200AD
S315020003400B3858000C4622003748100024380200A9
S315020003500150A3003D50000041470000FFFFFF008F
S315020003600100000000000000000000000000000084
S31502000370000008000000000000000000000000006D
S31502000380000010080000000000000000000000004D
S3150200039038D30902E8D3090298D4090248D50902DA
S315020003A038D3090238D3090238D3090238D30902ED
S315020003B000000000000000009CD50902ECD50902ED
S315020003C03CD609028CD609029CD509029CD50902A3
S315020003D09CD509029CD5090200000000000000001D
S311020003E0010100000020344000283440D7
S315020003F0B0B503F0BBFD08B10C4903E003F00AFFF8
S3150200040090B10B490020002403F09EFD094D2C708B
S3150200041028F00AFE0121686029F0B7FA68680649E1
S31502000420BDE8B04029F0B8BA0124EFE7BC8B05025B
S315020004304A9A0502008400223D040002B0B586B045
S315020004401D4D0C46287878B101A80DF103010DF176
S31502000450020203F0F7FE50B1A878FF2818D0411C1B
S31502000460A970022814D215E00020687013E000205B
S315020004709DF80310A8709DF8020039B1012802BF49
S31502000480BDF804100022B2EB912F0CD0042801D142
S3150200049000206870687884F82000D5E90201C4E972
S315020004A0090106B0B0BDBDF80620D3084A2BEDD827
S315020004B0C5E902120120ECE700840022D4D4D4D488
S315020004C088B1114901814FF0E73141600160002195
S315020004D0817505A191ED001F07A180ED120F91ED27
S315020004E0001F80ED8A0E7047010000000100000027
S315020004F001000000000000000500020020000500C7
S315020005000F00010003000200E7E7FFFFBCB5144637
S315020005100022ADF804201CB11D460BB11F2901D9DA
S315020005200120BCBDFF228DF806108DF807200DF1C3
S315020005300601022301AA00F004FD00D0BCBD9DF80D
S3150200054004009DF80510287000202170BCBD30B152
S31502000550D0F804C0BCF1000F01D00068604701204A
S3150200056070471CB51C460023ADF804300CB11F2998
S3150200057001D901201CBD41F020018DF806108DF82D
S31502000580072001AA02230DF1060100F0DAFC00D0D1
S315020005901CBD9DF80400207000201CBDFEB505465A
S315020005A00020ADF8040000903AB1089F2FB11C4616
S315020005B01BB1052C01D81F2901D90120FEBD41F02E
S315020005C020000DF106068DF8060011462246701C23
S315020005D056F0CFFF631C6A462846314600F0B1FC4E
S315020005E003D19DF8000038700020FEBD1CB58DF8C1
S315020005F0071000218DF806104AB114460DF10701C5
S315020006000DF10602012300F09CFC02D01CBD012064
S315020006101CBD9DF80600207000201CBD0A46FF2165
S31502000620FFF7E4BF13460A46014601204AB110B558
S3150200063012F08F0403D108460721FFF792FFBDE8A7
S31502000640104070470A46E121FFF7D0BF0A46E22171
S31502000650FFF7CCBF13460A461721FFF757BF7CB5F3
S3150200066005464FF66070ADF806000020ADF80400AE
S3150200067059B114464AB10E460DF1060101AA2846A1
S31502000680022300F05EFC02D07CBD01207CBD9DF8F9
S3150200069005109DF804002070317021293CBF00200E
S315020006A07CBD00F03DFC06207CBD2DE9F04391B0F7
S315020006B00D460746684621211E46144656F055FF4A
S315020006C01DB116B10CB1202C03D9012011B0BDE821
S315020006D0F08361200DF123098DF8230000F01AFC46
S315020006E0E846631C38464946424600F02AFCEDD1EC
S315020006F09DF8000008F1010122463070284656F0A6
S3150200070038FF0020E2E72DE9F04192B00E4604469A
S3150200071001A821211F46154656F027FF36B1DDF8FE
S315020007206080B8F1000F18BF002D03D1012012B06E
S31502000730BDE8F081202DF9D86FF05F00002F0DF192
S31502000740270731462A4618BF6FF04F008DF827005B
S31502000750781C56F00EFF6B1C01AA2046394600F0A3
S31502000760F0FBE4D19DF8040088F800000020DEE7E3
S31502000770032901D3052901D90120704702391346FD
S31502000780CAB20321FFF7EDBE7D2901D901207047C8
S3150200079013460A460521FFF7E4BE022901D90120C4
S315020007A070477CB514460E460DF107020621054632
S315020007B000F0BAFB00B17CBD9DF80700022E20F0C6
S315020007C0280003D026B940F0200001E040F00800DE
S315020007D0C2B22846062100F09AFB7CBD032901D944
S315020007E0012070477CB514460E460DF1070206211C
S315020007F0054600F099FB00B17CBD9DF8071006F096
S315020008007F00234601F0F90141EA4002284606210B
S31502000810FFF7A7FE7CBD1CB521B11446032A01D3FE
S31502000820052C01D901201CBD0A460093102123463E
S31502000830FFF7B4FE1CBD052904D81AB1032B01D358
S31502000840052B01D90120704710B5029C012902949B
S3150200085088BF01230A31C9B2BDE81040FFF79EBE28
S31502000860BCB50C46054600F01BF808B10120BCBD1C
S315020008702868AA680021904700B1BCBD0DF10702A5
S315020008802846002100F050FB0028F6D19DF807000B
S315020008900021234600F0FD022846FFF762FEBCBD9A
S315020008A050B1416841B1816831B1016921B14069F4
S315020008B000285FEA1F90704701207047012901D97D
S315020008C001207047F8B516460D460446FFF7E8FFC5
S315020008D008B10120F8BD2068A268002190470028CF
S315020008E0F8D10DF10302204600213346FFF70EFE32
S315020008F00028EFD102209DF80370012D50EA1090D6
S3150200090007F0FC010A18BA4206D0204600213346F7
S31502000910FFF727FE0028DDD1B80703D420686269F5
S3150200092002219047012D09D12068A2680121904732
S315020009300028CFD120682269962190470020F8BD71
S3150200094059B32DE9FF4114461AB30546887A0E4675
S3150200095003281ED305281CD8F07A7D2819D8307BA7
S31502000960B8B1202815D8707B0F2812D8B07B0F2873
S315020009700FD8F07B02280CD8307C032809D8707C6B
S31502000980022806D8B07C012803D82846FFF788FF3C
S3150200099028B1012004B0BDE8F08101207047286823
S315020009A0AA68002190470028F4D128462146FFF77D
S315020009B057FF0028EED128462146FFF743FE0028BE
S315020009C0E8D100F0ADFA0028E4D100F0B0FA002830
S315020009D0E0D1B17A28462246FFF7CAFE0028D9D1CD
S315020009E0F17A28462246FFF7CFFE0028D2D1F17BC4
S315020009F028462246FFF7D1FE0028CBD1317C284675
S31502000A002246FFF7EBFE0028C4D1B27A28463146C9
S31502000A102346FFF700FF0028BCD1B37A721D284691
S31502000A2000210094FFF707FF0028B3D1F27C284685
S31502000A30012100F06CFA0028ACD1284602210122DD
S31502000A4000F065FA0028A5D1707BB17B234600F041
S31502000A500F0041EA001228460421FFF782FD002812
S31502000A6098D147F25032377D707DADF80C20B17DBA
S31502000A7023460022ADF80A2000284FEA87001CBF51
S31502000A800127062008431D215FFA80F828464246C0
S31502000A90FFF767FD00287FF47DAF0DF10F022846B0
S31502000AA01D2100F041FA00287FF474AF9DF80F0073
S31502000AB000F0070080450DD1FAB228461C2100F04D
S31502000AC026FA00287FF466AF307D08B9707D48B3F8
S31502000AD0002228E0D5F804C0BCF1000F3FF459AF5C
S31502000AE0286803A90DF10A020223E04700287FF4D1
S31502000AF051AF28461D21424600F009FA00287FF42C
S31502000B0049AF0DF10F0228461D2100F00DFA00280B
S31502000B107FF440AF9DF80F0000F007008045CBD070
S31502000B20072037E7327B2846112100F0F0F900282A
S31502000B307FF430AF707CF17C23460246002818BF52
S31502000B400822022808BF0C2242EAC100002100F056
S31502000B500C022846FFF705FD00287FF41BAF284646
S31502000B602146FFF76FFD00287FF414AF00F0D8F995
S31502000B7000287FF40FAF00F0DAF900287FF40AAFFD
S31502000B80B17C28462246FFF799FE03E72DE9F84392
S31502000B9001B30546002008700C460DF103020DF163
S31502000BA0010305212846FFF7B1FC88B99DF80370B9
S31502000BB07E210DF1010207F12500B0FBF1F1C1EB37
S31502000BC08111A0EB410828464146FFF7DDFD28B119
S31502000BD0064600E001263046BDE8F8830DF101091C
S31502000BE00DF10202284605214B46FFF78FFC064609
S31502000BF0284639464A46FFF7C7FD002EEBD19DF837
S31502000C0002101FFA88F088425FEA1F9000262070C1
S31502000C10E1E72DE9FC47044600208DF807008DF830
S31502000C20060099B1DDF82C80B8F1000F0ED01746F8
S31502000C3062B1202F0AD8DDF828A0BAF1000F05D03C
S31502000C4020461E460D46FFF72BFE10B10120BDE8D9
S31502000C50FC87002088F80400C8F800000DF107029E
S31502000C6000212046FFF72AFE28BB0DF10701204688
S31502000C70FFF7E8FCF8B90DF10709204670214A464C
S31502000C80FFF7D0FCB8B9204629463A463346CDF896
S31502000C900090FFF738FD70B92068A26801219047DD
S31502000CA048B9206822691E2190472068A26800215F
S31502000CB00027904708B1BDE8FC870DF107050DF145
S31502000CC00509BAF1000F1BD0E2688DF8057022B152
S31502000CD02068494690470028EDD120462946FFF76D
S31502000CE09DFC0028E7D19DF80760F00622D4B006E5
S31502000CF038D42068626901219047AAF1010AE0E727
S31502000D0020464146FFF78AFC0DF1070508F101026C
S31502000D1000F0F8F808F10202204600212B46FFF700
S31502000D20F5FB08F1030120462A46FFF793FC032050
S31502000D30BDE8FC870DF107050DF1060200F0E2F8A9
S31502000D40204610212A46FFF76DFC20462946FFF76A
S31502000D5079FC9DF8060088F8006088F801000420F6
S31502000D60BDE8FC870DF107050DF1060200F0CAF891
S31502000D709DF807009DF806102A4688F8000088F8B4
S31502000D8001102021C0F3801088F804002046FFF7E6
S31502000D9049FC0020BDE8FC872DE9FE4F8046002075
S31502000DA08DF80B008DF80A00F1B11646E2B1DDF8B6
S31502000DB034A0BAF1000F17D01D46ABB1032D13D8DC
S31502000DC00C9888B10F4630462A464AB10B685BB189
S31502000DD003784BB101300431013A202B04D8F4E7F1
S31502000DE04046FFF75DFD18B101242046BDE8FE8F9F
S31502000DF000208AF80400CAF80000002100F09CF8DE
S31502000E00904738B90DF10B09404630214A46FFF7A3
S31502000E1009FC08B10446E8E7AB46BBF1000F0DD06A
S31502000E2016F8012B02CF40460123CDF80090FFF7BA
S31502000E306AFCABF1010B0028EFD01BE000F07CF856
S31502000E4001219047B0B94FF4AF719620D8F810201F
S31502000E5015FB0101D8F80000904700F06DF800215B
S31502000E60904738B90DF10A010DF10B024046FFF722
S31502000E70F1FB30B104460DF10B014046FFF7E2FBF0
S31502000E80B3E79DF80B008AF800009DF80A008AF87D
S31502000E900300C00606D40DF10B014046FFF7D2FB54
S31502000EA00324A2E70DF10B0240462021FFF7BAFB0D
S31502000EB000249AE769B1F8B5144642B11D4633B12A
S31502000EC00E4629460746FFF7A9FB20B1F8BD0120C9
S31502000ED0F8BD012070470DF1030138462A46FFF797
S31502000EE0B9FB0028F2D19DF80300012121EA000096
S31502000EF030702878C0F34200052888BFFF20207092
S31502000F000020F8BD204608212B46FFF7FFBA2346EC
S31502000F10FFF727BB2146FF2209F1010056F020BB4D
S31502000F2028462146FFF792BB2346FFF7EFBA28462B
S31502000F3070212246FFF776BBD8F80000D8F80820C1
S31502000F4070474DF808EDFFF702FB00285DF808EB45
S31502000F507047D4D4D4D4D4D42DE9F0438DB0564EB0
S31502000F60002040F202218DF80300B180C6E902009A
S31502000F70C6E90400C6E90600B07130604F484FF476
S31502000F80887156F0F2FA4E484FF4886156F0EDFA3F
S31502000F9006F120041821204656F0E7FA06F1380534
S31502000FA01821284656F0E1FA02F044FB08B1022065
S31502000FB077E00020294602F08FFB002871D101203C
S31502000FC021464FF0010902F087FB002869D1B0469D
S31502000FD0642158F8380FD8F81420904701AF3846E4
S31502000FE0FFF76EFA30A0BE468DF81A900DF11C0C72
S31502000FF090ED001F40F64C00ADF80F0087ED120F82
S315020010000220ADF81300BEE88F00ACE88F00A8F10D
S315020010103501BEF80000ACF800009EF802008CF81C
S31502001020020000208DF82E004046FFF7AFFD70B992
S3150200103018F8351CC9070AD001A90DF10302284682
S31502001040FFF77EFC00285FEA1F91717002E000281C
S3150200105008BF02207071B11C2046FFF797FD68B9E0
S31502001060B178C9070AD007A90DF103022046FFF796
S3150200107067FC00285FEA1F91317002E0002808BF72
S31502001080022030717078012806D102F0D9FB18B11E
S31502001090022070710020707071793079002950EA4F
S315020010A001800DB0BDE8F0830100000001000000E0
S315020010B00100000000000000608900221084002266
S315020010C02085002201480078704700BF608900220F
S315020010D001484078704700BF60890022BCB50F4BBB
S315020010E08DF8020040F2A510ADF800008DF803104D
S315020010F08DF80420100A8DF805009C798DF80640BB
S31502001100651C6C469D71204600F00AF88DF80700B2
S315020011102046082100F00EF8BCBD00BF60890022FF
S315020011200021072222B110F8013B013A5940F9E7A2
S31502001130C8B270472DE9F84318B10D4609B1202D02
S3150200114003D901242046BDE8F883DFF85480064619
S3150200115098F80000C00707D050F090FCD8F810703D
S31502001160072F03D9082418E00224EBE7D8F80C90DD
S315020011700C4900242A4609EB091001F8105001EB2C
S31502001180400031464470023056F0F3F909F101018C
S31502001190781C01F00701C8E9031050F091FCD1E771
S315020011A060890022108400222DE9F04118B10C4614
S315020011B009B1202C03D901242046BDE8F081144E42
S315020011C005463078C00706D050F058FC3769072F1D
S315020011D003D9082419E00224EEE7D6F80C800D495B
S315020011E0224608EB081001F8104001EB40000121ED
S315020011F041700230294656F0BCF908F1010100247B
S31502001200781C01F00701C6E9031050F059FCD3E738
S31502001210608900221084002290B32DE9F04788B03D
S3150200122082463F4D0020CAF800002878C00729D020
S315020012302F69002F70D0A868DFF8E89000EB001144
S3150200124009EB410898F8011001291DD1032F28BF87
S31502001250032703AA0DF1090300218F4236D046184F
S3150200126006F0070646EA061609EB46067478012CCE
S315020012702BD116F8024B40C2013103F8014BECE7C1
S3150200128001207047022048E041460DF11B0032233F
S31502001290CDE90030002605F12000002311F8022BCB
S315020012A0FFF7B7FCC8BB50F0E9FBA8682969A8F8A4
S315020012B0006001300139296100F00700A86050F092
S315020012C0FFFB0120CAF8000026E00F460DF11B00C5
S315020012D03221CDE90010FBB20DF1090205F1200021
S315020012E003A9FFF759FDC0B94FF000083E468EB17B
S315020012F050F0C4FBA86829690139296100EB001284
S31502001300013000F00700A86029F8128050F0D8FBDF
S31502001310013EECE7CAF80070002008B0BDE8F0878D
S31502001320608900221084002210B550F0A7FB034802
S31502001330046950F0C5FB204610BD00BF608900223B
S315020013402DE9F843074600208DF803008DF80200C8
S315020013508DF801008DF8000067B3154652B3994621
S3150200136043B30E4631B389F8000028702A48417803
S31502001370012923D100F1380869460DF102020DF167
S3150200138003034046FFF796FD0446A0B99DF8000008
S31502001390C00710D00DF101010DF103024046FFF71F
S315020013A05EF968B104460DF1030240464021FFF79B
S315020013B039F900E001242046BDE8F8830224FAE761
S315020013C09DF801201AB1202A01D896420CD20DF1BD
S315020013D0030440462146FFF739F94046402122469A
S315020013E0FFF720F90624E6E70DF1030340463946E6
S315020013F0FFF75BF904460028DDD10DF103024046F2
S315020014004021FFF70FF99DF8010000242870012002
S3150200141089F80000CFE700BF60890022B8B32DE942
S31502001420F84F0C46A9B34FF0000B05461D4FDFF8E7
S3150200143078A00DF102080DF10309C4F800B05DB3FE
S31502001440F8698DF803B08DF802B01F2827D8B8695D
S31502001450202142464B4600EB00100AEB4006B01C28
S31502001460FFF76EFFB0B99DF80300012814D19DF86D
S315020014700200013D3070D7E906010130013100F06A
S315020014801F00C7E90601206801302060D7E7012066
S3150200149070470120BDE8F88F0020BDE8F88F0820CC
S315020014A0BDE8F88F6089002220850022F8B12DE977
S315020014B0F8431546C2B11C46B3B1A9B1DFF8648040
S315020014C00346002028702070D8F81C7057B1D8F84F
S315020014D01460DFF854C006EB06101CF81020914287
S315020014E007D20620BDE8F8830120BDE8F883012073
S315020014F070470CEB4009184609F1020156F039F81B
S3150200150099F80000287001202070781EC8F81C0087
S31502001510701C00F01F00C8F81400002089F80000B3
S31502001520BDE8F88360890022208500220148C0694F
S31502001530704700BF6089002268B10178A5290AD1E7
S315020015404178012907D110B5C479FFF7E9FD844234
S315020015505FEA1F9010BD00207047D4D470B50446D0
S3150200156000681949194E00F070FA194DA068002258
S3150200157023462946B0472069294600F066FAA06943
S31502001580294600F062FA206A294600F05EFAA06A4D
S31502001590104900F05AFA606B0F4900F056FA206EB5
S315020015A00E4900F052FAA06E0D4900F04EFA206F75
S315020015B00C4900F04AFAA06F0B4900222346B446B2
S315020015C0BDE87040604700BFED15000285B8040211
S315020015D02D16000289160002251700027517000251
S315020015E0C117000261180002D118000280B521F06D
S315020015F026FF102816D128F0C2F928F064FA082826
S3150200160010D128F0BCF928F089FA0749002002F027
S315020016109BFC08200221012200F0CAF9BDE88040A5
S3150200162001F0E6BF80BD00BF28760502F8B5054683
S3150200163021F005FF0646284621F007FF00F008FACA
S315020016400546012E06D00B2E1CBF032EF8BD002622
S315020016500C4F01E001260A4F2046294600F0BAF94E
S3150200166002460020394602F06FFC2046294600F069
S31502001670D1F9024601203146BDE8F84000F098B99A
S31502001680A09105028693050270B500F0E8F90A28D2
S3150200169006D1204621F0D9FE1A4E0446707800B1D2
S315020016A070BD317881F00100307000294FF47F005F
S315020016B018BF4FF47F40A56A21F005FC00F0BFF980
S315020016C030781149114A002851EA1281E06A14F071
S315020016D04EFC30780E490F4A002851EA1281206CDE
S315020016E014F045FC30780D4A0B49002851EA128263
S315020016F00B4900F0B1F9327802200221BDE87040B0
S3150200170000F056B9B2890022DF8B050293990502D1
S3150200171042960502FB7A050284880502A99405020F
S31502001720D59B0502BFB500F09AF923281ED12046A3
S3150200173021F08BFE6D460446406B1022294613F0BB
S315020017403CFA606C294614F012FC606B13F023FA23
S315020017500246074900202B4602F0F6FB606B13F0A7
S315020017601AFA82B20320022100F022F9BFBD00BF9D
S315020017707D8A0502B0B588B000F071F923281AD126
S31502001780204621F062FE6D460446006E202229465E
S3150200179016F056FD206E16F050FD0246074900204F
S315020017A02B4602F0D1FB206E16F047FD82B20720CF
S315020017B0022100F0FDF808B0B0BD00BF9386050215
S315020017C0F8B5054621F03BFE0A2818BFF8BD2846A3
S315020017D021F03BFE00F03CF91A4E0546717881F085
S315020017E001007070002918481CBF4AF2A110C0F20D
S315020017F0A10021F068FB00F022F97078134D144F16
S31502001800002855EA1781A06C14F0B1FB3078717884
S31502001810114AC0070F4850EA1282002950EA128183
S31502001820206C14F0A4FB70780C49002855EA178244
S3150200183000F012F9727804200221BDE8F84000F0A7
S31502001840B7B800BFB2890022FFC51E00AE940502DA
S315020018500978050242960502FB7A0502BB97050244
S31502001860B0B500F0FCF80A2818BFB0BD204621F03A
S31502001870E4FD124D0446297881F001002870002902
S315020018800F481CBF4AF2A110C0F2A10021F01BFBB7
S3150200189020F07F41204600224EF0B1F928780A4A0C
S315020018A00849002851EA1282084900F0D5F82A7838
S315020018B005200221BDE8B04000F07AB8B0890022C6
S315020018C0FFC51E009B900502BB860502979905027D
S315020018D070B5054621F0B3FD0A2818BF70BD28462B
S315020018E021F0B3FD00F0B4F8144E0546317881F0CC
S315020018F001003070002912481CBF4AF2A110C0F242
S31502001900A10021F0E0FA00F09AF830780D490E4A6B
S31502001910002851EA1281A06D14F029FB30780C4A96
S315020019200A49002851EA12820A4900F095F83278EB
S3150200193006200221BDE8704000F03AB8B1890022C3
S31502001940FFC51E0042960502FB7A0502848805023F
S31502001950A9940502469605020346D0F88400024978
S31502001960002249F08FBF00BF6D19000280B521F039
S3150200197066FD102816D128F002F828F0A4F80428EB
S3150200198010D127F0FCFF28F0C9F80749002002F021
S31502001990DBFA08200221002200F00AF8BDE88040A6
S315020019A001F038BE80BD00BF918E05027047D4D4C7
S315020019B07CB516460C460546FFF790FB38B1CDE9D5
S315020019C00060034900202A46234602F0BDFA7CBD88
S315020019D0DA8F0502826891420CD0026991420BD0DD
S315020019E0826991420AD0006A084A094B814252EA48
S315020019F003807047024870470248704702487047A2
S31502001A00DA8B0502A3940502189005024F8005029F
S31502001A101B7D0502826891420BD0026991420AD06F
S31502001A208269914209D0026A0020914208BF0220CF
S31502001A30704703207047042070470120704720F04A
S31502001A407F41284600224EF0DAB80022234630476C
S31502001A500446284621F0F1BC002002F075BA04467D
S31502001A6021F0EDBC017A022901D322F0EDBC22F06D
S31502001A70E7BC80B547F0B0FEBDE880401EF021BA53
S31502001A8010B50446FFF7F5FF012084F8880020719F
S31502001A90204600F007F8D4F88400BDE8104047F06D
S31502001AA0D1BAD4D42DE9F84F0446002048F097FD68
S31502001AB0DFF8FCA24FF480614FF41672C4F884007A
S31502001AC0D047D4F8840000214BF0F1FDD4F884000D
S31502001AD0DFF8E082FF210022C047DFF8DCB20020F7
S31502001AE0D4F88450D84700F0A4F94EF088F8D4F818
S31502001AF08400002100224EF096F8D4F8840023F0E8
S31502001B0036FDDFF8B89240F20D314FF4BC72C4F8DC
S31502001B108C00C847D4F88C0096219622D047D4F878
S31502001B208C00962123F030FDA548D4F88C50D84776
S31502001B3020F07F41284623F044FD6FF07F40D4F821
S31502001B408C50D84720F07F41284623F040FDD4F838
S31502001B508C009C49332223F043FDD4F884009A4931
S31502001B6088479C214FF4E672C4F89000C847D4F81F
S31502001B70900040F207211922D047D4F890009349E9
S31502001B80934A9047D4F89000924A00219047D4F89D
S31502001B909000914B00F04AF9D4F890008F4B00F078
S31502001BA045F96FF07F40D4F89060D84720F07F4126
S31502001BB08B4B304600229847D4F8900089498A4BCD
S31502001BC000229847D4F89000884BFF2100229847BC
S31502001BD0D4F89000864B00F029F9D4F89000854B92
S31502001BE000F024F9D4F89000834B02210022984792
S31502001BF0D4F8900000210022C047D4F890007F4B11
S31502001C0000F014F9D4F890007D4B00F00FF9D4F8E7
S31502001C1090007C4B00F00AF9D4F890007A4E00212D
S31502001C200022B047D4F89000784F00210022B8472E
S31502001C30D4F8840064498847702140F2F912C4F846
S31502001C409400C847D4F8940040F286211A22D3465B
S31502001C50D047D4F894005B495D4A9047D4F8940083
S31502001C6000215C4A904700F0D7F8DFF86C91C8472C
S31502001C7000F0D2F8DFF864A1D0476FF07F404E49FA
S31502001C80D4F89450884700F0D4F8554B9847D4F8C6
S31502001C90940054490022544B9847D4F89400FF21EB
S31502001CA00022524B984700F0B7F8514B984700F084
S31502001CB0B3F8504B9847D4F89400022100224E4BB9
S31502001CC0984700F0A9F8C04700F0A6F84B4B984792
S31502001CD000F0A2F84A4B984700F09EF8494B984705
S31502001CE000F09AF8B04700F097F8B847D4F88400A5
S31502001CF0354988474FF4D8712E22304BC4F89800E4
S31502001D009847D4F89800AD212022D847D4F89800F5
S31502001D103F492F4A9047D4F8980000212D4A904710
S31502001D2000F07FF8C84700F07CF8D0476FF07F409C
S31502001D302149D4F89850884700F07BF8284B9847F9
S31502001D40D4F8980033490022274B9847D4F89800D4
S31502001D50FF210022254B984700F063F8244B984751
S31502001D6000F05FF8234B9847D4F89800022100222E
S31502001D70214B984700F055F8C04700F052F81F4B28
S31502001D80984700F04EF81E4B984700F04AF81D4B54
S31502001D90984700F046F8B04700F043F8B847D4F841
S31502001DA084004AF049F92046BDE8F84FFFF7D4BD52
S31502001DB051BF04020DFC0402C72E02023BBA040202
S31502001DC024322C00DA970502555F01024A76050293
S31502001DD06F5F0102FB60010271FC040235FD040221
S31502001DE0EBFC0402C0CB060205FD0402F9FC040268
S31502001DF011FD04021DFD040229FD0402CFFB0402AB
S31502001E00F3FB0402DBFB0402E7FB040289FC040287
S31502001E100E98050244990702D4F894000021002284
S31502001E207047D4F898000021002270470021002252
S31502001E30184720F07F412846002270472DE9F84FC7
S31502001E400446DFF8E41F00208847DFF8E08F4FF4EE
S31502001E5080614FF416722060C0472068DFF8D02FE9
S31502001E60002190472068DFF8CC9FFF210022C84757
S31502001E70DFF8C4AF00202568D04720F07F41DFF8A5
S31502001E80BC6F28460022B0472068DFF8B47F0021E5
S31502001E900022B8472068DFF8AC1F8847DFF8A83F62
S31502001EA04FF437719522A0609847A06850215022BE
S31502001EB0C047A068DFF8941F8847DFF8941FDFF851
S31502001EC0942FE0609047E068DFF88C2F002190475E
S31502001ED0E068DFF8885F01F079FBA847A068DFF8C1
S31502001EE0801F8847E068FD49DFF8782F9047A06891
S31502001EF080210022C8476FF07F40A568D04701F0D5
S31502001F0032FBB047A06801F069FBF548A568D047E7
S31502001F1020F07F41DFF8503F284600229847A0680C
S31502001F20DFF8483F01F027FBA068DFF844BF01F065
S31502001F3058FBA068DFF83C8F01F01AFBA068DFF8B7
S31502001F40383F052100229847A068DFF8303F01F0AC
S31502001F5012FBE448A568D04720F07F41DFF8207FD6
S31502001F6028460022B847A068DFF8181FDFF8183F96
S31502001F7000229847A068DFF8143FFF210022984705
S31502001F80A068DFF80C3F0221002298472068DFF89C
S31502001F90B41E884740F28F319522DFF8AC3E2061AD
S31502001FA09847206950215022DFF8803E98472069E1
S31502001FB0DFF8981E8847DFF8DC1EDFF8982E60618E
S31502001FC0904760690021DFF8902E9047606901F022
S31502001FD0FDFADFF8885EA8472069DFF8841E884785
S31502001FE06069BE49DFF87C2E904720698221002273
S31502001FF0C847BD4825695646D04701F0B4FADFF80E
S315020020003C9EC847206902210022DFF834AED04741
S315020020106FF07F402569B04701F0A5FADFF8483E28
S315020020209847206900210022DFF8403E9847206940
S3150200203001F0D7FA206901F09BFA206905210022F6
S31502002040DFF8348EC047206900210022DFF82CBE5B
S31502002050D84700202569B04701F085FAB847DFF86E
S31502002060247E20690022DFF8203E394698472069FF
S31502002070FF210022DFF8143E984720690221002240
S31502002080DFF80C3E98472068DFF8B81D884740F213
S3150200209035313B22DFF8B03DA0619847A069502157
S315020020A05022DFF8883D9847A069DFF8A01D8847CF
S315020020B0DFF8E41DDFF89C2DE0619047E06900211E
S315020020C0DFF8942D9047E06901F080FADFF88C5D25
S315020020D0A847A069DFF8881D8847E0697F49DFF8CD
S315020020E0842D9047A06982210022DFF8483D984757
S315020020F06FF07F40A569B04701F035FAC847A0697D
S3150200210002210022D0477848A569B04701F02BFA90
S31502002110DFF8543D9847A06900210022DFF84C3DC4
S315020021209847A069FF210022DFF8443D9847A0693D
S3150200213000210022DFF83CADD047A069052100222C
S31502002140C047A06900210022D8470020A569B047F0
S3150200215001F009FADFF8283D9847A06939460022BE
S31502002160DFF8243D9847A069FF210022DFF81C3DD5
S315020021709847A06902210022DFF8143D984720689B
S31502002180DFF8C01C884740F23531EF22DFF8B83C51
S3150200219020629847206A50215022DFF8903C9847E7
S315020021A0206ADFF8A81C8847DFF8F01CDFF8A42CA9
S315020021B060629047606A0021DFF89C2C9047606A53
S315020021C001F004FADFF8945CA847206ADFF8901C55
S315020021D08847606A4149DFF88C2C9047206A7E2145
S315020021E00022DFF8507CB8476FF07F40256AB0477F
S315020021F001F0B9F9C847206A02210022DFF8403C03
S3150200220098473948256AB04701F0ADF9DFF8583CDE
S315020022109847206A00210022DFF8503C9847206A3E
S31502002220FF210022DFF8483C9847206A002100225D
S31502002230D047206A05210022C047206A00210022D9
S31502002240D8470020256AB04701F08DF9DFF8303C07
S315020022509847206ADFF82C1C0022DFF82C3C9847AE
S31502002260206AFF210022DFF8243C9847206A0221D7
S315020022700022DFF81C3C98472068DFF8C81B884715
S3150200228040F235319522DFF8C03BA0629847A06A3A
S3150200229050215022DFF8943B9847A06ADFF8AC1B26
S315020022A08847DFF8FC1BDFF8AC2BE0629047E06A58
S315020022B00021DFF8A42B9047E06A01F087F9DFF8E6
S315020022C09C5BA847A06ADFF8981B8847E06A034927
S315020022D0DFF8902B904700F009B800BF6400002099
S315020022E08888880002000D006F6F6F00A06AFF21C8
S315020022F00022B8474FF47F40A56AB04701F033F990
S31502002300C847A06A00210022DFF8343B9847A06A3A
S3150200231000210022D047A06A192100225746C04751
S31502002320A06A03210022D847FC48A56AB04701F0FB
S315020023301AF94DF0C1FCA06AFF2100224DF0C3FC40
S31502002340A06A002100224DF0B1FCA06A0121002200
S315020023504DF0A0FCA06A012100224DF0A1FC002054
S31502002360A56AB04701F0FFF8DFF8143B9847A06A68
S31502002370DFF8301B0022DFF8103B9847A06AFF21E6
S315020023800022DFF8083B9847A06A02210022DFF804
S31502002390003B98472068DFF8901A884740F2E72109
S315020023A040F25912DFF8A0AA2063D047206BE6213B
S315020023B0D722DFF8783A9847206B0021DFF8702A97
S315020023C09047206B01F00AF9206BDFF8DC3AFF2117
S315020023D000229847D248256BB04720F07F41DFF8AC
S315020023E0CC3A284600229847206BDFF8C43A01F01F
S315020023F0C2F8206B01F0BCF84746206B442100224C
S31502002400DFF8308AC0476FF07F40256BB04701F096
S31502002410AAF8C847206B00210022DFF824BAD84761
S31502002420206BDFF8903A01F0A6F8206BDFF8883AC5
S3150200243001F0A1F8206BDFF8843A01F09CF8206BDA
S31502002440DFF87C3A01F097F8206B00210022DFF8D2
S315020024502C3A9847206B12F0CBF913213022606395
S31502002460D047606BC221DFF8FC299047606BDFF82A
S31502002470541A002212F0CCF9606B05210022B847EB
S31502002480606BFF210022C047A648656BB04701F08A
S315020024906AF8C847606B00210022D8476FF07F4078
S315020024A0656BB04701F05FF8DFF8D4A93746D0472D
S315020024B0606BDFF8141A0022DFF8CC69B047606B54
S315020024C0FF210022DFF8C4B9D847606B022100223F
S315020024D0DFF8BC399847606B02210022DFF8943995
S315020024E09847606BFF210022DFF8BC3998478E4877
S315020024F0656BB84701F037F8DFF8B0399847606B7B
S315020025000F210022DFF8A8399847606B00210022CC
S31502002510DFF8A8399847606B00210022DFF8A0395E
S315020025209847606B00210022DFF8683F9847606B8E
S3150200253038214FF48022C0476FF07F40656BB84761
S3150200254020F07F4128464FF48022C847606B002165
S315020025504FF48022DFF80C3F984749F2E670656B2C
S31502002560B84720F07F4128464FF48022D146D04713
S31502002570606BDFF8501F4FF48022B047606BFF217B
S315020025804FF48022D847606B042112F0E2FA206BE6
S31502002590DFF8DC1E884745211322DFF8D0AEA063A0
S315020025A0D047A06B64212022DFF8A43E9847A06B97
S315020025B0DFF8141FDFF8BC2E9047A06B0021DFF86E
S315020025C0B82E904700F0FEFFDFF8C03E984700F0B5
S315020025D0F9FFDFF8BC3E98476FF07F40A56BB8471E
S315020025E000F0C1FFC847A06BDFF8E01E0022B0472B
S315020025F0A06B00F0F6FFA06BDFF8D43E00F0BBFF45
S31502002600A06BDFF8D03E00F0B6FFA06B02210022DD
S31502002610DFF8903E984700F0D5FFDFF83C7EB847DA
S3150200262000F0D0FFDFF88CBED84700F0CBFFDFF812
S31502002630903E984700F0C6FFDFF87C6EB04700F088
S31502002640C1FFDFF8788EC04700F0BCFFDFF8443EDA
S3150200265098472068DFF8F41D8847422140F2591254
S31502002660E063D047E06B4FF42071D722DFF8E03DFC
S315020026709847E06B0021DFF8DC2D9047E06B0221E2
S315020026800022DFF8083E9847E06BFF210022DFF8C0
S31502002690183E98472248DFF8C49DE56BC84700F00C
S315020026A062FFDFF8083E984700F094FFDFF8003E2D
S315020026B0984700F08FFFDFF8D83D9847E06B4B2133
S315020026C00022B8476FF07F40E56BC84700F04BFF2A
S315020026D0DFF88C7DB84700F07DFFDFF8883D98472C
S315020026E000F078FFD84700F075FFB047E06B00F0C6
S315020026F03FFF00F06FFFDFF8C88DC04700F06AFFAA
S31502002700DFF8903D9847E06BDFF8641D8847962115
S315020027106E222064D047206C00F008B83B4B0D00B7
S31502002720F6952100252525005B5B5B00DC2128222E
S31502002730DFF81C3D9847206CDFF89C1DDFF8342D2E
S315020027409047206C0021DFF8302D904700F036FFCD
S31502002750DFF8383D984700F031FFDFF8343D9847FF
S315020027600020256CC84700F0FEFEDFF82C3D984796
S31502002770206CDFF8681D0022DFF820BDD847206CE8
S31502002780FF210022DFF8183D984700F017FFDFF817
S31502002790403D984700F012FFDFF8383D9847206C1D
S315020027A002210022DFF8FC3C9847206C812100229E
S315020027B0DFF8A4ACD0476FF07F40256CC84700F025
S315020027C0D2FE4E46B84700F0F9FEDFF8987CB847CD
S315020027D0206C0A210022DFF8DC9CC847206C00F03E
S315020027E0C7FE00F0EBFEDFF8D08CC04700F0E6FE35
S315020027F0DFF8C83C984700F0E1FEDFF8983C9847BE
S31502002800E06BDFF86C1C884796213C22DFF85C3CC3
S3150200281060649847606CDC212822DFF8343C9847D4
S31502002820606CDFF8BC1CDFF84C2C9047606C002112
S31502002830DFF8442C904700F0BDFEDFF8503C984785
S3150200284000F0B8FEDFF8483C98470020656CB047B8
S3150200285000F089FEDFF8403C9847606CDFF87C1C8C
S315020028600022D847606CFF210022DFF8343C9847EB
S3150200287000F0A0FEDFF8583C984700F09BFEDFF818
S31502002880543C9847606C02210022DFF8183C9847B6
S31502002890606C80210022D0476FF07F40656CB047A4
S315020028A000F061FEDFF8B83B984700F083FEB847B8
S315020028B0606C0A210022C84700F07CFEDFF8009C0B
S315020028C0C847606C00F054FE00F074FEDFF8EC3B83
S315020028D0984700F06FFEDFF8BC3B9847E06BDFF8E5
S315020028E0901B884796210A22DFF8803BA06498470E
S315020028F0A06CDC212822DFF8583B9847A06CDFF851
S31502002900E41BDFF8702B9047A06C0021DFF8682BE0
S31502002910904700F04BFEDFF8743B984700F046FE06
S31502002920DFF86C3B98470020A56CB04700F01BFE11
S31502002930DFF8643B9847A06CDFF8A01B0022D8475B
S31502002940A06CFF210022DFF858ABD04700F02EFE24
S31502002950DFF87C8BC04700F029FEDFF8783B98470A
S31502002960A06C02210022DFF83C7BB847A06C8021D4
S315020029700022DFF8E43A98476FF07F40A56CB04733
S3150200298000F0F1FDDFF8D83A984700F00FFEDFF8C5
S31502002990D43A9847A06C0A210022DFF8183B9847E0
S315020029A000F004FEC84700F001FEDFF80C3B984732
S315020029B000F0FCFDDFF8043B984700F0F7FDDFF876
S315020029C0D43A9847E06BDFF8A81A884719210A22F9
S315020029D0DFF8983AE0649847E06C64212822DFF831
S315020029E0703A9847E06CDFF8001BDFF8882A9047B8
S315020029F0E06C0021DFF8802A904700F0D3FDDFF873
S31502002A008C3A984700F0CEFDDFF8843A98470020CA
S31502002A10E56CB04700F0A7FDDFF87C3A9847E06C1A
S31502002A20DFF8B81A0022D847E06C00F0DDFDE06C52
S31502002A3000F09EFD00F0B6FDDFF8983A9847E06C8C
S31502002A4000F0CCFDE06C82210022DFF80C3A9847B8
S31502002A506FF07F40E56CB04700F085FDDFF8003A85
S31502002A60984700F09FFDDFF8FC399847E06C0A2191
S31502002A700022DFF8403A984700F094FDC84700F07C
S31502002A8091FDDFF8348AC04700F08CFDDFF82C3A5E
S31502002A90984700F087FDDFF8FC399847E06BDFF8CE
S31502002AA0D019884719216E22DFF8C0392065984768
S31502002AB0206D64212822DFF898399847206DDFF8C7
S31502002AC02C1ADFF8B0299047206D0021DFF8A829DB
S31502002AD0904700F057FDDFF8B439984700F052FDF1
S31502002AE0DFF8AC3998470020256DB04700F03BFD72
S31502002AF0DFF8A499C847206DDFF8E0190022D8470D
S31502002B00206D00F071FD00F03DFDDFF8C4399847F5
S31502002B1000F038FDDFF8BC399847206D00F05EFD05
S31502002B20206D82210022DFF8303998476FF07F400E
S31502002B30256DB04700F017FDDFF82439984700F0FD
S31502002B4021FDDFF82039984700F01CFDDFF86439D3
S31502002B50984700F017FDDFF868399847206D00F0B6
S31502002B6007FD00F00FFDDFF85439984700F00AFD23
S31502002B70DFF820399847E06BDFF8F488C04719215F
S31502002B803C22DFF8E83860659847606D64212822A8
S31502002B90DFF8BC389847606DDFF85419DFF8D4289F
S31502002BA09047606D0021DFF8D028904700F0F2FCD4
S31502002BB0DFF8D838984700F0EDFCDFF8D4389847AC
S31502002BC00020656DB04700F0CEFCC847606DDFF8A7
S31502002BD00C190022D847606D00F006FD00F0DAFC01
S31502002BE0DFF8EC38984700F0D5FCDFF8E83898476C
S31502002BF0606D00F0F3FC606D82210022DFF8583828
S31502002C0098476FF07F40656DB04700F0ACFCDFF887
S31502002C105038984700F0BEFCDFF848389847606D98
S31502002C200A210022DFF88C38984700F0B3FCDFF85F
S31502002C309038984700F0AEFCDFF87CA8D04700F049
S31502002C40A9FCDFF87838984700F0A4FCDFF844388E
S31502002C509847E06BC0479621A022DFF81078A0655E
S31502002C60B847A06DDC212822DFF8E497C847A06D9B
S31502002C70DFF86418DFF8FC279047A06D0021DFF823
S31502002C80F827904700F082FCDFF80038984700F0FA
S31502002C907DFCDFF8FC3798470020A56DB04700F0B1
S31502002CA062FCDFF8F4379847A06DDFF8301800228F
S31502002CB0D847A06DFF210022DFF8E487C04700F065
S31502002CC065FCDFF80C38984700F060FCDFF8043842
S31502002CD09847A06D02210022DFF8C8379847A06DF9
S31502002CE081210022DFF8703798476FF07F40A56D8B
S31502002CF0B04700F038FCDFF86837984700F046FC2A
S31502002D00DFF860379847A06D0A210022DFF8A43762
S31502002D10984700F03BFCDFF8A837984700F036FCEE
S31502002D20D04700F033FCDFF89437984700F02EFCCA
S31502002D30DFF860379847E06BDFF8341788471921C8
S31502002D40A022E065B847E06D64212822C847E06DFD
S31502002D50DFF8A017DFF81C279047E06D0021DFF8A7
S31502002D601827904700F00AFCDFF82037984700F052
S31502002D7005FCDFF81C3798470020E56DB04700F0E8
S31502002D80F2FBDFF8143737469847DFF85017E06D45
S31502002D9000220E46D847E06DFF210022C04700F010
S31502002DA0EDFBDFF82C37984700F0E8FBDFF8243715
S31502002DB09847E06D02210022DFF8E8369847E06D79
S31502002DC082210022DFF8903698476FF07F40E56D4A
S31502002DD0B84700F0C8FBDFF88836984700F0CEFB0C
S31502002DE0DFF88036984700F0C9FBDFF8C896C84777
S31502002DF000F0C4FBDFF8C8A6D04700F0BFFBDFF83F
S31502002E00B836984700F0BAFBDFF8B086C04700F044
S31502002E10B5FBDFF880369847E06B15F045F94FF4BD
S31502002E20FF710A2200F052B8DFA5040251BF040264
S31502002E30AFD604020DFC0402C72E0202FFFB0402F7
S31502002E4027FC04023FBE01023BBA0402555F01029F
S31502002E50318405026F5F0102FB600102F9C00402C0
S31502002E603935000267BF040219FC040233FC04026E
S31502002E703FFC040271FC040235FD040289FC0402D3
S31502002E80EBFC0402A023080205FD0402F9FC04027D
S31502002E9029FD0402669A0502B9930502D78C05023A
S31502002EA0939905023820070265FC040257FC0402C6
S31502002EB07DFC0402CFFB0402DBFB0402E7FB0402F7
S31502002EC0F3FB0402DB8C0502F4D70502DFF89C351E
S31502002ED020669847206E6E212822DFF874359847BF
S31502002EE0206EDFF8141615F0EFF8EC48256EB84799
S31502002EF000F039FBDFF8A0359847206E31460022F4
S31502002F00D847206EFF210022DFF894359847206EBD
S31502002F1001210022DFF874359847206EFF21002236
S31502002F20DFF884359847DE48266E8346B84720F098
S31502002F307F4130460022DFF874359847206E0F2114
S31502002F400022DFF86C359847206E0A210022C84716
S31502002F50206E06210022C047206E06210022D0479D
S31502002F60206E03210022DFF828359847206E822141
S31502002F700022DFF8E43498476FF07F40266EB847A8
S31502002F8020F07F4130460022DFF8D4349847206E85
S31502002F9000210022DFF8CC349847206E002100225F
S31502002FA0DFF8F0349847DFF85495DFF85455484671
S31502002FB0A8474846012121F007FC4846FF2121F097
S31502002FC0FFFB5846B84720F07F41484621F0F3FB05
S31502002FD048460F2121F0FCFBDFF82865484603210D
S31502002FE0B047DFF824254846FF2190474AF2B5103C
S31502002FF0B84720F07F41DFF814254846B846904787
S31502003000DFF80C25484600219047206EDFF80415AC
S315020030108847DFF8043549464FF00412984709F10C
S315020030200C073846A84738465A2121F086FB9B48AA
S31502003030C04720F07F41384621F00EFCDFF8DC1451
S31502003040384621F012FC3846FF2121F00AFC3846A8
S31502003050012121F0B9FB3846FF2121F0B1FB584688
S31502003060C04720F07F41384621F0A5FB38460F21A4
S3150200307021F0AEFB38460321B0473846FF21DFF880
S3150200308088A4D0476FF07F40C04720F07F41384682
S31502003090DFF87884C04738460021DFF874B4D84791
S315020030A0206EDFF87014884739460022DFF868740C
S315020030B0B84709F11805DFF8481428468847284614
S315020030C00321B0472846FF21D0474FF47F40DFF85F
S315020030D08C63B04720F07F412846C047284600212E
S315020030E0D847206EDFF82C14884729464FF48032E1
S315020030F0B847E06BDE49884740F287110A22DFF8BB
S315020031006C936066C847606E64212822DFF84083AC
S31502003110C047606EDFF80814D64A9047606E0021F9
S31502003120D54A904700F03AFAD84B984700F036FA5B
S31502003130D74B98470020656EB04700F014FAD64B7D
S315020031409847606EDFF894130022D44B9847606E5E
S31502003150FF210022D24B984700F020FADC4B984719
S3150200316000F01CFADB4B9847606E02210022CD4B21
S315020031709847606E82210022DFF8DCA2D0476FF00A
S315020031807F40656EB04700F0EEF9DFF8D4B2D8475B
S3150200319000F004FADFF8CC82C047606E0A210022F2
S315020031A0C44B984700F0FAF9C54B984700F0F6F978
S315020031B0C14B984700F0F2F9C04B984700F0EEF980
S315020031C0B44EB0472068A849884742213B22A066F0
S315020031D0C847A06E642132229D4B9847A06EA4492F
S315020031E08847D049A34AE0669047E06E0021A24A8A
S315020031F09047E06E00F0EAF9A04DA847A06EA049FC
S315020032008847E06E9F49A04A9047A06E00F0ECF90D
S31502003210C548924FA56EB84700F0A5F9D847A06EEB
S3150200322000F0A6F9A06E00210022984B9847A06EE6
S3150200323005210022DFF85892C847A06E002100221D
S31502003240B0476FF07F40A56EB84700F08CF9924EFA
S31502003250B047A06EB5490022DFF840A2D047A06E63
S31502003260FF210022DFF838B2D847A06E02210022E1
S31502003270DFF83082C04720687B49884742218F2287
S31502003280DFF8E8912067C847206F64213222704E2A
S31502003290B047206F7649884700F004B855300D00D4
S315020032A0EEE6E100A249734A60679047606F00212B
S315020032B0714A9047606F00F089F9704DA847206FF8
S315020032C06F498847606F6F496F4A9047206FFF21A9
S315020032D00022614B98479448256FB84700F043F99E
S315020032E05F4B9847206F002100225E4B9847206F64
S315020032F000210022654B9847206F05210022644B6E
S315020033009847206F00210022624B98476FF07F405A
S31502003310256FB84700F027F95F4B9847206F83491E
S315020033200022D047206F00F05CF9206F02210022B4
S31502003330C04720684C4988474221E022A067C84717
S31502003340A06F64213222B047A06F49498847794964
S31502003350484AE0679047E06F0021474A9047E06F8E
S3150200336000F034F9454DA847A06F45498847E06FFC
S315020033704449454A9047A06FFF210022364B9847A1
S315020033806948A56FB84700F0EEF8354B9847A06F2D
S3150200339000210022334B9847A06F002100223B4BAD
S315020033A09847A06F05210022394B9847A06F00214C
S315020033B00022384B98476FF07F40A56FB84700F060
S315020033C0D2F8354B9847A06F58490022D047A06FD4
S315020033D000F007F9A06F02210022C047206814F00E
S315020033E052F9D4212F22C4F88000C847D4F88000AD
S315020033F04FF4F0714FF48872B047D4F8800002217E
S3150200340047F0FCF8D4F88000002114F049F9D4F80A
S3150200341080003221322214F031FBD4F880000021E0
S3150200342014F087FAD4F88000002100224CF057FCF1
S31502003430D4F88000FF2100224CF04BFC206848F0B3
S31502003440FBFD2046BDE8F84FFEF788B8DFA504026B
S3150200345051BF0402AFD604020DFC0402C72E0202BB
S31502003460FFFB040227FC04023FBE01023BBA040230
S31502003470555F01026F5F0102FB600102F9C004029F
S31502003480393500026400002067BF040271FC0402A1
S3150200349035FD040289FC0402EBFC040205FD04026C
S315020034A0F9FC040229FD040265FC040257FC04022D
S315020034B07DFC0402CFFB0402DBFB0402E7FB0402F1
S315020034C0F3FB0402409C05029F7F05021882060256
S315020034D011FD04021DFD0402FB7A0502C0CB0602A1
S315020034E0B599050209780502007B0502888805025E
S315020034F071760502BD930502A68A0502B4890022E9
S31502003500651A000283480202954702028B470202AD
S31502003510A74702022582010269E90402541806023B
S31502003520B88A0502067B0502A1A1A10098440602FB
S31502003530BE8A0502E48B050210B50021002204466C
S315020035404CF051FB2046002100224CF052FB204653
S31502003550002100224CF03BFB204600210022BDE860
S3150200356010404CF03ABB20F07F41284600227047BB
S31502003570002100224047002100221847E06D002169
S3150200358000227047206D002100227047A06D0021A5
S3150200359000227047606D002100227047606E002194
S315020035A000227047E06C002100227047A06C0021C7
S315020035B000227047606C002100227047206C0021B7
S315020035C000227047A06B00210022704709210022C9
S315020035D000237047E06B002100227047022100227F
S315020035E03847FF2100225847FF2100225047D4D4F2
S315020035F010B546F0E6F84CF0D3FB054C2046FEF734
S3150200360051FAD4F88400BDE8104045F01BBD00BF56
S31502003610C8E6002210B546F0D4F84CF0C1FB044CC3
S315020036202046FEF70BFC2068BDE8104045F00ABDB7
S31502003630C8E600222DE9F041204800218160C160E0
S3150200364001614161017081614170C0F80210C1617E
S315020036501B481C494EF082FC08B1054608E01A4890
S315020036601A494EF07BFC30B1054615484EF0A8FDCE
S315020036702846BDE8F08116480326DFF8588000F197
S315020036800C07013E18D037F8021C404604224FF0C0
S3150200369097FA0028E1D117F80C0C102207F10E0454
S315020036A0002808BF44F21002398840464FF088FAD3
S315020036B000282746E5D0D0E70025D9E7D889002299
S315020036C0582F172204C90902282F1722C4C8090233
S315020036D050000022442E172209B1012801D90120E7
S315020036E07047F0B5C0EBC0000C4F0B4E064A074BB5
S315020036F0074C084DC1E90254C1E9043207EB400008
S31502003700C1E900060020F0BD353800022D3800025E
S31502003710F5370002D137000221370002500000229D
S3150200372010B309B302B3FBB12DE9F84390F8009048
S31502003730DFF890800020254C072504F1080708EBE6
S315020037400906B9F1000FB07030711F4808BF00F1C9
S31502003750080750EA04803F68FF6800950068B8478A
S3150200376020B10146022026E00120704741F288344A
S3150200377008F1140744B1B078012808D001200121CC
S3150200378051F002F9013CF5E70320142110E03079EB
S31502003790012814D1D8F8080008F110070130C8F83A
S315020037A00800B9F1000F08BF08F10C07002100203C
S315020037B03A6801323A60C8F81810BDE8F883022068
S315020037C0BDE8F883D889002228C90902E8C8090297
S315020037D058B180B50A46418905484FF04FFA00288C
S315020037E018BF0220BDE8804000E00120C0B2704749
S315020037F0442E172258B11CB50C4651B181890A488C
S315020038000DF107024FF02AFA28B102201CBD012051
S31502003810704701201CBD9DF8070000285FEA1F9033
S31502003820207000201CBD00BF442E1722084601212D
S3150200383051F0AAB808464FF47A7151F0A5B8D4D41B
S31502003840BCB5134D002014496870E86111484FF069
S3150200385099FF0446C8B90F484FF0D6FF20B1044677
S315020038600C484FF0EBFF10E001208DF807000DF138
S3150200387007020A4881890A484FF0F0F920B99DF8F3
S31502003880070008B90120687000242046BCBD00BFAD
S31502003890D8890022142E17225CC709025000002282
S315020038A0442E172260B10122EFF3108182F31088B1
S315020038B0044A537803700020507081F310887047D1
S315020038C003207047D88900220148C069704700BFAB
S315020038D0D889002228B103490079087008710120AD
S315020038E088707047D889002228B103490079087088
S315020038F048710120C8707047D88900220348C169FF
S315020039000131C16101214170704700BFD88900228F
S3150200391010B5144CA821204653F027FE0320134964
S31502003920206160611048A061E1614FF4806121620B
S315020039300021A1626162E16220660D486066102084
S31502003940A0662167E16661670A49BFF35F8F0F319F
S3150200395028B111F80129013804F8012BF8E7BFF361
S315020039605F8F10BDF8890022B28E0502A08A00225E
S31502003970A08E0022C4BD0902C268016991428FBFAE
S31502003980D043D24311448068084470472DE9F04180
S315020039900446884640681546D4E902168F1B304411
S315020039A0BA4207D241462A4653F0E3FD3544BFF3F5
S315020039B05F8F0CE041463A4653F0DBFDED1B08EB08
S315020039C0070160682A4653F0D4FDBFF35F8FE560B6
S315020039D0BDE8F0812DE9F84314460D468046C768D6
S315020039E04FF00009D8F81000F943B8420844D8F855
S315020039F0081098BF0844C91B884250EA31802946FC
S31502003A00A04250EA3486D8F804003844324653F0CD
S31502003A10B0FDD8F80810F0193544B144BFF35F8FF2
S31502003A20411A50EA1187A41BC8F80C70DAD148462D
S31502003A30BDE8F88370B500EB40000D461149144607
S31502003A4001EBC00000F11806C06A022813D0012853
S31502003A5007D020B93046FFF78FFFA04207D20024D5
S31502003A6007E03046FFF788FFA04250EA348400F0B0
S31502003A704AF8204670BD304629462246BDE87040C7
S31502003A80FFF7A8BFF8890022F8B506460A48144689
S31502003A900D460078532801D0FFF73AFFEFF311875E
S31502003AA04FF0200181F31188304622462946FFF75E
S31502003AB0C1FF87F31188F8BDF889002270B50D4E53
S31502003AC000F01CF801D0FFF723FF022D84BF4FF050
S31502003AD0FF3070BD05EB4500EFF311824FF0200178
S31502003AE081F3118806EBC000C462002082F31188BC
S31502003AF070BD00BFF8890022FFF70ABF05460C46D3
S31502003B00307853287047304629462246FFF73EBF93
S31502003B102DE9F04F9BB00F46904602901A90402036
S31502003B200DF158090A25002600211891179006A8BA
S31502003B301690199104923C4614F8011B252907D0C8
S31502003B40002900F06081484600F06EF9274654E1EC
S31502003B50F81C4FF0000B2178232909D02B2905D018
S31502003B602D2907D030290BD1022104E0042102E0DD
S31502003B70082100E001214BEA010B01300134EAE79A
S31502003B804FF0000A3029A0F102020CD339291AD8C3
S31502003B900AEB8A0201EB4201421CA1F1300A10F83B
S31502003BA0011C1046EEE72E290DD1024612F8013D00
S31502003BB02A2B48D1D8F800100A1DC8F800200C6834
S31502003BC00121024601E000210024571C17F8010CCE
S31502003BD0A0F16302092A0DD8DFE812F074007C0016
S31502003BE00F010F010F010A000F010F010F010A0059
S31502003BF00137EBE7A0F17002082A16D8DFE812F0C7
S31502003C000900FD00FD004000FD003400FD00FD003E
S31502003C101A00D8F800000822082300F0A2F90020B2
S31502003C20CDE900201022484627E0252876D05828DC
S31502003C3040F0E380D8F80000102200F092F9CDE9B6
S31502003C4000AB484618E000210024A3F13A0010F127
S31502003C500A0FBAD304EB8400012103EB400012F8E9
S31502003C60013FA0F13004F0E7D8F800000A2200F084
S31502003C7078F94846CDE900AB234600F0F5F8BCE0FA
S31502003C80D8F800004FF00A0A021DC8F800200068A2
S31502003C90644A002850EA12865FEA0F9001EA00059C
S31502003CA016F8011B61B1002C5FEA1F90054207D18D
S31502003CB0484600F0B9F81998013CB0F1FF3FEFDC35
S31502003CC055469AE0D8F80000011DC8F800100178A0
S31502003CD0484625E0D8F80000011DC8F80010D0F8C3
S31502003CE00090C9F100000590B9F1000F484648BF9F
S31502003CF0059801210A2803DBB0FBF5F00131F9E74B
S31502003D008C4254EA8188BAF1000F0CD0B9F1000F47
S31502003D1054BF5FEA4B70AAF1010A06E04846252124
S31502003D2000F082F869E04FF0000A5FEA8B700390B8
S31502003D300FD574B9002E4FF00A0524D4B9F1000F3D
S31502003D4026D45FEA4B7025D4CDF814900DF15809AC
S31502003D502BE05FEACB70EDD1BAF1000FEAD0AAF1FF
S31502003D600105554538BFD045E4D216A8202100F0FA
S31502003D705BF8199EAA46002EF1D5DDF810800DF1EA
S31502003D8058090A2539E0DDF810800DF1580934E0AA
S31502003D902D2102E02B21CDF814900DF15809484649
S31502003DA000F042F81998002825D403980A2600281C
S31502003DB00BD4059948460A222346CDE900AB00F00A
S31502003DC053F8DDF81080354617E00BF0010020436A
S31502003DD0EFD1BAF1000FECD0AAF10105554538BF73
S31502003DE0D045E6D24846302100F01EF81998AA4678
S31502003DF00028F1D5E5E7DDF81080199EB6F1FF3F00
S31502003E003FF799AE0AE046B1189C24B106A902987A
S31502003E102246FFF739FE264400E0002630461BB054
S31502003E20BDE8F08F3584050210B5D0E901230446BA
S31502003E30581C904201D9184606E02268D154A06067
S31502003E40E16862680131E160904208D12168206927
S31502003E50FFF71AFEA168884202D10020A06010BDB9
S31502003E604FF0FF30E06010BD2DE9F84F1546814650
S31502003E701F460E460120DDE90AB2A94203D3B1FB71
S31502003E80F5F10130F9E7874257EA808ABBF1000F64
S31502003E901BD012F0010018D190074FF0200148BF45
S31502003EA030212020002F51EA0088BBF1000F0CD0F0
S31502003EB0DA450AD248464146FFF7B6FFD9F80C0062
S31502003EC0ABF1010BB0F1FF3FEFDCD9F80C00002893
S31502003ED035D40124022F01D3013F03E0B6FBF4F0EF
S31502003EE0A84201D36C43F5E7DFF85880B6FBF4F736
S31502003EF0484618F80710FFF797FFD9F80C00002874
S31502003F0006D4B4FBF5F007FB1466A5420446EDD9C8
S31502003F100B98C00718BFBBF1000F0AD10FE0484645
S31502003F202021FFF781FFD9F80C00A346B0F1FF3F2D
S31502003F3005DDABF101045C4538BFDA45EFD3BDE8D8
S31502003F40F88F00BFD8BD090282B0E0B5CDE90423DF
S31502003F5004AA019201AAFFF7DBFDBDE88C4002B07C
S31502003F607047011DC8F800100168704710B50A486D
S31502003F70C06808B100240CE0074808494EF0B0FFBB
S31502003F800028F7D004460649064A074B0020FFF7E9
S31502003F90DBFF204610BD00BFE82E17228CC809029F
S31502003FA0BB8E050217980502177F05022DE9F0411F
S31502003FB005464FF47A77124E124CDFF84C80307871
S31502003FC085420CD0307801280BD00A20012150F00E
S31502003FD0DBFC013F3804F2D11425444603E00025F8
S31502003FE00BE04FF4967509484EF0EEFF00200849A3
S31502003FF0084A23463070FFF7A7FF2846BDE8F0813E
S31502004000B08E0022237D05024F980502E82E172264
S31502004010BB8E0502D98E0502F8B5194F0E46002150
S3150200402040BA022201233970ADF8020015480DF19B
S3150200403002014EF0C4FF10B10546134C10E000F029
S3150200404065F8124C08B105460AE000203870314680
S31502004050012200230B484EF0ADFF48B105460C4C39
S315020040600C490D4A00202346FFF76EFF2846F8BD8D
S315020040700220FFF79BFF0028E5D10025F6E700BFE7
S31502004080B08E0022E82E1722107805023878050233
S3150200409028980502BB8E05020D7705021CB5114A4A
S315020040A0002313708DF80600000A8DF807108DF8AC
S315020040B005000DF1050103220B484EF080FF10B1F9
S315020040C004460A4B04E000F021F840B10446084BCE
S315020040D00849094A0020FFF737FF20461CBD002485
S315020040E0FBE700BFB08E0022E82E172210780502E9
S315020040F038780502BB8E0502B999050210B102494C
S3150200410000790870704700BFB08E00220320FFF7C7
S315020041104DBFD4D403480121017081690131816107
S31502004120704700BFB48E002280B55D2000F008F80B
S3150200413020B11420BDE8804000F002B8002080BD06
S315020041402DE9FC41DFF8B880044600202D4D2E4EA5
S3150200415040F20661002288F80300C8F80C000190BC
S315020041602846B047284640F20B1104224EF028FD9D
S31502004170264F142000F0F2F8142C5FEA1F9228460C
S3150200418040F20B11B047022000F0E8F8284640F250
S3150200419006610122B0470A2000F0E0F8284640F204
S315020041A00B1100224EF00CFD642000F0D7F81848DF
S315020041B0214601224EF00EFFC0B901A948F2401075
S315020041C0042200F0B9F888B908F10C00042101AA0A
S315020041D029B112F8013B013900F8013BF8E748F230
S315020041E04000002188F80340FFF758FFC8F808008E
S315020041F05D2C14BFC8F81400C8F81000BDE8FC8195
S31502004200B48E0022442E17227D2C0502894905020E
S31502004210E82E172210B5FFF787FF044650B9064865
S3150200422006494FF0AFFA10B903484FF0EDFA0448C9
S3150200423000218160204610BD242E172274C7090270
S31502004240B48E00222DE9FE4F064600208DF80B00A3
S31502004250A6B10C4691B1934682B120708BF800004C
S315020042600DF10B0148F24E10FFF7D6FE58B1304958
S3150200427088600A6A01320A62BDE8FE8F2C49012073
S315020042808860BDE8FE8F9DF90B00294D00286870F5
S3150200429003D40020A860BDE8FE8F00F00F000528B9
S315020042A0824628BF4FF0050AA8B12248B51C00274E
S315020042B00DF103098046BA4511D008EBC7004946FD
S315020042C0082280B200F038F818BB0198013745F889
S315020042D0020C0435EFE704208BF8000009E0144DC8
S315020042E084F800A001208BF800003088A88070882E
S315020042F0E88020780021A8700020287048F24E102D
S31502004300FFF7CCFEA86068B1296A01312962BDE8CF
S31502004310FE8F074A277097709060116A0131116209
S31502004320BDE8FE8FE8690130E8610020BDE8FE8F36
S31502004330B48E00224F81FFFFF8B514460D4606469D
S3150200434000274CB1F019E91980B2FFF765FE013C6E
S3150200435001370028F5D0F8BD0020F8BD4FF47A7178
S315020043603847D4D4024840F20D5101224EF086BCA1
S31502004370442E17222DE9F04186B0594800254FF404
S315020043809611456005608560564853F0EEF856482A
S315020043904FF4961153F0E9F854484FF4961153F03E
S315020043A0E4F85348012404605248EFF3108684F37C
S315020043B01088016821F400210160006801211E2095
S315020043C050F0E2FA86F310884B4E4FF4254009214D
S315020043D030604FF48050B060F562F563B5643561C4
S315020043E07561B561F56135627166B1660421716503
S315020043F04FF4AA0131644FF483717163B5630321EB
S3150200440031633463F0604AF2015131607060022018
S315020044104FF47A7150F0B8FA8DF817508DF816509D
S315020044208DF81550354D0DF11702354F40F20B51EF
S315020044302846B8470DF11602284640F20C51B847F5
S315020044400DF1150228460C21B847B06C00BF00BF1B
S31502004450B16CF26A736E9DF817509DF816609DF85E
S3150200446015708DE8E300002002F0010201332549B0
S31502004470FFF76AFD4FF496751426DFF88C80234FFA
S31502004480012C0ED0042C25D040464EF09DFD304620
S315020044904FF47A7150F078FA002039462246FFF737
S315020044A053FD1436013400F0AFF805460028E7D173
S315020044B0174818494DF086FB054658B9144800219D
S315020044C04DF06AFC10B900F08BF938B10546104878
S315020044D04DF01EFC284606B0BDE8F0810025F9E73E
S315020044E0D88E00220000006800C01268008025688D
S315020044F0103F324010302040002C3240442E17220A
S315020045005D2C050264960502E82E17220B7B050236
S31502004510002E172240C7090280B179B1084ABFF3BB
S315020045205F8F1368036052680A60BFF35F8F00688B
S3150200453020B1086800285FEA0F9070470020704794
S31502004540D88E002201484068704700BFD88E0022EC
S3150200455001488068704700BFD88E00220268094968
S31502004560022A0AD0012A0CD1027A920609D5C0681B
S3150200457038B101C1BFF35F8F00E00831086801302E
S3150200458008607047D88E00227047D4D42DE9FC47C4
S31502004590871C4AF6AA244FF6FF75DFF85C800DF1F8
S315020045A00709DFF858A000218DF8071037F8020C2A
S315020045B0A0420CD0A8420FD03978FFF76FFD68B938
S315020045C037F8020C4946FFF727FD48B902E038786A
S315020045D000F05AF90437E9E7002609E0064601E049
S315020045E00646D0460649074A00204346FFF7ACFC7A
S315020045F03046BDE8FC8700BFA7840502EF8E0502A0
S31502004600BB8E050254800502B0B52DED067B0A204D
S3150200461000F03AF95A483C2101224EF0DBFC20B167
S3150200462004465849584A594B1FE000F0FBF8584CCB
S31502004630584D206828400430206000F00BF9142001
S3150200464000F022F900F0EEF82068284005302060DC
S3150200465000F000F9142000F017F94F48FFF796FF13
S3150200466050B104464749484A4C4B0020FFF76CFCC0
S315020046702046BDEC067BB0BD322000F005F943F2C0
S3150200468035001221FFF70AFD10B10446444B19E02A
S3150200469043F236007B21FFF701FD10B10446414B80
S315020046A010E043F237000821FFF7F8FC10B1044688
S315020046B03D4B07E043F208101221FFF7EFFC50B121
S315020046C004463A4B2F4D3A4A00F0E2F82E4A394B4D
S315020046D000202946CAE73848B6EE009A9FED380A06
S315020046E03649B0EE491A0160B1EEC08A9FED350A2D
S315020046F043F60C0008EE001ABCEEC10A00F0CCF834
S31502004700A0B9E9B243F60D00FFF7C8FC70B938EE5E
S31502004710090A43F60E00BCEEC00A00F0BDF828B93D
S31502004720E9B243F60F00FFF7B9FC40B1154D044656
S31502004730254A264B00F0ACF8134A254BC8E70DF183
S31502004740070144F61400FFF767FC10B10446214B3B
S315020047500CE09DF8070000F03F0144F614008DF8C6
S315020047600710FFF79BFC40B10446184B054D1A4A49
S3150200477000F08EF8044A194BAAE7002478E700BF36
S31502004780E82E1722BB8E0502327C05026A9A0502C2
S3150200479030084040FA3FFEFF6C0000229588050271
S315020047A0667D0502487A0502C99305022090050234
S315020047B0C99405025F780502E48E002200D8B80586
S315020047C0007C9249ABAAAA3F198C0502E194050224
S315020047D0D29105029C9A0502FA940502E88B05021B
S315020047E010B543F208000221FFF758FC10B1044647
S315020047F0084B08E044F2022000210024FFF74EFC99
S3150200480030B1054B04460549054A0020FFF79CFBDB
S31502004810204610BDF48C05027F980502BB8E050268
S31502004820B89405020121EFF3108081F3108807493D
S315020048300A6822B9064A00231370402313700A68D5
S3150200484001320A6080F31088704700BF403918228F
S31502004850140D40400121EFF3108081F310880849BE
S315020048600A6812B10A68013A0A60096821B905495B
S3150200487000220A7080220A7080F31088704700BFF7
S3150200488040391822140D40404FF47A7150F07CB82A
S3150200489000202946FFF758BB10EE105A290AFFF7E7
S315020048A0FDBBD4D42DE9F84F2DED108BADF5FA5D95
S315020048B0012A1C9302DB1546032A07D900200DF5AF
S315020048C0FA5DBDEC108B01B0BDE8F08F89468246D9
S315020048D01DA841F2B00152F048FE012D02D0022D70
S315020048E01DD10A251DA84021DFF8E027DFF8E037B1
S315020048F000F66440F9B113F8016BB542B6FBF5F761
S3150200490088BF012712F8016B00F8017BB542B6FB9E
S31502004910F5F788BF012700F8417C0139EAE71DA8AF
S315020049204021012200F6644029B100F8012B013929
S3150200493000F8412CF8E70DF580500DF10A01CDF88B
S315020049401CADCDF8189D0DF5F25601F5C951D0F8FA
S31502004950B04FD0F8ACBFDFF87C07CDF8940CDFF887
S315020049607807CDF8900CDFF87407CDF88C0CDFF8D9
S315020049707007CDF8880CDFF86C07CDF8840CDFF8E9
S315020049806807CDF8800CDFF86407CDF87C0CDFF8F9
S315020049906007CDF8780C0020C1F81605C1F81A0593
S315020049A0C1F81E05C1F822051DAA02F6044702F641
S315020049B014411A9104280ED056F8201057F82020D8
S315020049C0102323B112F8015B013B2944F9E746F8AB
S315020049D020100130EEE701A84FF0000C00F5C9598E
S315020049E009F101001B9001A8199700F5895A0020C8
S315020049F01C9A042850D056F82010B1F5807F00F397
S31502004A005D8357F8202001AB804600EB002000258D
S31502004A1003F5C9531F180023102D0CD0505D09EB66
S31502004A2003060135034418B106F8015B0138FAE7BB
S31502004A3007F803C0F0E73B784FF0000C00201A4657
S31502004A401B9B0AEB40071D18814240F3308315F881
S31502004A50013B0130D6B227F802CB0CF1010CB3426E
S31502004A60F2D04BB1D21A0125D24355FA82FE4FEA51
S31502004A704C0C0FF005C0E2E71B98199F0AF5007A65
S31502004A8009F201190DF5F2564FF0000C00F2011071
S31502004A901B9008F10100ABE71DA84FF0000900F2D8
S31502004AA00440129001A800F5C95100F5895AB9F1DE
S31502004AB0040F28D056F829E009EB09225346884606
S31502004AC0BEF1010FD8BF4FF0010E1A9850F82950C7
S31502004AD0129800EB49261DA887180A4615F8011BED
S31502004AE033F802CB12F8010B26F811C078540FF0F6
S31502004AF00BC81C9A0AF5007A08F2011109F101099C
S31502004B000DF5F256D3E70020BBF1040F3FF6D7AE00
S31502004B10012101FA0BF111F01A0F3FF4D0AEB2F5F2
S31502004B20803FBFF6CCAE00F0F4FFB0F5803FBFF693
S31502004B30C5AE1DA801A94FF0000ADFF8CCE5DFF8E3
S31502004B40CC85B2EE000AB7EE001A01F5895100F6DD
S31502004B50644500F6244601F58079CDF84490BAF111
S31502004B60080F31D008EB8A01082742464B4691EDE1
S31502004B70002A71460FB3B2EC013A11F8010B013F5C
S31502004B8023EE003A16F800C0285C04EE10CA22EEA4
S31502004B90033AB8EE444A23EE044A81EE044A83ED10
S31502004BA0004A04EE100AB8EE444A23EE043A81EEB5
S31502004BB0033A03ED403A0433DCE709F120090EF12A
S31502004BC0080E0AF1010ACAE70DF10A01E6480DF5D7
S31502004BD080524FF0010A6FF47C570DF174090123DC
S31502004BE001F5C95108604FF48050A2F82809002047
S31502004BF082F82E09A2F8360914224FF06020886046
S31502004C000DF580510DF5805080F831A940F2012052
S31502004C10A1F82F0907F50050A1F8260907F5C0509B
S31502004C20A1F8240901A800F5C9584846414600F0F2
S31502004C309FFC0DF580514FF4F0501C22A1F8260975
S31502004C4007F57850A1F82409DFF8C41408F1040026
S31502004C5052F08FFC484641462022012300F088FC90
S31502004C6048463146002200F0C3FCBBF1010F06D0D4
S31502004C701DA82946012200F0BBFC4FF0030A0DF5E0
S31502004C80805108200DF58052DFF88834112581F80D
S31502004C9028094CF2FF00A1F824091C9800BA000C5E
S31502004CA0A1F82B0900F035FF00BA000CA1F829097A
S31502004CB04FF400610DF5805080F82DA90AEB4A00E9
S31502004CC001EB0021A2F82619002208F10C019245F7
S31502004CD009D013F8016B01F8015C013201F8036B8C
S31502004CE001F8052CF3E700F10A021DAE01A8012323
S31502004CF04FF0010800F5C9553046294600F038FC48
S31502004D00DDF8781CDDF8882C304600230027009752
S31502004D1000F09AFCDDF87C1CDDF88C2C3046012371
S31502004D20009700F091FCBBF1010F14D0DDF8801C56
S31502004D30DDF8902CCDF800801DAF0023384600F038
S31502004D4083FCDDF8841CDDF8942C38460123CDF86B
S31502004D50008000F079FC4CF2FF000DF58051002234
S31502004D60ED4B00F5D050A1F824090DF5805080F8DE
S31502004D7028A94FF4C06000EB4A20A1F82609A91D14
S31502004D804FEA4A00924507D013F8015B013201F857
S31502004D90025B01F8032CF5E70DF580510DF5805203
S31502004DA00025012381F831594FF47C51A2F82F19BD
S31502004DB000F1080201A81DAE00F5C951304600F007
S31502004DC0D7FB0DF10A000A959FEDD98A9FEDD99A74
S31502004DD09FEDD9AAB6EE00BA9FEDD8CA9FEDD8DAF2
S31502004DE09FEDD0EA9FEDD0FADFEDD08A00F5C950EB
S31502004DF0C0F80254C0F80654C0F80A54C0F80E545B
S31502004E00C0F812540DF580501C9DD0F8A80F6843C7
S31502004E1000FB0BFA681E0990E800089006F60420CB
S31502004E200E9006F203300D9006F604000C9006F280
S31502004E3002200B9006F20460109006F20110002682
S31502004E400F9000F066FE864280F2F48009980027F1
S31502004E50149616900A98AF4280F2E68013900346A3
S31502004E600DF5F2501B9000210DF5EA5E01A815978B
S31502004E7000F5C9501A90082978D00DF5805019917D
S31502004E80314318934FF008083E46CA43D0F8A80F9C
S31502004E90024481421846A8BF02FB0500169ADDE9C4
S31502004EA01A73CDF85CE0B8F1000F4BD00146AE4262
S31502004EB0A8BF114401FB0BF9D14580F2F18014F829
S31502004EC009C0BBF1010F0AD100EE10CAB8EE401AB2
S31502004ED0B0EE410AB0EE412AB0EE413A18E004EBD8
S31502004EE00901254601EE10CAB8EE412A4C788978A6
S31502004EF000EE104A01EE101A2C461C9DB8EE400A2E
S31502004F00B8EE411A20EE0E3AA2EE0F3AA1EE283A78
S31502004F1033EE083AA8F101080136013A0130A7EC4E
S31502004F20013A20EE093A20EE0C0AA2EE0A3AA2EE65
S31502004F300B0AA1EE0B3AA1EE0D0AA3EC013AAEEC76
S31502004F40010AB0E71B98189B1999DDF85CE0DDE9C8
S31502004F5014670EF1200E20301B902B4401311A9853
S31502004F6020301A9087E700BF4A46494612980090B9
S31502004F700F9801901098029007A800F5E950039047
S31502004F8004A800F5E950049003A800F5E95005903D
S31502004F901DA801A9119A01F5C951034600F0A4FB07
S31502004FA0BBF1010F39D00E9FDDF83090DDF8348069
S31502004FB0CDF80090CDF804800DF5F251029706A8BF
S31502004FC000F5E950039004A800F5E950049003A8FF
S31502004FD000F5E95005901DA801AA0B9E02F589521B
S31502004FE0334600F081FB0297CDE90098159F05A88C
S31502004FF00DF5EA51334600F5E950039004A800F591
S31502005000E950049003A800F5E95005901DA801AAED
S31502005010149E02F5895200F067FB16980837083885
S3150200502016901398083016E70A9808990836084425
S315020050300A9006E70DF10A0000F5C950D0F80204FD
S31502005040411E07290DD20021C0F10800009183B24A
S315020050501DA804A903AA01F5E95102F5E95200F0D7
S315020050600BFD4CF2FF000DF580510222012300F5E3
S31502005070C850A1F82A0D0DF10A001DAC00F5E95140
S31502005080204600F075FADDF8202D32B104F54B61A9
S31502005090DDF8180DDDF81C3D98470120FFF70FBC1F
S315020050A014481E4A1E4B4FF48C614FF06BFC11489C
S315020050B0134A144B4FF40E714FF064FC0D480E4A1E
S315020050C00E4B4FF46A714FF05DFC00BF58BE0902E9
S315020050D098BE0902D2BF0902C6BF090224BF09024D
S315020050E018BF090208BF0902F8BE0902E8BE090292
S315020050F0D8BE0902E69305023E7C0502B49A050271
S31502005100B98805027876050294C0090274C00902BC
S31502005110D4C00902F1C00902F4C00902E08D0502F9
S31502005120B7960502A245163F8716993ED578E93D00
S31502005130000000C327A0A9BEB1BF2CBED95FD6BE50
S315020051409D80A6BD18B111B1B2F5AF4F01D20020B4
S3150200515070472DE9F04F8AB0019100F01F01484ACD
S3150200516011440122BFF34F8F02EB511E45490246FD
S315020051700A6020320FF005C046F601014FF04D09D4
S315020051801D2596240026084400900021BFF34F8F68
S315020051903D48BFF36F8F00780390FC20702E68D0D5
S315020051A070220291C82300270796B1FBF2F1019AF9
S315020051B006FB03220692009AC902114405910022B7
S315020051C006FB03F10491C82F4ED0C82109924FF075
S315020051D0000A4FF0000B0897B2FBF1F1059A02EBB9
S315020051E04108BAF1040F23D004274146DFB111F872
S315020051F0016C11F802CB013FCCF3820206F0F80EE5
S315020052004EEA561342EACC0213FB09B3D2B212FBA0
S3150200521005324CEA0623C6F3410600EAD3033344B9
S3150200522013FB042BE2E708F500680AF1010AD8E746
S315020052300BF500630499089F039A1B0B39441E461B
S3150200524042B1124ADEB27600525C56FA83F6324414
S3150200525002329608069AD6550C4A079E01375354CF
S31502005260099A02F58062AEE70299013601F23D2102
S3150200527094E70549012008700AB0BDE8F08F00BF27
S31502005280FFBF12005CEF00E0E88E0022008F0022D2
S3150200529010B588B01C4603460020CDE90600CDE9CC
S315020052A00412C3B1B9B1B4B1AAB101207021CDE9DA
S315020052B0001002930122C823084804A9FFF7F2FA54
S315020052C00699216010B19DF81C0008B1002002E089
S315020052D000295FEA0F9008B010BD00BFE15200023C
S315020052E0D8B1D1B1B0B51546012A14DB0446007B0C
S315020052F088B96068A84203D3421BA068904202D9CB
S315020053000120207307E0226810442A4652F031F940
S31502005310A0682844A060BDE8B04070472DE9F04778
S31502005320ADF5855D82B00E46074608A888211C4663
S31502005330154652F01AF90020CDE90640CDE90405DA
S31502005340CDE902760DF58050D0F8D08027B11EB196
S3150200535015B1224884420BD8B8F1000F02D00520BD
S31502005360C8F8000000200DF5855D02B0BDE8F087A3
S315020053700DF580501A494FF48053D0F8C84002A860
S31502005380009008A82AAA00F01BFF88B9BDF84020A1
S315020053900520BDF84210ADF81C20ADF81E10C82A33
S315020053A008BF702904D108A80E49002201F04BF962
S315020053B00DF58051D1F8CC1014B1BDF840202280F1
S315020053C011B1BDF842200A80B8F1000F18BFC8F823
S315020053D0000000285FEA1F90C5E700BFFFF905003D
S315020053E0E953000221540002B0B5D0F884501DB131
S315020053F0D5E90130834201D200240FE01B1A9A42FA
S3150200540052EA338441B13CB12A6802440846114645
S31502005410224652F0AEF8A8682044A8602046B0BDE5
S31502005420D0F88400002800F09A80002900F09780C6
S31502005430002A00F094802DE9F04F89B05388848ABF
S31502005440A34280F08E80D488C58AAC4280F08980DF
S31502005450958800264FF0700C4FF0C80E4FF4B46AD0
S315020054604FF48879641B651C148802951B1B013353
S3150200547003EB4304CDE90043AE4276D004FB0617A4
S315020054800396059700279F4267D093880497334473
S3150200549003EB0314230109EB0414B3FBFCF8138892
S315020054A03B4407EB4707C3EB03156B01B3FBFEF364
S315020054B00693A3EB830608FB1A66089603EB4306DC
S315020054C0B4FBFCF34FF4F07408FB0A6604EB4514D4
S315020054D00796059EB4FBFEF516F807A037447C78BE
S315020054E0BF7898452ED2DDF820C0DDE9069EA94593
S315020054F017D2D0F810B0DE4533D80CEB0B06032ECC
