S01E000052656E657361735F4375705F46696E616C5F47616D652E737265638C
S31502000000C0030122B95A0502A1580502C35A0502C4
S31502000010C35A0502C35A0502C35A0502C35A050248
S31502000020000000000000000000000000911F050211
S31502000030C35A050200000000A91F0502112005028D
S31502000040912B0502B52C0502F52C0502132E05028D
S31502000050912B0502B52C0502F52C0502132E05027D
S31502000060333D0502093F0502714005025941050269
S31502000070C14D0502F35205020B4405020B4405026B
S31502000080D3240502FD3205027D3305025D340502E5
S315020000900000000701070207030704070501010024
S315020000A0090708070F040E04040105070830420079
S315020000B00331130003310300003000000430FF0057
S315020000C002301C000630C3000E3045002E300800F8
S315020000D0343018001F50000000433200183600006A
S315020000E012362900093752000C3703002038400027
S315020000F0213801003036360031360E003236E20043
S31502000100333612002136E0000437A00003375A00C6
S3150200011015377800173701000B37600005371A00CC
S31502000120053902000639100001390A00313712007A
S3150200013000360800013633002D30600020365200AA
S315020001401B3720001C475000133A4300183A0000A0
S31502000150193AF800353613003636030034364000B5
S3150200016022360100014002000440020005401A0046
S315020001700150A30003350700003500000135FF00DA
S31502000180023500000A3500000B3520000F3A300018
S31502000190103A28001B3A30001E3A2600113A600037
S315020001A01F3A1400183A0000193A7C00063400007F
S315020001B000340700013470000234040003340000E6
S315020001C0043405000534C00080540100815408003F
S315020001D082541400835428008454510085546500C7
S315020001E08654710087547D00885487008954910093
S315020001F08A549A008B54AA008C54B8008D54CD00B0
S315020002008E54DD008F54EA0090541D00805506007E
S315020002108355400084551000895510008A55000008
S315020002208B55F800005823000158140002580F009D
S3150200023003580F00045812000558260006580C00F1
S315020002400758080008580500095805000A5808000A
S315020002500B580D000C5808000D5803000E580000EC
S315020002600F580000105803001158090012580700D1
S3150200027013580300145800001558010016580300BD
S315020002801758080018580D00195808001A58050082
S315020002901B5806001C5808001D580E001E5829003F
S315020002A01F58170020581100215811002258150016
S315020002B023582800245846002558260026580800A8
S315020002C02758260028586400295826002A58240050
S315020002D02B5822002C5824002D5824002E58060094
S315020002E02F5822003058400031584200325824001C
S315020002F03358260034582400355822003658220036
S315020003003758260038584400395824003A582600EF
S315020003103B5828003C5842003D58CE000050A700EA
S3150200032020384600213800001438310015383100D3
S315020003300338040008380400093800000A380200AD
S315020003400B3858000C4622003748100024380200A9
S315020003500150A3003D50000041470000FFFFFF008F
S315020003600100000000000000000000000000000084
S31502000370000008000000000000000000000000006D
S31502000380000010080000000000000000000000004D
S3150200039034B70F02E4B70F0294B80F0244B90F0242
S315020003A034B70F0234B70F0234B70F0234B70F0255
S315020003B0000000000000000098B90F02E8B90F0221
S315020003C038BA0F0288BA0F0298B90F0298B90F020B
S315020003D098B90F0298B90F02000000000000000051
S30F020003E000203440002834400101D9
S315020003F010B504F050F920B147F6AE31C0F205212E
S3150200040006E004F0DAFAF8B148F2EA41C0F2052150
S315020004100020002404F030F940F20440C2F2012028
S31502000420047029F01DFA40F200440121C2F20124AF
S31502000430206029F0C6FE40F24D412068C0F200213C
S31502000440BDE8104029F0C4BE0124E5E770B586B0C8
S3150200045040F2044040F20845C2F2012040F20C4646
S315020004600C46C2F201250078C2F20126012807D104
S3150200047001A80DF103010DF1020204F0BDFA40B12B
S31502000480002084F8200028683168C4E9090106B012
S3150200049070BD9DF8030000284FF00000F1D09DF8D2
S315020004A002100129EDD1BDF80410BDF8060029603D
S315020004B03060B1F5806F02D340F2FF312960B0F5AA
S315020004C0167F02D340F2572030600120D9E7D4D4F8
S315020004D0A0B10BA191ED001F0DA180ED8A0E91ED49
S315020004E0001F4EF2E77180ED120FCFF6FF71018108
S315020004F04FF0E7314160016000218175704700BF0E
S3150200050005000200200005000F00010003000200A2
S3150200051001000000010000000100000000000000D0
S31502000520B0B582B01446024600201F29ADF8040079
S315020005304FF001001ED8ECB11D46DBB18DF8061056
S315020005404FF0FF008DF807009AB1D2F804C0BCF153
S31502000550000F0ED010680DF1060101AA0223E04732
S3150200056040B99DF804009DF80510287000202170FE
S3150200057000E0012002B0B0BD10B582B01C460346B1
S3150200058000201F29ADF804004FF0010019D8C4B1AC
S3150200059041F020008DF806008DF8072083B1D3F8CC
S315020005A004C0BCF1000F0BD018680DF1060101AAB8
S315020005B00223E04728B99DF804002070002000E0DD
S315020005C0012002B010BDF0B583B005460020ADF89B
S315020005D004001F2900904FF0010022D81C46063B5A
S315020005E013F1050F1DD3E2B1089FD7B141F02000E8
S315020005F00DF106018DF80600481C1146224656F0FA
S315020006006CFB6DB16E685EB1631C28680DF1060164
S315020006106A46B04728B99DF800003870002000E00D
S31502000620012003B0F0BDB0B582B0154602460020E7
S315020006308DF806004FF001008DF8071072B16DB10A
S3150200064054685CB110680DF107010DF10602012331
S31502000650A04718B99DF806002870002002B0B0BD68
S31502000660944602464FF0010069B10B4611F08F0124
S3150200067018BF704780B5072110461A466346FFF732
S315020006807BFFBDE8804070470A46E221FFF7CBBFF9
S31502000690F0B581B005464FF66070ADF80200002055
S315020006A0ADF800004FF00100E5B10E46D1B1174694
S315020006B0C2B16C68B4B128680DF102016A46022320
S315020006C0A04778B99DF801009DF800103970307086
S315020006D0212806D3E22128463A46FFF7A4FF062040
S315020006E000E0002001B0F0BD2DE9F04192B00D46C8
S315020006F0074601A821219846144656F0EAFAA4F1C3
S31502000700210010F1200F4FF0010024D31DB3B8F1E0
S31502000710000F20D00DF1270161208DF82700481C1B
S31502000720FF22214656F0D0FAA7B17E6896B1386804
S3150200073001AF631C0DF127013A46B04758B99DF83F
S315020007400400791C88F800002846224656F0C5FAAD
S31502000750002000E0012012B0BDE8F0812DE9F04151
S3150200076092B00E46044601A821211F46154656F0B0
S31502000770B0FAA5F1210010F1200F4FF0010025D3A8
S3150200078026B3DDF86080B8F1000F1FD06FF05F006E
S31502000790002F18BF6FF04F000DF127018DF82700CB
S315020007A0481C31462A4656F098FA74B1676867B112
S315020007B06B1C20680DF1270101AAB84730B99DF8D4
S315020007C0040088F80000002000E0012012B0BDE815
S315020007D0F081022901D90120704770B582B0144612
S315020007E00E460DF10702062123460546FFF798FE3F
S315020007F088B99DF80700022E20F0280003D026B9FA
S3150200080040F0200001E040F00800C2B2062128466E
S315020008102346FFF7B1FE02B070BD032901D90120BC
S31502000820704770B582B014460E460DF107020621D6
S3150200083023460546FFF774FE60B99DF8070006F0E9
S315020008407F01234600F0F90040EA410206212846CC
S31502000850FFF792FE02B070BD20B3B0B582B0044677
S315020008604068E0B1A268D2B12069C0B16069B0B196
S315020008700D4620680021904790B90DF1070200212C
S3150200088020462B46FFF74CFE50B99DF80700002183
S315020008902B4600F0FD022046FFF76EFE00E0012027
S315020008A002B0B0BD01207047F0B581B00446002801
S315020008B04FF001003DD00D4601293AD86068B8B321
S315020008C01646A268A2B3206990B3606980B3206815
S315020008D00021904768BB0DF10302002120463346F2
S315020008E0FFF71EFE28BB9DF80370012D4FF0020094
S315020008F050EA109007F0FC010A18BA4205D000210E
S3150200090020463346FFF738FE98B9B80703D4206865
S31502000910626902219047012D08D12068A26801214F
S31502000920904730B92068226996219047002000E05E
S31502000930012001B0F0BD2DE9F04182B00029064642
S315020009404FF001004FD01546002A4CD0887A0C464B
S31502000950063810F1030F45D3E07A7D2842D8207B72
S31502000960213810F1200F3DD3607B0F283AD8A07BA7
S315020009700F2837D8E07B022834D8207C032831D8C8
S31502000980607C02282ED84FF0010066B3A17C0129B3
S3150200099029D8706830B3B26822B3306910B370696F
S315020009A000B3306800219047E8B930462946FFF780
S315020009B053FFC0B9E12130462A46FFF734FE90B90B
S315020009C0E22130462A46FFF72EFE60B90721702241
S315020009D030462B46FFF7D0FD28B9A07A811FC9B24F
S315020009E0FD2903D2012002B0BDE8F08102380321BD
S315020009F0C2B230462B46FFF7BFFD0028F3D1E27A9A
S31502000A007D2AEFD8052130462B46FFF7B5FD002893
S31502000A10E9D1E17B30462A46FFF7DBFE0028E2D128
S31502000A20217C30462A46FFF7F8FE0028DBD1A37A5E
S31502000A30981FC0B2FD28D5D3102130462246009514
S31502000A40FFF7C1FD0028CED1A37A981FC0B2FD28B8
S31502000A50C8D3621D0A2130460095FFF7B4FD00286F
S31502000A60C1D1E27C012130462B46FFF785FD0028E5
S31502000A70B9D10221012230462B46FFF77DFD00281F
S31502000A80B1D1607BA17B2B4600F00F0041EA001238
S31502000A9004213046FFF770FD0028A4D194F8148093
S31502000AA0677DA07D2A464FEA8801002F18BF0621DE
S31502000AB00143304600F0BEF8002894D1D6F804C0AF
S31502000AC0002F58EA0F90BCF1000F4FF00001ADF86D
S31502000AD004104FF03C018DF806108DF807003FF424
S31502000AE081AF30680DF1060101AA0223E047002812
S31502000AF07FF479AF9DF8040000212870207D00283C
S31502000B004FF0000004D1607D08B1002000E0207B98
S31502000B10D6F804C0ADF80410BCF1000F4FF0310155
S31502000B208DF806108DF807003FF45CAF30680DF1C2
S31502000B30060101AA0223E04700287FF454AF9DF87C
S31502000B4004002870607CE17C0246002818BF082257
S31502000B50022808BF0C22D6F804C042EAC100BCF142
S31502000B60000F4FF00001ADF804104FF020018DF890
S31502000B7006108DF807003FF435AF30680DF1060117
S31502000B8001AA0223E04700287FF42DAF9DF8040056
S31502000B902870E120D6F804C08DF80600BCF1000FDB
S31502000BA04FF000008DF804003FF41CAF30680DF1E1
S31502000BB0060101AA0123E04700287FF414AF9DF83D
S31502000BC004002870E220D6F804C08DF80600BCF1B5
S31502000BD0000F4FF000008DF804003FF403AF3068B9
S31502000BE00DF1060101AA0123E04700287FF4FBAEBE
S31502000BF09DF8040028700020D6F804C0ADF8040061
S31502000C00BCF1000F47F22700ADF806003FF4EAAE4A
S31502000C1030680DF1060101AA0223E04700287FF49D
S31502000C20E2AE9DF804002A4628703046A17CFFF702
S31502000C303BFED8E670B582B015460C46064647F22C
S31502000C405030ADF804000020ADF802001D213046F8
S31502000C5022462B46FFF790FCA0BB0DF107021D2191
S31502000C6030462B46FFF75CFC60BB9DF8070000F0A0
S31502000C700700844201D1002024E016B3D6F804C04E
S31502000C80BCF1000F1DD0306801A90DF1020202234A
S31502000C90E047B8B91D21304622462B46FFF76CFCC9
S31502000CA080B90DF107021D2130462B46FFF738FCAD
S31502000CB040B99DF8070000F00700201A18BF072068
S31502000CC000E00120C0B202B070BD2DE9F04383B04E
S31502000CD0002958D00C4600270F700DF103020DF1C2
S31502000CE0010305210546FFF71BFC08B106464BE04A
S31502000CF09DF8039040F20921ADF8047009F1250030
S31502000D0000FB01F14FEA11424FEA8212A2EB1141B6
S31502000D10A0EB41084FF025008DF806008DF80780FC
S31502000D208DB36F687FB328680DF1060101AA02230D
S31502000D30B847064640BB0DF102020DF1010305213B
S31502000D402846FFF7EDFBB9F17D0F064610D86F680E
S31502000D500020ADF808004FF025008DF80A008DF846
S31502000D600B902FB128680DF10A0102AA0223B84797
S31502000D7056B99DF802001FFA88F1002681425FEA01
S31502000D801F90207000E00126304603B0BDE8F083D4
S31502000D902DE9F04F83B0044600284FF0010000F021
S31502000DA0D680DDF830A0BAF1000F00F0D0800F46F1
S31502000DB0A2F12101164611F1200FC0F0C880002FC2
S31502000DC000F0C580DDF83490B9F1000F00F0BF8065
S31502000DD06068002800F0BA80A068002800F0B6809B
S31502000DE02069002800F0B2806069002800F0AE8019
S31502000DF00DF107080021204642461D464FF0000B22
S31502000E0089F804B0C9F800B0FFF74EFD002840F09B
S31502000E109E80D4F804C0E120BCF1000F8DF80A00D0
S31502000E208DF808B000F0928020680DF10A0102AA3E
S31502000E300123E047002840F08A80D4F804C000204D
S31502000E40BCF1000FADF8080047F22700ADF80A0022
S31502000E507CD020680DF10A0102AA0223E04700288D
S31502000E6075D19DF8080039468DF8070020463246AE
S31502000E702B46CDF80080FFF771FC002867D1206869
S31502000E80A26801219047002861D1206822691E21AB
S31502000E9090472068A268002100259047002856D175
S31502000EA04FF0FF080DF10A0B02AEE2688DF806500C
S31502000EB02AB120680DF106019047002847D16768DC
S31502000EC08DF80A80002F8DF808503FD02068012344
S31502000ED059463246B847D0BB9DF80870F80639D451
S31502000EE0B8064AD42068626901219047BAF1010A1C
S31502000EF0DBD16768FF208DF80A004FF000008DF8FD
S31502000F00080057B120680DF10A0102AA0123B84769
S31502000F1018B99DF8080089F800000DF1070509F1D6
S31502000F200102082120462B46FFF7FAFA09F10202CE
S31502000F30002120462B46FFF7F3FA09F10302172197
S31502000F4020462B46FFF7ECFA032000E0012003B00F
S31502000F50BDE8F08F66684FF00008ADF808804FF6DE
S31502000F600870ADF80A0036B120680DF10A0102AA2E
S31502000F700223B04798B1002513E066680025ADF854
S31502000F8008504FF60870ADF80A0036B120680DF128
S31502000F900A0102AA0223B04730B3002028E09DF8D6
S31502000FA009506668ADF8088041F22700ADF80A00DC
S31502000FB0A6B120680DF10A0102AA0223B0476668AB
S31502000FC0E1208DF80A004FF000008DF808002EB1DE
S31502000FD020680DF10A0102AA0123B04789F80070C0
S31502000FE089F801500420B2E79DF808709DF80900BF
S31502000FF089F8007089F80100C7F3801089F80400A7
S315020010006768ADF8085042F22700ADF80A002FB122
S3150200101020680DF10A0102AA0223B847002096E7CA
S315020010202DE9F04F83B00C9F0125002F00F0C280FE
S315020010308046181F1E4610F1030FC0F0BB800C46F7
S31502001040002900F0B7801746002A00F0B380DDF8C9
S315020010503490B9F1000F00F0AD8020463946324691
S3150200106050F8043B002B00F0A4800B78213B13F1CF
S31502001070200FC0F09E80013A01F10101F0D1B8F1D2
S31502001080000F00F09680D8F80400002800F0918046
S31502001090D8F80800002800F08C80D8F81000002844
S315020010A000F08780D8F81400002800F082804FF004
S315020010B0000A89F804A0C9F800A00021D8F80000A7
S315020010C0D8F8082090470546002873D1D8F804506E
S315020010D0ADF808A0002D43F22700ADF80A0068D04B
S315020010E0D8F800000DF10A0102AA0223A847054614
S315020010F000285FD10DF1070AB34617F8012B54F801
S31502001100041B01234046CDF800A0FFF727FB48B990
S31502001110BBF1010BF1D1D8F80000D8F80820012163
S31502001120904790B10546E120D8F804708DF80A0080
S315020011304FF000008DF80800E7B3D8F800000DF173
S315020011400A0102AA0123B84734E04FF4AF70962190
S3150200115016FB0011D8F80000D8F810209047D8F8EE
S315020011600000D8F8082000210024904758B1D8F88A
S3150200117004700546002F4FF0E1008DF80A008DF845
S315020011800840DAD116E0D8F80470ADF808404FF6F8
S315020011901770ADF80A0067B1D8F800000DF10A0120
S315020011A002AA0223B84748B10546D8F80470E120DE
S315020011B0BCE70125284603B0BDE8F08F9DF809007B
S315020011C09DF8081089F8001089F80300C20612D4A7
S315020011D0D8F80470E1208DF80A004FF000008DF86F
S315020011E0080037B1D8F800000DF10A0102AA01235E
S315020011F0B8470325DEE7D8F804700020ADF80800EA
S3150200120042F22700ADF80A0037B1D8F800000DF116
S315020012100A0102AA0223B8470025CBE7F0B581B03E
S3150200122007464FF0010001B31546F2B11E46E3B17F
S315020012300C46FF2138463246FFF7F5F9A8B90DF1FB
S315020012400302172138463346FFF76AF968B99DF853
S315020012500300012121EA000020703078C0F3420029
S31502001260052888BFFF202870002001B0F0BDD4D425
S315020012702DE9F04F8DB040F211410020C2F201215A
S31502001280022640F2104B40F21248087040F2144116
S31502001290C2F2012140F21345C2F2012BC2F2012829
S315020012A00E7040F21641C2F20121C2F2012540F24D
S315020012B0154A8DF80300087040F21841C2F2012166
S315020012C08BF8000088F800002870086040F21C4184
S315020012D0C2F20121C2F2012A086040F22041C2F2A2
S315020012E001218AF80060086040F22441C2F201211D
S315020012F0086040F22841C2F20121086040F22C4106
S31502001300C2F20121086040F23040C2F201204FF4DD
S31502001310887155F0DEFC40F240504FF40871C2F27B
S31502001320012055F0D6FC40F260701821C2F201206D
S3150200133055F0CFFC40F278701821C2F2012055F028
S31502001340C8FC02F041FC90B940F278790020C2F262
S315020013500129494602F0B9FC40B940F26071012008
S31502001360C2F20121012402F0B0FC20B10646304649
S315020013700DB0BDE8F08FD9F80000D9F81420642129
S31502001380904701AE3046FFF7A3F839A08DF81A4010
S3150200139090ED001F40F64C00ADF80F0086ED120FDF
S315020013A00220ADF8130007A89ECE9EC03188B278FF
S315020013B00180827000208DF82E0048462946FFF7EC
S315020013C084FCA0B92978C90711D040F2787001A926
S315020013D0C2F201200DF10302FFF7ADFA40F2114409
S315020013E00028C2F201245FEA1F91217006E040F252
S315020013F011440028C2F2012408BF02208AF8000024
S3150200140040F2607040F21445C2F201204146C2F237
S315020014100125FFF75AFC90B998F80010C9070ED0BB
S3150200142040F2607007A9C2F201200DF10302FFF734
S3150200143082FA00285FEA1F918BF8001002E000286A
S3150200144008BF022021782870012907D102F019FD70
S3150200145020B10020207002208AF800009AF80000CD
S315020014602978002851EA008681E700BF00BF00BF45
S315020014700100000001000000010000000000000061
S3150200148040F21040C2F201200078704740F211404B
S31502001490C2F201200078704710B582B040F2164CB5
S315020014A040F2A513C2F2012CADF800308DF802000D
S315020014B068469CF800308DF803108DF80420110A56
S315020014C08DF805108DF8063090FD800E002120EF74
S315020014D0502123EE701BB4FFC22000FF5201B1EE71
S315020014E0301B91EE302BB0EE30EB90EE304B51408C
S315020014F05A1C8CF8002084EA0E0251408DF807101F
S31502001500082100F002F802B010BD2DE9F0474FF0B5
S315020015100104E8B30546A1F121000E4610F1200FA1
S3150200152036D340F21040C2F20120007801280BD1D6
S3150200153050F0EFFD40F22048C2F20128D8F80070C0
S31502001540072F03D9082421E0022421E040F21C4996
S3150200155040F23041C2F20129C2F201210024D9F837
S3150200156000A00AEB0A1001EB400201F81060901C81
S3150200157029465470324655F0B0FB0AF1010000F0DC
S315020015800700C9F80000781CC8F8000050F0E3FD17
S315020015902046BDE8F0872DE9F04381B04FF0010601
S315020015A0E8B30446A1F121000D4610F1200F36D30F
S315020015B040F21040C2F20120007801280BD150F00F
S315020015C0A8FD40F22049C2F20129D9F80070072F7E
S315020015D003D9082621E0022621E040F21C4840F207
S315020015E03041C2F20128C2F20121D8F8006006EBAE
S315020015F0061001EB400201F81050012021465070FE
S31502001600901C2A4655F069FB701C002600F0070064
S31502001610C8F80000781CC9F8000050F09CFD30465E
S3150200162001B0BDE8F083D4D42DE9F04F89B000288B
S3150200163076D0044640F21040C2F20120007801281A
S315020016404FF0000020606DD140F22049C2F201291C
S31502001650D9F800C0BCF1000F00F08B8040F21848A8
S3150200166040F2304BC2F20128C2F2012BD8F8001028
S3150200167001EB01100BEB40056878012854D1BCF14F
S31502001680030F4FF0000528BF4FF0030C0DF10D02BA
S3150200169004AB604600BF00BF01F0070747EA071721
S315020016A00BEB47077E78012E0CD117F8026B013837
S315020016B005F1010501F1010143F8047B02F8016B12
S315020016C0EAD1654640F26070EBB2C2F2012004A98B
S315020016D00DF10D020DF11F073226CDE90067FFF766
S315020016E09FFC0746002845D1C5B14FF0000A2E4699
S315020016F050F00FFDD8F8000000EB0011013000F0A9
S315020017000700C8F80000D9F800002BF811A001382C
S31502001710C9F8000050F01FFD013EE9D1256029E01D
S31502001720012727E0022725E0294640F26070C2F22F
S315020017300120002311F8022B0DF11F073226CDE9F5
S3150200174000670026FFF724FB074698B950F0E1FC34
S31502001750D8F800002E80013000F00700C8F800001B
S31502001760D9F800000138C9F8000050F0F4FC012055
S3150200177020600027384609B0BDE8F08F10B550F05A
S31502001780C8FC40F22040C2F20120046850F0E3FC9B
S31502001790204610BD2DE9F04182B0064600204FF0EA
S315020017A001078DF807008DF806008DF805008DF803
S315020017B00400B9B3B6B31546A2B3984693B388F8F4
S315020017C00000287040F21140C2F201200078012880
S315020017D027D140F278700C46C2F2012001A90DF120
S315020017E006020DF10703FFF719FD0746D0B99DF86A
S315020017F00400C00716D040F278700DF10501C2F25E
S3150200180001200DF10702FEF743FF78B1074640F2C9
S315020018107870C2F201200DF107024021FEF720FF87
S3150200182000E00227384602B0BDE8F0819DF80520A7
S31502001830944221D3A2F1210010F1210F1CD940F2CA
S3150200184078700DF10703C2F201203146FEF74CFF14
S3150200185007460028E6D140F278700DF10702C2F27F
S3150200186001204021FEF7FCFE9DF8050000272870A6
S31502001870012088F80000D5E740F278740DF10705DB
S31502001880C2F2012429462046FEF7FEFE40212046EA
S315020018902A46FEF7E5FE0627C4E7D4D4D4D4D4D428
S315020018A02DE9F04F81B0044600284FF0010046D0E2
S315020018B00D46002943D040F22C4A0026C2F2012AE4
S315020018C02E6040F228470DF10208DAF80000C2F253
S315020018D001270DF1030900BF0F288DF803608DF86B
S315020018E002602BD8386840F24051C2F201214246CA
S315020018F000EB00104B4601EB400B20210BF10200DE
S31502001900FFF748FFD8B99DF80300012814D13868BB
S315020019109DF8021001308BF8001000F00F003860BD
S31502001920DAF80000013C00F10100CAF8000029685B
S3150200193001F101012960CFD1002000E0082001B0A9
S31502001940BDE8F08F2DE9F0471C4603464FF0010033
S31502001950B9B3B3B31546A2B39CB340F22C490020E7
S31502001960C2F2012928702070D9F800704FB340F2F4
S31502001970244840F2405CC2F20128C2F2012CD8F897
S31502001980006006EB06101CF81020914202D20620D7
S31502001990BDE8F0870CEB400A18460AF1020155F041
S315020019A09CF99AF80000711C287001202070002012
S315020019B08AF8000001F00F01C8F80010791EC9F874
S315020019C00010BDE8F08740F22C40C2F20120006808
S315020019D0704748B30178A52926D1417801294FF0ED
S315020019E0000122D143F6FF72EDEE102A71FE4D0F71
S315020019F090FD800E20EF5021C07923EE701BB4FFBC
S31502001A00C22000FF5201B1EE30CB91EE302BB0EE88
S31502001A10303B90EE301B82EA0C0259405140C9B26B
S31502001A2088425FEA1F9100E0002108467047B0B580
S31502001A30044641F6ED210068C0F200210022234649
S31502001A404AF050FA41F62F35A068C0F2002500226E
S31502001A50294623464AF046FA2069002229462346A9
S31502001A604AF040FAA0690022294623464AF03AFA89
S31502001A70206A0022294623464AF034FA41F65D419D
S31502001A80A06AC0F20021002223464AF02BFA41F650
S31502001A901F51606BC0F20021002223464AF022FA4F
S31502001AA041F67551206EC0F20021002223464AF00B
S31502001AB019FA41F6C351A06EC0F200210022234654
S31502001AC04AF010FA41F68B61206FC0F20021002223
S31502001AD023464AF007FA41F60971A06FC0F20021C7
S31502001AE000222346BDE8B0404AF0FCB980B522F098
S31502001AF0C2F8102818BF80BD28F05DFB28F0FFFB56
S31502001B00082813D128F057FB28F024FC46F65C710E
S31502001B100020C0F2052102F0AFFD082002210122B9
S31502001B2000F070FABDE8804002F02BB880BD70B5B7
S31502001B30054622F0A0F80646284622F0A2F80446F8
S31502001B40284622F096F8012E054615D1A068854250
S31502001B502DD02069854234D0A06985423BD0206AC7
S31502001B6047F29D4147F2F822C0F20521C0F2052252
S31502001B70854251EA028232E026F00800032818BFA5
S31502001B8070BDA068854217D0206985421ED0A06923
S31502001B9085423BD0206A47F29D4147F2F822C0F2C5
S31502001BA00521C0F20522854251EA028232E047F659
S31502001BB0CC32C0F2052212E047F6CC32C0F2052240
S31502001BC028E048F2B112C0F2052208E048F2B1124A
S31502001BD0C0F205221EE047F65C62C0F2052247F615
S31502001BE081710020C0F2052102F046FDA0688542FF
S31502001BF008D02069854207D0A069012601228542C4
S31502001C001AD125E001261DE001261EE047F65C6298
S31502001C10C0F2052248F294010020C0F205210026F6
S31502001C2002F02AFDA06885420CD0206985420BD0BD
S31502001C30A069002685420AD0206A0022854208BF92
S31502001C40022205E0032203E00026042200E001222C
S31502001C5001203146BDE8704000F0D4B970B50446A3
S31502001C6022F009F80A2818BF70BD204622F009F8AA
S31502001C7040F29171C2F20121097801B170BD40F2C0
S31502001C8090760446C2F20126A56A307880F00101F8
S31502001C9000284FF47F00317018BF4FF47F4021F0C7
S31502001CA02EFD20F07F41002228464EF0D8FA3078E9
S31502001CB047F6D13148F25442C0F20521C0F205225C
S31502001CC0002851EA1281E06A14F09DFE307848F24B
S31502001CD0BA2147F2E712C0F20521C0F20522002816
S31502001CE051EA1281206C14F08EFE307847F63A21C2
S31502001CF048F2B712C0F20521C0F20522002851EAC5
S31502001D00128248F2C951C0F20521002002F0B4FC49
S31502001D10327802200221BDE8704000F073B9B0B5F6
S31502001D2084B0044621F0A7FF232821D1204621F0C2
S31502001D30A8FF6D460446406B1022294613F089FC23
S31502001D40606C294614F05FFE606B13F070FC47F678
S31502001D501F310246C0F2052100202B4602F08CFC00
S31502001D60606B13F064FC82B20320022100F04AF990
S31502001D7004B0B0BDB0B588B0044621F07CFF23287C
S31502001D801DD1204621F07DFF6D460446006E2022BD
S31502001D90294616F0A1FF206E16F09BFF47F6961114
S31502001DA00246C0F2052100202B4602F065FC206E99
S31502001DB016F08FFF82B20720022100F023F908B045
S31502001DC0B0BDF0B581B0054621F055FF0A285AD1BB
S31502001DD0284621F056FF0446284621F04AFF40F2E3
S31502001DE091760546C2F201264CF2FF50C0F21E0061
S31502001DF0317881F00102002932701CBF4AF2A1102B
S31502001E00C0F2A10021F07BFC20F07F41002228468F
S31502001E104EF025FA307848F2BC1547F20A07C0F2AE
S31502001E200525C0F20527002855EA1781A06C14F093
S31502001E30EAFD40F290703178C2F2012047F2E712D1
S31502001E40C0F205220078C00748F2BA20C0F2052087
S31502001E5050EA1282002950EA1281206C14F0D3FD56
S31502001E60307848F22131C0F20521002855EA17825E
S31502001E70002002F001FC32780420022101B0BDE804
S31502001E80F04000F0BFB801B0F0BDB0B5044621F095
S31502001E90F2FE0A2818BFB0BD204621F0EAFE40F243
S31502001EA092750446C2F201254CF2FF50C0F21E00A2
S31502001EB0297881F0010200292A701CBF4AF2A1107A
S31502001EC0C0F2A10021F01BFC20F07F410022204637
S31502001ED04EF0C5F9287847F6B66147F6BE12C0F24B
S31502001EE00521C0F20522002851EA128248F2584121
S31502001EF0C0F20521002002F0BFFB2A78052002214C
S31502001F00BDE8B04000F07EB870B5054621F0B3FEDC
S31502001F100A2818BF70BD284621F0B3FE044628469B
S31502001F2021F0A7FE40F293760546C2F201264CF254
S31502001F30FF50C0F21E00317881F001020029327092
S31502001F401CBF4AF2A110C0F2A10021F0D8FB20F07A
S31502001F507F41002228464EF082F9307848F2BA21B3
S31502001F6047F2E712C0F20521C0F20522002851EA23
S31502001F701281A06D14F047FD307847F63A2148F2F7
S31502001F80B712C0F20521C0F20522002851EA1282D8
S31502001F9048F2BE21C0F20521002002F06DFB327824
S31502001FA006200221BDE8704000F02CB841F6C1714E
S31502001FB00346D0F88400C0F20021002249F092BF05
S31502001FC080B521F058FE102818BF80BD28F0F3F81E
S31502001FD028F095F9042813D128F0EDF828F0BAF97B
S31502001FE047F6F4410020C0F2052102F045FB082025
S31502001FF00221002200F006F8BDE8804001F0D3BDC0
S3150200200080BD704770B582B016460C460546FFF78E
S3150200201043FA58B147F61E610246C0F20521002076
S31502002020CDE900622A46234602F026FB02B070BDC5
S31502002030017A022901D322F023BE22F01DBE10B579
S31502002040044647F0F9FE1EF088FC0120207184F850
S315020020508800204600F006F8D4F88400BDE8104057
S3150200206047F020BB70B50446002048F0E8FD4FF467
S3150200207080614FF41672C4F884004AF099FAD4F8D3
S31502002080840000214BF043FED4F88400FF21002295
S315020020904EF0ECF80020D4F8845021F030FB20F00A
S315020020A07F41002228464EF0DAF8D4F88400002157
S315020020B000224EF0E8F8D4F8840023F074FE40F2D1
S315020020C00D314FF4BC72C4F88C0049F0E6FFD4F827
S315020020D08C00962196224AF06BFAD4F88C0096214F
S315020020E023F06EFE43F22420D4F88C50C0F22C006A
S315020020F021F005FB20F07F41284623F07EFE6FF09B
S315020021007F40D4F88C5021F0FAFA20F07F4128461D
S3150200211023F079FE48F24035D4F88C00C0F205254A
S315020021203322294623F078FED4F8840014F05EFCAC
S315020021309C214FF4E672C4F8900049F0AEFFD4F841
S31502002140900040F2072119224AF032FA46F67E71D1
S31502002150D4F89000C0F2052114F055FCD4F8900092
S31502002160002114F016FDD4F89000002100224EF052
S31502002170AFF8D4F89000002100224EF00BF96FF070
S315020021807F40D4F8906021F0BAFA20F07F41002215
S3150200219030464EF0DAF84AF6D076D4F89000C0F21D
S315020021A00C26002231464EF0DDF8D4F89000FF21CD
S315020021B000224EF0D1F8D4F89000002100224EF011
S315020021C0D7F8D4F89000002100224EF0D7F8D4F8C0
S315020021D09000022100224EF0D7F8D4F89000002198
S315020021E000224EF043F8D4F89000002100224EF06F
S315020021F01EF8D4F89000002100224EF02AF8D4F8F6
S315020022009000002100224EF018F8D4F89000002128
S3150200221000224EF018F8D4F89000002100224EF069
S3150200222063F8D4F8840014F0E1FB702140F2F9124D
S31502002230C4F8940049F031FFD4F8940040F28621A4
S315020022401A224AF0B5F9D4F89400294614F0DBFBB9
S31502002250D4F89400002114F09CFCD4F894000021D8
S3150200226000224EF035F8D4F89400002100224EF0F8
S3150200227091F86FF07F40D4F8945021F040FA20F0A4
S315020022807F41002228464EF060F8D4F894000022DE
S3150200229031464EF067F8D4F89400FF2100224EF042
S315020022A05BF8D4F89400002100224EF061F8D4F8CD
S315020022B09400002100224EF061F8D4F89400022125
S315020022C000224EF061F8D4F89400002100224DF06D
S315020022D0CDFFD4F89400002100224DF0A8FFD4F8D7
S315020022E09400002100224DF0B4FFD4F8940000219E
S315020022F000224DF0A2FFD4F89400002100224DF0F6
S31502002300A2FFD4F89400002100224DF0EDFFD4F88C
S31502002310840014F06BFB4FF4D8712E22C4F8980097
S3150200232049F0BBFED4F89800AD2120224AF040F9CC
S3150200233048F27431D4F89800C0F2052114F063FB18
S31502002340D4F89800002114F024FCD4F89800002157
S3150200235000224DF0BDFFD4F89800002100224EF075
S3150200236019F86FF07F40D4F8985021F0C8F920F0A0
S315020023707F41002228464DF0E8FF47F65451D4F833
S315020023809800C0F20D2100224DF0ECFFD4F898001F
S31502002390FF2100224DF0E0FFD4F898000021002230
S315020023A04DF0E6FFD4F89800002100224DF0E6FF3A
S315020023B0D4F89800022100224DF0E6FFD4F89800E6
S315020023C0002100224DF052FFD4F89800002100228D
S315020023D04DF02DFFD4F89800002100224DF039FF70
S315020023E0D4F89800002100224DF027FFD4F8980077
S315020023F0002100224DF027FFD4F898000021002288
S315020024004DF072FFD4F884004AF046F92046BDE842
S315020024107040FFF7CBBD2DE9F04381B004460020A2
S3150200242048F00DFC4FF480614FF4167220604AF0BA
S31502002430BFF8206800214BF06AFC2068FF210022C9
S315020024404DF014FF0020256821F059F920F07F4154
S31502002450002228464DF003FF2068002100224DF09D
S3150200246012FF20681AF037FA4FF437719522A060EE
S3150200247049F013FEA068502150224AF099F8A0684C
S3150200248014F0B4FA47F2B871E060C0F2052114F014
S31502002490BAFAE068002114F07CFBE0680921002208
S315020024A000234AF059F9A5680021002228464DF07A
S315020024B0CAFE0021002228464DF0CBFE0021002252
S315020024C028464DF0B4FE0021002228464DF0B5FE06
S315020024D040F26408E068C2F2000841464AF073F826
S315020024E0A068802100224DF0C1FE6FF07F40A568F2
S315020024F021F005F920F07F41002228464DF0AFFE7B
S31502002500A068022100224DF0BEFE48F68800A568AA
S31502002510C0F2880021F0F3F820F07F41002228461D
S315020025204DF0AAFEA068002100224DF0B2FEA0687E
S31502002530FF2100224DF0B3FEA068002100224DF0DB
S31502002540C7FEA068052100224DF024FFA0680021E5
S3150200255000224DF0C9FE0220A568C0F20D0021F04E
S31502002560CEF820F07F41002228464DF0EEFE40F2E2
S31502002570B076A068C0F20E26002231464DF0F2FE79
S31502002580A068FF2100224DF0E7FEA068022100228A
S315020025904DF0FAFE20681AF09EF940F28F3195222C
S315020025A0206149F07AFD2069502150224AF000F854
S315020025B0206914F01BFA48F206516061C0F2052147
S315020025C014F021FA6069002114F0E3FA6069092126
S315020025D0002200234AF0C0F825690021002228467D
S315020025E04DF031FE0021002228464DF032FE002138
S315020025F0002228464DF01BFE0021002228464DF0FF
S315020026001CFE6069414649F0DEFF206982210022F4
S315020026104DF02CFE46F66F772569C0F26F073846F5
S3150200262021F06DF820F07F41002228464DF017FE7A
S315020026302069022100224DF026FE6FF07F402569B7
S3150200264021F05DF820F07F41002228464DF014FE6D
S315020026502069002100224DF01CFE2069FF21002284
S315020026604DF01DFE2069002100224DF031FE206949
S31502002670052100224DF08EFE2069002100224DF038
S3150200268033FE0020256921F03AF820F07F4100222E
S3150200269028464DF05AFE2069002231464DF062FE70
S315020026A02069FF2100224DF057FE206902210022F7
S315020026B04DF06AFE20681AF00EF940F235313B22DF
S315020026C0A06149F0EAFCA0695021502249F070FF4E
S315020026D0A06914F08BF948F2C701E061C0F2052146
S315020026E014F091F9E069002114F053FAE069092126
S315020026F0002200234AF030F8A5690021002228466C
S315020027004DF0A1FD0021002228464DF0A2FD002138
S31502002710002228464DF08BFD0021002228464DF06E
S315020027208CFDE069414649F04EFFA06982210022F4
S315020027304DF09CFD6FF07F40A56920F0E0FF20F090
S315020027407F41002228464DF08AFDA069022100221F
S315020027504DF099FD3846A56920F0D1FF20F07F4162
S31502002760002228464DF088FDA069002100224DF086
S3150200277090FDA069FF2100224DF091FDA069002184
S3150200278000224DF0A5FDA069052100224DF002FEB2
S31502002790A069002100224DF0A7FD0020A56920F0C6
S315020027A0AEFF20F07F41002228464DF0CEFDA06903
S315020027B0002231464DF0D6FDA069FF2100224DF0E0
S315020027C0CBFDA069022100224DF0DEFD20681AF041
S315020027D082F840F23531EF22206249F05EFC206A2F
S315020027E05021502249F0E4FE206A14F0FFF847F621
S315020027F057416062C0F2052114F005F9606A0021B2
S3150200280014F0C7F9606A09210022002349F0A4FFE7
S31502002810256A0021002228464DF015FD00210022DE
S3150200282028464DF016FD0021002228464DF0FFFCF9
S315020028300021002228464DF000FD606A414649F01B
S31502002840C2FE206A7E2100224DF010FD6FF07F400D
S31502002850256A20F054FF20F07F41002228464DF0E1
S31502002860FEFC206A022100224DF00DFD3846256A43
S3150200287020F045FF20F07F41002228464DF0FCFC67
S31502002880206A002100224DF004FD206AFF21002269
S315020028904DF005FD206A002100224DF019FD206A47
S315020028A0052100224DF076FD206A002100224DF01E
S315020028B01BFD0020256A20F022FF20F07F41002226
S315020028C028464DF042FD206A002231464DF04AFD6F
S315020028D0206AFF2100224DF03FFD206A02210022DC
S315020028E04DF052FD206819F0F6FF40F2353195227F
S315020028F0A06249F0D2FBA06A5021502249F058FE4C
S31502002900A06A14F073F848F25441E062C0F205215D
S3150200291014F079F8E06A002114F03BF9E06A092123
S315020029200022002349F018FFA56A0021002228464A
S315020029304DF089FC0021002228464DF08AFC002138
S31502002940002228464DF073FC0021002228464DF055
S3150200295074FCE06A414649F036FEA06AFF21002275
S315020029604DF084FC4FF47F40A56A20F0C8FE20F0AB
S315020029707F41002228464DF072FCA06A0021002207
S315020029804DF081FCA06A002100224DF0A1FCA06A54
S31502002990192100224DF0FEFCA06A032100224DF00F
S315020029A0A3FC44F63B30A56AC0F20D0020F0A7FE58
S315020029B020F07F41002228464DF0AEFCA06AFF219E
S315020029C000224DF0B0FCA06A002100224DF09EFCD0
S315020029D0A06A012100224DF08DFCA06A012100228D
S315020029E04DF08EFC0020A56A20F089FE20F07F4182
S315020029F0002228464DF0A9FC40F24841A06AC0F2E6
S31502002A000D2100224DF0AEFCA06AFF2100224DF0FE
S31502002A10A3FCA06A022100224DF0B6FC206848F011
S31502002A200EF940F2E72140F25912206349F035FBD4
S31502002A30206BE621D72249F0BBFD206B00214BF02B
S31502002A4066F9206B022100224DF042FC206BFF2129
S31502002A5000224DF037FC49F2F656256BC0F22106EC
S31502002A60304620F04CFE20F07F41002228464DF0F1
S31502002A7022FC206B002100224DF030FC206B00214D
S31502002A8000224DF087FC206B442100224DF0EEFB24
S31502002A906FF07F40256B20F032FE20F07F4100224E
S31502002AA028464DF0DCFB206B002100224DF0EBFBAB
S31502002AB0206B002100224DF0BAFB206B0021002280
S31502002AC04DF0BBFB206B002100224DF0BCFB206BBE
S31502002AD0002100224DF0BDFB206B002100224DF0AB
S31502002AE003FC206B12F0D0FB13213022606349F005
S31502002AF0D4FA606BC22149F066FD47F65B41606B12
S31502002B00C0F20521002212F0CFFB606B05210022E4
S31502002B104DF040FC606BFF2100224DF0A7FB42F214
S31502002B202550656BC0F2250020F0E9FD20F07F41BB
S31502002B30002228464DF093FB606B002100224DF0E7
S31502002B40A2FB6FF07F40656B20F0D9FD20F07F413C
S31502002B50002228464DF0F9FB4BF60441606BC0F2A9
S31502002B600B2100224DF0FEFB606BFF2100224DF08F
S31502002B70F3FB606B022100224DF006FC606B022122
S31502002B8000224DF0A5FB606BFF2100224DF09AFB5F
S31502002B9045F65B30656BC0F25B0020F0B0FD20F0BD
S31502002BA07F41002228464DF086FB606B0F210022F2
S31502002BB04DF094FB606B002100224DF044FB606BEC
S31502002BC0002100224DF045FB606B002100224DF0F2
S31502002BD08BFB606B38214FF480224DF047FB6FF080
S31502002BE07F40656B20F08BFD20F07F414FF4802201
S31502002BF028464DF034FB606B00214FF480224DF0E5
S31502002C0042FB49F2E670656B20F079FD20F07F41C8
S31502002C104FF4802228464DF098FB48F25001606B33
S31502002C20C0F20B214FF480224DF09CFB606BFF211A
S31502002C304FF480224DF090FB606B042112F0D5FC1C
S31502002C40206B13F0D3FE45211322A06349F025FA27
S31502002C50A06B6421202249F0ABFC47F26741A06BCE
S31502002C60C0F2052113F0CFFEA06B002113F091FFF5
S31502002C70A06B002100224DF02BFBA06B002100224D
S31502002C804DF088FB6FF07F40A56B20F038FD20F0F9
S31502002C907F41002228464DF058FB46F22861A06B80
S31502002CA0C0F20C2100224DF05DFBA06BFF21002239
S31502002CB04DF052FBA06B002100224DF059FBA06B98
S31502002CC0002100224DF05AFBA06B022100224DF09A
S31502002CD05BFBA06B002100224DF0C8FAA06B00211D
S31502002CE000224DF0A4FAA06B002100224DF0B1FAA9
S31502002CF0A06B002100224DF0A0FAA06B0021002259
S31502002D004DF0A1FAA06B002100224DF0EDFA2068E9
S31502002D1047F095FF422140F25912E06349F0BDF9AE
S31502002D20E06B4FF42071D72249F042FCE06B0021A0
S31502002D304AF0EDFFE06B022100224DF0C9FAE06B8A
S31502002D40FF2100224DF0BEFA3046E56B20F0D7FC9B
S31502002D5020F07F41002228464DF0ADFAE06B0021BB
S31502002D6000224DF0BBFAE06B002100224DF012FB6F
S31502002D70E06B4B2100224DF079FA6FF07F40E56B54
S31502002D8020F0BDFC20F07F41002228464DF067FA74
S31502002D90E06B002100224DF076FAE06B0021002262
S31502002DA04DF045FAE06B002100224DF046FAE06B49
S31502002DB0002100224DF047FAE06B002100224DF07F
S31502002DC048FAE06B002100224DF08EFAE06B13F018
S31502002DD00DFE96216E22206449F05FF9206CDC21FB
S31502002DE0282249F0E5FB47F2E717206CC0F20527D7
S31502002DF0394613F008FE206C002113F0CAFE206C3F
S31502002E00002100224DF064FA206C002100224DF0D0
S31502002E10C1FA0020256C20F072FC20F07F410022CE
S31502002E2028464DF092FA4AF6D079206CC0F20C2967
S31502002E30002249464DF096FA206CFF2100224DF001
S31502002E408BFA206C002100224DF092FA206C0021B0
S31502002E5000224DF093FA206C022100224DF094FAE2
S31502002E60206C812100224DF001FA6FF07F40256C23
S31502002E7020F045FC20F07F41002228464DF0EFF974
S31502002E80206C002100224DF0FEF9206C0A2100225E
S31502002E904DF0CDF9206C002100224DF0DAF9206CBC
S31502002EA0002100224DF0C9F9206C002100224DF0CC
S31502002EB0CAF9206C002100224DF016FAE06B13F0DD
S31502002EC095FD96213C22606449F0E7F8606CDC21AE
S31502002ED0282249F06DFB48F27641606CC0F205216A
S31502002EE013F091FD606C002113F053FE606C00211B
S31502002EF000224DF0EDF9606C002100224DF04AFAF5
S31502002F000020656C20F0FBFB20F07F410022284662
S31502002F104DF01BFA606C002249464DF023FA606CB4
S31502002F20FF2100224DF018FA606C002100224DF0BC
S31502002F301FFA606C002100224DF020FA606C02211B
S31502002F4000224DF021FA606C802100224DF08EF9AC
S31502002F506FF07F40656C20F0D2FB20F07F410022AB
S31502002F6028464DF07CF9606C002100224DF08BF969
S31502002F70606C0A2100224DF05AF9606C0021002291
S31502002F804DF067F9606C002100224DF056F9606C35
S31502002F90002100224DF057F9606C002100224DF00D
S31502002FA0A3F9E06B13F022FD96210A22A06449F0F0
S31502002FB074F8A06CDC21282249F0FAFA47F20A01D9
S31502002FC0A06CC0F2052113F01EFDA06C002113F0C7
S31502002FD0E0FDA06C002100224DF07AF9A06C0021E0
S31502002FE000224DF0D7F90020A56C20F088FB20F0D6
S31502002FF07F41002228464DF0A8F9A06C00224946DE
S315020030004DF0B0F9A06CFF2100224DF0A5F9A06C9D
S31502003010002100224DF0ACF9A06C002100224DF0F7
S31502003020ADF9A06C022100224DF0AEF9A06C802110
S3150200303000224DF01BF96FF07F40A56C20F05FFB7C
S3150200304020F07F41002228464DF009F9A06C0021AC
S3150200305000224DF018F9A06C0A2100224DF0E7F883
S31502003060A06C002100224DF0F4F8A06C0021002291
S315020030704DF0E3F8A06C002100224DF0E4F8A06CBC
S31502003080002100224DF030F9E06B13F0AFFC19215C
S315020030900A22E06449F001F8E06C6421282249F032
S315020030A087FA47F2EC11E06CC0F2052113F0ABFC93
S315020030B0E06C002113F06DFDE06C002100224DF062
S315020030C007F9E06C002100224DF064F90020E56C5E
S315020030D020F015FB20F07F41002228464DF035F9FD
S315020030E0E06C002249464DF03DF9E06CFF210022DA
S315020030F04DF032F9E06C002100224DF039F9E06C16
S31502003100002100224DF03AF9E06C022100224DF036
S315020031103BF9E06C822100224DF0A8F86FF07F4067
S31502003120E56C20F0ECFA20F07F41002228464DF0B3
S3150200313096F8E06C002100224DF0A5F8E06C0A2119
S3150200314000224DF074F8E06C002100224DF081F867
S31502003150E06C002100224DF070F8E06C00210022A4
S315020031604DF071F8E06C002100224DF0BDF8E06BE5
S3150200317013F03CFC19216E22206548F08EFF206D6B
S315020031806421282249F014FA47F63E21206DC0F246
S31502003190052113F038FC206D002113F0FAFC206D96
S315020031A0002100224DF094F8206D002100224DF0FE
S315020031B0F1F80020256D20F0A2FA20F07F410022CE
S315020031C028464DF0C2F8206D002249464DF0CAF855
S315020031D0206DFF2100224DF0BFF8206D0021002254
S315020031E04DF0C6F8206D002100224DF0C7F8206D83
S315020031F0022100224DF0C8F8206D822100224DF0F6
S3150200320035F86FF07F40256D20F079FA20F07F4186
S31502003210002228464DF023F8206D002100224DF0B1
S3150200322032F8206D002100224DF001F8206D0021B8
S3150200323000224DF00EF8206D002100224CF0FDFF19
S31502003240206D002100224CF0FEFF206D002100229D
S315020032504DF04AF8E06B13F0C9FB19213C22606578
S3150200326048F01BFF606D6421282249F0A1F946F659
S31502003270A571606DC0F2052113F0C5FB606D0021DA
S3150200328013F087FC606D002100224DF021F8606D7D
S31502003290002100224DF07EF80020656D20F02FFA05
S315020032A020F07F41002228464DF04FF8606D002243
S315020032B049464DF057F8606DFF2100224DF04CF85B
S315020032C0606D002100224DF053F8606D002100224E
S315020032D04DF054F8606D022100224DF055F8606DF4
S315020032E0822100224CF0C2FF6FF07F40656D20F014
S315020032F006FA20F07F41002228464CF0B0FF606DAE
S31502003300002100224CF0BFFF606D0A2100224CF022
S315020033108EFF606D002100224CF09BFF606D002144
S3150200332000224CF08AFF606D002100224CF08BFFD8
S31502003330606D002100224CF0D7FFE06B13F056FBC4
S315020033409621A022A06548F0A8FEA06DDC212822C5
S3150200335049F02EF9A06D394613F055FBA06D0021F8
S3150200336013F017FCA06D002100224CF0B1FFA06DF6
S31502003370002100224DF00EF80020A56D20F0BFF9C5
S3150200338020F07F41002228464CF0DFFFA06D00228C
S3150200339049464CF0E7FFA06DFF2100224CF0DCFF0E
S315020033A0A06D002100224CF0E3FFA06D0021002257
S315020033B04CF0E4FFA06D022100224CF0E5FFA06D67
S315020033C0812100224CF052FF6FF07F40A56D20F064
S315020033D096F920F07F41002228464CF040FFA06D6E
S315020033E0002100224CF04FFFA06D0A2100224CF072
S315020033F01EFFA06D002100224CF02BFFA06D0021C4
S3150200340000224CF01AFFA06D002100224CF01BFF97
S31502003410A06D002100224CF067FFE06B13F0E6FA84
S315020034201921A022E06548F038FEE06D64212822C9
S3150200343049F0BEF848F2CB01E06DC0F2052113F067
S31502003440E2FAE06D002113F0A4FBE06D00210022F8
S315020034504CF03EFFE06D002100224CF09BFF002065
S31502003460E56D20F04CF920F07F41002228464CF011
S315020034706CFFE06D002249464CF074FFE06DFF21BF
S3150200348000224CF069FFE06D002100224CF070FF33
S31502003490E06D002100224CF071FFE06D0221002256
S315020034A04CF072FFE06D822100224CF0DFFE6FF0DD
S315020034B07F40E56D20F023F920F07F410022284667
S315020034C04CF0CDFEE06D002100224CF0DCFEE06DFA
S315020034D0002100224CF0ABFEE06D002100224CF0F0
S315020034E0B8FEE06D002100224CF0A7FEE06D00213F
S315020034F000224CF0A8FEE06D002100224CF0F4FE02
S31502003500E06B15F01DFB4FF4FF710A22206648F0AE
S31502003510C4FD206E6E21282249F04AF847F648314A
S31502003520206EC0F2052115F01BFB43F25507256EEE
S31502003530C0F20D07384620F0E2F820F07F41002263
S3150200354028464CF002FF206E002249464CF00AFF44
S31502003550206EFF2100224CF0FFFE206E0121002288
S315020035604CF0B6FE206EFF2100224CF0ABFE4EF26E
S31502003570EE65266EC0F2E105284620F0C0F820F07E
S315020035807F41002230464CF096FE206E0F2100222B
S315020035904CF0A4FE206E0A2100224CF048FE206E5A
S315020035A0062100224CF04FFE206E062100224CF02E
S315020035B050FE206E032100224CF0ECFE206E82218A
S315020035C000224CF053FE6FF07F40266E20F097F8F3
S315020035D020F07F41002230464CF041FE206E002151
S315020035E000224CF050FE206E002100224CF07CFEA0
S315020035F040F29476C2F201263046FEF719FD012109
S31502003600304621F0FDFCFF21304621F0F5FC28462C
S3150200361020F075F820F07F41304621F0E8FC0F21BA
S31502003620304621F0F1FC0321304621F046FDFF2110
S31502003630304621F0CBFC4AF2B51020F060F820F0BB
S315020036407F41304621F0BDFC0021304621F0C7FC07
S31502003650206E15F033FB4FF0041231464BF0B4FCEA
S3150200366040F2A076C2F201263046FEF7E1FC5A216C
S31502003670304621F07EFC384620F041F820F07F41AA
S31502003680304621F005FD4FF664413046C0F20B216B
S3150200369021F007FDFF21304621F0FFFC01213046D3
S315020036A021F0AEFCFF21304621F0A6FC284620F090
S315020036B026F820F07F41304621F099FC0F21304652
S315020036C021F0A2FC0321304621F0F7FCFF2130460F
S315020036D021F07CFC6FF07F4020F011F820F07F4152
S315020036E0304621F06EFC0021304621F078FC206E37
S315020036F015F0E4FA002231464BF066FC40F2AC7556
S31502003700C2F201252846FEF793FC0321284621F042
S31502003710D4FCFF21284621F059FC4FF47F401FF0CC
S31502003720EEFF20F07F41284621F04BFC002128467F
S3150200373021F055FC206E15F0C1FA4FF4803229466D
S315020037404BF042FCE06B13F051F940F287110A226A
S31502003750606648F0A2FC606E6421282248F028FFC9
S3150200376047F65A31606EC0F2052113F04CF9606ECD
S31502003770002113F00EFA606E002100224CF0A8FD23
S31502003780606E002100224CF005FE0020656E1FF0DF
S31502003790B6FF20F07F41002228464CF0D6FD606E2F
S315020037A0002249464CF0DEFD606EFF2100224CF0FD
S315020037B0D3FD606E002100224CF0DAFD606E00211E
S315020037C000224CF0DBFD606E022100224CF0DCFD93
S315020037D0606E822100224CF049FD6FF07F40656EDB
S315020037E01FF08DFF20F07F41002228464CF037FD66
S315020037F0606E002100224CF046FD606E0A21002216
S315020038004CF015FD606E002100224CF022FD606E28
S31502003810002100224CF011FD606E002100224CF0C6
S3150200382012FD606E002100224CF05EFD206819F048
S3150200383052F842213B22A06648F02FFCA06E64217A
S31502003840322248F0B5FEA06E13F0D0F847F2F2111C
S31502003850E066C0F2052113F0D6F8E06E002113F0FF
S3150200386098F9E06E09210022002348F075FFA56E43
S315020038700021002228464CF0E6FC002100222846C0
S315020038804CF0E7FC0021002228464CF0D0FC002137
S31502003890002228464CF0D1FCE06E414648F093FEE9
S315020038A0A06EFF2100224CF0E1FC4AF2A117A56EA0
S315020038B0C0F2A10738461FF022FF20F07F41002206
S315020038C028464CF0CCFCA06E002100224CF0DBFC1A
S315020038D0A06E002100224CF0FBFCA06E0521002206
S315020038E04CF058FDA06E002100224CF0FDFC6FF05A
S315020038F07F40A56E1FF003FF20F07F41002228467D
S315020039004CF023FD42F6A806A06EC0F20C26002259
S3150200391031464CF027FDA06EFF2100224CF01CFD23
S31502003920A06E022100224CF02FFD206818F0D3FF72
S3150200393042218F22206748F0B0FB206F6421322299
S3150200394048F036FE206F13F051F847F66031606793
S31502003950C0F2052113F057F8606F002113F019F930
S31502003960606F09210022002348F0F6FE256F002130
S31502003970002228464CF067FC0021002228464CF023
S3150200398068FC0021002228464CF051FC002100224E
S3150200399028464CF052FC606F414648F014FE206FF8
S315020039A0FF2100224CF062FC3846256F1FF0A7FE6D
S315020039B020F07F41002228464CF051FC206F002166
S315020039C000224CF060FC206F002100224CF080FCAB
S315020039D0206F052100224CF0DDFC206F0021002221
S315020039E04CF082FC6FF07F40256F1FF088FE20F0BE
S315020039F07F41002228464CF0A8FC206F0022314667
S31502003A004CF0B0FC206FFF2100224CF0A5FC206F89
S31502003A10022100224CF0B8FC206818F05CFF42211B
S31502003A20E022A06748F039FBA06F6421322248F0F9
S31502003A30BFFDA06F12F0DAFF47F6D631E067C0F29B
S31502003A40052112F0E0FFE06F002113F0A2F8E06F0B
S31502003A5009210022002348F07FFEA56F00210022E3
S31502003A6028464CF0F0FB0021002228464CF0F1FBE0
S31502003A700021002228464CF0DAFB002100222846CB
S31502003A804CF0DBFBE06F414648F09DFDA06FFF2145
S31502003A9000224CF0EBFB3846A56F1FF030FE20F0FB
S31502003AA07F41002228464CF0DAFBA06F002100225B
S31502003AB04CF0E9FBA06F002100224CF009FCA06F3C
S31502003AC0052100224CF066FCA06F002100224CF07A
S31502003AD00BFC6FF07F40A56F1FF011FE20F07F41B7
S31502003AE0002228464CF031FCA06F002231464CF0F1
S31502003AF039FCA06FFF2100224CF02EFCA06F0221A0
S31502003B0000224CF041FC206814F009FBD4212F223C
S31502003B10C4F8800048F0C1FAD4F880004FF4F0717E
S31502003B204FF4887248F044FDD4F88000022147F031
S31502003B3095F848F23401D4F88000C0F20B2114F053
S31502003B40FBFAD4F880003221322214F0E3FCD4F8D6
S31502003B508000002114F039FCD4F8800000210022F4
S31502003B604CF0EDFBD4F88000FF2100224CF0E1FB83
S31502003B70206848F091FD204601B0BDE8F043FDF70C
S31502003B8056BF10B546F04DF94CF03AFC44F6A47413
S31502003B90C2F202242046FEF765FAD4F88400BDE894
S31502003BA0104045F07FBD10B546F03BF94CF028FCBD
S31502003BB044F6A474C2F202242046FEF72CFC2068C6
S31502003BC0BDE8104045F06EBD2DE9F04140F2B870F7
S31502003BD040F2BC72C2F20120C2F20122002101604F
S31502003BE0116040F2C07040F2C472C2F20120C2F209
S31502003BF001220160116040F2C87040F2CC72C2F23A
S31502003C000120C2F201220170116040F2D07040F22E
S31502003C10D472C2F20120C2F201220170116040F296
S31502003C20D87040F2DA72C2F20120C2F20122018099
S31502003C3011804CF664304AF60851C2F20C20C0F2EA
S31502003C400F214EF0ACFC08B105463BE04CF6343091
S31502003C504AF6C841C2F20C20C0F20F214EF09FFC78
S31502003C6038B105464CF66430C2F20C204EF047FEDF
S31502003C7028E040F250084CF6C0240027C2F2002881
S31502003C80C2F20C2400BF00BFC7EBC700042208EB38
S31502003C904006204671894FF037FC0028D4D130788F
S31502003CA0B18910220028204608BF44F210024FF0C4
S31502003CB02BFC054600285FEA1F9087F001010127C9
S31502003CC00842E1D12846BDE8F081024601284FF0BC
S31502003CD0010023D811B310B5C2EBC20040F2500264
S31502003CE0C2F2002243F60B6302EB400043F6215276
S31502003CF043F6316C43F6716E43F67964C0F20022E4
S31502003D00C0F20023C0F2002CC0F2002EC0F2002442
S31502003D1081E80D5000204C61BDE810407047D4D4B4
S31502003D20844600284FF0010018BF002900D17047D1
S31502003D30002AFCD0002BFAD02DE9F04381B04AF6D6
S31502003D40EC479CF800404AF62C5CC0F20F27C0F202
S31502003D500F2C07F1080640F2D87540F2DA79002CEA
S31502003D60C2F2012508BF0CF108065CEA0787C2F217
S31502003D70012936680020285509F80400F6683868D3
S31502003D8007270097B04710B10146022032E040F201
S31502003D90C47841F28837C2F2012800BF00BF00BFD3
S31502003DA0285D012808D00120012151F036FD013F8E
S31502003DB0F6D10320142118E019F80400012822D1B3
S31502003DC040F2B870002CC2F20120016801F1010133
S31502003DD0016040F2BC7040F2C071C2F20120C2F230
S31502003DE0012150EA018800210020D8F80020013282
S31502003DF0C8F8002040F2CC72C2F20122116001B072
S31502003E00BDE8F04370470220F9E770B180B50A4673
S31502003E1041894CF6C020C2F20C204FF018FC002853
S31502003E2018BF0220BDE8804000E00120C0B2704702
S31502003E30024600284FF0010019D010B582B00C4698
S31502003E4091B191894CF6C020C2F20C200DF1070205
S31502003E504FF0ECFB08B1022006E09DF807000028AF
S31502003E605FEA1F902070002002B0BDE81040704744
S31502003E700846012151F0D1BC08464FF47A7151F03F
S31502003E80CCBCB0B582B040F2D07540F2D471C2F269
S31502003E900125C2F201210020287008604CF690200C
S31502003EA04AF66431C2F20C20C0F20F2150F021FA18
S31502003EB0044628BB4CF69020C2F20C2050F061FA60
S31502003EC038B104464CF69020C2F20C2050F07BFA30
S31502003ED016E040F250000DF10702C2F2002081897D
S31502003EE001208DF807004CF6C020C2F20C204FF0DC
S31502003EF09DFB20B99DF8070008B90120287000240F
S31502003F00204602B0B0BD78B1EFF31081012282F3F0
S31502003F10108840F2D072C2F2012213780370002098
S31502003F20107081F3108870470320704740F2D470F6
S31502003F30C2F201200068704780B140F2C871007970
S31502003F40C2F20121087040F2DA71C2F20121087050
S31502003F5040F2D870C2F2012001210170704780B18F
S31502003F6040F2C8710079C2F20121087040F2DA719A
S31502003F70C2F20121487040F2D870C2F2012001213A
S31502003F804170704740F2D470C2F2012001680131DB
S31502003F90016040F2D0700121C2F201200170704727
S31502003FA010B540F2DC74A821C2F20124204652F078
S31502003FB090FE03202061606147F6155040F68401A9
S31502003FC0C0F20520A061C2F20121E1614FF48061D5
S31502003FD021620021A1626162E16240F684422066AA
S31502003FE04FF0100E4AF2D410C2F201226266C4F8F1
S31502003FF068E02167E1666167BFF35F8FC0F20F2059
S315020040000F3000BF00BF00BF10F8011904F8011BF2
S315020040100FF007C0BFF35F8F10BDD4D4D4D4D4D46D
S315020040202DE9F04381B014460D468046C7684FF02D
S31502004030000900BF00BF00BFD8F81000FA43B8421B
S3150200404006D91044D8F8081006E000BF00BF00BF2A
S31502004050D8F8081010440844C91B884250EA318037
S315020040602946A04250EA3486D8F80400384432463B
S3150200407052F033FEF019D8F80810411AA4EB0604E0
S3150200408050EA1187B1443544BFF35F8FC8F80C700C
S315020040900CB12FF02FC8484601B0BDE8F0832DE9D8
S315020040A0F04381B000EB400040F2DC73C2F2012320
S315020040B0144603EBC003894603F11805D86A0228A1
S315020040C012D0012808D000283ED1EE682869F143B3
S315020040D0B04234D9084435E0EE682969B1420BD9B9
S315020040E0F0430144A8680BE028464946224601B03F
S315020040F0BDE8F043FFF794BFF243A86811440144B8
S31502004100A14251EA3484871B68683044BC4207D214
S315020041104946224652F0E1FDBFF35F8F26440CE08A
S3150200412049463A4652F0D9FDE61B686809EB070193
S31502004130324652F0D2FDBFF35F8FEE6025E0AA68E9
S3150200414008441044A04201D200241EE0D5E9010130
S315020041508F1B3044BC4208D24946224652F0BDFD6E
S31502004160BFF35F8F06EB04080DE049463A4652F06C
S31502004170B4FDA4EB0708686809EB0701424652F052
S31502004180ACFDBFF35F8FC5F80C80204601B0BDE8D9
S31502004190F083F0B581B040F2DC731446C2F201231B
S315020041A00D4606461B78532B01D0FFF7F9FEEFF3B7
S315020041B011874FF0200181F31188304629462246A5
S315020041C0FFF76DFF87F3118801B0F0BD70B540F2BD
S315020041D0DC760C46C2F2012605463278532A01D015
S315020041E0FFF7DEFE022D0ED805EB4500EFF3118236
S315020041F04FF0200181F3118806EBC000C462002053
S3150200420082F3118870BD4FF0FF3070BDFFF7C8BE54
S315020042102DE9F04F9BB091460F46002406A9169150
S3150200422040211791002105901A90CDE9181100BF7F
S3150200423017F8011B252907D0002900F06F8116A85F
S3150200424000F07BF9E5E000BF4FF0000800BF00BFB9
S3150200425039782C2908DC23290ED02B2918D10420E1
S315020042600FE000BF00BF00BF2D2909D030290FD1B2
S31502004270022006E000BF00BF082002E000BF00BF28
S31502004280012048EA00080137E2E700BF00BF00BF8D
S31502004290A1F13A0010F10A0F02D2002012E000BF8B
S315020042A000200A4600BF00BF17F8011F00EB80007E
S315020042B0A1F13A0302EB400013F10B0FA0F130001B
S315020042C00A46F1D82E290FD13A4612F8011F2A2999
S315020042D00DD1D9F8001002370A1DC9F800200E6860
S315020042E001211DE000BF00BF0021002618E0A1F158
S315020042F03A0313F10A0F02D2002100260FE000262C
S3150200430012F8013F06EB8607A3F13A0601EB4701D5
S3150200431016F10B0FA1F130061946F1D80121174605
S3150200432017F8012B02F0FB03682BF9D0632A0FDC86
S31502004330252A2ED0582A24D0632A6AD1D9F8000019
S31502004340011DC9F80010017879E700BF00BF00BF60
S31502004350A2F17003082B1ED8DFE803F0055B5B6150
S315020043605B4E5B5B1300D9F800001022011DC9F8F1
S3150200437000100168082300200826CDE9006016A86F
S3150200438045E0D9F800100A1DC9F800200968102274
S3150200439039E0252153E7642A3BD1D9F800104CF6BF
S315020043A0CD4C0A1DC9F80020D1F800E0CCF6CC4C61
S315020043B0CEF100017246BEF1000F48BF0A460A2A34
S315020043C003914FF0010107DBA2FB0C35632A01F1D1
S315020043D001014FEAD502F7D88E4256EA818B0028B0
S315020043E040D0BEF1000F5FEA5F9108F0040241EA95
S315020043F09201A0EB010A37E0D9F800100A1DC9F8AC
S31502004400002009680A22CDE9000816A8334600F002
S31502004410B7F8199CB4F1FF3F3FF70AAF89E0D9F824
S315020044200000021DC9F80020006847F2BC7200288D
S31502004430C0F2052250EA12855FEA018800BF00BF7A
S315020044402978002E5FEA18800029E2D00028E0D100
S3150200445016A8013500F071F8199C013EB4F1FF3F30
S31502004460EEDC66E04FF0000A5FEA88750CD55EB9AD
S31502004470002CCED4BEF1000F29D45FEA4870CDF8E5
S3150200448010E02DD52B2125E05FEAC870F0D1BAF1F4
S31502004490000FEDD0D345EBD20295CDF810E0AAF18C
S315020044A0010500BF00BF00BF202116A800F045F895
S315020044B0199C002C3DD4681EA84202D2AB45054683
S315020044C0F2D300F1010ADDF810E0029DD0E72D21BA
S315020044D00398049016A800F030F8199C002C28D4F2
S315020044E0002D05D40A22CDE900A816A804998DE765
S315020044F008F001003043F5D1BAF1000FF2D0AAF16B
S315020045000105554538BFD345ECD2302116A800F037
S3150200451014F8199CAA46002CF1D50AE044B1189D5C
S3150200452025B106A905982A46FFF733FE2C4400E07A
S31502004530002420461BB0BDE8F08F10B50446D0E932
S315020045400120431C934207D822681154A360E068F5
S3150200455062680130E0601846904218BF10BD2168BB
S315020045602069FFF716FEA168884202D10020A060EA
S3150200457010BD4FF0FF30E06010BDD4D4D4D4D4D4F3
S315020045802DE9F04F81B015460E4691421F468146EF
S31502004590DDF828B04FF0010007D3314600BF00BF57
S315020045A0B1FBF5F10130A942FAD2874257EA808A75
S315020045B0BBF1000F0B991BD011F0010018D188072F
S315020045C04FF0200048BF30202021002F50EA0188FA
S315020045D0BBF1000F0CD0DA450AD248464146ABF190
S315020045E0010BFFF7AAFFD9F80C00B0F1FF3FEFDC91
S315020045F0D9F80C0000283CD4012400BF00BF00BF3C
S31502004600022F01D3013F03E0B6FBF4F0A84201D327
S315020046106C43F5E74AF2E818C0F20F2800BF00BF64
S31502004620B6FBF4F7484618F80710FFF786FFD9F8E5
S315020046300C00002806D4B4FBF5F007FB1466A5426D
S315020046400446EDD90B98C00718BFBBF1000F0AD17B
S315020046500FE020214846FFF770FFD9F80C00A34669
S31502004660B0F1FF3F05DDABF101045C4538BFDA4529
S31502004670EFD301B0BDE8F08F82B080B582B0CDE94C
S31502004680042304AA019201AAFFF7C2FD02B0BDE803
S31502004690804002B0704710B54CF6F420C2F20C20EE
S315020046A0C06808B100241BE04CF6F4204AF690419B
S315020046B0C2F20C20C0F20F214FF00AF90028F1D005
S315020046C047F61E5148F27D3247F2FE330446C0F2E7
S315020046D00521C0F20522C0F205230020FFF7CCFF18
S315020046E0204610BDD4D4D4D42DE9F04140F69447E7
S315020046F047F2003448F2B5380546FF26C2F20127D2
S31502004700C0F20524C0F20528387885420CD03878E4
S3150200471001280BD00A200121013E51F07EF8300615
S31502004720F2D11425444603E000250DE04FF49675B8
S3150200473047F61E5147F63C52C0F20521C0F2052249
S3150200474000202346FFF798FF2846BDE8F08170B5A2
S3150200475082B040F6944640BAC2F20126ADF806008F
S3150200476000200D4630704CF6F420C2F20C200DF1FA
S315020047700601022201234FF02FF928B147F2110355
S315020047800446C0F205231AE00320FFF7ADFF28B165
S3150200479047F239030446C0F2052310E000203070C8
S315020047A04CF6F4200122C2F20C20002329464FF0D7
S315020047B00DF990B148F28E330446C0F2052347F64E
S315020047C01E5146F6D072C0F20521C0F20522002023
S315020047D0FFF752FF204602B070BD0220FFF784FFAA
S315020047E00028D5D10024F5E710B582B0020A8DF86B
S315020047F0060040F694408DF80520C2F201208DF89D
S3150200480007100021032201704CF6F420C2F20C209C
S315020048100DF1050100234FF0DFF828B147F211032D
S315020048200446C0F2052308E00320FFF75DFF90B1BE
S3150200483047F239030446C0F2052347F61E5148F2F1
S315020048407A42C0F20521C0F205220020FFF714FFCA
S31502004850204602B010BD0024FAE728B140F6944182
S315020048600079C2F201210870704740F69540012195
S31502004870C2F20120017040F6B040C2F20120016886
S3150200488001310160704780B55D2000F009F820B162
S315020048901420BDE8804000F003B8002080BDD4D4C7
S315020048A02DE9F04182B040F6A24840F69C41C2F2A0
S315020048B00128C2F201214CF6C0250446C2F20C259B
S315020048C00020019088F80000086040F2066100228C
S315020048D028464EF0BCFE40F20B11042228464EF04A
S315020048E013FE14204FF47A7150F097FF142C5FEAEE
S315020048F01F9240F20B1128464EF0A9FE02204FF4F9
S315020049007A7150F08AFF40F20661012228464EF083
S315020049109EFE0A204FF47A7150F07FFF40F20B118F
S31502004920002228464EF0F0FD64204FF47A7150F0D2
S3150200493074FF4CF6F4200122C2F20C2021464FF0FD
S3150200494051F830BB002547F6C06701AE00BF00BF75
S31502004950E81B711980B2FFF7FAFE18B9032D05F1AB
S315020049600105F5D1A8B94FF0040E40F69C40C2F2FB
S31502004970012001A900BF00BF11F8012B00F8012B8D
S315020049800FF007C048F24000002188F80040FFF708
S315020049902BFF40F698415D2CC2F20121086004D13A
S315020049A040F6A441C2F2012103E040F6A841C2F258
S315020049B00121086002B0BDE8F08110B5FFF763FF80
S315020049C00446B0B94CF6A0204AF67C31C2F20C205D
S315020049D0C0F20F214FF08DFC28B94CF6A020C2F28E
S315020049E00C204FF0CEFC40F698400021C2F2012086
S315020049F00160204610BDD4D42DE9F04F83B006469F
S31502004A0000284FF000008DF80B001CBF8A460029D3
S31502004A1006D140F698410120C2F20121086019E050
S31502004A209346002AF5D08AF800008BF800000DF1B3
S31502004A300B0148F24E10FFF78AFE70B140F698411C
S31502004A40C2F20121086040F6B841C2F201210A68A9
S31502004A5001320A6003B0BDE8F08F9DF90B0040F603
S31502004A60A041C2F201210028087003D440F6984101
S31502004A700020D1E700F00F008046052828BF4FF03E
S31502004A80050898B300270DF1030400BF00BF00BF5D
S31502004A9048F24F104FF00009CFF6FF7000EBC70542
S31502004AA005EB090004EB090180B2FFF750FE20B9BD
S31502004AB0B9F1070F09F10109F2D1D8BB019846F8FD
S31502004AC0270001374745E3D140F6AC418AF800801A
S31502004AD001208BF80000C2F201213088088040F6DE
S31502004AE0AE41C2F201217088088002E004208BF8F0
S31502004AF0000040F6A1419AF80000C2F201210870B6
S31502004B0040F69540C2F201200021017048F24E1093
S31502004B10FFF76AFE40F698410028C2F201210860BA
S31502004B2091D140F6B440C2F2012001680131016020
S31502004B3000208FE740F6A1418AF80070C2F20121F7
S31502004B400F707BE74CF6C02040F20D51C2F20C20EA
S31502004B5001224EF07CBD10B540F6BC400021C2F2E7
S31502004B60012040F6C442C2F20122016040F6C04072
S31502004B70C2F20120016040F200001160C6F6000098
S31502004B804FF4961152F0A5F84CF200004FF496112C
S31502004B90C6F6120052F09DF848F200004FF4961144
S31502004BA0C6F6250052F095F800F0BCF850B94CF65E
S31502004BB07C204AF64831C2F20C20C0F20F214DF099
S31502004BC0FFFA10B10446204610BD4CF67C200021A7
S31502004BD0C2F20C204DF004FC10B900F00CFA38B108
S31502004BE004464CF67C20C2F20C204DF093FBEAE719
S31502004BF00024E8E74FF00002C0B1B9B140F6BC426A
S31502004C00C2F20122BFF35F8F1268026040F6C04211
S31502004C10C2F2012212680A60BFF35F8F006820B1F8
S31502004C20086800285FEA0F9200E0002210467047EB
S31502004C3040F6C040C2F201200068704740F6C44008
S31502004C40C2F20120006870470168022914D00129C6
S31502004C5019D1017A890616D5C068002808BF70479F
S31502004C6040F6BC41C2F20121086040F6C040BFF3E3
S31502004C705F8FC2F2012003E040F6C440C2F2012077
S31502004C8001680131016070477047D4D4D4D4D4D4BA
S31502004C902DE9F04782B047F6180847F65259871CA5
S31502004CA04AF6AA244FF6FF75C0F205280DF1070A47
S31502004CB0C0F2052900218DF8071000BF00BF00BF12
S31502004CC037F8020CA0420FD0A84214D03978FFF769
S31502004CD08BFD90B937F8020C5146FFF738FD70B9D3
S31502004CE007E000BF00BF00BF38784FF47A7150F07A
S31502004CF094FD0437E4E700260FE0064601E0064687
S31502004D00C84647F61E5147F2A242C0F20521C0F23A
S31502004D10052200204346FFF7AFFC304602B0BDE84D
S31502004D20F087D4D4F0B581B02DED048B0A204FF470
S31502004D307A7150F072FD4CF6F4203C21C2F20C203E
S31502004D4001224EF04FFE28B148F20A530446C0F241
S31502004D500523B6E04CF6FC65EFF31080C2F20D2592
S31502004D60012181F3108840F614542968C4F24004E4
S31502004D7019B90021217040212170296840F63006B8
S31502004D8001312960C4F2400680F3108843F6FA77AF
S31502004D900121CFF6FE773068384004303060EFF3F9
S31502004DA0108081F31088296811B1296801392960B8
S31502004DB0296819B9002121708021217080F3108899
S31502004DC014204FF47A7150F028FD0121EFF3108080
S31502004DD081F31088296819B90021217040212170B8
S31502004DE029680131296080F3108801213068384032
S31502004DF040F005003060EFF3108081F310882968D7
S31502004E0011B1296801392960296819B9002121706F
S31502004E108021217080F3108814204FF47A7150F0AB
S31502004E20FCFC40F26C00C2F20020FFF731FF28B111
S31502004E3047F64B230446C0F2052342E032204FF4E4
S31502004E407A7150F0EAFC43F235001221FFF7CCFCEE
S31502004E5028B147F243330446C0F2052322E043F267
S31502004E6036007B21FFF7C0FC28B147F2BD1304468A
S31502004E70C0F2052316E043F237000821FFF7B4FC1F
S31502004E8028B148F2D7030446C0F205230AE043F2EA
S31502004E9008101221FFF7A8FC18B347F6646304460C
S31502004EA0C0F2052347F61E5148F2D712C0F2052179
S31502004EB0C0F205220020FFF7DFFB47F26003C0F2D3
S31502004EC0052347F61E5147F28122C0F20521C0F2A0
S31502004ED005220020FFF7D0FB2046BDEC048B01B073
S31502004EE0F0BD40F6C8404DF60001C2F20120C0F204
S31502004EF0B8519FED270AB6EE008A0160B1EEC09A5C
S31502004F009FED240AB0EE481A09EE001A43F60C0089
S31502004F10BCEEC10A10EE105A290AFFF765FCB8B9B1
S31502004F20E9B243F60D00FFF75FFC88B939EE080ACD
S31502004F3043F60E00BCEEC00A10EE105A290AFFF71D
S31502004F4053FC28B9E9B243F60F00FFF74DFCA0B1B6
S31502004F5047F61E5147F60B4248F2EF130446C0F2DB
S31502004F600521C0F20522C0F205230020FFF784FBCB
S31502004F7047F6B373C0F20523A3E700F00DF828B194
S31502004F8047F6DA330446C0F205239AE70024A3E77C
S31502004F90007C9249ABAAAA3F10B582B00DF1070177
S31502004FA044F61400FFF7D3FB28B148F23C530446FB
S31502004FB0C0F205230FE09DF8070000F03F0144F61A
S31502004FC014008DF80710FFF70FFC90B148F2EF13AB
S31502004FD00446C0F2052347F61E5148F20822C0F2E3
S31502004FE00521C0F205220020FFF746FB204602B04B
S31502004FF010BD0024FAE710B543F208000221FFF7BC
S31502005000F3FB28B147F674430446C0F205230AE0CF
S3150200501044F202200021FFF7E7FB88B148F2E533AC
S315020050200446C0F2052347F61E5148F2C612C0F2E4
S315020050300521C0F205220020FFF71EFB204610BD07
S315020050400024FBE7D4D4D4D42DE9F04F81B02DED62
S31502005050108BADF5FA5D1546043A12F1030F02D232
S31502005060002000F03FBC894680460DF10A0E1DA8BD
S3150200507041F2B0011C460EF5C95A51F02AFE012D25
S315020050801B9402D0022D24D10A254FF0400E1DA8F2
S315020050904AF2A8214AF2682200F66440C0F20F21C1
S315020050A0C0F20F22EBB200BF12F8016B11F8017BBE
S315020050B0B6FBF3F4B54288BF0124B7FBF3F600F85A
S315020050C0404CBD4288BF012600F8016B0FF015C0A7
S315020050D006E01DA8802100F62440012251F0F4FDCD
S315020050E04AF2E8204AF2F821C0F20F20C0F20F215C
S315020050F0CDF8780CCDF87C1C4AF208304AF2183109
S315020051000DF5805EC0F20F20C0F20F21CDF8800CA3
S31502005110CDF8841C4AF228304AF23431C0F20F200C
S31502005120C0F20F21CDF8880CCDF88C1C4AF2D6308D
S315020051304AF2E231DEF8ACBFCDF8189DCDF81C8DEF
S315020051401DAAC0F20F20C0F20F21CDF8900CCDF8A7
S31502005150941C0020CAF81605CAF81A05CAF81E05D4
S31502005160CAF822054FF0040E02F604430DF5F25179
S3150200517002F61440CDE91803184600BF00BF00BF6F
S3150200518050F8042B92ED001E0A68F1FE202F41F81A
S31502005190042B0FF00BC80DF1040E00220EF5C950B8
S315020051A00EF5895900F101080DF5F250CDF870900F
S315020051B050F822A0BAF5807F00F3BB830DF1040EEE
S315020051C002EB02200EF5C95147460C1819984FF00A
S315020051D000084FF0000950F822601A9200BF00BF83
S315020051E016F8015B45B108F1010104EB0900CAB2E8
S315020051F0294651F069FDA94408F101080020B8F1D9
S31502005200100F04F80900EBD123780021B846DDF827
S31502005210709000BF00BF00BF504550EACA869C4648
S3150200522009EB400508EB00040F4600BF00BF00BFB4
S31502005230864200F06E8314F8013B5FFA8CF2791C09
S3150200524025F8027B934200F101000F46F0D05BB1D4
S31502005250ACEB03020127D24357FA82FE00BF00BF1E
S3150200526049000FF003C8D7E71A9A09F50079013207
S3150200527008F20118042A97D10DF1040E1DA80EF5A5
S31502005280895C4FF0000A0EF5C958E14600F2044067
S31502005290119000BF00BF00BF0DF5F2500AEB0A22C3
S315020052A04B4650F82AE0BEF1010FD8BF4FF0010E6F
S315020052B0189850F82A701DA88618119800EB4A25EE
S315020052C0424600BF00BF00BF17F8014B33F8021B6E
S315020052D012F8010B25F8141030550FF00BC80AF11D
S315020052E0010A08F20118BAF1040F09F50079D3D1BF
S315020052F0BBF1040F4FF0000000F2F482012101FA23
S315020053000BF111F01A0F1B9900F0EC82B1F5803FF8
S3150200531080F2E8820DF5805EDEF8A81FB1F5803FC7
S3150200532080F2E0821DA84AF2A4494AF2844800F6B5
S3150200533024470CF5807A00F664450020C0F20F2956
S31502005340C0F20F28B2EE000A4FF0080CB7EE001AB0
S31502005350CDF840A000BF00BF08EB8001534642468D
S3150200536091ED002A4CF001E0494600BF00BF00BFA4
S31502005370B2EC013A11F8014B23EE003A3E5D2C5D88
S3150200538022EE033A04EE106A05EE104AB8EE444ADB
S31502005390B8EE455A23EE044A23EE053A81EE044A54
S315020053A083ED004A81EE033A03ED403A04330FF0EF
S315020053B021C801300AF1200A082809F10809CBD1CF
S315020053C00DF5805E6FF47C5404F5C05040F2012165
S315020053D0AEF8240904F50050AEF826094FF48050C1
S315020053E0AEF828090DF10A0E0EF5C9520DF5805ECA
S315020053F044F24A604FF0010AC4F24960106000208C
S315020054008EF82E09AEF82F198EF831A9AEF83609A4
S315020054100DF1040E0DF174080EF5C9594FF0602115
S315020054209160142201234046494600F005FD0DF520
S31502005430805E4AF2E441C0F20F2104F57850AEF8DC
S3150200544024094FF4F050AEF8260909F104001CC9EC
S315020054501CC091E85C005CC02022012340464946FC
S315020054604C4600F0E9FC00224046394600F039FD80
S31502005470BBF1010F06D01DA80122294600F031FD1D
S315020054804FF0030A0AEB4A000DF5805E4FF4006105
S315020054904CF2FF0901EB0021AEF8261908218EF81D
S315020054A028191B99AEF824998EF82DA94AF20152B1
S315020054B009BAC0F20F22090CAEF82B19DEF8A81FA2
S315020054C00123112709BA090CAEF829194AF001E09D
S315020054D004F10C0100BF00BF12F8016B01F8023C97
S315020054E0013301F8017C01F8036B0FF00BC80DF1D3
S315020054F0040E1DAE0EF5C95500F10A02012330460F
