S01E000052656E657361735F4375705F46696E616C5F47616D652E737265638C
S315020000000004002251100002510F00025B10000290
S315020000105B1000025B1000025B1000025B10000224
S315020000200000000000000000000000005B1000025B
S315020000305B100002000000005B1000025B10000271
S3150200004041F2E450C0F200208568D0E900412A68F6
S315020000502046904769682046884741F26050C0F2C0
S3150200006000208568D0E900412A68204690476968E1
S315020000702046884741F2DC40C0F200208568D0E97C
S3150200008000412A682046904769682046884741F21F
S315020000905840C0F200208568D0E900412A6820460F
S315020000A0904769682046884741F2D430C0F2002062
S315020000B08568D0E900412A6820469047696820464B
S315020000C0884700BF00BF00BFFEE7022818BF70477F
S315020000D040F22C4041F26061C2F20020C0F20021DF
S315020000E000F005B880B5FFF7ABFF002080BD80B5F4
S315020000F045F25422C5F24F020260084600F004F8A7
S31502000100002080BDD4D4D4D470B5044600F060F883
S3150200011040F2285CEFF31081C2F2002C012080F33A
S315020001201088DCF8000038B940F614500022C4F2F8
S315020001304000027040220270DCF800000130CCF868
S31502000140000081F31088208828B340F6000E0021B3
S31502000150C4F2400E00BF00BF606800EBC10250F857
S3150200016031309288D8034FEA1220D2B20BD50EEB69
S31502000170801555F8226026F4803645F8226023F46D
S31502000180803645F822600EEB8010013140F82230AD
S3150200019020888142E0D30120EFF3108180F310889A
S315020001A0DCF8000020B1DCF800000138CCF80000D1
S315020001B0DCF8000038B940F614500022C4F24000C0
S315020001C002708022027081F3108870BDD4D4D4D418
S315020001D02DE9F04F81B004460088002865D04EF61E
S315020001E04C4B0025C4F2010B4FF0010A00BF00BFC1
S315020001F041F26C6642F240080027C0F20026C4F2C1
S31502000200200800BF00BF00BF606836F8021B00EB83
S31502000210C50082888A423FD100689BF8001000F030
S31502000220B8500AFA07F9B0F1807F09EA010017D13E
S3150200023058B9012000F0E4FE9BF8000040EA0900EC
S315020002408BF80000012000F0B4FE98F900000028A7
S3150200025022D498F8000040F0800017E000BF00BFEB
S3150200026058B1012000F0CCFE9BF8000020EA0900FC
S315020002708BF80000012000F09CFE98F90000B0F116
S31502000280FF3F09DC98F8000000F07F0088F80000C4
S31502000290C820012100F01AFE013708F10208032FD7
S315020002A0B2D1208801358542A2D301B0BDE8F08FD4
S315020002B02DE9F0470D46097C044601220D295FEA25
S315020002C09F9002FA01F1E16065602074287C42F297
S315020002D00001C4F2320143F61079C4F232094FF03A
S315020002E0000801EB0020A06068696061A869E0610E
S315020002F0C4F818804FF0004AEE69C9F80020EFF3FF
S31502000300108782F31088287C011F2AFA00F006293A
S315020003106FF0006151EA30A043F21001C4F22001ED
S315020003200A681040086008681E20012100F0CEFD10
S3150200033087F31088207B00070DD00120EFF3108190
S3150200034080F31088A089B9F8F22022EA0000A9F801
S31502000350F20081F31088A0684FF425410160A0687D
S31502000360C0F82C80A068C0F83C80A068C0F848801D
S31502000370287A2978A268C0050329696808BF00F5AA
S315020003808030D0620139A068C0F810A0A068C0F819
S3150200039014A0A068C0F818A0A068C0F82480A068BD
S315020003A0C0F82880A068B269C261A068F2690262D8
S315020003B0A0688166A06841662978D6F8509001291E
S315020003C034D029B969684FF0FF3202EB510108E0D7
S315020003D0A268E968936E03F1010329B1994203D237
S315020003E001394FF0000823E0526B676899425FEAD1
S315020003F03F9C00295FEA1F913F7812F0100F02F02E
S315020004000C025FEA1F93042A5FEA1F92032F53EA44
S31502000410828240F20008002A5CEA1181C0F20338A7
S3150200042000291CBF40F20008C0F202284FF0FF313B
S31502000430A2685165A26891652A78042A03D3A26844
S31502000440D165A2681166316DA9BB3178012915D132
S315020004502A787178022A03D0032A03D1032205E0FF
S31502000460092203E00922002908BF06220B0143EAFA
S315020004708111114441EA090040F48079B1780129D9
S3150200048019D12A78F178022A04D0032A05D14FF429
S31502000490403208E04FF4102205E04FF41022002902
S315020004A008BF4FF4C0220B0543EA8151114441EAC9
S315020004B0090040F0807961684FF0060E0023C96991
S315020004C001F1300200BF00BF91F84870DF40FF071C
S315020004D00CD01F46042B08BF0327032B08BF042793
S315020004E0A06800EB87001768013FC7640133043236
S315020004F00FF017C0287C0D2802D8A068002141649D
S31502000500A06800218163A068C0F88810306D40B9E8
S3150200051096F8200096F82110400340EA417049EA15
S31502000520000996F84800A16800284FF4A00008BF09
S315020005304FF4AA0008642878012804D1A068002193
S31502000540C164A0680165A06840F22C5CC2F2002C6E
S31502000550C0F8349096F8540096F85510A2684901EE
S31502000560D36A41EA001048F003011843D062A0683A
S31502000570016348F00101A0680163D4E90201C16088
S315020005804EF2001095F912304CF20031CEF2000014
S31502000590C4F20001002B1BD46F7CC51801223F0157
S315020005A085F800734CF8234051F8237027F48037FE
S315020005B041F8237051F823705F0903F01F03BFF35C
S315020005C05F8F00EB87059A40C5F8802140F8272007
S315020005D096F92830002B1DD496F82220C71801253B
S315020005E0120187F800234CF8234051F8232022F405
S315020005F0803241F8232051F823205A0903F01F03C1
S31502000600BFF35F8F00EB820705FA03F3C7F8803169
S3150200061040F8223096F92930002B1DD496F8232073
S31502000620C7180125120187F800234CF8234051F818
S31502000630232022F4803241F8232051F823205A093C
S3150200064003F01F03BFF35F8F00EB820705FA03F384
S31502000650C7F8803140F8223096F92A30002B1DD493
S3150200066096F82420C7180125120187F800234CF8B2
S31502000670234051F8232022F4803241F8232051F8F6
S3150200068023205A0903F01F03BFF35F8F00EB820793
S3150200069005FA03F3C7F8803140F8223096F92B3079
S315020006A0002B1DD496F82520C7180125120187F8BC
S315020006B000234CF8234051F8232022F4803241F8DB
S315020006C0232051F823205A0903F01F03BFF35F8F3B
S315020006D000EB820705FA03F3C7F8803140F82230AF
S315020006E096F92C30002B1DD496F82620C718012522
S315020006F0120187F800234CF8234051F8232022F4F4
S31502000700803241F8232051F823205A0903F01F03AF
S31502000710BFF35F8F00EB820705FA03F3C7F8803158
S3150200072040F8223096F92D30002B1DD496F827205A
S31502000730C718120187F800234CF82340012751F805
S31502000740232022F4803241F8232051F8231059093C
S3150200075003F01F03BFF35F8F00EB810207FA03F377
S31502000760C2F8803140F8213045F254010020C0F22F
S3150200077047012160BDE8F087D0E9021200204A60F5
S315020007807047D0E9021200208A607047D0E902124F
S315020007900020CA60704780B5D0E9011EC969D1E957
S315020007A001C3CA6843F00043CEF8143042F0004257
S315020007B083689A614CF000438268136182680B6910
S315020007C05362826800204969916280BD81684FF058
S315020007D000420A6181684A6181688A6100228168F1
S315020007E04A62816800208A62704783684A1E9A6656
S315020007F043681B784BB9D0F808C04FF0FF3303EBC0
S315020008005101CCF85410836899658168CB6ADB077D
S3150200081007D14A664FF4AA0281680A64D0E9020146
S31502000820C160002070472DE9F04383B016460446A6
S3150200083002F00309002001904FF0FF3000906A4653
S3150200084020463346884600F03FF9A068056B019FB3
S3150200085097B931074FF0040158BF0221B207009A37
S3150200086001D44B4604E000EB81000123C264A06878
S31502000870194300EB8100C26470060CD4022E39467D
S315020008800FD139466FB16A4601232046414600F030
S315020008901BF9019905E0A068016C41F4800101642D
S315020008A0394625F44030B9F1010F40EA074255EACC
S315020008B00280A768B9F1000F20F040734FF00000E4
S315020008C018BF43EA01623A6303B0BDE8F0831346F8
S315020008D0042A08BF0323032AA1F1010108BF042346
S315020008E0806800EB83020020D16470478268526EF2
S315020008F001328A608068D0F82CC04EF22000C4F221
S3150200090001000368808843EA000200F00F00120724
S3150200091003F00F0208D440F23C53C2F200231B68D4
S3150200092003FA00F0D0401EE070B500F0070E032572
S3150200093040F23C5605FA0EF44FF0010EC2F20026C2
S31502000940082838BF0EFA00F403F007001B0705FA61
S3150200095000F0356805FB04F358BF0EFA02F0B3FB4C
S31502000960F0F0BDE87040CCF3C352D040486000209E
S3150200097001220A7070478268D26A02F001020A7185
S3150200098082680020926C0A607047844641610020AA
S31502000990CCE906327047B0B543684EF2801E40F28B
S315020009A02C5CCEF2000E93F91210DB69C2F2002C17
S315020009B000290ED44A0901F01F04012505FA04F4A0
S315020009C04EF82240BFF34F8FBFF36F8F00224CF8D1
S315020009D0212093F9281000290ED44A0901F01F0498
S315020009E0012505FA04F44EF82240BFF34F8FBFF3F8
S315020009F06F8F00224CF8212093F9291000290ED47A
S31502000A004A0901F01F04012505FA04F44EF82240B2
S31502000A10BFF34F8FBFF36F8F00224CF8212093F95B
S31502000A202A1000290ED44A0901F01F04012505FAED
S31502000A3004F44EF82240BFF34F8FBFF36F8F0022AC
S31502000A404CF8212093F92B1000290ED44A0901F003
S31502000A501F04012505FA04F44EF82240BFF34F8F16
S31502000A60BFF36F8F00224CF8212093F92C10002936
S31502000A700ED44A0901F01F04012505FA04F44EF8C2
S31502000A802240BFF34F8FBFF36F8F00224CF8212015
S31502000A9093F92D1000290ED44A0901F01F030124EF
S31502000AA004FA03F34EF82230BFF34F8FBFF36F8F72
S31502000AB000224CF82120D0E90212002303608A604A
S31502000AC0816800204B63B0BD10B5D0F808C0DCF8D1
S31502000AD068E00EF1010E21B1714502D2481E106086
S31502000AE010BD71455FEA3F9E00294FF01001DCF808
S31502000AF034C001EA031140682CFA01F15FEA1F943F
S31502000B0011F0100F007801F00C015FEA1F9304291F
S31502000B105FEA1F91032853EA818000285EEA148067
S31502000B2001280CBF02200320506010BD4EF22401A2
S31502000B30C4F201018878098801F00F02A2F10801C6
S31502000B4003293BD8DFE801F0022C101E40F20041D7
S31502000B50C2F2002151F820004AF6AB21CAF6AA21B8
S31502000B60A0FB0101480830E040F20041C2F2002138
S31502000B7051F820004AF6AB21CAF6AA21A0FB0101D0
S31502000B80C80822E040F20041C2F2002151F82000DA
S31502000B904AF6AB21CAF6AA21A0FB0101080914E014
S31502000BA040F20041C2F2002151F820004AF6AB2180
S31502000BB0CAF6AA21A0FB0101880806E040F200411C
S31502000BC0C2F2002151F82000D04040F23C51C2F25C
S31502000BD0002108607047D4D42DE9F04192A04EF26C
S31502000BE0FA38C4F201084AF2015190ED001F40F2B0
S31502000BF00040CFF6FF71C2F200200231A8F80010C1
S31502000C004CF600214EF601464EF60047C3F69A31DF
S31502000C104FF40042C0E9042144F2553148F2004241
S31502000C204EF2140580ED001FC4F20106C4F201075C
S31502000C30C1F2DE31C1F2D772C4F20105C0E9071270
S31502000C40FFF774FF4FF650600A21CFF6FF70395452
S31502000C50092085F88E00387818B93078800700F0B8
S31502000C60DD80387858B901203870C820012100F09B
S31502000C702DF900BF00BF00BF38780128FCD1002043
S31502000C80307038704AF201560020A87700BF00BFC4
S31502000C9095F828000007FBD54EF614504FF60211C0
S31502000CA0C5F8981040F251412987CEF20000BFF3F1
S31502000CB04F8FBFF36F8F02684EF2000122F40032AB
S31502000CC002600022C0F83C22CEF20101BFF34F8F30
S31502000CD0BFF36F8F0A6822F440520A60BFF34F8F48
S31502000CE0BFF36F8F2A7802F0F80201322A7000BF32
S31502000CF02A78D206FCD40A6842F440520A60BFF34C
S31502000D004F8FBFF36F8F0168890312D4BFF34F8FE2
S31502000D10BFF36F8F0021C0F83C12BFF34F8FBFF3B2
S31502000D206F8F016841F400310160BFF34F8FBFF34B
S31502000D306F8F0020A87500BF95F828008006FBD5A6
S31502000D404CF200070020C4F213073870387838785E
S31502000D5038787868FA2807D0FA20C1F6006000BF12
S31502000D6078607968FA29FBD1B8687D2808D07D2099
S31502000D70CEF2001000BF00BFB860B9687D29FBD172
S31502000D8043F23240C3F22320E86042F22010288266
S31502000D900520A874FFF7CAFE1E200121012400F0D7
S31502000DA095F878686FF39F20652828BF3C70FFF797
S31502000DB0BDFE42F200004FF42541C4F20000068057
S31502000DC0BFF35F8F0472BFF35F8F018085F83F40E8
S31502000DD095F8490040F0400085F8490000BF00BF81
S31502000DE095F94900B0F1FF3FFADC012085F8480089
S31502000DF0C82085F8490095F8490000F0BF0085F83B
S31502000E00490000BF00BF00BF95F949000028FBD486
S31502000E104FF42540A8F80000BDE8F0814FF47A703F
S31502000E2000F00AF82EE700BF006CDC0200127A001E
S31502000E300080000000366E017047D4D4D4D4D4D4D6
S31502000E40B0B542F22404C820C4F2200401210025D0
S31502000E50257100F03BF82570207808B12FF005C007
S31502000E60207840F00200207020788007FCD4002011
S31502000E7004F8020C00BF00BF14F8020C08B12FF0F0
S31502000E8005C84FF0030E002004F11C0100BF00BF8D
S31502000E9011F8102002F07F0201F8102000BF00BFF7
S31502000EA011F91020002AFBD401300FF00FC80120DF
S31502000EB000F0A6F84EF64C410120C4F201010022D0
S31502000EC00A70BDE8B04000F074B8704740F23C5278
S31502000ED041F20023C2F20022C0F27A0348431268AA
S31502000EE09A420FD344F23F21C0F20F0111444DF64C
S31502000EF08362C4F21B32A1FB0212910CA0FB010118
S31502000F00C9B11BE04CF60021C3F69A31B1FBF2F1EE
S31502000F1048F63812C0F24102904205D24FF47A7274
S31502000F205043B0FBF1F006E0B0FBF1F0904205D27F
S31502000F304FF47A71484328B100F006B84FF0FF30FB
S31502000F4000F002B87047D4D401380028FCD17047AB
S31502000F50F0B581B04CF2001540F2D447C4F2000558
S31502000F600024C2F200272868296A01EA000600BFA7
S31502000F7026FA04F0C00703D0396809B1204688472B
S31502000F8001340437152CF3D12E6100BF00BF00BF18
S31502000F90286A3042FCD101B0F0BD41F6F400C0F23D
S31502000FA00020008820B14CF20031C4F20001086032
S31502000FB07047EFF31081012282F3108840F230521B
S31502000FC0C2F2002232F8103023B132F81030013B5F
S31502000FD022F8103032F810207AB94EF2FA3241F67F
S31502000FE0F60CC4F20102C0F2002C13883CF8100081
S31502000FF043F4254323EA0000108081F310887047EA
S3150200100010B5EFF31081012282F3108840F23052BC
S31502001010C2F2002232F8103083B94EF2FA3E41F69D
S31502001020F60CC4F2010EC0F2002CBEF800403CF8E9
S315020010301030234343F42543AEF8003032F8103023
S31502001040013322F8103081F3108810BDD4D4D4D4E1
S3150200105000F006F8FFF746F8FEE700BE7047D4D464
S3150200106070B54EF6005540F20120CEF20005C0F2F0
S315020010700E004EF200066861CEF20106BFF34F8FF4
S31502001080BFF36F8F2968C1F3035001285FEA1F92ED
S3150200109011F00F0F5FEA0F911142316811D1022848
S315020010A00FD241F0040030604EF20800BFF34F8FBA
S315020010B0CEF20000BFF36F8F016841F48031016008
S315020010C002E021F004003060BFF34F8FBFF36F8F51
S315020010D04FF4700040F20001C5F888000020C0F20B
S315020010E00021A9600024FEF7F0FFFFF775FD4EF21E
S315020010F0FA304EF6B022C4F20100C4F201024AF2FC
S315020011000251018014704FF4254101800120FEF73F
S31502001110DCFF40F20000C2F2002080F30A88306849
S31502001120800721D5A868B0F1007F1DD130694FF440
S315020011300071C0F3C300726901FA00F3C2F3C3007F
S3150200114081400020DA08CB080146064642F005C077
S31502001150E6E802010FF005C04FF0005243F005C069
S31502001160E2E802010FF005C0002000F095F8FFF753
S31502001170DDFCFFF765FE0320FFF742FF4FF00E0E80
S3150200118040F63050C4F2400020F8044B0FF005C080
S315020011904EF210140320C4F20104FFF70AFF0320E3
S315020011A0FFF72EFF44F204000021C4F22000016082
S315020011B041608160C1600320FFF7FBFED4F8C802DC
S315020011C0800714D42078A0B10120FFF719FF00BFD1
S315020011D094F9000010F1410FFADC0020207000BFE4
S315020011E020783F28FCD80120FFF7E3FE01E0D4F87F
S315020011F0C802D4F8C802400715D42079A8B1012044
S31502001200FFF7FEFE00BF00BF94F9040010F1410F84
S31502001210FADC0020207100BF20793F28FCD801208B
S31502001220FFF7C7FE01E0D4F8C8020220FEF74DFF21
S31502001230012000F031F840F24454C2F20024204664
S3150200124000F06EF8204600F07FF8BFF34F8FBFF331
S315020012506F8F0020C5F8500241F64E1041F64E112E
S31502001260C0F20020C0F20021BFF34F8F081ABFF36D
S315020012706F8F8410012C08DB41F64E15C0F2002553
S3150200128055F8040B8047013CFAD1FFF786FE002091
S31502001290BDE87040FFF719BEF0B581B041F2C865EE
S315020012A00446C0F200252E6876B16868071D00BFA5
S315020012B07879844204D157E90101091A00F01BF832
S315020012C0013E07F10C07F3D1AE6896B1E86800F16A
S315020012D0080500BF00BF00BF6879844205D155E901
S315020012E002022968121A00F00AF8013E05F11005F9
S315020012F0F2D101B0F0BD0A46002100F009B810B5DE
S31502001300002322B1CC5C013AC4540133F9E710BD83
S3150200131003461AB103F8011B013AFAE77047D4D41F
S3150200132010B505490446054AFFF7E9FF0448054991
S315020013302044FFF7E0FF10BD40000002000000005D
S3150200134000000000000000000249401A024908603D
S31502001350704700BF0800000040050022010001009E
S315020013600000000000000000000000000000000075
S315020013700000000000000000000000000000FFFF67
S31502001380FFFFFFFFDFDFDFDFDFDF0000000000001F
S315020013900000000000000000000000000000000045
S315020013A00000000000000000000000000000000035
S315020013B0000000000200000090D0030000000000C0
S315020013C048E801000CFFDF000000000000000000FA
S315020013D05C13000234040022B413000274160002E5
S315020013E001000100000000000000000000000000F3
S315020013F000000000000000000000000000000000E5
S315020014000000FFFFFFFFFFFFDFDFDFDFDFDF0000A0
S3150200141000000000000000000000000000000000C4
S3150200142000000000000000000000000000000000B4
S3150200143000000000000000000200000090D003003F
S315020014400000000048E801000AFFDF00000000007B
S3150200145000000000E01300025404002238140002C7
S3150200146074160002010001000000000000000000E6
S315020014700000000000000000000000000000000064
S31502001480000000000000FFFFFFFFFFFFDFDFDFDFDE
S31502001490DFDF000000000000000000000000000086
S315020014A00000000000000000000000000000000034
S315020014B00000000000000000000000000200000022
S315020014C01027000000000000581B000008FFDF0084
S315020014D000000000000000006414000274040022F0
S315020014E0BC14000274160002010001000000000094
S315020014F000000000000000000000000000000000E4
S3150200150000000000000000000000FFFFFFFFFFFFD9
S31502001510DFDFDFDFDFDF0000000000000000000089
S3150200152000000000000000000000000000000000B3
S3150200153000000000000000000000000000000000A3
S3150200154002000000A861000000000000D430000084
S3150200155007FFDF000000000000000000E8140002A0
S3150200156094040022401500027416000201000100D4
S315020015700000000000000000000000000000000063
S315020015800000000000000000000000000000FFFF55
S31502001590FFFFFFFFDFDFDFDFDFDF0000000000000D
S315020015A00000000000000000000000000000000033
S315020015B00000000000000000000000000000000023
S315020015C000000000020000001027000000000000DA
S315020015D0B80B000006FFDF0000000000000000005C
S315020015E06C150002B4040022C4150002741600022F
S315020015F000000100080200000000010009020000CC
S31502001600000001000A020000000001000B020000B7
S3150200161000000103030300000000010304030000AD
S3150200162000000103000400000000010301040000A1
S31502001630000001030105000000000103020500008D
S315020016400000010304060000000001030506000075
S31502001650000001030A080000000001030B08000055
S315020016600E000000F0150002000000000204030450
S315020016700404D4D4B10200027907000283070002EF
S315020016808D07000297070002CD070002EB07000252
S3150200169027080002CF080002ED08000277090002BF
S315020016A08B0900029709000200000068000000682A
S315020016B00000008000000080000000700000007042
S315020016C000000022000000220B000000E0160002CB
S315020016D0190000006417000204000000A8160002A8
S315020016E000000068000000680001000D00000068AC
S315020016F0000000680001000D00000080000000806C
S3150200170000010008000000800000008000010008BF
S3150200171000000070000000700001000A0000007066
S31502001720000000700001000A000000000000000036
S315020017300100000500000020000000200100000456
S315020017400000002200000022000000032C040022F8
S31502001750440500220000000344050022440500223D
S31502001760000000030000006800000068000000900E
S315020017700001090D00000068000000680000007802
S3150200178000010B0D00000068000000680000002741
S315020017900001020D0000006800000068400000021F
S315020017A00001010D00000080000000800000009092
S315020017B00001090800000080000000800000007897
S315020017C000010B08000000800000008000000027D6
S315020017D000010208000000800000008040000002B4
S315020017E00001010800000070000000700000009077
S315020017F00001090A00000070000000700000007875
S3150200180000010B0A000000700000007000000027B3
S315020018100001020A00000070000000704000000291
S315020018200001010A00000000000000000000009014
S315020018300101090500000000000000000000007818
S3150200184001010B0500000000000000000000002757
S315020018500100020500000000000000004000000236
S315020018600100010500000020000000200000009099
S315020018700101090400000020000000200000007899
S3150200188001010B04000000200000002000000027D8
S3150200189001000204000000200000002040000002B7
S315020018A00100010400000022000000220000009056
S315020018B00001090300000022000000220000007857
S315020018C000010B0300000022000000220000002796
S315020018D00000020300000022000000224000000275
S315020018E000000103440500224405002240000002D4
S315020018F000000103000001000200080010002000A1
S3150200190000000406362E342E30004275696C7420AF
S31502001910776974682052656E6573617320416476D7
S31502001920616E63656420466C657869626C652053F6
S315020019306F667477617265205061636B61676520BB
S3130200194076657273696F6E20362E342E300075
S30902C9F040FFFFFFFFFF
S30902C9F044EFFFFFFF0B
S30902C9F0C0FFFFFFFD81
S30902C9F0C4FFFFFFFF7B
S30902C9F120000000001A
S30902C9F1240000000016
S7050200105197
