S01E000052656E657361735F4375705F46696E616C5F47616D652E737265638C
S3150200000020800022F91E0002E11D0002031F0002E9
S31502000010031F0002031F0002031F0002031F000248
S31502000020000000000000000000000000031F0002A4
S31502000030031F000200000000031F0002031F00024C
S31502000040DF090002B90B0002210D0002090E0002AF
S31502000050530100021F0200029F0200027F030002F8
S3110200006025180002A7180002FB18000277
S3070200006C010188
S31502000070B0B5144612680546904700B1B0BD616836
S315020000802846BDE8B040084742F29842C0F2002234
S3150200009007CAFFF7EDFF42F21442C0F2002207CA76
S315020000A0FFF7E6FF42F29032C0F2002207CAFFF7DC
S315020000B0DFFF42F20C32C0F2002207CAFFF7D8FF76
S315020000C042F28822C0F2002207CAFFF7D1FF42F2AB
S315020000D00420C0F2002090E87000326820462946CB
S315020000E09047F3694FF4857101222046984700BF75
S315020000F0FA204FF47A7101F031FE32682046294621
S315020001009047F3694FF48571012220469847FA20F9
S315020001104FF47A7101F022FE326820462946904752
S31502000120F3694FF48571002220469847E0E70228DA
S3150200013018BF704748F24C0042F61411C2F2002072
S31502000140C0F2002100F05BB980B5FFF79DFF0020E9
S3150200015080BD012000F000B82DE9F0418AB04FF0D1
S315020001607042EFF3038102EB016147F2044C48F25D
S315020001705C148B15C4F2340CC2F20024091654F82E
S315020001800380DCF80020DCF840308DE80D0098068C
S315020001904FF0000003900FD5DCF80000C04310F0CA
S315020001A0180F01D1002006E0DCF80000C0F3C140C0
S315020001B00CEB8000C06A039043F08022D8F80C0052
S315020001C0049042F00100CCF840004CF20030C4F238
S315020001D0000050F8212022F4803240F8212050F805
S315020001E02100D8F81000694658B103460DF1140CE7
S315020001F093E8F4008CE8F400024691E8F800F8C2AD
S3150200020000E00846D8F808108847D8F8100018B158
S3150200021005A991E8EC00ECC00AB0BDE8F08170B522
S3150200022088B04FF07041EFF3038001EB006048F2B3
S315020002305C118015C2F20021EE460C584FF47F4144
S31502000240ADF8001047F27001C4F234010A68019257
S31502000250E368039302F400324A604CF20031C4F2BE
S315020002600001425822F4803242504058206958B167
S3150200027003460DF1100C93E866008CE86600014611
S315020002809EE86C006CC100E07046A1688847206950
S3150200029018B104A991E86C006CC008B070BD2DE9D4
S315020002A0F04389B04FF07041EFF3038001EB006039
S315020002B048F25C1147F250028015C2F20021C4F2E4
S315020002C034020C58D2F80090116BD2F8408021F01B
S315020002D08073536328F0807353644CF20032C4F285
S315020002E00002835823F4803383508058E0680490D8
S315020002F05FEAC9704FF001008DF804001CD0206936
S31502000300029101A94FF000028DF8052058B103466B
S315020003100DF1140C93E8E4008CE8E400024691E83F
S31502000320E800E8C200E00846A1688847206918B1DB
S3150200033005A991E8CC00CCC05FEA89701CD520697A
S3150200034001218DF8051001A9CDF8088058B10346A0
S315020003500DF1140C93E8E4008CE8E400024691E8FF
S31502000360E800E8C200E00846A1688847206918B19B
S3150200037005A991E8CC00CCC009B0BDE8F083F0B580
S3150200038089B04FF07041EFF3038001EB006048F251
S315020003905C118015C2F200210F5847F25001C4F2D7
S315020003A03401096802218DF80410F96804914CF2AF
S315020003B00031C4F20001425822F4803242504058C1
S315020003C0FF208DF8050038690021029101A958B174
S315020003D003460DF1140C93E874008CE8740002468F
S315020003E091E8780078C200E00846B968884738691B
S315020003F018B105A991E8CC00CCC009B0F0BD80B512
S3150200040045F25422C5F24F020260084600F01CF97A
S31502000410002080BD0146002000220A60704780B598
S31502000420084600F011F9002080BD70B586B001A81B
S31502000430049003A814460D46ADF808100192012651
S31502000440ADF80C6000F064F948F25810EFF3108131
S31502000450C2F2002086F3108802683AB940F61452B6
S315020004600023C4F240021370402313700268013263
S31502000470026081F31088E10340F600014FEA15227B
S31502000480C4F2400101D4EBB20CE001EB8216EBB2EE
S3150200049056F8235025F4803546F8235024F4803547
S315020004A046F8235001EB8211012241F82340EFF373
S315020004B0108182F31088026812B10268013A026062
S315020004C0006838B940F614500022C4F240000270A7
S315020004D08022027081F31088002006B070BD0420CD
S315020004E00023C4F24000CFF6FF7340EAD100C9B23E
S315020004F020F01B00006843EA104020FA01F10020B8
S3150200050001F001011170704710B56FF00100CBB216
S3150200051000EAD11001210C2401FA03FE0101C4F202
S31502000520400444EA001C4FF48030012A625800FA63
S3150200053003F004D122EA000040EA0E0203E022EAB6
S315020005400E0141EA00020020CCF8002010BD6FF037
S315020005503F00CBB200EA910040F6000100EB8300B7
S31502000560C4F2400141580020C1F3400111707047A6
S3150200057010B5CBB2012098406FF0010E84B20EEA9C
S31502000580D110002A40F208024FF4803C4FEA0011D3
S31502000590C4F240024FF0000008BF0CFA03F45450B4
S315020005A010BD80B56FF0010040F2000C00EAD110D8
S315020005B0C4F2400C010103EA020E62EA03025CF88D
S315020005C001004EEA000E002002EA0E024CF801205B
S315020005D080BD6FF0010000EAD11004210001C4F2CF
S315020005E0400109580020090C118070476FF0010084
S315020005F003EA020C00EAD11023EA02010C230201EB
S31502000600C4F2400300204CEA0141995070476FF052
S315020006100100042300EAD110C4F2400301010020C4
S315020006205958118070476FF0010003EA020C00EA84
S31502000630D11023EA020108230201C4F2400300207A
S315020006404CEA01419950704770B5044600F060F8D3
S3150200065048F2581CEFF31081C2F2002C012080F3FD
S315020006601088DCF8000038B940F614500022C4F2B3
S315020006704000027040220270DCF800000130CCF823
S31502000680000081F31088208828B340F6000E00216E
S31502000690C4F2400E00BF00BF606800EBC10250F812
S315020006A031309288D8034FEA1220D2B20BD50EEB24
S315020006B0801555F8226026F4803645F8226023F428
S315020006C0803645F822600EEB8010013140F8223068
S315020006D020888142E0D30120EFF3108180F3108855
S315020006E0DCF8000020B1DCF800000138CCF800008C
S315020006F0DCF8000038B940F614500022C4F240007B
S3150200070002708022027081F3108870BDD4D4D4D4D2
S315020007102DE9F04F81B004460088002865D04EF6D8
S315020007204C4B0025C4F2010B4FF0010A00BF00BF7B
S3150200073042F66C1642F240080027C0F20026C4F2C6
S31502000740200800BF00BF00BF606836F8021B00EB3E
S31502000750C50082888A423FD100689BF8001000F0EB
S31502000760B8500AFA07F9B0F1807F09EA010017D1F9
S3150200077058B9012001F097FB9BF8000040EA0900F6
S315020007808BF80000012001F067FB98F900000028B1
S3150200079022D498F8000040F0800017E000BF00BFA6
S315020007A058B1012001F07FFB9BF8000020EA090006
S315020007B08BF80000012001F04FFB98F90000B0F120
S315020007C0FF3F09DC98F8000000F07F0088F800007F
S315020007D0C820012101F0C2FA013708F10208032FED
S315020007E0B2D1208801358542A2D301B0BDE8F08F8F
S315020007F0F0B502690023137040230269137002697F
S3150200080013785B06FCD5C0231370026803690825BA
S315020008104EF6185C526ACEF2000C127942F0E002F1
S315020008201A7402680369526AD27842F0E0025A7474
S3150200083002680369526A927862F306159D7002682D
S315020008400569526A13785278012B5FEA1F9343EACD
S31502000850420242F00402EA70026844F24025C0F203
S315020008600F0503695268AA424FF0770208BF6FF07C
S3150200087008025A71002302699371B3230269D37184
S315020008804EF2001291F911404B7BCEF20002002C7F
S315020008904FEA031303D4151985F8003304E004F074
S315020008A00F05654405F8043C48F25C1E4CF2003321
S315020008B0C2F2002EC4F2000301274EF8240053F8B8
S315020008C0245025F4803543F8245053F82450650902
S315020008D004F01F04BFF35F8F02EB850607FA04F4E8
S315020008E0C6F8804142F8254091F90F404D7B002C15
S315020008F04FEA051503D4161986F8005304E004F0EE
S315020009000F06664406F8045C4EF8240053F8245099
S3150200091025F4803543F8245053F82450650904F031
S315020009201F04BFF35F8F02EB850607FA04F4C6F8CD
S31502000930804142F8254091F910404D7B002C4FEA48
S31502000940051503D4161986F8005304E004F00F06C1
S31502000950664406F8045C4EF8240053F8245025F445
S31502000960803543F8245053F82450650904F01F04D7
S31502000970BFF35F8F02EB850607FA04F4C6F88041DF
S3150200098042F8254091F90E40497B002C4FEA0111AD
S3150200099003D4171987F8001305E004F00F0505EBD9
S315020009A00C0707F8041C4EF8240004F01F0753F83E
S315020009B02410012621F4803143F8241053F8241020
S315020009C0610906FA07F7BFF35F8F02EB8103C3F8EB
S315020009D0807142F821709F2100690170F0BD10B547
S315020009E082B04FF07041EFF3038001EB00604CF2EE
S315020009F000328015C4F20002835823F480338350F8
S31502000A008058EFF3038001EB006048F25C11801519
S31502000A10C2F200210C5894F82D0038B194F82E0039
S31502000A2001284DD1002084F82E0081E0A069022819
S31502000A3004D82069017941F040010171E069012879
S31502000A400ED12069017941F0100101712069017905
S31502000A5041F0080101712069017901F0EF0101718C
S31502000A6020688269D2B1216994F82930012B15D107
S31502000A70A369042B12D3D2F808C0033B13311068C2
S31502000A80DCF808C062699BB2E0472068A2690321CC
S31502000A90033AC4E90712012184F82E10406AC0798C
S31502000AA0012803D10521204600F04AFA2069C07CBC
S31502000AB08DF807009DF80700012084F82D0037E025
S31502000AC0E069A8B32168496AC979012904D10521D7
S31502000AD0204600F035FAE06901282BD0022806D01C
S31502000AE0032813D12069017941F040010DE0206904
S31502000AF0017941F0100101712069017941F0080183
S31502000B0001712069017901F0EF010171D4E9040153
S31502000B10C07C226A8854D4E90701013801F1010137
S31502000B20C4E9070104D12069017901F0BF0101710D
S31502000B3002B010BD94F82A00012831D120684EF285
S31502000B408013CEF2000390F90F00420900F01F0154
S31502000B50012000FA01F143F82210BFF34F8FBFF3D1
S31502000B606F8F2169CA7942F08002CA7121690A79B6
S31502000B7042F010020A7121690A7902F0F7020A713B
S31502000B8021690A7902F0EF020A71216904224A7088
S31502000B9021694A7902F0FE024A7184F82C00B5E70F
S31502000BA02069417A01F0F7014172206908214170FA
S31502000BB0ACE7D4D4D4D4D4D4B0B54FF07041EFF36B
S31502000BC0038001EB00604CF200358015C4F200058B
S31502000BD0425922F4803242514059EFF3038001EB2D
S31502000BE0006048F25C118015C2F200210C5894F89C
S31502000BF02700B0B394F82610032907D194F82810D9
S31502000C00022903D194F83010002952D094F82450C6
S31502000C100128206919D121684969B1B194F82920BE
S31502000C209AB9A2698AB1D1F808C0A38B00F112025F
S31502000C300868DCF808C06169E04720690021A269FA
S31502000C40C4E90712012184F82F10857494F828004C
S31502000C5094F82710013084F82800481E84F82700EB
S31502000C60B0BD94F8290020BB2068406AC0790128EB
S31502000C7008D194F82B0028B9206A18B1052120461C
S31502000C8000F05EF994F82F00012804D1002084F8C0
S31502000C902F00E0690CE0E06960B1D4E90401226A40
S31502000CA0895C8174D4E90710421C481EC4E9070214
S31502000CB000B1B0BD2069C17901F07F01C17120691F
S31502000CC06FF0BE0100BF00BF90F90720B2F1FF3FEF
S31502000CD003DC002901F10101F6D1206890F9100028
S31502000CE055F8201021F4803145F8201055F82000DF
S31502000CF0206890F9100000280BD44EF2802300F0F1
S31502000D001F014009CEF20003012202FA01F143F863
S31502000D1020102069C17941F04001C171B0BDD4D41F
S31502000D2010B54FF07041EFF3038001EB006048F21B
S31502000D305C118015C2F200210C582068406AC07905
S31502000D40012803D10521204600F0FAF894F829007B
S31502000D50012806D194F82700012802D194F8300020
S31502000D6080B3E06970BB94F82A00012822D120687A
S31502000D704EF28013CEF20003012290F90F0000F02A
S31502000D801F01400902FA01F143F82010BFF34F8F09
S31502000D90BFF36F8F2069C17941F08001C17120696B
S31502000DA0042141702069417901F0FE01417184F804
S31502000DB02C2007E02069417A01F0F701417220698F
S31502000DC0082141702069C17901F0BF01C171206912
S31502000DD06FF0BE0100BF00BFC279520603D50029DB
S31502000DE001F10101F8D14FF07041EFF3038001EBFD
S31502000DF000604CF200318015C4F20001425822F420
S31502000E0080324250405810BDB0B54FF07041EFF3FA
S31502000E10038001EB006048F25C118015C2F20021EA
S31502000E200C5821694A7A4B7A02F01F0002F003023B
S31502000E300F2803F0E0034B7201D83AB923E0216987
S31502000E404B785B0658BF42F00102CAB1012084F812
S31502000E502B0020690025C57120462168FFF7C8FCD2
S31502000E6094F82600A16984F828002069C4E907518C
S31502000E70B32184F82C5084F82A50C17101214BE029
S31502000E804A78520611D4010706D494F82C20012A76
S31502000E9031D110F004022ED0E06910B994F82B007B
S31502000EA090B3002919D4012035E0012084F82B00E3
S31502000EB00820487020682369406A4179027880795F
S31502000EC042EA011141EAC01040F00200D8702069DE
S31502000ED0417941F00101417121E00020A169C4E993
S31502000EE0070194F8261084F8281084F82C0084F858
S31502000EF02A0001200CE0400711D52068406AC0791B
S31502000F0001280CD1042107E094F8290080F003009F
S31502000F102169B322CA71C1B2204600F011F84FF01E
S31502000F207041EFF3038001EB00604CF20031801553
S31502000F30C4F20001425822F4803242504058B0BDF9
S31502000F40B0B582B0856B044625B1D5E90002CDE97C
S31502000F50000200E06D46E06B286029712068416955
S31502000F6039B194F8292022B98A6808681169884734
S31502000F702068806938B194F82910012903D1816863
S31502000F80006809698847616B28468847A06B18B1D3
S31502000F90DDE90012C0E90012002084F82B0002B03D
S31502000FA0B0BDD4D4D4D4D4D42DE9F0470D46097CAF
S31502000FB0044601220D295FEA9F9002FA01F1E160DF
S31502000FC065602074287C42F20001C4F2320143F6C5
S31502000FD01079C4F232094FF0000801EB0020A0603C
S31502000FE068696061A869E061C4F818804FF0004A38
S31502000FF0EE69C9F80020EFF3108782F31088287C87
S31502001000011F2AFA00F006296FF0006151EA30A0AA
S3150200101043F21001C4F220010A6810400860086811
S315020010201E20012100F09AFE87F31088207B00071C
S315020010300DD00120EFF3108180F31088A089B9F852
S31502001040F22022EA0000A9F8F20081F31088A068D3
S315020010504FF425410160A068C0F82C80A068C0F852
S315020010603C80A068C0F84880287A2978A268C00522
S315020010700329696808BF00F58030D0620139A0688B
S31502001080C0F810A0A068C0F814A0A068C0F818A004
S31502001090A068C0F82480A068C0F82880A068B26959
S315020010A0C261A068F2690262A0688166A0684166B0
S315020010B02978D6F85090012934D029B969684FF0B9
S315020010C0FF3202EB510108E0A268E968936E03F170
S315020010D0010329B1994203D201394FF0000823E0F6
S315020010E0526B676899425FEA3F9C00295FEA1F914B
S315020010F03F7812F0100F02F00C025FEA1F93042AE7
S315020011005FEA1F92032F53EA828240F20008002A06
S315020011105CEA1181C0F2033800291CBF40F20008C4
S31502001120C0F202284FF0FF31A2685165A2689165AC
S315020011302A78042A03D3A268D165A2681166316DA2
S31502001140A9BB3178012915D12A787178022A03D0F0
S31502001150032A03D1032205E0092203E0092200291A
S3150200116008BF06220B0143EA8111114441EA090034
S3150200117040F48079B178012919D12A78F178022AC6
S3150200118004D0032A05D14FF4403208E04FF410226E
S3150200119005E04FF41022002908BF4FF4C0220B05C8
S315020011A043EA8151114441EA090040F080796168BD
S315020011B04FF0060E0023C96901F1300200BF00BFDD
S315020011C091F84870DF40FF070CD01F46042B08BF7A
S315020011D00327032B08BF0427A06800EB87001768C4
S315020011E0013FC764013304320FF017C0287C0D2873
S315020011F002D8A06800214164A06800218163A0682A
S31502001200C0F88810306D40B996F8200096F8211083
S31502001210400340EA417049EA000996F84800A1688D
S3150200122000284FF4A00008BF4FF4AA0008642878EB
S31502001230012804D1A0680021C164A0680165A068E4
S3150200124048F25C1CC2F2002CC0F8349096F85400A6
S3150200125096F85510A2684901D36A41EA001048F08F
S3150200126003011843D062A068016348F00101A06837
S315020012700163D4E90201C1604EF2001095F9123001
S315020012804CF20031CEF20000C4F20001002B1BD456
S315020012906F7CC51801223F0185F800734CF8234084
S315020012A051F8237027F4803741F8237051F82370E0
S315020012B05F0903F01F03BFF35F8F00EB87059A40B8
S315020012C0C5F8802140F8272096F92830002B1DD436
S315020012D096F82220C7180125120187F800234CF838
S315020012E0234051F8232022F4803241F8232051F87A
S315020012F023205A0903F01F03BFF35F8F00EB820717
S3150200130005FA03F3C7F8803140F8223096F92930FE
S31502001310002B1DD496F82320C7180125120187F841
S3150200132000234CF8234051F8232022F4803241F85E
S31502001330232051F823205A0903F01F03BFF35F8FBE
S3150200134000EB820705FA03F3C7F8803140F8223032
S3150200135096F92A30002B1DD496F82420C7180125A9
S31502001360120187F800234CF8234051F8232022F477
S31502001370803241F8232051F823205A0903F01F0333
S31502001380BFF35F8F00EB820705FA03F3C7F88031DC
S3150200139040F8223096F92B30002B1DD496F82520E2
S315020013A0C7180125120187F800234CF8234051F88B
S315020013B0232022F4803241F8232051F823205A09AF
S315020013C003F01F03BFF35F8F00EB820705FA03F3F7
S315020013D0C7F8803140F8223096F92C30002B1DD404
S315020013E096F82620C7180125120187F800234CF823
S315020013F0234051F8232022F4803241F8232051F869
S3150200140023205A0903F01F03BFF35F8F00EB820705
S3150200141005FA03F3C7F8803140F8223096F92D30E9
S31502001420002B1DD496F82720C718120187F800232F
S315020014304CF82340012751F8232022F4803241F848
S31502001440232051F82310590903F01F03BFF35F8FBE
S3150200145000EB810207FA03F3C2F8803140F821302B
S3150200146045F254010020C0F247012160BDE8F08731
S31502001470D0E9021200204A607047D0E90212002029
S315020014808A607047D0E902120020CA60704780B5B0
S31502001490D0E9011EC969D1E901C3CA6843F0004314
S315020014A0CEF8143042F0004283689A614CF0004351
S315020014B08268136182680B695362826800204969F7
S315020014C0916280BD81684FF000420A6181684A617B
S315020014D081688A61002281684A62816800208A6284
S315020014E0704783684A1E9A6643681B784BB9D0F8E0
S315020014F008C04FF0FF3303EB5101CCF85410836858
S3150200150099658168CB6ADB0707D14A664FF4AA025E
S3150200151081680A64D0E90201C160002070472DE9A2
S31502001520F04383B01646044602F0030900200190F8
S315020015304FF0FF3000906A4620463346884600F058
S315020015403FF9A068056B019F97B931074FF0040177
S3150200155058BF0221B207009A01D44B4604E000EBC1
S3150200156081000123C264A068194300EB8100C264B2
S3150200157070060CD4022E39460FD139466FB16A462F
S3150200158001232046414600F01BF9019905E0A068B7
S31502001590016C41F480010164394625F44030B9F109
S315020015A0010F40EA074255EA0280A768B9F1000F27
S315020015B020F040734FF0000018BF43EA01623A631D
S315020015C003B0BDE8F0831346042A08BF0323032AA7
S315020015D0A1F1010108BF0423806800EB8302002009
S315020015E0D16470478268526E01328A608068D0F890
S315020015F02CC04EF22000C4F201000368808843EA40
S31502001600000200F00F00120703F00F0208D448F29E
S315020016109413C2F200231B6803FA00F0D0401EE0C6
S3150200162070B500F0070E032548F2941605FA0EF47B
S315020016304FF0010EC2F20026082838BF0EFA00F457
S3150200164003F007001B0705FA00F0356805FB04F3F3
S3150200165058BF0EFA02F0B3FBF0F0BDE87040CCF3CF
S31502001660C352D0404860002001220A707047826847
S31502001670D26A02F001020A7182680020926C0A6044
S315020016807047844641610020CCE906327047B0B506
S3150200169043684EF2801E48F25C1CCEF2000E93F9AD
S315020016A01210DB69C2F2002C00290ED44A0901F09D
S315020016B01F04012505FA04F44EF82240BFF34F8FAA
S315020016C0BFF36F8F00224CF8212093F928100029CE
S315020016D00ED44A0901F01F04012505FA04F44EF856
S315020016E02240BFF34F8FBFF36F8F00224CF82120A9
S315020016F093F9291000290ED44A0901F01F04012585
S3150200170005FA04F44EF82240BFF34F8FBFF36F8FF2
S3150200171000224CF8212093F92A1000290ED44A09F6
S3150200172001F01F04012505FA04F44EF82240BFF326
S315020017304F8FBFF36F8F00224CF8212093F92B10A5
S3150200174000290ED44A0901F01F04012505FA04F402
S315020017504EF82240BFF34F8FBFF36F8F00224CF833
S31502001760212093F92C1000290ED44A0901F01F04F6
S31502001770012505FA04F44EF82240BFF34F8FBFF35A
S315020017806F8F00224CF8212093F92D1000290ED4D8
S315020017904A0901F01F03012404FA03F34EF822302A
S315020017A0BFF34F8FBFF36F8F00224CF82120D0E991
S315020017B00212002303608A60816800204B63B0BD79
S315020017C010B5D0F808C0DCF868E00EF1010E21B1C0
S315020017D0714502D2481E106010BD71455FEA3F9EF8
S315020017E000294FF01001DCF834C001EA0311406809
S315020017F02CFA01F15FEA1F9411F0100F007801F044
S315020018000C015FEA1F9304295FEA1F91032853EA3A
S31502001810818000285EEA148001280CBF0220032082
S31502001820506010BD48F2F40048F20011C2F20020E6
S31502001830C2F2002100680A6801320A60096831B9F9
S3150200184048F2F8010022C2F20021C1E9002280B565
S3150200185082B040F200010122C2F200210A704A70EF
S31502001860416831B180680190684603228DF80020F4
S31502001870884743F24840C4F23400016841F001014E
S3150200188001604FF07041EFF3038001EB00604CF210
S3150200189000318015C4F20001425822F480324250CF
S315020018A0405802B080BD80B582B048F2F400C2F260
S315020018B000200068416831B18068019068460122C3
S315020018C08DF80020884743F24840C4F2340001688C
S315020018D041F0020101604FF07041EFF3038001EB2A
S315020018E000604CF200318015C4F20001425822F425
S315020018F080324250405802B080BD80B582B048F274
S31502001900F400C2F200200068416831B1806801909B
S31502001910684602228DF80020884743F24840C4F206
S315020019203400016841F0040101604FF07041EFF3A9
S31502001930038001EB00604CF200318015C4F2000115
S31502001940425822F480324250405802B080BDD4D46C
S315020019504EF22401C4F201018878098801F00F02CF
S31502001960A2F1080103293BD8DFE801F0022C101E80
S3150200197048F22001C2F2002151F820004AF6AB21BA
S31502001980CAF6AA21A0FB0101480830E048F220016C
S31502001990C2F2002151F820004AF6AB21CAF6AA216A
S315020019A0A0FB0101C80822E048F22001C2F2002190
S315020019B051F820004AF6AB21CAF6AA21A0FB010182
S315020019C0080914E048F22001C2F2002151F8200071
S315020019D04AF6AB21CAF6AA21A0FB0101880806E055
S315020019E048F22001C2F2002151F82000D04048F20C
S315020019F09411C2F2002108607047D4D4D4D4D4D44E
S31502001A002DE9F041A8A04EF2FA38C4F201084AF2D2
S31502001A100151CFF6FF7190ED001F48F2200002310E
S31502001A20A8F80010C2F20020A3A14EF6014680EDEE
S31502001A30001F4EF600474EF2140591ED001F48F2C4
S31502001A40004140F6000280ED041F2030C1F2D7713A
S31502001A5043F60003C4F20106C4F20107C4F201050B
S31502001A60C2F6AF72C1F69C430EC0FFF771FF4FF686
S31502001A7050600A21CFF6FF703954092085F88E008E
S31502001A80387818B93078800700F00881387850B96C
S31502001A9001203870C820012100F060F900BF00BFA4
S31502001AA038780128FCD10020307038704AF201568D
S31502001AB00020A87700BF00BF95F828000007FBD5D5
S31502001AC042F602314EF61450C0F20101C5F8B410C6
S31502001AD040F223416987002285F836204FF602112B
S31502001AE0C5F8981040F251412987CEF200004EF215
S31502001AF00001BFF34F8FBFF36F8F0368CEF2010170
S31502001B0023F400330360C0F83C22BFF34F8FBFF3C8
S31502001B106F8F0A6822F440520A60BFF34F8FBFF3F9
S31502001B206F8F2A7802F0F80201322A7000BF00BFD6
S31502001B302A78D206FCD40A6842F440520A60BFF3FD
S31502001B404F8FBFF36F8F0168890312D4BFF34F8F94
S31502001B50BFF36F8F0021C0F83C12BFF34F8FBFF364
S31502001B606F8F016841F400310160BFF34F8FBFF3FD
S31502001B706F8F0020A87500BF95F828008006FBD558
S31502001B804CF200070020C4F2130738703878387810
S31502001B9038787868FA2807D0FA20C1F6006000BFC4
S31502001BA078607968FA29FBD1B8687D2808D07D204B
S31502001BB0CEF2001000BF00BFB860B9687D29FBD124
S31502001BC043F23240C3F22320E86042F22010288218
S31502001BD00520A874FFF7BCFE1E200121012400F097
S31502001BE0BDF878686FF39F20652828BF3C70FFF721
S31502001BF0AFFE42F200004FF42541C4F20000068017
S31502001C00BFF35F8F0472BFF35F8F018085F83F4099
S31502001C1095F8490040F0400085F8490000BF00BF32
S31502001C2095F94900B0F1FF3FFADC012085F848003A
S31502001C30C82085F8490095F8490000F0BF0085F8EC
S31502001C40490000BF00BF00BF95F949000028FBD438
S31502001C5095F84B0040F0400085F84B0000BF00BFEE
S31502001C6095F94B00B0F1FF3FFADC012085F84A00F6
S31502001C70CA2085F84B0095F84B0000F0BF0085F8A6
S31502001C804B0000BF00BF00BF95F94B000028FBD4F4
S31502001C904FF42540A8F80000BDE8F0814FF47A70B1
S31502001CA000F012F802E700BF006CDC0200127A00B4
S31502001CB00080000000366E010080000000CA9A3BD8
S31502001CC00046C3235543DE137047D4D4D4D4D4D4A8
S31502001CD0B0B542F22404C820C4F220040121002532
S31502001CE0257100F03BF82570207808B12FF005C069
S31502001CF0207840F00200207020788007FCD4002073
S31502001D0004F8020C00BF00BF14F8020C08B12FF051
S31502001D1005C84FF0030E002004F11C0100BF00BFEE
S31502001D2011F8102002F07F0201F8102000BF00BF58
S31502001D3011F91020002AFBD401300FF00FC8012040
S31502001D4000F0B1F84EF64C410120C4F20101002226
S31502001D500A70BDE8B04000F07FB8704748F29412AE
S31502001D6041F20023C2F20022C0F27A03484312680B
S31502001D709A420FD344F23F21C0F20F0111444DF6AD
S31502001D808362C4F21B32A1FB0212910CA0FB010179
S31502001D90C9B11BE04CF60021C3F69A31B1FBF2F150
S31502001DA048F63812C0F24102904205D24FF47A72D6
S31502001DB05043B0FBF1F006E0B0FBF1F0904205D2E1
S31502001DC04FF47A71484328B100F006B84FF0FF305D
S31502001DD000F002B87047D4D401380028FCD170470D
S31502001DE0F0B581B04CF2001548F20417C4F20005B2
S31502001DF00024C2F200272868296A01EA000600BF09
S31502001E0026FA04F0C00703D0396809B1204688478C
S31502001E1001340437152CF3D12E6100BF00BF00BF79
S31502001E20286A3042FCD101B0F0BDD4D4D4D4D4D483
S31502001E3080B54FF00B0E4CF2003042F62011C4F280
S31502001E400000C0F2002100BF31F8022B02B102608D
S31502001E5004300FF007C880BDEFF31081012282F330
S31502001E60108848F28812C2F2002232F8103023B1EA
S31502001E7032F81030013B22F8103032F810207AB9CD
S31502001E804EF2FA3242F6F43CC4F20102C0F2002CDF
S31502001E9013883CF8100043F4254323EA000010801F
S31502001EA081F31088704710B5EFF31081012282F397
S31502001EB0108848F28812C2F2002232F8103083B932
S31502001EC04EF2FA3E42F6F43CC4F2010EC0F2002C87
S31502001ED0BEF800403CF81030234343F42543AEF8E5
S31502001EE0003032F81030013322F8103081F31088B6
S31502001EF010BDD4D4D4D4D4D400F006F8FEF724F915
S31502001F00FEE700BE7047D4D470B54EF6005540F2D7
S31502001F100120CEF20005C0F20E004EF20006686104
S31502001F20CEF20106BFF34F8FBFF36F8F2968C1F35D
S31502001F30035001285FEA1F9211F00F0F5FEA0F911B
S31502001F401142316811D102280FD241F004003060EB
S31502001F504EF20800BFF34F8FCEF20000BFF36F8F31
S31502001F60016841F48031016002E021F00400306032
S31502001F70BFF34F8FBFF36F8F4FF4700040F2000133
S31502001F80C5F888000020C0F20021A9600024FEF7EF
S31502001F90CEF8FFF735FD4EF2FA304EF6B022C4F215
S31502001FA00100C4F201024AF20251018014704FF498
S31502001FB0254101800120FEF7BAF840F22000C2F264
S31502001FC0002080F30A883068800721D5A868B0F11E
S31502001FD0007F1DD130694FF40071C0F3C3007269EE
S31502001FE001FA00F3C2F3C30081400020DA08CB08ED
S31502001FF00146064642F005C0E6E802010FF005C0BA
S315020020004FF0005243F005C0E2E802010FF005C0AE
S31502002010002000F095F8FFF79BFCFFF759FE03201E
S31502002020FFF741FF4FF00E0E40F63050C4F240006B
S3150200203020F8044B0FF005C04EF210140320C4F230
S315020020400104FFF709FF0320FFF72DFF44F2040006
S315020020500021C4F22000016041608160C16003205A
S31502002060FFF7FAFED4F8C802800714D42078A0B18C
S315020020700120FFF718FF00BF94F9000010F1410F8D
S31502002080FADC0020207000BF20783F28FCD801200F
S31502002090FFF7E2FE01E0D4F8C802D4F8C80240070E
S315020020A015D42079A8B10120FFF7FDFE00BF00BFBD
S315020020B094F9040010F1410FFADC0020207100BFF0
S315020020C020793F28FCD80120FFF7C6FE01E0D4F8AC
S315020020D0C8020220FEF72BF8012000F031F848F280
S315020020E09C14C2F20024204600F06EF8204600F04E
S315020020F07FF8BFF34F8FBFF36F8F0020C5F85002F2
S3150200210042F64E4042F64E41C0F20020C0F2002195
S31502002110BFF34F8F081ABFF36F8F8410012C08DBB1
S3150200212042F64E45C0F2002555F8040B8047013CA5
S31502002130FAD1FFF77DFE0020BDE87040FFF70DBE25
S31502002140F0B581B042F6C8150446C0F200252E68E5
S3150200215076B16868071D00BF7879844204D157E9D1
S315020021600101091A00F01BF8013E07F10C07F3D131
S31502002170AE6896B1E86800F1080500BF00BF00BF6F
S315020021806879844205D155E902022968121A00F0DB
S315020021900AF8013E05F11005F2D101B0F0BD0A467A
S315020021A0002100F009B810B5002322B1CC5C013A37
S315020021B0C4540133F9E710BD03461AB103F8011BF3
S315020021C0013AFAE77047D4D410B505490446054AE0
S315020021D0FFF7E9FF044805492044FFF7E0FF10BD79
S315020021E06E00000200000000000000000000000077
S315020021F00249401A02490860704700BF0800000001
S31502002200988100224C8000221429000238290002FB
S3150200221001000100000000000000000000000000B4
S3150200222000000000000000000000000000000000A6
S315020022300000FFFFFFFFFFFFDFDFDFDFDFDF000062
S315020022400000000000000000000000000000000086
S315020022500000000000000000000000000000000076
S3150200226000000000000000000200000090D0030001
S315020022700000000048E801000CFFDF00000000003B
S315020022800000000010220002548000226822000290
S315020022907429000201000100000000000000000095
S315020022A00000000000000000000000000000000026
S315020022B0000000000000FFFFFFFFFFFFDFDFDFDFA0
S315020022C0DFDF000000000000000000000000000048
S315020022D000000000000000000000000000000000F6
S315020022E000000000000000000000000002000000E4
S315020022F090D003000000000048E801000AFFDF005A
S3150200230000000000000000009422000274800022F7
S31502002310EC22000274290002010001000000000004
S3150200232000000000000000000000000000000000A5
S3150200233000000000000000000000FFFFFFFFFFFF9B
S31502002340DFDFDFDFDFDF000000000000000000004B
S315020023500000000000000000000000000000000075
S315020023600000000000000000000000000000000065
S31502002370020000001027000000000000581B0000A9
S3150200238008FFDF0000000000000000001823000222
S3150200239094800022702300027429000201000100C9
S315020023A00000000000000000000000000000000025
S315020023B00000000000000000000000000000FFFF17
S315020023C0FFFFFFFFDFDFDFDFDFDF000000000000CF
S315020023D000000000000000000000000000000000F5
S315020023E000000000000000000000000000000000E5
S315020023F00000000002000000A861000000000000CA
S31502002400D430000007FFDF000000000000000000DB
S315020024109C230002B4800022F423000274290002E5
S3150200242001000100000000000000000000000000A2
S315020024300000000000000000000000000000000094
S315020024400000FFFFFFFFFFFFDFDFDFDFDFDF000050
S315020024500000000000000000000000000000000074
S315020024600000000000000000000000000000000064
S31502002470000000000000000002000000102700001B
S3150200248000000000B80B000006FFDF00000000009D
S315020024900000000020240002D480002278240002DA
S315020024A0742900020000011C000100000000011C4A
S315020024B00101000000000106020100000000011CEB
S315020024C003010000000001060401000000000106ED
S315020024D00501000000000106060100000000011CC3
S315020024E007010000040400000A01000000000115B3
S315020024F00B0100000000010B0C0100000000010BA3
S315020025000D0100000000010B0E0100000000010B8E
S315020025100F0100000000011907020000000001007F
S31502002520080200000000010009020000000001008C
S315020025300A020000000001000B0200000000010B6D
S31502002540000300000000010B010300000000010B64
S315020025500203000000000103030300000000010360
S315020025600403000000000103000400000000010350
S315020025700104000000000106060400000000011428
S31502002580070400000000011408040000000401070B
S3150200259009040000000401070A0400000004010601
S315020025A00E04000000000103010500000000010303
S315020025B0020500000000010B030500000000010BEC
S315020025C0040500000000010B050500000000010BD8
S315020025D0060500000000010B070500000000010BC4
S315020025E0080500000000010B090500000000010BB0
S315020025F00A050000000401070B050000000401079C
S315020026000C050000000001190D050000000001196B
S315020026100F0500000000010402060000000001048C
S315020026200306000000000103040600000000010387
S31502002630050600000000010B070600000000010B62
S31502002640080600000000010B090600000000010B4D
S315020026500A0600000000010B0B0600000000010B39
S315020026600C0600000000010B0D0600000000010B25
S315020026700E0600000000010B0F0600000004010612
S315020026800007000000040106010700000000010621
S31502002690020700000004010603070000000001060D
S315020026A004070000000001060507000000000119EA
S315020026B007070000000401060807000000040106DF
S315020026C009070000000001190B07000000000119AC
S315020026D00C070000000001190D0700000000011997
S315020026E00E070000000001190F0700000000010498
S315020026F00108000000000104020800000000011C9D
S315020027000308000000000119050800000000011975
S315020027100608000000000119070800000000011C5D
S3150200272008080000000001030A0800000000010377
S315020027300B0800000000010B0D0800000000011349
S315020027400E080000000001130F0800000000011926
S315020027500209000000000119030900000000011926
S315020027600409000000000104080900000000010439
S3150200277009090000000001190A09000000000119F8
S315020027800B090000000001190C09000000000119E4
S315020027900D090000000001190E09000000000119D0
S315020027A00F0900000000010B000A00000000010BE7
S315020027B0010A00000000010B020A00000000010BE2
S315020027C0030A00000000010B040A00000000010BCE
S315020027D0050A00000000010B060A00000000010BBA
S315020027E0080A00000000010B090A00000000010BA4
S315020027F00A0A00000000010B0B0A00000000010B90
S315020028000C0A00000000010B0D0A00000000010B7B
S315020028100E0A00000000010B0F0A00000000011959
S31502002820000B000000000119010B00000000011955
S31502002830020B000000000119030B00000000011941
S31502002840040B000000000119050B0000000001192D
S31502002850060B000000000119070B00000000010B27
S31502002860000C00000000010B010C00000000010B2F
S31502002870020C00000000010B030C00000000010B1B
S31502002880040C00000000010B050C00000000010B07
S31502002890060C00000000010B070C00000000010BF3
S315020028A0080C00000000010B090C00000000010BDF
S315020028B00A0C00000000010B0B0C00000000010BCB
S315020028C00C0C00000000010B0D0C00000000010BB7
S315020028D00E0C00000000010B0F0C00000000010BA3
S315020028E0000D000000000115010D00000000011599
S315020028F0020D000000000115030D00000000011585
S31502002900040D000000000115050D00000000011570
S31502002910070D00008E000000A42400020000000043
S31502002920A100A200A300A40095038F0390039103C4
S31502002930820383038403D4D4FF0300021504000236
S315020029401F0400022B040002DF0400020905000234
S315020029504F05000271050002A3050002D30500021D
S31502002960ED0500020F060002270600020204030418
S315020029700404D4D4A90F0002711400027B140002CD
S31502002980851400028F140002C5140002E31400022B
S315020029901F150002C7150002E51500026F16000298
S315020029A0831600028F16000200000068000000680D
S315020029B0000000800000008000000070000000702F
S315020029C020000022200000220B000000E029000265
S315020029D019000000642A000204000000A82900026F
S315020029E000000068000000680001000D0000006899
S315020029F0000000680001000D000000800000008059
S31502002A0000010008000000800000008000010008AC
S31502002A1000000070000000700001000A0000007053
S31502002A20000000700001000A000000000000000023
S31502002A300100000500000020000000200100000443
S31502002A402000002220000022000000034C80002209
S31502002A509C810022000000039C8100229C810022AE
S31502002A6000000003000000680000006800000090FB
S31502002A700001090D000000680000006800000078EF
S31502002A8000010B0D0000006800000068000000272E
S31502002A900001020D00000068000000686C000002E0
S31502002AA00001010D0000008000000080000000907F
S31502002AB00001090800000080000000800000007884
S31502002AC000010B08000000800000008000000027C3
S31502002AD00001020800000080000000806C00000275
S31502002AE00001010800000070000000700000009064
S31502002AF00001090A00000070000000700000007862
S31502002B0000010B0A000000700000007000000027A0
S31502002B100001020A00000070000000706C00000252
S31502002B200001010A00000000000000000000009001
S31502002B300101090500000000000000000000007805
S31502002B4001010B0500000000000000000000002744
S31502002B500100020500000000000000006C000002F7
S31502002B600100010500000020000000200000009086
S31502002B700101090400000020000000200000007886
S31502002B8001010B04000000200000002000000027C5
S31502002B900100020400000020000000206C00000278
S31502002BA00100010400000022000000220000009043
S31502002BB00001090300000022000000220000007844
S31502002BC000010B0300000022000000220000002783
S31502002BD00000020300000022020000226C00000234
S31502002BE0000001039C8100229C8100226E000002EB
S31502002BF00000010301000200080010002000D4D4E6
S31502002C0000000406362E342E30004275696C74209C
S31502002C10776974682052656E6573617320416476C4
S31502002C20616E63656420466C657869626C652053E3
S31502002C306F667477617265205061636B61676520A8
S31302002C4076657273696F6E20362E342E300062
S30902C9F040FFFFFFFFFF
S30902C9F044EFFFFFFF0B
S30902C9F0C0FFFFFFFD81
S30902C9F0C4FFFFFFFF7B
S30902C9F120000000001A
S30902C9F1240000000016
S70502001EF9E1
