S020000052656E657361735F4375705F56656869636C655F435055312E7372656315
S315020D8000400518224D080E0211070E0257080E02E0
S315020D801057080E0257080E0257080E0257080E028F
S315020D8020000000000000000000000000CDD60D0289
S315020D803057080E0200000000E5D60D024DD70D02BF
S315020D804029F20D02FDF30D025DF50D0241F60D024B
S315020D805033DF0D02CDDF0D02E3E00D02FBE10D0272
S315020D806029F90D0233DF0D02CDDF0D02E3E00D021C
S315020D8070FBE10D0227E90D0249E80D02AFE90D02FA
S30D020D808001EA0D026FEB0D0280
S315020D80900100000020630E02040705070000000020
S315020D80A000000000000000000000000000000000BB
S315020D80B000000000000000000000000000000000AB
S315020D80C0000000000000000000000000000000009B
S315020D80D0000000000000000000000000000000008B
S315020D80E000000000000000000000000078660E028D
S315020D80F0040105070000000000000000000000005A
S315020D8100000000000000000000000000000000005A
S315020D8110000000000000000000000000000000004A
S315020D8120000000000000000000000000000000003A
S315020D8130000000000000000000000000000000002A
S315020D814000000000320303000000000000000000E2
S315020D81500000080000000000000000000000000002
S315020D816000001008000000000000000000000000E2
S309020D817010400000A6
S315020D817810B582B040F26C54C2F21824206808B1C8
S315020D8188012013E040F2705240F288534FF0000C72
S315020D8198C2F21822C2F2182301201821CDF800C006
S315020D81A808F0FBFD2060002818BF012002B010BDA3
S315020D81B8D0B101460068B8B1486800284FF00000F2
S315020D81C811D040F26C52C2F2182212685AB180B519
S315020D81D810460022002308F04DFE0138B0FA80F051
S315020D81E84009BDE880407047002070470A4601469F
S315020D81F800284FF000000FD040F26C53C2F218233C
S315020D82081B684BB180B5184609F006F80138B0FA65
S315020D821880F04009BDE88040704770B1002148F2F0
S315020D8228452248F2792348F2C52CC0F20D22C0F236
S315020D82380D23C0F20D2C80E80E10704780B546F25C
S315020D8248D450C0F20E2000F083F870B146F2CC403D
S315020D8258C0F20E2000F07CF838B146F25050C0F24A
S315020D82680E20BDE8804000F073B8002080BDD4D43E
S315020D827880B52DED028B46F2D450C0F20E20B0EE2B
S315020D8288608A00F084F890B146F2CC40C0F20E2016
S315020D8298B0EE480A00F07BF808B1012008E046F274
S315020D82A8D4509FED050AC0F20E2000F070F800209A
S315020D82B8BDEC028B80BD00BF0000000070B52DED30
S315020D82C8028BB7EE001A46F25056B4EE410AC0F2C8
S315020D82D80E26F1EE10FA346831FE008AB5EE408AA2
S315020D82E820460021F1EE10FA9FED180A48BFB0EEAE
S315020D82F8408A002507F0B3FF2046012107F0AFFF9C
S315020D830830460021B0EE480A00F091F8C8B146F29F
S315020D831850509FED0E0AC0F20E20012100F087F88B
S315020D832830B1B5EE408AF1EE10FA03D1012508E017
S315020D8338002506E02046002107F083FFB0FA80F0FB
S315020D834845092846BDEC028B70BD00BF0000000032
S315020D8358C8B110B50446D4E90112006812689047EF
S315020D83680E2800D088B92068002107F078FF20680A
S315020D8378012107F074FFA168206849688847B0FA99
S315020D838880F0400910BD00207047002010BD70B561
S315020D83982DED028BB7EE001AB4EE410AF1EE10FA84
S315020D83A831FE000ABFEE001AB4EE401AF1EE10FACB
S315020D83B831FE008AB5EE408A0026F1EE10FA48BF64
S315020D83C802260446C8BF012600684FF000014FF089
S315020D83D80005B1EE480A48BFB0EE408A07F03FFFE6
S315020D83E82068012107F03BFF20460021B0EE480A1E
S315020D83F800F01DF8B8B120460121B0EE480A00F08A
S315020D840816F828B1012E05D0022E0BD1012102E054
S315020D8418002508E00021206807F013FFB0FA80F066
S315020D8428450900E001252846BDEC028B70BDB0B5A5
S315020D84382DED028B84B0B0EE408AB7EE000AB4EE8B
S315020D8448408A05460020F1EE10FACDE902000190A8
S315020D845824DC1DB3B5EE408AF1EE10FA1ED40C4695
S315020D8468A96828684A6A01A9904708B1002015E04B
S315020D84789DED030AB6EE001AB8EE400A20EE080A7A
S315020D8488A96830EE010ABCEEC00A2868CB6910EE5F
S315020D8498101A22469847B0FA80F0400904B0BDEC8E
S315020D84A8028BB0BD70B110B5202104460AF05FFCEF
S315020D84B8204600F030F838B104F11000FFF7ADFE92
S315020D84C8012010BD00207047002010BD10B30079A1
S315020D84D840F25001C2F21821087040F2D050C2F291
S315020D84E818200068B0B180B582B0002101AA0191A9
S315020D84F80AF02DF8019850B14EF60450CEF200004E
S315020D85084FF080510160BFF34F8FBFF36F8F02B0EB
S315020D8518BDE880407047F0B110B5044641F6986043
S315020D8528C2F21820C068C0B109F093FF40F2D051CB
S315020D8538C2F218210860002048F27F5148F23162D2
S315020D854848F23D73C0F20D21C0F20D22C0F20D2381
S315020D85580FC4012010BD0020704741F6986046F2FF
S315020D85681861C2F21820C0F20E2106F046FC002848
S315020D8578DAD0002010BD2DE9F04786B0002B4FF05A
S315020D858800074DD00E9D0F2D4AD805F10108144648
S315020D859889460846114642461E4600F0E7F8A0B33C
S315020D85A80DF1080A0AF1010031462A468DF80840EE
S315020D85B80AF0E1FB0020012100220126002709F01D
S315020D85C86EFF40F2500541F69860C2F21825C2F2C6
S315020D85D818205146424600232E7006F092FCB0B181
S315020D85E840F2D452C2F21822297850600320107232
S315020D85F8D0680223013013705172977582F8149060
S315020D86085475C2F81080D0600AE0002708E00320EE
S315020D861803214A462346CDF8008000F0D0F80746D6
S315020D8628384606B0BDE8F0872DE9F04383B0002B36
S315020D86384FF000068DF80B206ED00A9D002D6BD0DB
S315020D86480C46084611462A461F4600F08FF80028A2
S315020D865861D00020012100224FF00109002609F000
S315020D86681EFF40F2500841F69860C2F21828C2F26F
S315020D867818200DF10B010122012388F8009006F04E
S315020D868840FCB0B140F2D453C2F2182398F8001048
S315020D8698586003209DF80B201872D86804271F709E
S315020D86A859729E751C755A75C3F810900130D860AB
S315020D86B832E09DF80B30032005212246CDF80090B5
S315020D86C800F07DF838B30020012100224FF0010990
S315020D86D8002609F0E4FE41F69860C2F218203946E2
S315020D86E82A46002388F8009006F005FCC0B140F230
S315020D86F8D453C2F2182398F800109DF80B2058602F
S315020D8708022006271872D8681F7059729E751C7535
S315020D87185A751D61CAE70026304603B0BDE8F083D7
S315020D87289DF80B30022007212246009500F047F8E6
S315020D87380646F1E7084609F015BA70B540F2D45C5B
S315020D8748C2F2182C9CF8003000280146DBB218BF7D
S315020D87580121002B18BF012301EA030EBEF1010FF9
S315020D876804BF9CE87E007EC0704670BDF0B581B030
S315020D8778064641F6986014460D46C2F21820314651
S315020D87880122012706F0DCFBA0B140F25001C2F22C
S315020D87981821097840F2D452C2F2182251720021D8
S315020D87A89175D16817700131506017721675557526
S315020D87B81461D160B0FA80F0400901B0F0BD2DE91F
S315020D87C8F04716460D46DDF8209007460020012192
S315020D87D81422984600244FF0010A09F060FE40F271
S315020D87E85002C2F21822117818B1B9421AD10124CF
S315020D87F82BE040F2D450C2F218204172C1680570BE
S315020D880801314460077280F816A0067580F8158046
S315020D8818C0F81090C16041F69860C2F2182006F0B1
S315020D882876FB12E0107840F2D451C2F21821487242
S315020D8838C868002401300D704C600F728C750E7568
S315020D884881F81580C1F81090C8602046BDE8F087FA
S315020D8858B0B5054600284FF0000019D00C46B9B13F
S315020D886894ED050AB5EE400AF1EE10FA10D994ED1B
S315020D8878040AB5EE400AF1EE10FA09D4284630215B
S315020D88880AF075FA07CC07C594E80F000FC5012043
S315020D8898B0BD18B1002180F82C104162704788B11D
S315020D88A890ED051AB1EE412AB4EE410AF1EE10FA2F
S315020D88B8B4EE402A31FE001AF1EE10FA32FE010A22
S315020D88C880ED0A0A7047D4D40246002818BF012241
S315020D88D80B46002918BF012302EA030CF5EE400ADE
S315020D88E800229FED7C1AF1EE10FA88BF01220023B1
S315020D88F802EA0C02F4EE410AF1EE10FAD8BF012390
S315020D89081A40012A40F0D68090ED062AB0EEC01A1A
S315020D8918B4EE412A9FED701AF1EE10FA90ED083A6F
S315020D892831FE000A20EE204A9FED6C2A34EE034AE8
S315020D8938B4EE424AF1EE10FA09DD9FED693A00BF2F
S315020D894834EE034AB4EE424AF1EE10FAF8DC9FED24
S315020D8958653AB4EE434AF1EE10FA08D59FED625A1E
S315020D896834EE054AB4EE434AF1EE10FAF8D490F80D
S315020D89782C3080ED084A002B00F0988090ED071AEE
S315020D898831EE441AB4EE421AF1EE10FA09DD9FEDF4
S315020D8998544A00BF31EE041AB4EE421AF1EE10FA39
S315020D89A8F8DCB4EE431AF1EE10FA08D59FED4E2A0D
S315020D89B831EE021AB4EE431AF1EE10FAF8D490ED2E
S315020D89C8092A21EE203A90ED035A33EE022AB1EE28
S315020D89D8457AB4EE452AF1EE10FAB4EE427A90EDE6
S315020D89E8003A90ED014A35FE025AF1EE10FA90ED73
S315020D89F8026A37FE052A24EE024A23EE013A33EEBF
S315020D8A08043A26EE000A90ED044A33EE403AB1EEE8
S315020D8A18445AB4EE443AF1EE10FAB4EE435A34FE21
S315020D8A28030AF1EE10FAB4EE453A35FE000AF1EEF6
S315020D8A3810FA04DBB4EE443AF1EE10FA09D9B5EEA2
S315020D8A48401AF1EE10FA37D5B4EE403AF1EE10FAB5
S315020D8A5832DD80ED092A90ED0A1A90ED052A31EEDE
S315020D8A68401AB1EE423AB4EE421AF1EE10FAB4EEEB
S315020D8A78413A32FE012AF1EE10FA33FE021A81ED5F
S315020D8A88001A90ED0A1A90ED052A30EE010AB1EE9A
S315020D8A98421AB4EE420AF1EE10FAB4EE401A32FE5A
S315020D8AA8002AF1EE10FA31FE021A01E000200860E2
S315020D8AB881ED011A10467047B5EE401AF1EE10FA1D
S315020D8AC8C9DDB4EE403AF1EE10FA48BF80ED092A37
S315020D8AD8C1E700BFCDCCCC3D0000000000003443F9
S315020D8AE80000B4C3000034C30000B443002814BF09
S315020D8AF890F82C00002000F00100704700287ED067
S315020D8B08B0B586B004460D4600294FF0000079D05F
S315020D8B1894F82010C90775D02068D4F808C0217CAE
S315020D8B284FF00E0E0DF10A033B22CDF800E0E04799
S315020D8B38002866D0BDF80A009FED331AC0BA00EEBA
S315020D8B48100ABDF80C00B8EEC00A20EE010AC0BA2A
S315020D8B5885ED000A00EE100ABDF80E00B8EEC00A41
S315020D8B6820EE010AC0BA85ED010A00EE100ABDF81B
S315020D8B781000B8EEC00AC0BA20EE010A01EE100ABC
S315020D8B889FED222AB8EEC11ABDF8120081EE021A1D
S315020D8B98C0BA02EE100A9FED1F3AB8EEC22ABDF808
S315020D8BA8140082EE032AC0BA04EE100AB8EEC44ABD
S315020D8BB8BDF8160084EE034AC0BA05EE100AB8EEE1
S315020D8BC8C55A85EE033A9FED125A85ED020A31EE24
S315020D8BD8050A85ED060A94ED050A012032EE400ACC
S315020D8BE885ED030A94ED060A34EE400A85ED040A6C
S315020D8BF894ED070A33EE400A85ED050A02E00020D8
S315020D8C087047002006B0B0BD000080380000AA43A8
S315020D8C18B81E12420000034300283ED070B5054621
S315020D8C284069C0B3A869B0B3E869A0B340F2EC567F
S315020D8C38C2F218263046A4210AF099F81ECD3046FE
S315020D8C481EC095E81E001EC040F2EE20C6F89C0016
S315020D8C5845F65A20A6F8A000D6E904020021A6F880
S315020D8C6874109047D8B144F2044106F14400C0F29B
S315020D8C780E21FFF7EDFDA0B100F01AF83069F16982
S315020D8C889FED0A0A884750B100200121C6F88C00CB
S315020D8C98A6F8761006E0012070BD01207047032064
S315020D8CA800E0012086F8900070BD00BF00000000AC
S315020D8CB8B0B540F2EC54C2F2182404F14400FFF7A1
S315020D8CC8E8FD9FED080A2069A1690025F0EE400A24
S315020D8CD884F87850884710B9032084F89000C4E9BF
S315020D8CE82155B0BD0000000070B52DED048B8AB07C
S315020D8CF8B0EE408A9FED6F0A40F2EC55B4EE408A0B
S315020D8D08C2F21825F1EE10FA4FF0010400F3CA80EB
S315020D8D18B5EE408AF1EE10FA40F2C48095F8760067
S315020D8D28C00700F0BF809FED640AB6EE001A28EE62
S315020D8D38000A30EE010A95F87700BCEEC00A10EE6D
S315020D8D48106A88B995ED230AB5EE400AF1EE10FAC6
S315020D8D580ADDD5F894003044B0F5FA6FC5F89400DB
S315020D8D6824BF012085F8770005F144042046FFF754
S315020D8D78BDFE30B305F1200003A9FFF7BFFE00289B
S315020D8D885FD09DED080A01A92046F0EE480A85ED49
S315020D8D98200AFFF799FD002800F081809DED019AC2
S315020D8DA89DED028A2869A969B0EE490AF0EE480ACC
S315020D8DB8884700286DD0686E85ED219A85ED228A41
S315020D8DC8E86795F87400012839D1D5F8980095F811
S315020D8DD8751030440329C5F898004FD0022934D0AE
S315020D8DE8012954D141F2883188424FF0000459D3F2
S315020D8DF8FFF75EFF95F8A1009FED301A00EE100AF7
S315020D8E08B8EE400A80EE018A022085F875002869B7
S315020D8E18A969C5F89840B1EE489AB0EE480AF0EE3F
S315020D8E28490A884730B99FED268A0324B0EE489A37
S315020D8E3885F8904085ED218A85ED229A17E0002462
S315020D8E4832E0FFF735FF05242CE0D5F89C100024F7
S315020D8E58884227D3FFF72CFF032095F8A01085F833
S315020D8E6875000020C5F8984000F02CF8044674B138
S315020D8E78052085F87500FFF71BFF13E041F28831CF
S315020D8E88884204D3FFF714FF042085F875000024E1
S315020D8E9808E0032085F890000020C5E92100FFF7B8
S315020D8EA807FF032485F8904020460AB0BDEC048BD3
S315020D8EB870BD00BFCDCCCC3D00007A440000C8423F
S315020D8EC800000000B0B52DED028B652907D340F2DF
S315020D8ED8EC50C2F21820012480F8904028E000EEEA
S315020D8EE8101A9FED151AB8EE400A80EE010A40F2E5
S315020D8EF8EC55C2F21825002805F14400B1EE401AC8
S315020D8F0800FE018AFFF7C5FC2869A9690024B0EE9F
S315020D8F18480AF0EE480A85F87840884720B99FED49
S315020D8F28078A032485F8904085ED218A85ED228AE4
S315020D8F382046BDEC028BB0BD0000C8420000000001
S315020D8F4870B52DED048B40F2EC56C2F2182678B1A7
S315020D8F58054696F8760001284FF002000DD10C460B
S315020D8F6896F87710C90708D0642C0BD9012004E0AE
S315020D8F78FFF79EFE0020A6F8740086F89000BDEC59
S315020D8F88048B70BDFFF794FE681E00210328A6F810
S315020D8F987410EBD800EE104A9FED1D1AB8EE400A72
S315020D8FA880EE018ADFE800F0022E041500202AE081
S315020D8FB83069B169B1EE489AB0EE490AF0EE480A3F
S315020D8FC888479FED140A002800FE091A00FE080AB2
S315020D8FD80FE03069B169B1EE489AB0EE480AF0EE83
S315020D8FE8490A88479FED0B0A002800FE081A00FE5B
S315020D8FF8090A4FF0030018BF002086ED211A86EDE7
S315020D9008220ABAE701202146FFF75CFFB5E700BF42
S315020D90180000C8420000000070B52DED048B40F229
S315020D9028EC56C2F2182696F87420012A10D1054676
S315020D903880B196F8760001284FF002000FD10C4642
S315020D904896F87710C9070AD0642C0DD9012006E0C7
S315020D9058022004E0FFF72CFE002086F8750086F83C
S315020D90689000BDEC048B70BDFFF722FE681E002131
S315020D9078032886F87510E9D800EE104A9FED1D1AD9
S315020D9088B8EE400A80EE018ADFE800F0022E0415DA
S315020D909800202AE03069B169B1EE489AB0EE490A64
S315020D90A8F0EE480A88479FED140A002800FE091AB1
S315020D90B800FE080A0FE03069B169B1EE489AB0EEC2
S315020D90C8480AF0EE490A88479FED0B0A002800FE6A
S315020D90D8081A00FE090A4FF0030018BF002086ED94
S315020D90E8211A86ED220ABAE701202146FFF7EAFE82
S315020D90F8B5E700BF0000C8420000000010B540F2F7
S315020D9108EC54C2F2182494F8760001284FF00200A6
S315020D911810D194F87710C9070CD0FFF7C9FD40F2A4
S315020D9128011094F8A010A4F874000020C4F8980051
S315020D9138FFF7C8FE84F8900010BDD4D410B540F2DE
S315020D9148EC546428C2F2182401D9012010E000EE6D
S315020D9158100A9FED091AB8EE400A80EE010A84F844
S315020D9168A00084F8A10004F14400FFF798FB002043
S315020D917884F8900010BD00BF0000C84210B52DED51
S315020D9188028B40F2EC540246C2F2182464294FF0BF
S315020D919801001FD894F87630DB071BD000EE101AA3
S315020D91A89FED0F1AB8EE400A80EE010A9FED0D1AD1
S315020D91B8002A2069E16901FE008AB0EE480A88474D
S315020D91C838B1002084ED238A84F87700C4F8940018
S315020D91D800E0032084F89000BDEC028B10BD00BFA1
S315020D91E80000C84200000000B0B540F2EC55012857
S315020D91F8C2F2182501D9012009E00446FFF758FDE8
S315020D9208002085F8744085F87500C5F8980085F82C
S315020D92189000B0BD10B5FFF74BFD40F2EC54C2F20B
S315020D92281824E16919B120699FED050A88470020BE
S315020D9238C4F88C0084F87700052084F8750010BDF3
S315020D92480000000070B180B540F2EC51C2F218214F
S315020D92587431B1E80C50A0E80C5091E80C5080E836
S315020D92680C5080BD7047B0B582B040F29064C2F220
S315020D92781824206870B940F2946240F2A86300255A
S315020D9288C2F21822C2F2182301201421009507F002
S315020D929884FD206040F2F065C2F21825296809B1ED
S315020D92A8012115E040F2F46240F208734FF0000C0A
S315020D92B8C2F21822C2F2182301201421CDF800C0D9
S315020D92C807F06BFD014628602068002918BF0121A9
S315020D92D8002818BF0120084002B0B0BDC0B1014632
S315020D92E8007840F2906340F2F062C2F21823C2F29D
S315020D92F81822022808BF1346186848B180B50022FD
S315020D9308022307F0B7FD0138B0FA80F0400980BD97
S315020D931800207047014600284FF0000010D040F299
S315020D93289062C2F21822126852B180B51046002216
S315020D933807F072FF0138B0FA80F04009BDE88040A7
S315020D93487047014600284FF0000010D040F2F06237
S315020D9358C2F21822126852B180B51046002207F0E1
S315020D93685BFF0138B0FA80F04009BDE880407047CE
S315020D937810B540F25074C2F218242046A82109F0FD
S315020D9388F6FC03202061606145F2E07040F2F87147
S315020D9398C0F20E20C2F21821A061E1614FF40061FC
S315020D93A821620021A1626162E162206640F6F870CF
S315020D93B8C2F2182060661020A0662167E166616711
S315020D93C844F220410F20C0F20E21BFF35F8F00BF7A
S315020D93D80A5C0138431C04F8012BF9D1BFF35F8FE0
S315020D93E810BDD4D42DE9F04381B0C76814460D4695
S315020D93F880464FF0000900BFD8F81010D8F80800BB
S315020D9408FA43B9421144A0EB070698BF0144B1428B
S315020D941838BF0E46D8F80400A64228BF2646384459
S315020D94282946324609F0A7FCD8F80800F119A41BFB
S315020D94380F1AB144354418BF0F46002CBFF35F8F80
S315020D9448C8F80C70D8D1484601B0BDE8F0832DE9AD
S315020D9458F04381B0144640F2507200EB4000C2F25E
S315020D9468182202EBC002D06A8946022802F11805B3
S315020D947811D0012807D000283ED1EE682869B042DE
S315020D948834D9F14335E0EE682969B1420BD9F24375
S315020D9498A86811440BE028464946224601B0BDE8A4
S315020D94A8F043FFF79FBFA868F24311440144A14256
S315020D94B838BF0C46871B6868BC42304407D24946FA
S315020D94C8224609F058FCBFF35F8F26440CE0494645
S315020D94D83A4609F050FCE61B686809EB0701324665
S315020D94E809F049FCBFF35F8FEE6026E0A968F243E7
S315020D94F810440844A04201D200241EE0D5E9010118
S315020D95088F1BBC42304408D24946224609F033FC29
S315020D9518BFF35F8F06EB04080DE049463A4609F09C
S315020D95282AFCA4EB0708686809EB0701424609F00D
S315020D953822FCBFF35F8FC5F80C80204601B0BDE84B
S315020D9548F083F0B581B0144640F25072C2F2182279
S315020D955812780D46532A064618BFFFF709FFEFF391
S315020D956811874FF0200181F311883046294622468C
S315020D9578FFF76DFF87F3118801B0F0BD2DE9F04FA6
S315020D95889BB0934606AA16924022179200220027EE
S315020D95988A4605901A90CDE9182200BF1AF8012BB2
S315020D95A8252A07D0002A00F05D8116A8114600F07B
S315020D95B868F93CE1881C4FF0000800BF9AF80010C4
S315020D95C82C2905DC232909D02B2911D1042108E0E0
S315020D95D82D2905D030290BD1022102E0082100E000
S315020D95E8012148EA01080AF1010A0130E6E700BF3E
S315020D95F8A1F13A02002612F10A0F0ED306EB8602E4
S315020D960801EB420210F8011BA2F13006A1F13A0351
S315020D961813F10B0FF2D8A0F1010A2E290ED15146DC
S315020D962811F8010F2A280CD1DBF800000AF1020AFB
S315020D9638011DCBF8001004681FE000BF00200024AE
S315020D96481CE0A0F13A0212F10A0F03D200200024FF
S315020D96588A4613E00AF10201002400BF04EB8402D4
S315020D966800EB420211F8010BA2F13004A0F13A0304
S315020D967813F10B0FF2D8A1F1010A01201AF8011BF9
S315020D968801F0FB02682AF9D063290FDC25292FD0B0
S315020D9698582924D0632940F0CA80DBF80000011D41
S315020D96A8CBF80010017816A881E700BFA1F1700268
S315020D96B8082A20D8DFE802F005BBBB53BB4CBBBB5F
S315020D96C81300DBF800001022011DCBF8001001680B
S315020D96D816A8082300270826CDE90067A5E0DBF8BA
S315020D96E800001022011DCBF80010016816A899E09A
S315020D96F816A825215BE7642940F09980DBF800005E
S315020D9708011DCBF800100568C5F1000C002D284681
S315020D971800D560464CF6CD430A28CCF6CC434FF01D
S315020D9728010907DBA0FB031263284FEAD20009F1F0
S315020D97380109F7D84C4588BFA146AEB30020002DC6
S315020D974848BF012008F0040140EA9100361A2CE0C0
S315020D9758DBF80000011DCBF80010016860E0DBF8AC
S315020D976800100A1DCBF800200E6844F69D523146AC
S315020D9778002E18BF012100EA0105C0F20E2208BF0C
S315020D9788164600BF3178002951D0B4FA84F0400943
S315020D979828404CD116A8013600F073F8199F013CE2
S315020D97A8B7F1FF3FEEDC68E000265FEA88710BD55C
S315020D97B854B9002F3BD4002D24D45FEA4870049582
S315020D97C82BD503912B2121E05FEAC870F1D1002E2A
S315020D97D8EFD0B145EDD2CDE902C10495751E00BF94
S315020D97E816A8202100F04DF8199F002F45D4681EA2
S315020D97F8A84202D2A9450546F2D3049DDDE902C166
S315020D9808461CD6E703912D21CDF810C016A800F0F7
S315020D981838F8199F0399002F2FD400290ED40499CD
S315020D982816A80A222346CDE9006800F04BF8199FBF
S315020D98385146B7F1FF3F3FF7B1AE1EE008F0010002
S315020D98482043ECD1002EEAD0751EB54238BFB1457C
S315020D9858E5D216A8302100F014F8199F2E46002FCE
S315020D9868F2D50AE047B1189C24B1059806A92246F5
S315020D9878FFF767FE274400E0002738461BB0BDE810
S315020D9888F08F10B50446D0E90120431C934207D840
S315020D989822681154E06862680130E0601846A360D8
S315020D98A8904218BF10BD21682069FFF74AFEA168CC
S315020D98B8884202D10020A06010BD4FF0FF30E06053
S315020D98C810BDD4D42DE9F04F81B0DDF828A01F467E
S315020D98D815468B46914281464FF0010405D35846EB
S315020D98E8B0FBF5F00134A842FAD20B99A74288BF0C
S315020D98F83C46BAF1000F1DD011F001001AD14FF0F6
S315020D99082008880748BF4FF030082020002F18BFBF
S315020D9918804600BFBAF1000F0CD054450AD248460C
S315020D99284146AAF1010AFFF7ACFFD9F80C00B0F1CE
S315020D9938FF3FEFDCD9F80C0000283AD4012600BF08
S315020D9948022F01D3013F03E0BBFBF6F0A84202D377
S315020D995806FB05F6F4E746F2CA28C0F20E2800BF42
S315020D9968BBFBF6F7484618F80710FFF78AFFD9F832
S315020D99780C00002806D4B6FBF5F007FB16BBB5425C
S315020D99880646EDD90B98C00718BFBAF1000F0AD1D2
S315020D99980FE048462021FFF774FFD9F80C00AA46B6
S315020D99A8B0F1FF3F05DDAAF10105554538BF54450E
S315020D99B8EFD301B0BDE8F08F0021A0F80012A0F890
S315020D99C8021270470021A0F80012A0F80212704781
S315020D99D880B5B0F80022531C9AB2B2F5007218BFC0
S315020D99E81A46B0F802C21FFA82FEE64504D0B0F84E
S315020D99F80032C154A0F80022BEEB0C0018BF01209C
S315020D9A0880BD29B1B0F80022B0F802329A4201D1CE
S315020D9A1800207047B0F80222825C0A70B0F8021272
S315020D9A2801318AB2B2F5007218BF0A46A0F80222AF
S315020D9A380120704708294FF0000124D118B312B33B
S315020D9A480BB310B50168D0F804E01FFA81FC40F299
S315020D9A58A514A445C2F804E0116011D14FEA1E6C93
S315020D9A6800220021845C0132072A81EA0401F9D118
S315020D9A78614505D16EF3070E0121A3F800E000E05A
S315020D9A880021BDE8104008467047D4D4D1B1B0B50F
S315020D9A9848F2203E4FF0000C4FF0FF33CEF6B85E7B
S315020D9AA810F80C20534008221C468EEA5303E5078C
S315020D9AB808BF6308013AF7D10CF1010C8C45EFD1B9
S315020D9AC8D843B0BD002070471B3044F625128108D5
S315020D9AD8C2F29242A1FB0212B0F5E01F28BF002284
S315020D9AE890B2704770B50C4605468689881D1A21AF
S315020D9AF809F03DF940F249102080300AE07040F62F
S315020D9B080170A670A080E88944F62512E080288A9D
S315020D9B18C2F2924220816868C4F80A00A868C4F89D
S315020D9B280E0068681B308108A1FB0212B0F5E01F12
S315020D9B384FF0000028BF0246110AE1740221A274F1
S315020D9B482175E989A4F81510298A6076E175090A3D
S315020D9B5821760021225C01301F2881EA0201F9D102
S315020D9B68E17770BD2DE9F04381B080464068C1EBBF
S315020D9B78C109A0EB89071C20161D0D461C2F28BFEF
S315020D9B88074630461C21144609F0F1F840F24920E1
S315020D9B982080280AA570E070D8F800003A4600EB36
S315020D9BA88901304601B0BDE8F04309F0E4B8D4D4D2
S315020D9BB870B50C4605468689081D1C2109F0D7F88D
S315020D9BC840F249302080300AA670E070686844F683
S315020D9BD825121B308108C2F29242A1FB0212B0F580
S315020D9BE8E01F4FF0000028BF0246A2806968C4F83C
S315020D9BF80610A968C4F80A10002100BF225C0130BC
S315020D9C081F2881EA0201F9D1E17770BDF0B581B05D
S315020D9C18054601284FF0010044D80C46002941D0CB
S315020D9C2840F25400C2F21820582115FB010696F887
S315020D9C385500D0B149F68550C0F20D2049F6696135
S315020D9C48C0F20D2149F68F6249F6CD6349F6615781
S315020D9C58C4E9006004F10800C0F20D22C0F20D231A
S315020D9C68C0F20D278EC000201CE006F10C03032757
S315020D9C78012000210022009707F08FF8B06080B10D
S315020D9C88B18841F68000C2F21820002204F0D8FFEE
S315020D9C9850B1024646F2AA10C0F20E20294600F02D
S315020D9CA849F8022001B0F0BD316807C9126890471C
S315020D9CB810B102460E2807D15DB10120642186F83E
S315020D9CC8550000F049F8B5E745F2B040C0F20E204E
S315020D9CD8E4E741F208030327C2F218230120002103
S315020D9CE80022009707F059F841F25001C2F21821E5
S315020D9CF800280860D5D046F24830C0F20E20876893
S315020D9D08D0E900513A682846904710B102460E2806
S315020D9D180AD17968284688470028CED0024644F6E5
S315020D9D282040C0F20E2003E045F28E60C0F20E20EE
S315020D9D380021B4E783B080B581B0844603A80EC06E
S315020D9D4803A800906A4600206146FFF717FC01B08A
S315020D9D58BDE8804003B0704710B50C4608F07FFB8E
S315020D9D68022804D12046BDE8104007F0FBBE204666
S315020D9D784FF47A71BDE8104006F07FBC2DE9F0412B
S315020D9D8882B0044600284FF0010053D00F46002931
S315020D9D9850D01646002A4DD01D46002B4AD0A06833
S315020D9DA800214FF0000807F011FB84F85480206853
S315020D9DB84FF0070E81680068D1F80CC03946324655
S315020D9DC82B46CDF800E0E047A0B1024640F254001A
S315020D9DD8C2F21820201A48F6A331C010CBF62E214E
S315020D9DE800FB01F145F2C550C0F20E20FFF7A2FFA6
S315020D9DF802201FE0A0680A2107F0E8FA012805D11A
S315020D9E0894F85400012818D1002013E040F25400AA
S315020D9E18C2F21820201A48F6A331C010CBF62E210D
S315020D9E2800FB01F145F62860C0F20E200A22FFF763
S315020D9E3881FF032002B0BDE8F08140F25400C2F260
S315020D9E481820201A48F6A331C010CBF62E2194F805
S315020D9E58542000FB01F145F2A030C0F20E20C5E7F1
S315020D9E6870B180B50A46818841F68000C2F2182083
S315020D9E7804F0E6FE002818BF0220BDE8804000E087
S315020D9E880120C0B2704710B582B00C4601460120BA
S315020D9E988DF8070099B194B1C98841F68000C2F2CE
S315020D9EA818200DF1070204F0BAFE9DF807100028D6
S315020D9EB8B1FA81F14FEA5111217018BF0220C0B2D1
S315020D9EC802B010BD0846012106F0D7BBB0B582B067
S315020D9ED8044640F25400C2F21820C18841F68000A9
S315020D9EE80125C2F218200DF107028DF8075004F06C
S315020D9EF896FE10B99DF8070070B141F25000C2F2F4
S315020D9F081820006838B1214607F060FA0138B0FA10
S315020D9F1880F0450900E00025284602B0B0BD01468D
S315020D9F2840F25400C2F2182000F000B8E8B1E1B1CF
S315020D9F388268D2B180B582B0097980F854100020B2
S315020D9F48019001A9104607F0E4F8019850B14EF6B2
S315020D9F580450CEF200004FF080510160BFF34F8FCF
S315020D9F68BFF36F8F02B0BDE880407047014640F2DD
S315020D9F785400C2F218205830FFF7D8BF41F25000EC
S315020D9F88C2F218200068B0B180B582B000210191E5
S315020D9F9801A907F0BEF8019850B14EF60450CEF25B
S315020D9FA800004FF080510160BFF34F8FBFF36F8FE3
S315020D9FB802B0BDE880407047E0B14EF2E771CFF6C8
S315020D9FC8FF7101814FF0E7314160016040F20521D1
S315020D9FD8C0F22051C0F80A1040F20F11C0F2032147
S315020D9FE8C0F80E1040F20111C0F20101C0F81210AC
S315020D9FF8002181757047B0B582B01446024600201D
S315020DA008ADF804001F294FF001001DD8E4B11D4615
S315020DA018D3B1FF208DF806108DF807009AB1D2F844
S315020DA02804C0BCF1000F0ED010680DF1060101AA8D
S315020DA0380223E04740B99DF804009DF805102870E3
S315020DA0480020217000E0012002B0B0BD10B582B02B
S315020DA0581C4603460020ADF804001F294FF00100E7
S315020DA06819D8C4B141F020008DF806008DF80720E5
S315020DA07883B1D3F804C0BCF1000F0BD018680DF1EB
S315020DA088060101AA0223E04728B99DF804002070AB
S315020DA098002000E0012002B010BDF0B583B00546E0
S315020DA0A80020ADF8040000901F294FF0010022D8B8
S315020DA0B81C46063B13F1050F1DD3E2B1089FD7B116
S315020DA0C841F020008DF806000DF10600013011460B
S315020DA0D8224608F050FE6DB16E685EB12868631CA3
S315020DA0E80DF106016A46B04728B99DF80000387089
S315020DA0F8002000E0012003B0F0BDB0B582B01546D0
S315020DA108024600208DF806004FF001008DF8071063
S315020DA11872B16DB154685CB110680DF107010DF19C
S315020DA12806020123A04718B99DF8060028700020DB
S315020DA13802B0B0BD94460A4600294FF001010AD075
S315020DA14812F08F0307D180B507216346FFF77EFF0D
S315020DA1580146BDE88040084670470A46E221FFF7E8
S315020DA168CCBFF0B581B005464FF66070ADF802006A
S315020DA1780020ADF800004FF00100E5B10E46D1B151
S315020DA1881746C2B16C68B4B128680DF102016A4668
S315020DA1980223A04778B99DF801109DF800002129E0
S315020DA1A83870317006D32846E2213A46FFF7A5FFE5
S315020DA1B8062000E0002001B0F0BD2DE9F04192B075
S315020DA1C80D46074601A821219846144608F0CFFDEB
S315020DA1D8A4F1210010F1200F4FF0010024D31DB375
S315020DA1E8B8F1000F20D061208DF827000DF1270058
S315020DA1F801302146FF2208F0B5FDA7B17E6896B15A
S315020DA208386801AF631C0DF127013A46B04758B9B4
S315020DA2189DF80400791C88F800002846224608F0A5
S315020DA228AAFD002000E0012012B0BDE8F0812DE95B
S315020DA238F04192B00E46054601A821211F46144645
S315020DA24808F095FDA4F1210010F1200F4FF0010041
S315020DA25825D326B3DDF86080B8F1000F1FD06FF055
S315020DA2685F00002F18BF6FF04F008DF827000DF114
S315020DA278270001303146224608F07DFD75B16F681B
S315020DA28867B12868631C0DF1270101AAB84730B9D1
S315020DA2989DF8040088F80000002000E0012012B0A5
S315020DA2A8BDE8F081022984BF0120704770B582B0DE
S315020DA2B814460E460DF10702062123460546FFF7FB
S315020DA2C89AFE88B99DF80700022E20F0280003D0C1
S315020DA2D826B940F0200001E040F00800C2B2284637
S315020DA2E806212346FFF7B2FE02B070BD032984BFCD
S315020DA2F80120704770B582B014460E460DF107025D
S315020DA308062123460546FFF776FE60B99DF8070036
S315020DA31806F07F0100F0F90040EA410228460621BF
S315020DA3282346FFF793FE02B070BD20B3B0B582B0D7
S315020DA33805464068E0B1AA68D2B12869C0B1686914
S315020DA348B0B128680C460021904790B90DF1070265
S315020DA358284600212346FFF74EFE50B99DF8070001
S315020DA368002100F0FD0228462346FFF76FFE00E0A6
S315020DA378012002B0B0BD01207047F0B581B0044688
S315020DA38800284FF001003CD00D46012939D86068E6
S315020DA398B0B31646A2689AB3206988B3606978B3D2
S315020DA3A820680021904760BB0DF10302204600216B
S315020DA3B83346FFF720FE20BB9DF80370022007F0F7
S315020DA3C8FC01012D08BF03200A18BA4205D0204602
S315020DA3D800213346FFF73AFE98B9B80703D4206829
S315020DA3E8626902219047012D08D12068A2680121D0
S315020DA3F8904730B92068226996219047002000E0DF
S315020DA408012001B0F0BD2DE9F04182B005460029C3
S315020DA4184FF001004FD01446002A4CD0887A0E46CA
S315020DA428063810F1030F45D3F07A7D2842D8307BD2
S315020DA438213810F1200F3DD3707B0F283AD8B07B07
S315020DA4480F2837D8F07B022834D8307C032831D828
S315020DA458707C02282ED84FF0010065B3B17C012914
S315020DA46829D8686830B3AA6822B3286910B368690F
S315020DA47800B3286800219047E8B928462146FFF718
S315020DA48854FFC0B92846E1212246FFF736FE90B998
S315020DA4982846E2212246FFF730FE60B928460721F3
S315020DA4A870222346FFF7D2FD28B9B07A811FC9B2A9
S315020DA4B8FD2903D2012002B0BDE8F0810238C2B2ED
S315020DA4C8284603212346FFF7C1FD0028F3D1F27A68
S315020DA4D87D2AEFD8284605212346FFF7B7FD002822
S315020DA4E8E9D1F17B28462246FFF7DCFE0028E2D1A8
S315020DA4F8317C28462246FFF7F9FE0028DBD1B37ACE
S315020DA508981FC0B2FD28D5D328461021324600948D
S315020DA518FFF7C3FD0028CED1B37A981FC0B2FD2826
S315020DA528C8D3721D28460A210094FFF7B6FD0028E6
S315020DA538C1D1F27C284601212346FFF787FD002863
S315020DA548B9D12846022101222346FFF77FFD0028AD
S315020DA558B1D1707BB17B00F00F0041EA001228469B
S315020DA56804212346FFF772FD0028A4D1377D96F8FC
S315020DA5781580B07DB900B8F1000F18BF0621014349
S315020DA5882846224600F0AEF8002894D1B8F1000FFD
S315020DA59818BF0127D5F804C00020ADF804003C20E9
S315020DA5A8BCF1000F8DF806008DF807703FF482AFE7
S315020DA5B828680DF1060101AA0223E04700287FF457
S315020DA5C87AAF9DF804002070317D002000294FF0E6
S315020DA5D8000104D1717D00290CBF317B00216F6802
S315020DA5E8ADF804003120002F8DF806008DF80710FE
S315020DA5F83FF460AF28680DF1060101AA0223B84798
S315020DA60800287FF458AF9DF804002070707CF17C09
S315020DA6180246002818BF0822022808BF0C226F68B6
S315020DA62842EAC1000021ADF804102021002F8DF851
S315020DA63806108DF807003FF43DAF28680DF10601A7
S315020DA64801AA0223B84700287FF435AF9DF8040006
S315020DA65820706F68E1208DF806000020002F8DF816
S315020DA66804003FF427AF28680DF1060101AA01235C
S315020DA678B84700287FF41FAF9DF8040020706F6855
S315020DA688E2208DF806000020002F8DF804003FF415
S315020DA69811AF28680DF1060101AA0123B847002852
S315020DA6A87FF409AF9DF8040020706F680020ADF89D
S315020DA6B8040047F22700002FADF806003FF4FAAE64
S315020DA6C828680DF1060101AA0223B84700287FF46E
S315020DA6D8F2AE9DF8040022462070B17C2846FFF79B
S315020DA6E84CFEE8E670B582B0064647F2503015467E
S315020DA6F80C46ADF804000020ADF8020030461D21C7
S315020DA70822462B46FFF7A2FCA0BB0DF107023046E7
S315020DA7181D212B46FFF76FFC60BB9DF8070000F065
S315020DA7280700844201D1002024E016B3D6F804C0EE
S315020DA738BCF1000F1DD0306801A90DF102020223EA
S315020DA748E047B8B930461D2122462B46FFF77EFC57
S315020DA75880B90DF1070230461D212B46FFF74BFC3A
S315020DA76840B99DF8070000F00700201A18BF072008
S315020DA77800E00120C0B202B070BD2DE9F04383B0EE
S315020DA788002955D000270C460F700DF103020DF165
S315020DA798010305210546FFF72EFC08B1064648E0DA
S315020DA7A89DF8039040F2092109F1250000FB01F1FC
S315020DA7B80A0C9201A2EB1141A0EB41082520ADF836
S315020DA7C804708DF806008DF807808DB36F687FB318
S315020DA7D828680DF1060101AA0223B847064640BBB1
S315020DA7E80DF102020DF1010328460521FFF703FCBF
S315020DA7F8B9F17D0F06460FD86F680020ADF808002F
S315020DA80825208DF80A008DF80B902FB128680DF1C9
S315020DA8180A0102AA0223B8475EB99DF802001FFA79
S315020DA82888F1081AB0FA80F040090026207000E077
S315020DA8380126304603B0BDE8F0832DE9F04F83B00B
S315020DA848044600284FF0010000F0D580DDF830A04F
S315020DA858BAF1000F00F0CF800F46A2F1210116467C
S315020DA86811F1200FC0F0C780002F00F0C480DDF86B
S315020DA8783490B9F1000F00F0BE806068002800F030
S315020DA888B980A068002800F0B5802069002800F07C
S315020DA898B1806069002800F0AD800DF107084FF010
S315020DA8A8000B2046002142461D4689F804B0C9F818
S315020DA8B800B0FFF762FD002840F09D80D4F804C071
S315020DA8C8E120BCF1000F8DF80A008DF808B000F0F2
S315020DA8D8918020680DF10A0102AA0123E04700289A
S315020DA8E840F08980D4F804C00020ADF8080047F27C
S315020DA8F82700BCF1000FADF80A007BD020680DF1D8
S315020DA9080A0102AA0223E047002874D19DF808001D
S315020DA91839468DF80700204632462B46CDF800807B
S315020DA928FFF785FC002866D12068A26801219047A9
S315020DA938002860D1206822691E2190472068A268E6
S315020DA948002100259047002855D14FF0FF080DF13B
S315020DA9580A0B02AEE2688DF806502AB120680DF18F
S315020DA96806019047002846D167688DF80A80002FA0
S315020DA9788DF808503ED02068594632460123B8470D
S315020DA988C8BB9DF80870F80638D4B80648D42068AE
S315020DA998626901219047BAF1010ADBD16768FF2086
S315020DA9A88DF80A0000208DF8080057B120680DF1C0
S315020DA9B80A0102AA0123B84718B99DF8080089F8B1
S315020DA9C800000DF1070509F10102204608212B4663
S315020DA9D8FFF711FB09F10202204600212B46FFF76C
S315020DA9E80AFB09F10302204617212B46FFF703FB43
S315020DA9F8032000E0012003B0BDE8F08F656800264C
S315020DAA084FF60870ADF80860ADF80A0035B1206842
S315020DAA180DF10A0102AA0223A84798B1002513E0EF
S315020DAA28666800254FF60870ADF80850ADF80A00AD
S315020DAA3836B120680DF10A0102AA0223B04728B3DE
S315020DAA48002027E09DF80950ADF80860666841F2C6
S315020DAA582700ADF80A009EB120680DF10A0102AA77
S315020DAA680223B0476668E1208DF80A0000208DF8AA
S315020DAA7808002EB120680DF10A0102AA0123B0477A
S315020DAA8889F8007089F801500420B4E79DF808701A
S315020DAA989DF8090089F80100C7F3801089F800703E
S315020DAAA889F80400676842F22700ADF80850ADF838
S315020DAAB80A002FB120680DF10A0102AA0223B8472E
S315020DAAC8002098E7F0B581B007464FF0010001B3B3
S315020DAAD81446F2B11D46E3B10E463846FF212A4603
S315020DAAE8FFF70BFBA8B90DF10302384617212B46C2
S315020DAAF8FFF781FA68B99DF80300012121EA0000E2
S315020DAB0830702878C0F34200052888BFFF202070D0
S315020DAB18002001B0F0BD10B588B041F254010020F5
S315020DAB28C2F218218DF807008DF80600FFF76EF8A8
S315020DAB3800284ED141F25400C2F218200DF1060139
S315020DAB48FFF71BFE002844D19DF80600D0B302ACD0
S315020DAB582046FFF731FA40F64C00ADF813000120F6
S315020DAB688DF81A0002218DF81E0044F643508DF811
S315020DAB78171040F20111C5F24420ADF81B100290D0
S315020DAB885821CDF80D0041F26C008DF80C108DF898
S315020DAB981110C2F218200021017041F26D00C2F2A5
S315020DABA81820017040F20410C2F2182032210170E9
S315020DABB841F25400C2F218200DF107022146FFF7A1
S315020DABC822FC06E045F6DA20C0F20E2000F003F864
S315020DABD8022008B010BD83B080B581B0844603A8A3
S315020DABE80EC003A800906A4600206146FEF7C6FC11
S315020DABF801B0BDE8804003B07047D4D401460028A1
S315020DAC084FF0010008BF70472DE9F04F93B00EA81B
S315020DAC1841F2540741F26C054FF000090F30C2F2AA
S315020DAC2818270DF137040DF13506C2F218254FF026
S315020DAC38030A0091C1F80090019000BF38462146DB
S315020DAC480DF1360233468DF837908DF836908DF81C
S315020DAC583590FFF737FF002840F0FE809DF8370044
S315020DAC68002800F0E48038460DA932468DF8349056
S315020DAC78FFF777FA002840F0EF809DF834B0ABF174
S315020DAC88210010F1210F40F2DE80A84605AD2846B7
S315020DAC98202108F06CF8384629465A463346FFF7FE
S315020DACA88CFA002840F0D8809DF83410284603AA5D
S315020DACB80DF10A03ADF80A90FEF7BCFE00284546CB
S315020DACC800F0B18029789DF8120069B141F26E0142
S315020DACD8C2F218210978884200F0A580411A49B2B4
S315020DACE8002903D59FE000BF0121297041F26E01AB
S315020DACF8C2F21821A3460870BDF80A4001218DF843
S315020DAD083810ADF83A900F9007F078F9109040F296
S315020DAD180410C2F21820007801998DF846009DF8A4
S315020DAD280E00ADF8449001380528C1F8009081F857
S315020DAD38049000F27280DFE800F0031D152A7038C0
S315020DAD489DF80F008DF83990002863D04FF0FF302B
S315020DAD5850FA84F003285DD8DFE800F002585456FD
S315020DAD68012054E0042C3ED846F2DA20C0F20E2019
S315020DAD78005D39E0002C42D041F26D00C2F2182076
S315020DAD880078C0073BD003208DF8390042E041F226
S315020DAD986D00C2F21820002C18BF0124047004207D
S315020DADA88DF839008DF8454034E044F2314144F6C8
S315020DADB84840C0F20E21C0F20E20002C18BF012405
S315020DADC89DF8122018BF014645F60450C0F20E2012
S315020DADD8FFF701FF01208DF8390050208DF8484004
S315020DADE88DF8470016E0642040F20411C2F21821CC
S315020DADF8087002218DF839108DF846000AE08DF893
S315020DAE08399007E0032002E0042000E002208DF8C5
S315020DAE18440000BF0EA8FEF761FA00995C46086861
S315020DAE28454601300860BAF1010A7FF407AF0020E2
S315020DAE388DF8140041F25400C2F2182005AA4021D9
S315020DAE48FFF778F908E041F25400C2F218200DF125
S315020DAE583501FFF782F9062013B0BDE8F04F7047AA
S315020DAE6810B588B0002041F270018DF807008DF8F3
S315020DAE780600C2F218210120FEF7C8FEE8BB41F210
S315020DAE887000C2F218200DF10601FFF776FCA0BB81
S315020DAE989DF8060050B302AC2046FFF78DF842F234
S315020DAEA86400ADF8130000208DF81A0002208DF803
S315020DAEB817004FF48070ADF81B0001208DF81E00A7
S315020DAEC844F65610C4F2445002904F21CDF80D00A7
S315020DAED841F270008DF80C108DF81110C2F218207F
S315020DAEE80DF107022146FFF78EFA06E045F61F50C9
S315020DAEF8C0F20E2000F003F8022008B010BD83B090
S315020DAF0880B581B0844603A80EC003A800906A4690
S315020DAF1800206146FEF732FB01B0BDE8804003B062
S315020DAF287047D4D42DE9F0418EB078B3016869B370
S315020DAF38416859B3C189C82928D1018A702925D1F1
S315020DAF4890E8EC0009A9ECC10A9D2846FEF7BCFD5E
S315020DAF58E0B104460B9820B909982946FEF796FDE5
S315020DAF680B9001AD09A82946FEF7BCFD284603211B
S315020DAF7800F042F878B10546BDF8301045F21610C4
S315020DAF88C0F20E202A46FFF7BAFF00E00125284631
S315020DAF980EB0BDE8F08100260DF1240801AF00BF01
S315020DAFA8404631463A46FEF7DDFD3846022100F0A7
S315020DAFB823F898B9F043800702D1012006F0D2FD95
S315020DAFC80136B442ECD101AC09A82146FEF7F0FDD3
S315020DAFD82046032100F010F80546D8E70546BDF8C8
S315020DAFE8301044F68370C0F20E2032462346009581
S315020DAFF8FFF785FFCBE7D4D42DE9F04184B041F2B2
S315020DB008700504464E1E0DF10B083227C2F218259D
S315020DB0182846214620220123CDE90078FFF70DFCAB
S315020DB02818B9002EA6F10106F2D104B0BDE8F081D9
S315020DB03870B538B30446006820B3606810B3FEF7DE
S315020DB04843FDF8B102F005FC41F2880CC2F2182C48
S315020DB0589CF800E0BEF1000F0FD141F28C0294E884
S315020DB0686B00C2F218226BC201208CF8000041F265
S315020DB078A000C2F21820002101708EF0010402F020
S315020DB08813FC00E00024204670BD70B518B30446C3
S315020DB09802F0DFFB41F28800C2F2182041F2A00C41
S315020DB0A80178C2F2182C9CF8002081F0010141EAC0
S315020DB0B8020E5FEACE7209D141F28C02C2F2182251
S315020DB0C892E86B006BC401208CF800008EF0010427
S315020DB0D802F0EAFB00E0002404F0010070BDB0B5F1
S315020DB0E80C46054602F0B5FB41F28800C2F218205D
S315020DB0F8017801291FD141F2A001C2F218210A785D
S315020DB108CAB141F28C02C2F218229289954212D123
S315020DB11841F2A202C2F21822158041F2A402C2F22B
S315020DB1281822147041F2A502C2F2182201231370D5
S315020DB138002202700A70BDE8B04002F0B5BB70B5C8
S315020DB1484FF00004D8B10D46C9B1064602F081FB8F
S315020DB15841F2A500C2F218200478012C0DD141F254
S315020DB168A201C2F2182141F2A4020988C2F21822DA
S315020DB1781278318000212A70017002F095FB204663
S315020DB18870BD41F2A800C2F21820007808B100205D
S315020DB198704710B541F2A804C2F2182420461821A8
S315020DB1A807F0E5FD46F26431C0F20E2107C91268B1
S315020DB1B8904700B110BD01202070002010BD01215D
S315020DB1C8C5F2446188420CD00221C4F65021884248
S315020DB1D818BF704741F2A800C2F21820012141702A
S315020DB1E805E041F2A800C2F2182001210174BFF34D
S315020DB1F85F8F704788B12DE9F04F81B01C21044647
S315020DB20807F0B5FD41F2A807C2F2182738780128CA
S315020DB21805D1787C28B10220B1E0032070470120C0
S315020DB228ADE041F200000021C6F6FF70BFF35F8F55
S315020DB2383974016844F23042C5F24962914240F0CE
S315020DB2489D804168012940F099808168402940F026
S315020DB2589580C16847F2E072914240F08F800121D4
S315020DB26800224FF0020B002303EB430500EBC50545
S315020DB27855F8106F022E08D1BBF1020F03D06E6876
S315020DB288B61A012E01DB6A689B46C9074FF0010300
S315020DB2984FF00001E8D1BBF1020FBCD00122002309
S315020DB2A85B4508D003EB430300EBC30353F8106F5A
S315020DB2B8022E08BF1960D2074FF001034FF00002A4
S315020DB2C8EED10BEB4B0100EBC101D1F8189047F209
S315020DB2D8E17248F62303D1F820A00E6AA9EB020201
S315020DB2E8CFF6FF739A4201F1100543D31FFA8AF17D
S315020DB2F800293FD0B6F5803F3CD347F2E0710BFBF0
S315020DB308010000F1400803202860BFF35F8FBFF3E9
S315020DB3185F8F98F80000FF282CD198F80100D828DD
S315020DB32828D108EB090010F8021CFF2922D110F8C2
S315020DB338010CD9281ED1E86849460090404600F00E
S315020DB34877F90099814215D101202070C4F804803D
S315020DB3586968320CC4E90219E968A4F814A02161D6
S315020DB368E28284F818B0787487F812B06868786142
S315020DB378002004E000202860BFF35F8F032001B090
S315020DB388BDE8F08F41F2A802C2F21822537C01469B
S315020DB398012B4FF003001ED15369994218BF70470E
S315020DB3A8BFF35F8F907C012816D841F2100C00EB83
S315020DB3B84000C6F6FF7C5CF83030032B0CD10CEB43
S315020DB3C8C0035868814207D100201860BFF35F8F0A
S315020DB3D8A2F811005061704703207047E0B12DE9BC
S315020DB3E8F0412021044607F0C2FC41F2A807C2F239
S315020DB3F818273878012811D1B878012811D146F2C3
S315020DB4086430C0F20E20816800684A6879689047F0
S315020DB41820B30420BDE8F081032070470120BDE862
S315020DB428F0810026C6F6FE7602F013FA7D78002024
S315020DB438787002F039FABFF35F8F15B9F0680228F2
S315020DB44809D17069A060F069E060306A2061F06A1E
S315020DB458397AA08339B10220BDE8F0810020B8708F
S315020DB4687860BDE8F081316844F247520425C4F686
S315020DB4785022C4F65025012091424FF001011ED1EA
S315020DB4887168012918D1B168402917D1B1694029C6
S315020DB49814D1F16802292CD13169AA1E914209D11A
S315020DB4A8F169042906D3F16940F6C072C0F20102A8
S315020DB4B8914220D9052102E0022100E003212070E4
S315020DB4C8A161B16235610520BFF35F8FF06046F267
S315020DB4D86430C0F20E208168BFF35F8F00684A6838
S315020DB4E82946904710B10120B8707D600320BDE84A
S315020DB4F8F0810421E3E7F16AB1F57A7F4FF0030192
S315020DB508DDD8F160BFF35F8FF169BFF35F8F96F8F0
S315020DB5184000FF2824D196F84100D82820D170186A
S315020DB52890F83E20FF2A3AD1403010F8010CD9285E
S315020DB53835D106F14008404600F07AF82169606176
S315020DB54888422ED14FF4807121800121A170C4F851
S315020DB55804803972A1680020A061F960BDE8F08106
S315020DB56806204FF00108A4F80080A061B06235618B
S315020DB5780520BFF35F8FF06046F26430C0F20E20ED
S315020DB5888168BFF35F8F00684A682946904718B1EC
S315020DB59887F802807D603CE70020BDE8F081072030
S315020DB5A8DFE70820DDE7B0B541F2A805C2F2182596
S315020DB5B82B78012B1CBF0120B0BD0346287A012822
S315020DB5C84FF0030032D1EC68A34218BFB0BD032079
S315020DB5D8C4F65020441C0C20002A08BF0E22C6F6BB
S315020DB5E8FE7000291EBF0324C4F650240022C26130
S315020DB5F844604FF00501BFF35F8F18BF0421016048
S315020DB60846F26430C0F20E208168BFF35F8F006880
S315020DB6184A68214690474FF0000120B10120A870D3
S315020DB62804206C6000E000202972E960B0BDD4D414
S315020DB6384FF00002E8B1E1B1B0B548F2203E4FF045
S315020DB648FF324FF0000CCEF6B85E00BF10F80C3084
S315020DB6585A40082314468EEA5202E50708BF6208C5
S315020DB668013BF7D10CF1010C8C45EFD1D243BDE864
S315020DB678B04010467047B0B582B041F2C0030324FC
S315020DB688C2F21823012000210022009405F085FB41
S315020DB69841F20815C2F2182541F20C132860C2F2BE
S315020DB6A81823012000210022009405F076FB2A6852
S315020DB6B841F25411C2F218214FF0090408609AB3E7
S315020DB6C890B341F25810C2F21820FEF775F941F2FD
S315020DB6D85C30C2F218200021017041F25D30C2F2CF
S315020DB6E81820017041F26030C2F21820016041F251
S315020DB6F86430C2F21820016046F2BC61C0F20E2116
S315020DB70807C91268904740B1044645F22320C0F294
S315020DB7180E20214600F00BF806E044F20C70C0F23A
S315020DB7280E2000F004F80024204602B0B0BD83B006
S315020DB73880B581B0844603A80EC003A800906A4658
S315020DB74800206146FDF71AFF01B0BDE8804003B03F
S315020DB75870472DE9F04F83B0074600284FF00100D8
S315020DB76800F0D4800C46002900F0D0801646022A35
S315020DB778C0F0CC803978002900F0C880002598469B
S315020DB788257000F0C7F841F25D30C2F21820057037
S315020DB79841F2603941F25C30C2F21829C2F2182020
S315020DB7A8C9F80050057041F26830C2F218200560DA
S315020DB7B841F26430C2F21820056045F2EC50C0F22F
S315020DB7C80E203946FFF7B3FF384607F0E5FA81B280
S315020DB7D8384600F0CFF8002840F09880404600F031
S315020DB7E8EBF8002840F09280B8F1000F52D046F2DD
S315020DB7F89C60C0F20E2090F905004EF20013CEF2AF
S315020DB808000300F01F0101224FEA501B03F18000CD
S315020DB81802FA01F71D460190701E00264FF0000A26
S315020DB8280090D9F80000002842D141F25D30C2F2EB
S315020DB8381820007801283ED001980DF10B0140F829
S315020DB8482B7041F25810BFF34F8FC2F21820BFF377
S315020DB8586F8FFEF7D6F845F82B70B0B100991FFA1F
S315020DB8688AF0814238D99DF80B100AF1010A215442
S315020DB8781FFA8AF000212154204600F0EFF8A0BBEA
S315020DB888204600F013F918B138E000F033F9013605
S315020DB8984645C6D341F26830C2F21820026844F60C
S315020DB8A8B670C0F20E202146FFF741FF14202DE097
S315020DB8B8D9F800002AE041F26430C2F21820016874
S315020DB8C841F26830C2F21820026845F24320C0F2EE
S315020DB8D80E20FFF72CFF06E044F61510C0F20E20D7
S315020DB8E82146FFF724FFCB2010E044F23170C0F257
S315020DB8F80E202146FFF71BFF002007E045F64F6095
S315020DB908C0F20E202146FFF712FF012003B0BDE853
S315020DB918F08FD4D470B546F29C60C0F20E2090F921
S315020DB92805004EF2001600F01F0101224509CEF25E
S315020DB938000602FA01F406EB8500C0F8804041F2D2
S315020DB9485810BFF34F8FC2F21820BFF36F8FFEF751
S315020DB95839F846F8254041F25414C2F2182400BFAC
S315020DB9682068002808BF70BD002105F02FFD0128AB
S315020DB978F6D070BDF1B170B5054641F25C3041F2B3
S315020DB98808160C46C2F218200021C2F218260170BA
S315020DB9983068002105F01AFD0128F9D046F2BC607F
S315020DB9A8C0F20E20816800688B6829462246BDE8DA
S315020DB9B87040184701207047014600284FF00300D2
S315020DB9C826D041F20812C2F21822126802B341F2C7
S315020DB9D85C30C2F21820007838B980B5104605F0E9
S315020DB9E8F5FC0128BDE8804007D141F26030C2F26C
S315020DB9F81820006838B90020704741F26030C2F24B
S315020DBA081820006828B141F26030C2F21820006889
S315020DBA1870471420704770B546F29C61C0F20E212C
S315020DBA2891F905204EF20016014602F01F00012378
S315020DBA385509CEF2000603FA00F406EB8500C0F8A6
S315020DBA48804041F25810BFF34F8FC2F21820BFF350
S315020DBA586F8FFDF7D6FF46F8254070BD70B544F6D3
S315020DBA6882350446C0F20E2542F20146014600BF52
S315020DBA780846294607F0A3F9A0B1A04206D010F848
S315020DBA88011C0A39B1FA81F1490900E0012100299F
S315020DBA9800F10101ECD082780D2AE9D826FA02F2D4
S315020DBAA8D207E5D0002818BF012070BD70B545F242
S315020DBAB83D11C0F20E21044607F081F9B0B145F2E7
S315020DBAC83D150646C0F20E25A64203D016F8010C00
S315020DBAD80A2804D130460A2107F066F940B9701CC6
S315020DBAE8294607F06CF906460028EDD1002070BDEF
S315020DBAF8012070BD41F25410C2F21820006810B12F
S315020DBB08012105F063BC012006F02CB870B5ADF520
S315020DBB18007D0C46064668464FF40071154607F039
S315020DBB2826F98CB1207878B1694630464FF4007201
S315020DBB382B46FFF70EFE40B96846214607F03FF938
S315020DBB48B0FA80F0400900E001200DF5007D70BDC8
S315020DBB5810B5ADF5007D044668464FF4007107F041
S315020DBB6806F9CCB146F2CE10C0F20E2069464FF454
S315020DBB78007241F28833FFF7ECFD70B944F2B161F8
S315020DBB88C0F20E21684607F01AF928B1007AA0F11B
S315020DBB983301C9B2FD2903D201200DF5007D10BD71
S315020DBBA8303820700020F8E7022884BF012070473C
S315020DBBB846F2E021C0F20E2151F8200044F68231F8
S315020DBBC8C0F20E2141F28832FFF7A0BF80B545F6C5
S315020DBBD8485044F68231C0F20E20C0F20E2141F2CF
S315020DBBE88832FFF793FF00B180BD40F6B83005F0F5
S315020DBBF8B9FF44F2E25044F68231C0F20E20C0F289
S315020DBC080E2141F28832BDE88040FFF77FBF2DE94C
S315020DBC18F04FADF5437D0F46064683A84FF4807166
S315020DBC28144607F0A4F80DF10C0A50464FF40071AC
S315020DBC3807F09DF8002E4FF0010042D0002F40D09C
S315020DBC48002C3ED0304607F0A7F80546384607F0D1
S315020DBC58A3F80146A5F1210010F1200F4FF00100BE
S315020DBC682FD3403911F1380F2BD330462C2107F03B
S315020DBC789BF828BB30460D2107F096F800BB3046D7
S315020DBC880A2107F091F8D8B938462C2107F08CF815
S315020DBC98B0B938460D2107F087F888B938460A2112
S315020DBCA807F082F860B946F2DC12C0F20E2283A8BA
S315020DBCB84FF480713346009707F0B4F8FF2804D97C
S315020DBCC801200DF5437DBDE8F08F0746FFF722FEED
S315020DBCD841F25D3B41F2603541F25C31C2F2182BFD
S315020DBCE80020C2F21825C2F218218BF8000028602E
S315020DBCF8087041F26831C2F21821086041F26431C6
S315020DBD08C2F21821086045F6E210C0F20E2031463D
S315020DBD18FFF70DFD83A83946FFF72CFE0028D0D173
S315020DBD284FF47A70FFF748FE0028CAD10DF10B06BB
S315020DBD384FF0000800272868002841D19BF800001B
S315020DBD48E0BB3046FFF767FE50B3B7F5FF7F35D830
S315020DBD589DF80B0007F101090AF80700002044F6C1
S315020DBD683C110AF809005046C0F20E2107F027F8D1
S315020DBD7818B10A2107F018F888BB44F685315046E2
S315020DBD88C0F20E2107F01BF820B10A21074607F06B
S315020DBD980BF860BB5046FFF789FE4F4690B903E094
S315020DBDA8FFF7A8FE08F10108A045C4D345F60130F0
S315020DBDB8C0F20E20FFF7BBFC142082E7CB2080E7EA
S315020DBDC828687EE745F23D11C0F20E2103A806F05A
S315020DBDD8F6FF014645F66400C0F20E200CE045F268
S315020DBDE8E970C0F20E20FFF7A2FC002069E745F6BE
S315020DBDF85E60C0F20E20394600F001F860E72DE9C3
S315020DBE08F041A0B06D460E4604462846802106F03E
S315020DBE18AEFF44B33EB330460A2106F0C5FF08B15C
S315020DBE28871B03E0304606F0B7FF07464FF00008BA
S315020DBE3837B1F01910F8010C0D2808BF013F00E0C3
S315020DBE4800277F2F28BF7F27284631463A4606F018
S315020DBE5892FF46F22E00C0F20E2021462A4605F81A
S315020DBE680780FFF764FC20B0BDE8F08110B5A0B0DD
S315020DBE7804466846802106F07AFF04B30020207036
S315020DBE8845F60400C0F20E206946802241F2883337
S315020DBE98FFF75FFCA0B945F2F621C0F20E216846FE
S315020DBEA806F08DFF58B1C07900F0FE01302906D192
S315020DBEB83138B0FA80F040092070002000E00120E8
S315020DBEC820B010BDF0B581B0074600208DF80300ED
S315020DBED80DF1030015460E46FFF7C8FF044660BB73
S315020DBEE89DF8030008B1002427E0384631462A4654
S315020DBEF8FFF78DFE40B1044644F23540C0F20E20DE
S315020DBF082146FFF714FC18E005250DF1030400BFC1
S315020DBF182046FFF7ABFF18B99DF80300C0070FD1EE
S315020DBF284FF4FA7005F01EFE013DF1D144F6A45008
S315020DBF38C0F20E20FFF7FBFB1424204601B0F0BD1C
S315020DBF4845F65150C0F20E20FFF7F1FBCBE72DE96E
S315020DBF58F04FADF5237D0D46064683A8802114467E
S315020DBF6806F005FF03A84FF4007106F000FF4FF027
S315020DBF7801000EB304B3FDB13178E9B130462C2177
S315020DBF8806F012FFB8B930460D2106F00DFF90B92D
S315020DBF9830460A2106F008FF68B9FF2045F2D64257
S315020DBFA82070C0F20E2283A880213346009506F032
S315020DBFB839FF7F2804D901200DF5237DBDE8F08FC1
S315020DBFC883A803A94FF4007242F21073FFF7C1FB5F
S315020DBFD80028F1D103AD2846214600F050F840B1AC
S315020DBFE8217846F20600C0F20E20FFF7A0FB0020CC
S315020DBFF8E2E728464FF4007106F0B9FE41F2603BBE
S315020DC00841F25D36C2F2182BC2F218260DF10B0556
S315020DC01841F288374FF000084FF00009DBF80000AF
S315020DC02850BB307830BB2846FFF7F5FCA0B1B8F502
S315020DC038FF7F1FD89DF80B0003A908F1010A01F825
S315020DC0480800002001F80A000846214600F017F8F4
S315020DC0580028D046C4D103E0FFF74CFD09F10109CA
S315020DC068B945DBD344F64B40C0F20E20FFF75FFB12
S315020DC0781420A1E7CB209FE7DBF800009CE7B0B5BB
S315020DC0880C4645F67651C0F20E21054606F097FE88
S315020DC09808B1063008E044F66D41C0F20E21284675
S315020DC0A806F08DFE30B10A300078A0F13801C9B21A
S315020DC0B8F82901D20020B0BD303820700120B0BD5C
S315020DC0C810B5A0B06C462046802106F050FE45F606
S315020DC0D8C170C0F20E202146802241F28833FFF745
S315020DC0E838FB044638B145F60720C0F20E20214624
S315020DC0F8FFF71DFB05E045F2B460C0F20E20FFF70F
S315020DC10816FB204620B010BD80B582B0002100284E
S315020DC11801914CD00179072915DD082903D010297B
S315020DC12801D0202943D141F26030C2F218200121F3
S315020DC138016041F20810C2F218200068B0B101A9D7
S315020DC14804F0E7FF12E0022915D004292FD141F296
S315020DC1586831C2F218210A6801320A60017A41F27F
S315020DC1685810C2F21820FDF733FC10B341F25410E1
S315020DC178C2F2182009E041F25C30C2F21820012100
S315020DC188017041F20810C2F21820006810B101A917
S315020DC19804F0BFFF019850B14EF60450CEF20000DE
S315020DC1A84FF080510160BFF34F8FBFF36F8F02B00F
S315020DC1B880BD41F25D30C2F218200121017041F2B3
S315020DC1C86430C2F21820016801310160E2E72DE9F7
S315020DC1D8F04389B0044601A8471C894638461F21F3
S315020DC1E89846164606F0C3FD072C4FF003054DD8A3
S315020DC1F8B9F1000F4AD0002E48D0B8F1000F45D03C
S315020DC2081B2045F6B8328DF80400C0F20E223846C8
S315020DC2181F212346009606F005FE1E2801D917256D
S315020DC22834E0441CFFF776FB41F25D30C2F218206A
S315020DC2380021017041F26030C2F21820016041F20C
S315020DC2486830C2F21820016041F26430C2F2182039
S315020DC2580160A1B201A8FFF78DFB08B1054615E0ED
S315020DC2684046FFF7A9FB28B1054644F67460C0F2AD
S315020DC2780E2008E0404600F029F858B1054644F666
S315020DC288A760C0F20E202946FFF751FA284609B0D3
S315020DC298BDE8F08348463146FFF76CFB0028DDD131
S315020DC2A84046FFF789FB28B1054646F2EE10C0F265
S315020DC2B80E20E8E7404600F009F828B1054645F292
S315020DC2C8FE20C0F20E20DEE70025DFE72DE9F04F4E
S315020DC2D8A3B001904EF2001603A88021CEF20006F5
S315020DC2E806F045FD46F29C60C0F20E2090F9050057
S315020DC2F8012200F01F0141F2603841F25D3B02FA5C
S315020DC30801F9450906F180040027C2F21828C2F27E
S315020DC318182B4FF0000A00BFD8F80000002846D1A6
S315020DC3289BF80000012845D044F8259041F2581093
S315020DC338BFF34F8FC2F218200DF10B01BFF36F8FAA
S315020DC348FDF75FFB46F8259010B3BAF17F0F36D28B
S315020DC3589DF80B00BB4603AFA84607F80A000AF17B
S315020DC368010A0025384607F80A50FFF777FBB0BBD6
S315020DC3783846FFF79BFB45465F4641F2603841F268
S315020DC3885D3BC2F21828C2F2182B00BB03E000BFB0
S315020DC398FFF7B0FB013701988742BDD345F6C53085
S315020DC3A8C0F20E2003A9FFF7C2F9142517E0D8F833
S315020DC3B8005014E044F67840C0F20E2003E044F62D
S315020DC3C84510C0F20E20FFF7B2F9CB2507E045F668
S315020DC3D88600C0F20E2003A9FFF7A9F90125284602
S315020DC3E823B0BDE8F08FD4D482B000F054F840B92A
S315020DC3F845F68160C0F20E2000F03BF8002005F0EC
S315020DC408E0FB00F0BDF8FEF786FB98B145F6BD6474
S315020DC4180146C0F20E2400BF204641F2883200F0D2
S315020DC42828F841F2883005F09DFBFEF774FB0146AC
S315020DC4380028F1D145F62530C0F20E2000F019F884
S315020DC44844F61D25002601ACC0F20E251420FDF773
S315020DC4583DFD20460196FEF7D1FB0028F6D0014692
S315020DC4680528F3D0284600F004F80A2005F07AFBD1
S315020DC478ECE783B080B581B0844603A80EC003A845
S315020DC48800906A4600206146FDF778F801B0BDE8CE
S315020DC498804003B070472DE9F04182B001F0D9F919
S315020DC4A841F26C38C2F21828D8F8000008B10120FA
S315020DC4B80AE041F27030C2F2182004F054FAC8F8B4
S315020DC4C80000002818BF012041F28837C2F218274A
S315020DC4D83C68B0B1ACB941F28C364CF25F5544F6B4
S315020DC4E88E30C2F21826C0F20D25C0F20E2047F282
S315020DC4F8305100220023CDE9005606F02FFA0446E4
S315020DC508386041F2B436C2F21826357801F0CCF904
S315020DC51884B17DB93D6805F071FD024600242846B1
S315020DC528012100230094012506F074FA01280ED183
S315020DC538357000E03578D8F800003968002818BF3C
S315020DC5480120002918BF0121084000EA05042046EA
S315020DC55802B0BDE8F08110B541F26C34C2F218246E
S315020DC568206860B1002104F040FBC00707D100F036
S315020DC5784FF820684121BDE8104004F025BA10BDD8
S315020DC58841F26C30C2F21820006860B180B582B0F3
S315020DC5984FF0FF3C012100220123CDF800C004F023
S315020DC5A871FA02B080BD704741F26C30C2F21820A2
S315020DC5B80068002814BF4121704704F005BA10B56A
S315020DC5C882B041F26C34C2F218242168B9B1C0B1F5
S315020DC5D841F28830C2F21820006848B14FF0000CBB
S315020DC5E8032100220023CDF800C006F013FA2168B4
S315020DC5F80846072102B0BDE8104004F0E5B902B0BD
S315020DC60810BD0846062102B0BDE8104004F0EDBA89
S315020DC61883B080B581B003A80EC003A844F23A715F
S315020DC6280090C0F20E216A460020FCF7A7FF01B062
S315020DC638BDE8804003B07047022818BF704741F61F
S315020DC648800046F22441C2F21820C0F20E2102F0F1
S315020DC658DBBA80B582B000210191D0B3817AC907C0
S315020DC66837D0406800F07F41B1F1274F19D100F458
S315020DC6787F01B1F5003F14D8010C81EA1021414022
S315020DC688C9B2FD290DD141F2B831C2F2182108609D
S315020DC69841F2BC30C2F218200121BFF35F8F01703F
S315020DC6A801E0FEF78CFD41F60810C2F2182000686B
S315020DC6B801AA002105F04BFF019850B14EF6045020
S315020DC6C8CEF200004FF080510160BFF34F8FBFF3DA
S315020DC6D86F8F02B080BDD4D496B0FFF7DCFE40B999
S315020DC6E845F63320C0F20E2000F07BF9002005F046
S315020DC6F868FAFBF73DFD40B944F66910C0F20E2003
S315020DC70800F06FF9002005F05CFAFEF73AFD48B124
S315020DC718014645F2EC40C0F20E2000F062F9002007
S315020DC72805F04FFA46F21A20002140F6C072C0F201
S315020DC7380E20C6F6FE71C0F2010200F052F9FFF79D
S315020DC7481FFF41F2BC374FF00008C2F218270DF150
S315020DC758380B4FF0F01906AC4FF0000A01F079F8D4
S315020DC7683878D8B341F2B830C2F21820056887F87E
S315020DC778008001F099F805F07F40B0F1274F2FD1CF
S315020DC78805F47F00B0F5003F2AD8280A290C80EA5D
S315020DC79805025140C9B2FD2922D102215FFA80F95B
S315020DC7A8C5F307460E91CDF83C9005F027FC022EEF
S315020DC7B81090CDF84880CDF8448040F0B18041F212
S315020DC7C8BD31C2F218210878002800F0B98003207D
S315020DC7D88DF844005A200225AFE000BF01F064F837
S315020DC7E85846FEF7FBFD9DF83A10012926D10FAAE8
S315020DC7F807CA139BCDE90602BDF85400CDE9081305
S315020DC808ADF82C002046CDF82890ADF82E80FBF712
S315020DC818CFFCC8BB109800210B22FEF7C4FE109957
S315020DC828064645F66820C0F20E2000F0DAF8042E08
S315020DC8382AD144F6A030C0F20E2018E006469DF81D
S315020DC8483800012816D19DF8390050B91099DDE93D
S315020DC8581235149A46F24820C0F20E20009500F0C1
S315020DC868C0F8042E10D145F67D50C0F20E2000F008
S315020DC878B8F809E016F0FD0F06D044F6CA50C0F214
S315020DC8880E20314600F0ADF80DF136000DF13501E9
S315020DC898ADF836808DF83580FEF751FC60B1BDF8DE
S315020DC8A836001FFA8AF1884206D19DF83510504690
S315020DC8B8FEF768FD03E000BFBAF1000F2AD1204644
S315020DC8C8FEF798FC9DF81810012917D107AB0FCB67
S315020DC8D80DF1040C8CE80D000B98ADF81010CDF87F
S315020DC8E8120001A8ADF81680FEF7A2FBDDF820A00E
S315020DC8F880B950460021FEF745FD09E0014610F0C4
S315020DC908FD0F05D046F23500C0F20E2000F069F88B
S315020DC9184FF0000A00200121052205F0C0FD1DE792
S315020DC92841F2BD30C2F21820012E354680F800803C
S315020DC93809D101255A208DF844508DF8460002E09A
S315020DC9480120087000255846FCF7C8FCD8B340F2FA
S315020DC9580510C2F218200078B04206D140F2061030
S315020DC968C2F218200078854233D045F21553C0F22B
S315020DC9780E23022E1A4644F2DF40C0F20E2008BFDD
S315020DC9880246012E45F20D51C0F20E2108BF0A4686
S315020DC998022D08BF03469DF8464045F2F350012D78
S315020DC9A808BF0B46C0F20E204946009400F019F84E
S315020DC9B840F20510C2F21820067040F20610C2F2B5
S315020DC9C81820057005E046F29520C0F20E2000F0FB
S315020DC9D808F841F2BC374FF0F01906ACC2F2182727
S315020DC9E8FEE683B080B581B0844603A80EC003A8BF
S315020DC9F800906A4600206146FCF7C0FD01B0BDE80D
S315020DCA08804003B07047D4D4A2B0FFF744FD40B9B5
S315020DCA1844F6D370C0F20E2000F06AF9002005F034
S315020DCA28D0F8FCF720FC50B9FCF7F4FB45F651306B
S315020DCA38C0F20E2000F05CF9002005F0C2F81AA823
S315020DCA48FBF730FD50B9FCF7E5FB46F25400C0F290
S315020DCA580E2000F04DF9002005F0B3F81AA8FCF7E0
S315020DCA68DBF880B10446FCF7D5FB052C08BF00F0B0
S315020DCA7851F945F2BC30C0F20E20214600F038F9C4
S315020DCA88002005F09EF845F6AB00C0F20E2000F028
S315020DCA982FF9FFF775FD45F2F230C0F20E2000F0C0
S315020DCAA827F901205021FCF769FB60B10446FCF712
S315020DCAB8B1FB45F6E860C0F20E20214600F018F9E2
S315020DCAC8002005F07EF845F6D270C0F20E205021F0
S315020DCAD800F00EF945F68B30C0F20E2000F008F97B
S315020DCAE844F69910C0F20E2000F002F905F086FA06
S315020DCAF89FED7D8A9FED7D9A4FF0000A0DF1540B3D
S315020DCB0807AF14AE00214FF0000814900691CDE937
S315020DCB18040000BF5846FCF7FDFB002858D03446E2
S315020DCB283E469DF855700FB9069818BB584600F043
S315020DCB3847F9F8B10546504548D00CA8FCF782FBD3
S315020DCB489DF860009DF854209DF855309DF86210A9
S315020DCB589DF833709DF834E08DE8830045F21A503E
S315020DCB68C0F20E202946CDF80CE000F0C1F8AA460F
S315020DCB782CE000BFBAF1000F05D045F24310C0F202
S315020DCB880E2000F0B5F8042F1ED19DF86110374618
S315020DCB980691012944F63B21C0F20E2109D10CA8B2
S315020DCBA8FCF7CFFB05F02AFA44F2E941C0F20E2151
S315020DCBB8049044F2BA60C0F20E2000F099F84FF0D4
S315020DCBC8000A4FF0000802E04FF0000A37462646E3
S315020DCBD83846FCF7B6FB68B1069801280AD10998BA
S315020DCBE80499401A06D4384600F0EAF8E8B1054623
S315020DCBF8504564D15FEAC87024D005F0FFF905994E
S315020DCC08401AB0F5FA7F0DD9002000214FF0000821
S315020DCC18FCF702FA45F60F00C0F20E2000F068F88E
S315020DCC2812E000BF4FF001080EE005F0E7F99DF896
S315020DCC381D100590052905D00029DED19DF828007D
S315020DCC480028DAD14FF00008B0EE480AFCF74CF886
S315020DCC5880B381460CA8FCF7F5FAB9F1050F08BFA2
S315020DCC6800F058F89DED100A9DF834009DED111A45
S315020DCC789DED122A9DF84C209DF8333020EE090AB7
S315020DCC8821EE091A22EE092A009045F2D260BDEE6E
S315020DCC98C22ABDEEC11ABDEEC00AC0F20E20494621
S315020DCCA88DED010A8DED021A8DED032A00F020F89D
S315020DCCB8FCF7B0FA30460A2104F0C8FD2AE79DF8BA
S315020DCCC828209DF82A3045F63510C0F20E20294641
S315020DCCD800F00EF85FEAC87001D0AA468DE74FF04C
S315020DCCE80008AA46B0E700BF0AD7233C00007A44DB
S315020DCCF883B080B581B0844603A80EC003A8009000
S315020DCD086A4600206146FCF739FC01B0BDE8804051
S315020DCD1803B070472DE9F0438DB007AC2046FBF7FB
S315020DCD280CFD002849D041F2BE38C2F2182898F8EF
S315020DCD3800009DF81C2041F2C0390128C2F21829BB
S315020DCD481AD199F80000824216D10898D9F804101A
S315020DCD58884211D19DF8240099F8081088420BD102
S315020DCD689DF8250099F80910884205D19DF83200DB
S315020DCD7899F81610884219D09DF832000A99089B1F
S315020DCD889DF824509DF825709DF830609DF831C0A8
S315020DCD98DDF82CE08DE8A10045F21540C0F20E2013
S315020DCDA8CDE9036CCDF814E0FFF7A2FF94E8CF00A6
S315020DCDB889E8CF00012088F800000DB0BDE8F083A0
S315020DCDC880B5417805292DD8DFE801F00321121720
S315020DCDD80D280378027B817B1046022B24D1BDE8F0
S315020DCDE88040FCF719B9407BBDE88040FCF7FCB9D9
S315020DCDF8807BBDE88040FCF7A1B9807BFCF79EF9E4
S315020DCE08002818BF80BDBDE88040FCF777B9027CC3
S315020DCE18C17B1046BDE88040FCF7B0B9FCF7FAF9BC
S315020DCE28002080BD012080BDBDE88040FCF788B892
S315020DCE3886B0FFF730FB40B944F6DB30C0F20E2060
S315020DCE4800F044F8002004F0BCFEFFF799FBFEF74C
S315020DCE5807F898B144F2F3440146C0F20E2400BF16
S315020DCE68204641F2883200F031F841F2883004F05A
S315020DCE7879FEFDF7F5FF01460028F1D144F6DB10E0
S315020DCE88C0F20E2000F022F844F2E75501ACC0F2CA
S315020DCE980E2500BF2046FEF7F8F898B12046FEF794
S315020DCEA841F80646BDF81000B6FA86F14909FEF7AD
S315020DCEB816F9002EEED0BDF810102846324600F0AF
S315020DCEC805F8E7E7012004F04DFEE3E783B080B5E8
S315020DCED881B0844603A80EC003A800906A460020B6
S315020DCEE86146FCF74BFB01B0BDE8804003B07047C5
S315020DCEF88EB0FF208DF81F00FFF7CDFA40B945F227
S315020DCF086C10C0F20E2000F0E5F9002004F059FE6F
S315020DCF18FEF7B1FB58B1014646F29A00C0F20E2051
S315020DCF2800F0D8F9FFF740FB002004F04AFE44F65C
S315020DCF386A00C0F20E2040F6B83100F0CBF940F681
S315020DCF48B83004F00FFE45F66810C0F20E2000F058
S315020DCF58C1F941F2D83444F2E25544F6AB4844F2EB
S315020DCF685A47C2F21824C0F20E25C0F20E28C0F294
S315020DCF780E2700BF20464FF4007105F0F8FE28462D
S315020DCF8821464FF4007240F6B833FEF7E2FB68B954
S315020DCF9820464FF4007105F0EAFE404621464FF44D
S315020DCFA8007240F6B833FEF7D4FB88B106460C205C
S315020DCFB800F0A2F90020FFF702FB3846314641F28E
S315020DCFC8883200F087F941F2883004F0CBFDD1E7BB
S315020DCFD844F6B740C0F20E2000F07CF944F642241E
S315020DCFE845F6181644F2C67744F6EC5B44F6A205E6
S315020DCFF84FF0FF0A0DF12009C0F20E24C0F20E26DB
S315020DD008C0F20E27C0F20E2BC0F20E2548468DF839
S315020DD0181FA0FEF79DFDA8B180462846414600F0A1
S315020DD02859F90C2000F068F90020FFF7C8FA58469E
S315020DD038414641F2883200F04DF941F2883004F04A
S315020DD04891FDE3E79DF82010D9B145F62040C0F2CF
S315020DD0580E2000F03FF90020FEF7A6FD0028DBD1D1
S315020DD068FEF7B4FD0028D7D14846FEF771FD002814
S315020DD078D2D19DF82000002800F0F4804FF0010867
S315020DD088CBE7204600F026F9304639464EF66022A1
S315020DD098FEF718FF41F2D855C2F2182580462846E2
S315020DD0A84FF4007105F063FE44F29540C0F20E206E
S315020DD0B829464FF4007241F28833FEF74AFBB8F15E
S315020DD0C8000F054609D035B145F23C00C0F20E20D7
S315020DD0D8294600F0FFF80C2006E055B10120012D76
S315020DD0E898BF05460C20A84644F6A205C0F20E25A1
S315020DD0F898E741F2D85045F27601C2F21820C0F2ED
S315020DD1080E2105F05CFE0028E8D0FEF7D9FF30B1F6
S315020DD118014645F6EE30C0F20E2000F0DBF845F674
S315020DD1288C15C0F20E25284641F288310DF11F02E3
S315020DD138FEF70DFF10B180460D20D5E79DF81F307D
S315020DD14845F21500C0F20E20294641F2883200F04A
S315020DD158C1F80120FFF733FA01AD00BF28464FF09B
S315020DD168FF31FBF743F80028F8D00198002800F0A4
S315020DD178AC8002980322A0F10111CFF6FF7244F694
S315020DD188A2059142C0F20E25C0F09D80BDF8181079
S315020DD198B1F57A7F00F2978044F65222C4F25072A4
S315020DD1A80892039A41F601030993BDF8143012BA8F
S315020DD1B80A921ABABDF81630120CADF82C201A0AB4
S315020DD1C8B0469DF81F608DF82E20020C8DF82F3073
S315020DD1D800238DF83120020A8DF83300080A8DF8DE
S315020DD1E830308DF832208DF834008DF83510ADF8C3
S315020DD1F8363030464946182241F28833FEF7E7FFA4
S315020DD208002864D1029AAAB1002500BF0198541BC1
S315020DD218B4F5806F28BF4FF4806441193046224613
S315020DD22841F28833FEF7D3FF08BB029A254495428D
S315020DD23801D2EBE70022DDE90313BDF8187044F2BB
S315020DD2488970C0F20E20009700F044F801AD284609
S315020DD2580121002200F067F844F64224C0F20E249A
S315020DD26846467BE745F65340C0F20E200AE70746C7
S315020DD278039945F22860C0F20E202A463B4600F075
S315020DD28829F844F64224C0F20E24464644F6A2056F
S315020DD298C0F20E25039945F6EB00C0F20E203A466A
S315020DD2A800F018F801A800210E2200F03CF8FEF74E
S315020DD2B807FF00208DF81FA0FFF781F944F2C67704
S315020DD2C8C0F20E27A2E60327E4E70327DEE70746A1
S315020DD2D84646DFE783B080B581B0844603A80EC003
S315020DD2E803A800906A4600206146FCF747F901B08B
S315020DD2F8BDE8804003B0704710B586B0044668464F
S315020DD3080021FAF773FF60B1029944F62A60C0F25A
S315020DD3180E202246FFF7DEFF68460021224600F060
S315020DD32802F806B010BD10B504468068FEF73BF943
S315020DD33858B10246042809D1A16845F27120C0F2F6
S315020DD3480E20BDE81040FFF7C5BF10BDA16845F216
S315020DD3588A00C0F20E20BDE81040FFF7BBBF80B5AC
S315020DD36884B041F61410C2F21820016841F6080C71
S315020DD3780131016042F26840C2F218200621CDE958
S315020DD38800104DF2D13044F6702146F22C33C2F21A
S315020DD398182CC0F20D20C0F20E21C0F20E234FF446
S315020DD3A80072CDF808C004F02DF941F66C01C2F2EF
S315020DD3B81821086008B104B080BD0020002104B010
S315020DD3C8BDE8804000F04AB810B5044600F048F8AA
S315020DD3D82046BDE81040FFF707B87047FFF7FDBFB7
S315020DD3E880B584B041F61410C2F21820016841F6D0
S315020DD3F8A40C0131016042F66840C2F218200521DB
S315020DD408CDE900104DF2534044F6154146F27033FC
S315020DD418C2F2182CC0F20D20C0F20E21C0F20E2354
S315020DD4284FF40072CDF808C004F0ECF841F6081175
S315020DD438C2F21821086008B104B080BD002000218F
S315020DD44804B0BDE8804000F009B810B5044600F0F6
S315020DD45807F82046BDE81040FFF73EB900BE7047F3
S315020DD468B0B541F60C14C2F2182420684FF0FF31FC
S315020DD47803F0ACFF012803D020680021FFF7EEFF69
S315020DD48841F61010C2F21820017801B1B0BD012182
S315020DD4980170FFF7A3FF41F61415C2F2182500BF56
S315020DD4A8286801382860F1D020680021002200235F
S315020DD4B803F0E0FC0128F3D020680021FFF7CEFF28
S315020DD4C8EEE780B541F61410C2F21820002101606C
S315020DD4D841F61010C2F2182041F618120170C2F266
S315020DD4E818224FF48070012103F0A3FC41F60C11AA
S315020DD4F8C2F21821086018B900200021FFF7AEFF05
